{
  "_format": "hh-sol-artifact-1",
  "contractName": "AavegotchiGameFacet",
  "sourceName": "contracts/Aavegotchi/facets/AavegotchiGameFacet.sol",
  "abi": [
    {
      "anonymous": false,
      "inputs": [
        {
          "indexed": true,
          "internalType": "uint256",
          "name": "_tokenId",
          "type": "uint256"
        }
      ],
      "name": "ClaimAavegotchi",
      "type": "event"
    },
    {
      "anonymous": false,
      "inputs": [
        {
          "indexed": true,
          "internalType": "uint256",
          "name": "_tokenId",
          "type": "uint256"
        },
        {
          "indexed": false,
          "internalType": "uint256",
          "name": "_time",
          "type": "uint256"
        }
      ],
      "name": "LockAavegotchi",
      "type": "event"
    },
    {
      "anonymous": false,
      "inputs": [
        {
          "indexed": true,
          "internalType": "uint256",
          "name": "_tokenId",
          "type": "uint256"
        },
        {
          "indexed": false,
          "internalType": "string",
          "name": "_oldName",
          "type": "string"
        },
        {
          "indexed": false,
          "internalType": "string",
          "name": "_newName",
          "type": "string"
        }
      ],
      "name": "SetAavegotchiName",
      "type": "event"
    },
    {
      "anonymous": false,
      "inputs": [
        {
          "indexed": true,
          "internalType": "uint256",
          "name": "_batchId",
          "type": "uint256"
        },
        {
          "indexed": false,
          "internalType": "uint256[]",
          "name": "tokenIds",
          "type": "uint256[]"
        }
      ],
      "name": "SetBatchId",
      "type": "event"
    },
    {
      "anonymous": false,
      "inputs": [
        {
          "indexed": true,
          "internalType": "uint256",
          "name": "_tokenId",
          "type": "uint256"
        },
        {
          "indexed": false,
          "internalType": "int16[4]",
          "name": "_values",
          "type": "int16[4]"
        }
      ],
      "name": "SpendSkillpoints",
      "type": "event"
    },
    {
      "anonymous": false,
      "inputs": [
        {
          "indexed": true,
          "internalType": "uint256",
          "name": "_tokenId",
          "type": "uint256"
        },
        {
          "indexed": false,
          "internalType": "uint256",
          "name": "_time",
          "type": "uint256"
        }
      ],
      "name": "UnLockAavegotchi",
      "type": "event"
    },
    {
      "inputs": [
        {
          "internalType": "uint256",
          "name": "_experience",
          "type": "uint256"
        }
      ],
      "name": "aavegotchiLevel",
      "outputs": [
        {
          "internalType": "uint256",
          "name": "level_",
          "type": "uint256"
        }
      ],
      "stateMutability": "pure",
      "type": "function"
    },
    {
      "inputs": [
        {
          "internalType": "string",
          "name": "_name",
          "type": "string"
        }
      ],
      "name": "aavegotchiNameAvailable",
      "outputs": [
        {
          "internalType": "bool",
          "name": "available_",
          "type": "bool"
        }
      ],
      "stateMutability": "view",
      "type": "function"
    },
    {
      "inputs": [
        {
          "internalType": "uint256",
          "name": "_tokenId",
          "type": "uint256"
        }
      ],
      "name": "availableSkillPoints",
      "outputs": [
        {
          "internalType": "uint256",
          "name": "",
          "type": "uint256"
        }
      ],
      "stateMutability": "view",
      "type": "function"
    },
    {
      "inputs": [
        {
          "internalType": "int16[6]",
          "name": "_numericTraits",
          "type": "int16[6]"
        }
      ],
      "name": "baseRarityScore",
      "outputs": [
        {
          "internalType": "uint256",
          "name": "rarityScore_",
          "type": "uint256"
        }
      ],
      "stateMutability": "pure",
      "type": "function"
    },
    {
      "inputs": [
        {
          "internalType": "uint256",
          "name": "_tokenId",
          "type": "uint256"
        },
        {
          "internalType": "uint256",
          "name": "_option",
          "type": "uint256"
        },
        {
          "internalType": "uint256",
          "name": "_stakeAmount",
          "type": "uint256"
        }
      ],
      "name": "claimAavegotchi",
      "outputs": [],
      "stateMutability": "nonpayable",
      "type": "function"
    },
    {
      "inputs": [],
      "name": "currentHaunt",
      "outputs": [
        {
          "internalType": "uint256",
          "name": "hauntId_",
          "type": "uint256"
        },
        {
          "components": [
            {
              "internalType": "uint256",
              "name": "hauntMaxSize",
              "type": "uint256"
            },
            {
              "internalType": "uint256",
              "name": "portalPrice",
              "type": "uint256"
            },
            {
              "internalType": "bytes3",
              "name": "bodyColor",
              "type": "bytes3"
            },
            {
              "internalType": "uint24",
              "name": "totalCount",
              "type": "uint24"
            }
          ],
          "internalType": "struct Haunt",
          "name": "haunt_",
          "type": "tuple"
        }
      ],
      "stateMutability": "view",
      "type": "function"
    },
    {
      "inputs": [
        {
          "internalType": "uint256",
          "name": "_tokenId",
          "type": "uint256"
        }
      ],
      "name": "getNumericTraits",
      "outputs": [
        {
          "internalType": "int16[6]",
          "name": "numericTraits_",
          "type": "int16[6]"
        }
      ],
      "stateMutability": "view",
      "type": "function"
    },
    {
      "inputs": [],
      "name": "ghstAddress",
      "outputs": [
        {
          "internalType": "address",
          "name": "contract_",
          "type": "address"
        }
      ],
      "stateMutability": "view",
      "type": "function"
    },
    {
      "inputs": [
        {
          "internalType": "uint256[]",
          "name": "_tokenIds",
          "type": "uint256[]"
        }
      ],
      "name": "interact",
      "outputs": [],
      "stateMutability": "nonpayable",
      "type": "function"
    },
    {
      "inputs": [
        {
          "internalType": "uint256",
          "name": "_tokenId",
          "type": "uint256"
        }
      ],
      "name": "kinship",
      "outputs": [
        {
          "internalType": "uint256",
          "name": "score_",
          "type": "uint256"
        }
      ],
      "stateMutability": "view",
      "type": "function"
    },
    {
      "inputs": [
        {
          "internalType": "uint256",
          "name": "_tokenId",
          "type": "uint256"
        }
      ],
      "name": "modifiedTraitsAndRarityScore",
      "outputs": [
        {
          "internalType": "int16[6]",
          "name": "numericTraits_",
          "type": "int16[6]"
        },
        {
          "internalType": "uint256",
          "name": "rarityScore_",
          "type": "uint256"
        }
      ],
      "stateMutability": "view",
      "type": "function"
    },
    {
      "inputs": [
        {
          "internalType": "uint256",
          "name": "_tokenId",
          "type": "uint256"
        }
      ],
      "name": "portalAavegotchiTraits",
      "outputs": [
        {
          "components": [
            {
              "internalType": "uint256",
              "name": "randomNumber",
              "type": "uint256"
            },
            {
              "internalType": "int16[6]",
              "name": "numericTraits",
              "type": "int16[6]"
            },
            {
              "internalType": "address",
              "name": "collateralType",
              "type": "address"
            },
            {
              "internalType": "uint256",
              "name": "minimumStake",
              "type": "uint256"
            }
          ],
          "internalType": "struct PortalAavegotchiTraitsIO[10]",
          "name": "portalAavegotchiTraits_",
          "type": "tuple[10]"
        }
      ],
      "stateMutability": "view",
      "type": "function"
    },
    {
      "inputs": [
        {
          "internalType": "int16[6]",
          "name": "_numericTraits",
          "type": "int16[6]"
        }
      ],
      "name": "rarityMultiplier",
      "outputs": [
        {
          "internalType": "uint256",
          "name": "multiplier_",
          "type": "uint256"
        }
      ],
      "stateMutability": "pure",
      "type": "function"
    },
    {
      "inputs": [
        {
          "internalType": "uint256",
          "name": "_tokenId",
          "type": "uint256"
        }
      ],
      "name": "realmInteract",
      "outputs": [],
      "stateMutability": "nonpayable",
      "type": "function"
    },
    {
      "inputs": [],
      "name": "revenueShares",
      "outputs": [
        {
          "components": [
            {
              "internalType": "address",
              "name": "burnAddress",
              "type": "address"
            },
            {
              "internalType": "address",
              "name": "daoAddress",
              "type": "address"
            },
            {
              "internalType": "address",
              "name": "rarityFarming",
              "type": "address"
            },
            {
              "internalType": "address",
              "name": "pixelCraft",
              "type": "address"
            }
          ],
          "internalType": "struct AavegotchiGameFacet.RevenueSharesIO",
          "name": "",
          "type": "tuple"
        }
      ],
      "stateMutability": "view",
      "type": "function"
    },
    {
      "inputs": [
        {
          "internalType": "uint256",
          "name": "_tokenId",
          "type": "uint256"
        },
        {
          "internalType": "string",
          "name": "_name",
          "type": "string"
        }
      ],
      "name": "setAavegotchiName",
      "outputs": [],
      "stateMutability": "nonpayable",
      "type": "function"
    },
    {
      "inputs": [
        {
          "internalType": "address",
          "name": "_realm",
          "type": "address"
        }
      ],
      "name": "setRealmAddress",
      "outputs": [],
      "stateMutability": "nonpayable",
      "type": "function"
    },
    {
      "inputs": [
        {
          "internalType": "uint256",
          "name": "_tokenId",
          "type": "uint256"
        },
        {
          "internalType": "int16[4]",
          "name": "_values",
          "type": "int16[4]"
        }
      ],
      "name": "spendSkillPoints",
      "outputs": [],
      "stateMutability": "nonpayable",
      "type": "function"
    },
    {
      "inputs": [
        {
          "internalType": "address",
          "name": "_owner",
          "type": "address"
        },
        {
          "internalType": "uint256",
          "name": "_count",
          "type": "uint256"
        },
        {
          "internalType": "uint256",
          "name": "_skip",
          "type": "uint256"
        },
        {
          "internalType": "bool",
          "name": "all",
          "type": "bool"
        }
      ],
      "name": "tokenIdsWithKinship",
      "outputs": [
        {
          "components": [
            {
              "internalType": "uint256",
              "name": "tokenId",
              "type": "uint256"
            },
            {
              "internalType": "uint256",
              "name": "kinship",
              "type": "uint256"
            },
            {
              "internalType": "uint256",
              "name": "lastInteracted",
              "type": "uint256"
            }
          ],
          "internalType": "struct AavegotchiGameFacet.TokenIdsWithKinship[]",
          "name": "tokenIdsWithKinship_",
          "type": "tuple[]"
        }
      ],
      "stateMutability": "view",
      "type": "function"
    },
    {
      "inputs": [
        {
          "internalType": "uint256",
          "name": "_experience",
          "type": "uint256"
        }
      ],
      "name": "xpUntilNextLevel",
      "outputs": [
        {
          "internalType": "uint256",
          "name": "requiredXp_",
          "type": "uint256"
        }
      ],
      "stateMutability": "pure",
      "type": "function"
    }
  ],
  "bytecode": "0x608060405234801561001057600080fd5b50614534806100206000396000f3fe60806040523480156200001157600080fd5b5060043610620001485760003560e01c8063a4c366fe11620000bd578063f5b91852116200007b578063f5b9185214620002f2578063f6f518c61462000309578063f98dc1e01462000322578063fa5f52951462000339578063fffebb41146200035f5762000148565b8063a4c366fe146200026e578063a70135c21462000285578063c889dfc4146200029e578063ea7dac7f14620002b5578063f1567e2414620002cc5762000148565b80634984b01c116200010b5780634984b01c14620001fb57806358f514aa146200021257806382401ccd1462000229578063874ca04214620002405780639abf6c5114620002575762000148565b806309cbaf06146200014d5780631436d4b1146200017c5780631c2500ff14620001a257806322c6751914620001bc57806328e8c19314620001d5575b600080fd5b620001646200015e36600462002e59565b62000386565b60405162000173919062003b12565b60405180910390f35b620001936200018d36600462002e0d565b62000399565b60405162000173919062003266565b620001ac6200066c565b6040516200017392919062003b1b565b620001d3620001cd36600462002eed565b620006e3565b005b620001ec620001e636600462002fe1565b62000947565b60405162000173919062003203565b620001d36200020c3660046200307b565b6200095c565b620001d36200022336600462002fe1565b62000c32565b620001646200023a36600462002fe1565b62000c6e565b620001d36200025136600462002df0565b62000c7b565b620001646200026836600462002e59565b62000ca7565b620001646200027f36600462002fe1565b62000cb4565b6200028f62000d10565b6040516200017391906200315e565b620001d3620002af36600462002ffa565b62000d1f565b620001d3620002c63660046200302d565b62000f67565b620002e3620002dd36600462002f9d565b6200123f565b604051620001739190620032c1565b620001646200030336600462002fe1565b620012af565b62000313620012bc565b60405162000173919062003ad7565b620001646200033336600462002fe1565b62001303565b620003506200034a36600462002fe1565b62001310565b604051620001739190620031d6565b620003766200037036600462002fe1565b62001325565b60405162000173929190620031e6565b6000620003938262001346565b92915050565b6001600160a01b0384166000908152600e602090815260408083208054825181850281018501909352808352606094938301828280156200042657602002820191906000526020600020906000905b82829054906101000a900463ffffffff1663ffffffff1681526020019060040190602082600301049283019260010382029150808411620003e85790505b505050505090506000836200043c57856200043f565b81515b90508067ffffffffffffffff8111156200046957634e487b7160e01b600052604160045260246000fd5b604051908082528060200260200182016040528015620004a657816020015b6200049262002b76565b815260200190600190039081620004885790505b50925083620004e7578151620004bd878762003bee565b1115620004e75760405162461bcd60e51b8152600401620004de90620038c3565b60405180910390fd5b60005b818110156200066157600062000501878362003bee565b905060008482815181106200052657634e487b7160e01b600052603260045260246000fd5b602002602001015190506000600d0160008263ffffffff168152602001908152602001600020600a0160149054906101000a900460ff1660ff166003141562000649578063ffffffff168684815181106200059157634e487b7160e01b600052603260045260246000fd5b602090810291909101015152620005ae63ffffffff8216620013f9565b868481518110620005cf57634e487b7160e01b600052603260045260246000fd5b602002602001015160200181815250506000600d0160008263ffffffff168152602001908152602001600020600a0160159054906101000a900464ffffffffff1664ffffffffff168684815181106200063857634e487b7160e01b600052603260045260246000fd5b602002602001015160400181815250505b50508080620006589062003ec7565b915050620004ea565b505050949350505050565b60006200067862002b97565b5050601654640100000000900461ffff166000818152600860209081526040918290208251608081018452815481526001820154928101929092526002015460e881901b6001600160e81b03191692820192909252630100000090910462ffffff1660608201529091565b6000620006ef62001479565b905060005b82811015620009415760008484838181106200072057634e487b7160e01b600052603260045260246000fd5b602090810292909201356000818152600d9093526040909220600a0154919250506001600160a01b0316308114620008df5763ffffffff8083166000908152604360205260408120549091168015801590620007a1575063ffffffff8116600090815260426020526040902060020154600160c81b900464ffffffffff1615155b15620008185763ffffffff81166000908152604260209081526040808320546001600160a01b0390811680855260128452828520918b16855292529091205460ff16806200081457506001600160a01b038082166000908152603f60209081526040808320938b168352929052205460ff165b9250505b826001600160a01b0316866001600160a01b031614806200085e57506001600160a01b038084166000908152601260209081526040808320938a168352929052205460ff165b806200088357506000848152601360205260409020546001600160a01b038781169116145b80620008b457506001600160a01b038084166000908152603f60209081526040808320938a168352929052205460ff165b80620008bd5750815b620008dc5760405162461bcd60e51b8152600401620004de906200366e565b50505b6000828152600d60205260409020600a0154600160a01b900460ff166003146200091d5760405162461bcd60e51b8152600401620004de9062003827565b6200092882620014d7565b5050508080620009389062003ec7565b915050620006f4565b50505050565b6200095162002bbe565b62000393826200162a565b6000838152600d60205260409020600a01548390600160d01b900460ff16156200099a5760405162461bcd60e51b8152600401620004de906200386f565b6000848152600d60205260409020600a015484906001600160a01b0316620009c162001479565b6001600160a01b031614620009ea5760405162461bcd60e51b8152600401620004de906200397d565b6000858152600d60205260409020600a810154600160a01b900460ff1660021462000a295760405162461bcd60e51b8152600401620004de9062003550565b600a851062000a4c5760405162461bcd60e51b8152600401620004de90620036c1565b6000868152600c6020908152604080832054600d9092528220600901549091600160f01b90910461ffff169062000a8582848a620017ba565b80516004860155602081015190915062000aa6906002860190600662002bef565b5060408101516009850180546001600160a01b0319166001600160a01b039092169190911790556060810151600685015562000ae561a8c04262003e47565b600a8501805464ffffffffff60a81b1916600160a81b64ffffffffff938416021790556032600886015560098501805464ffffffffff60a01b1916600160a01b4290931692909202919091179055606081015187101562000b5a5760405162461bcd60e51b8152600401620004de9062003920565b600a8401805460ff60a01b1916600360a01b17905560405189907fadbf78ef322c0f286c9f0d0812f53f6db59fcefc4e41150758f43da97e2a80e390600090a26000816040015160405162000baf9062002c8b565b62000bbb91906200315e565b604051809103906000f08015801562000bd8573d6000803e3d6000fd5b50600b860180546001600160a01b0319166001600160a01b0383161790559050600062000c0462001479565b905062000c18836040015182848c62001aaf565b62000c25308c8362001b9b565b5050505050505050505050565b604e546001600160a01b0316331462000c5f5760405162461bcd60e51b8152600401620004de906200379e565b62000c6a81620014d7565b5050565b6000620003938262001bfc565b62000c8562001c3a565b604e80546001600160a01b0319166001600160a01b0392909216919091179055565b6000620003938262001c86565b60008062000cc28362001d1d565b6000848152600d60205260409020600701549091508082101562000cfa5760405162461bcd60e51b8152600401620004de906200340c565b62000d06818362003e47565b925050505b919050565b601a546001600160a01b031690565b6000828152600d60205260409020600a01548290600160d01b900460ff161562000d5d5760405162461bcd60e51b8152600401620004de906200386f565b6000838152600d60205260409020600a015483906001600160a01b031662000d8462001479565b6001600160a01b03161462000dad5760405162461bcd60e51b8152600401620004de906200397d565b6000805b600481101562000ece5762000dfe85826004811062000de057634e487b7160e01b600052603260045260246000fd5b60200201602081019062000df5919062002f80565b60010b62001da1565b62000e0a908362003bee565b915084816004811062000e2d57634e487b7160e01b600052603260045260246000fd5b60200201602081019062000e42919062002f80565b6000878152600d60205260409020600201826006811062000e7357634e487b7160e01b600052603260045260246000fd5b601091828204019190066002028282829054906101000a900460010b62000e9b919062003b5d565b92506101000a81548161ffff021916908360010b61ffff160217905550808062000ec59062003ec7565b91505062000db1565b508062000edb8662000cb4565b101562000efc5760405162461bcd60e51b8152600401620004de9062003a8b565b6000858152600d60205260408120600701805483929062000f1f90849062003bee565b92505081905550847f4b92ed0db0758e7ed73674d6915bd532a55322aa1b13abeaad14acf3954b1a8c8560405162000f58919062003196565b60405180910390a25050505050565b6000838152600d60205260409020600a01548390600160d01b900460ff161562000fa55760405162461bcd60e51b8152600401620004de906200386f565b6000848152600d60205260409020600a015484906001600160a01b031662000fcc62001479565b6001600160a01b03161462000ff55760405162461bcd60e51b8152600401620004de906200397d565b6000858152600d60205260409020600a0154600160a01b900460ff16600314620010335760405162461bcd60e51b8152600401620004de90620034aa565b60006200107685858080601f01602080910402602001604051908101604052809392919081815260200183838082843760009201919091525062001dc192505050565b6000878152600d6020526040812060030180549293509091620010999062003e90565b80601f0160208091040260200160405190810160405280929190818152602001828054620010c79062003e90565b8015620011185780601f10620010ec5761010080835404028352916020019162001118565b820191906000526020600020905b815481529060010190602001808311620010fa57829003601f168201915b505050505090506000815111156200115e576014620011378262001dc1565b60405162001146919062003120565b908152604051908190036020019020805460ff191690555b6040516014906200117190849062003120565b9081526040519081900360200190205460ff1615620011a45760405162461bcd60e51b8152600401620004de9062003328565b6001600060140183604051620011bb919062003120565b9081526040805160209281900383019020805460ff1916931515939093179092556000898152600d90915220620011f790600301878762002c99565b50867f9e94ae5a5d8c4dc3600d749ea1770ee468d1da35e7a5971eb3a889b0d02425048288886040516200122e93929190620032e1565b60405180910390a250505050505050565b6000806014016200128684848080601f01602080910402602001604051908101604052809392919081815260200183838082843760009201919091525062001dc192505050565b60405162001295919062003120565b9081526040519081900360200190205460ff169392505050565b60006200039382620013f9565b620012c662002b97565b50604080516080810182526001600160a01b03808252601e54811660208084019190915254811692820192909252601f5490911660608201525b90565b6000620003938262001fc3565b6200131a62002d16565b62000393826200200e565b6200132f62002d16565b60006200133c83620021d6565b9094909350915050565b600080620013548362001c86565b905061012c8110156200136c57600a91505062000d0b565b61012c81101580156200138057506101c281105b156200139157600a91505062000d0b565b6101c28110158015620013a6575061020d8111155b15620013b757601991505062000d0b565b61020e8110158015620013cc57506102448111155b15620013dd57606491505062000d0b565b6102458110620013f3576103e891505062000d0b565b50919050565b60008062001406620023d9565b6000848152600d820160205260408120600a81015460088201549394509092600160a81b90910464ffffffffff169162001441834262003e47565b9050600062001454620151808362003c09565b9050808311156200146e576200146b818462003e47565b96505b505050505050919050565b600033301415620014d257600080368080601f0160208091040260200160405190810160405280939291908181526020018383808284376000920191909152505050503601516001600160a01b03169150620013009050565b503390565b600080620014e4620023d9565b6000848152600d820160205260409020600a0154909150600160a81b900464ffffffffff16620015178161a8c062003bee565b4210156200152b5760009250505062000d0b565b6000848152600d83016020526040812060080154906200154c834262003e47565b905060006200155f620151808362003c09565b90506000818411156200157b5762001578828562003e47565b90505b600060288210156200158b575060025b6200159881600162003bee565b620015a4908362003bee565b60008a8152600d890160205260409081902060088101839055600a01805464ffffffffff60a81b1916600160a81b4264ffffffffff16021790555190925089907ff1d9052616249588931b528467a23298d0d5a51136a364bb273a883a5c49cda5906200161390859062003b12565b60405180910390a250600198975050505050505050565b6200163462002bbe565b600062001640620023d9565b6000848152600d820160205260409020600a0154909150600160a01b900460ff16600214620016835760405162461bcd60e51b8152600401620004de9062003475565b6000838152600c82016020908152604080832054600d85019092528220600901549091600160f01b90910461ffff16905b600a811015620017b1576000620016cd838584620017ba565b80519091508683600a8110620016f357634e487b7160e01b600052603260045260246000fd5b60200201515260408101518683600a81106200171f57634e487b7160e01b600052603260045260246000fd5b60200201516001600160a01b0390911660409091015260608101518683600a81106200175b57634e487b7160e01b600052603260045260246000fd5b6020020151606001818152505080602001518683600a81106200178e57634e487b7160e01b600052603260045260246000fd5b602002015160200181905250508080620017a89062003ec7565b915050620016b4565b50505050919050565b620017c462002d34565b6000620017d0620023d9565b905060008484604051602001620017e992919062003150565b60408051601f1981840301815291815281516020928301208086526000898152603d860190935290822080549193509062001825908462003ee5565b815481106200184457634e487b7160e01b600052603260045260246000fd5b6000918252602080832091909101546001600160a01b0316808352908590526040808320815160c0810192839052929450620018c7938693926006918390855b82829054906101000a900460010b60010b8152602001906002019060208260010104928301926001038202915080841162001884579050505050505089620023de565b6020858101919091526001600160a01b038216604080870182905260009182529185905281812082516101c08101938490529192829061010082019083906006908288855b82829054906101000a900460010b60010b815260200190600201906020826001010492830192600103820291508084116200190c5790505050509183525050600191909101546001600160e81b031960e882811b821660208086019190915263010000008404821b831660408601526601000000000000840490911b909116606084015260ff6901000000000000000000830481166080850152600160501b8304811660a085015261ffff600160581b8404811660c080870191909152600160681b909404909116151560e09094019390935290830151908801519293501690600090620019fa9062001346565b9050600082856001600160a01b031663313ce5676040518163ffffffff1660e01b815260040160206040518083038186803b15801562001a3957600080fd5b505afa15801562001a4e573d6000803e3d6000fd5b505050506040513d601f19601f8201168201806040525081019062001a749190620030a7565b62001a8190600a62003c6d565b62001a8d919062003c09565b905062001a9b828262003de0565b606089015250959998505050505050505050565b833b8062001ad15760405162461bcd60e51b8152600401620004de9062003507565b600080866001600160a01b03166323b872dd60e01b87878760405160240162001afd9392919062003172565b60408051601f198184030181529181526020820180516001600160e01b03166001600160e01b031990941693909317909252905162001b3d919062003120565b6000604051808303816000865af19150503d806000811462001b7c576040519150601f19603f3d011682016040523d82523d6000602084013e62001b81565b606091505b509150915062001b928282620025fd565b50505050505050565b600062001ba7620023d9565b6001600160a01b03808616600090815260398301602090815260408083208884528252808320938716835292905220549091508062001be857505062001bf7565b62001bf4818462002685565b50505b505050565b60008062001c0a8362001fc3565b90508262001c1a60028362003c6d565b62001c2790603262003de0565b62001c33919062003e47565b9392505050565b62001c44620027b9565b600401546001600160a01b031662001c5b62001479565b6001600160a01b03161462001c845760405162461bcd60e51b8152600401620004de90620033ca565b565b6000805b6006811015620013f357600083826006811062001cb757634e487b7160e01b600052603260045260246000fd5b602002015160010b90506032811262001ceb5762001cd781600162003bee565b62001ce3908462003bee565b925062001d07565b62001cf881606462003e02565b62001d04908462003bee565b92505b508062001d148162003ec7565b91505062001c8a565b6000818152600d6020526040812060050154819062001d3c9062001fc3565b9050600062001d4d60038362003c09565b6000858152600d6020526040812060090154919250600160a01b90910464ffffffffff169062001d7e824262003e47565b905062001d8b81620027dd565b62001d97908462003bee565b9695505050505050565b60008082121562001dbd5762001db78262003efc565b62000393565b5090565b606060008260405160200162001dd8919062003120565b60408051601f1981840301815291905280519091508062001e0d5760405162461bcd60e51b8152600401620004de90620037e3565b601a811062001e305760405162461bcd60e51b8152600401620004de9062003a2e565b60008260008151811062001e5457634e487b7160e01b600052603260045260246000fd5b0160209081015160f81c915081141562001e825760405162461bcd60e51b8152600401620004de90620035e5565b8262001e9060018462003e47565b8151811062001eaf57634e487b7160e01b600052603260045260246000fd5b0160209081015160f81c915081141562001edd5760405162461bcd60e51b8152600401620004de9062003379565b60005b8281101562001fb95783818151811062001f0a57634e487b7160e01b600052603260045260246000fd5b016020015160f81c9150601f8211801562001f255750607f82105b62001f445760405162461bcd60e51b8152600401620004de90620039da565b605b8210801562001f555750604082115b1562001fa45762001f6882602062003bee565b60f81b84828151811062001f8c57634e487b7160e01b600052603260045260246000fd5b60200101906001600160f81b031916908160001a9053505b8062001fb08162003ec7565b91505062001ee0565b5091949350505050565b600062077a4282111562001fda5750606362000d0b565b600a62001ff362001fed84600262003de0565b620028b6565b62001fff919062003c09565b90506200039381600162003bee565b6200201862002d16565b600062002024620023d9565b6000848152600d820160205260408120600901549192509062015180906200205b90600160c81b900464ffffffffff164262003e47565b62002067919062003c09565b905060005b6006811015620021ce576000858152600d8401602052604081206002018260068110620020a957634e487b7160e01b600052603260045260246000fd5b601091828204019190066002029054906101000a900460010b60010b9050600084600d01600088815260200190815260200160002060010183600681106200210157634e487b7160e01b600052603260045260246000fd5b602091828204019190069054906101000a900460000b60000b90506000811380156200212c57508381135b1562002152576200213e848262003e02565b6200214a908362003ba7565b915062002183565b83620021618260001962003d51565b1315620021835762002174848262003ba7565b62002180908362003ba7565b91505b81868460068110620021a557634e487b7160e01b600052603260045260246000fd5b602002019060010b908160010b8152505050508080620021c59062003ec7565b9150506200206c565b505050919050565b620021e062002d16565b600080620021ed620023d9565b6000858152600d820160205260409020600a0154909150600160a01b900460ff16600314620022305760405162461bcd60e51b8152600401620004de9062003769565b6000848152600d8201602052604090206200224b856200200e565b93506000805b6010811015620023b25760008382601081106200227e57634e487b7160e01b600052603260045260246000fd5b601081049190910154600f9091166002026101000a900461ffff16905080620022a857506200239d565b6000856006018281548110620022ce57634e487b7160e01b600052603260045260246000fd5b90600052602060002090600b0201905060005b60068110156200237b578160030181600681106200230f57634e487b7160e01b600052603260045260246000fd5b602091828204019190069054906101000a900460000b60000b8982600681106200234957634e487b7160e01b600052603260045260246000fd5b602002018181516200235c919062003b5d565b600190810b900b90525080620023728162003ec7565b915050620022e1565b50600a8101546200239890640100000000900460ff168562003bee565b935050505b80620023a98162003ec7565b91505062002251565b506000620023c08662001c86565b9050620023ce828262003bee565b945050505050915091565b600090565b620023e862002d16565b8160011415620024f75760005b6006811015620024f05760006200240e82600862003de0565b86901c60ff169050606381111562002478576200242d60028262003c09565b905060638111156200247857606486836040516020016200245092919062003150565b6040516020818303038152906040528051906020012060001c62002475919062003ee5565b90505b8482600681106200249957634e487b7160e01b600052603260045260246000fd5b6020020151620024aa908262003b5d565b838360068110620024cb57634e487b7160e01b600052603260045260246000fd5b600192830b90920b602090920201525080620024e78162003ec7565b915050620023f5565b5062001c33565b60005b6006811015620025f55760006200251382600862003de0565b86901c60ff16905060638111156200257d576200253260648262003e47565b905060638111156200257d57606486836040516020016200255592919062003150565b6040516020818303038152906040528051906020012060001c6200257a919062003ee5565b90505b8482600681106200259e57634e487b7160e01b600052603260045260246000fd5b6020020151620025af908262003b5d565b838360068110620025d057634e487b7160e01b600052603260045260246000fd5b600192830b90920b602090920201525080620025ec8162003ec7565b915050620024fa565b509392505050565b8115620026475780511562002641578080602001905181019062002622919062002f61565b620026415760405162461bcd60e51b8152600401620004de9062003594565b62000c6a565b8051156200266b578060405162461bcd60e51b8152600401620004de9190620032cc565b60405162461bcd60e51b8152600401620004de906200371e565b600062002691620023d9565b60008481526034820160205260409020600181015491925090620026b757505062000c6a565b60008481526033830160205260409020600881015460ff16151560011480620026e35750600781015415155b15620026f25750505062000c6a565b60018101546001600160a01b03858116911614620027245760405162461bcd60e51b8152600401620004de9062003637565b60088101805460ff1916600117905560028101546001600160a01b03163014156200276d5760038101546000908152600d840160205260409020600a01805460ff60d01b191690555b847f10e53bca620314e794d61e37932062e81c48e88233765d09da42aeb00ae4dba0826004015443604051620027a592919062003150565b60405180910390a262001bf4858562002915565b7fc8fcad8db84d3cc18b4c41d551ea0ee66dd599cde068d998e57d5e09332c131c90565b604080516101408101825260018152600260208201526003918101919091526005606082015260086080820152600d60a0820152601560c0820152602260e0820152603761010082015260596101208201526000908190815b600a811015620028ad578181600a81106200286157634e487b7160e01b600052603260045260246000fd5b602002015162002875906223186062003de0565b851115620028925782620028898162003ec7565b93505062002898565b620028ad565b80620028a48162003ec7565b91505062002836565b50909392505050565b6000806002620028c884600162003bee565b620028d4919062003c09565b90508291505b81811015620013f357905080600281620028f5818662003c09565b62002901919062003bee565b6200290d919062003c09565b9050620028da565b600062002921620023d9565b600084815260348201602052604090206001810154919250906200294757505062000c6a565b805480156200296a57600081815260348401602052604090206002808401549101555b600282015480156200298b5760008181526034850160205260409020835490555b60008681526033850160209081526040808320600481015484526035880190925291829020915190918891620029c1906200313e565b908152602001604051809103902054141562002a115760028401546004820154600090815260358701602052604090819020905162002a00906200313e565b908152604051908190036020019020555b600060018501819055808555600290940184905586845260368501602052604090932080549093909250821562002a5c57600083815260368601602052604090206002808601549101555b60028401549150811562002a7f5760008281526036860160205260409020845490555b50600086815260338501602090815260408083206001600160a01b0389168452603788018352818420600482015485529092529182902091519091889162002ac7906200313e565b908152602001604051809103902054141562002b2b5760028401546001600160a01b038716600090815260378701602090815260408083206004860154845290915290819020905162002b1a906200313e565b908152604051908190036020019020555b6000600185018190558085556002850155600481015460405188917fd309bba073dd463d9d78e92766d06da7cde7d0e6e83149168a7bc913c9ecc442916200122e9190429062003150565b60405180606001604052806000815260200160008152602001600081525090565b60408051608081018252600080825260208201819052918101829052606081019190915290565b604051806101400160405280600a905b62002bd862002d34565b81526020019060019003908162002bce5790505090565b60018301918390821562002c7d5791602002820160005b8382111562002c4b57835183826101000a81548161ffff021916908360010b61ffff160217905550926020019260020160208160010104928301926001030262002c06565b801562002c7b5782816101000a81549061ffff021916905560020160208160010104928301926001030262002c4b565b505b5062001dbd92915062002d64565b6105918062003f6e83390190565b82805462002ca79062003e90565b90600052602060002090601f01602090048101928262002ccb576000855562002c7d565b82601f1062002ce65782800160ff1982351617855562002c7d565b8280016001018555821562002c7d579182015b8281111562002c7d57823582559160200191906001019062002cf9565b6040518060c001604052806006906020820280368337509192915050565b60405180608001604052806000815260200162002d5062002d16565b815260006020820181905260409091015290565b5b8082111562001dbd576000815560010162002d65565b80356001600160a01b038116811462000d0b57600080fd5b8035600181900b811462000d0b57600080fd5b60008083601f84011262002db8578182fd5b50813567ffffffffffffffff81111562002dd0578182fd5b60208301915083602082850101111562002de957600080fd5b9250929050565b60006020828403121562002e02578081fd5b62001c338262002d7b565b6000806000806080858703121562002e23578283fd5b62002e2e8562002d7b565b93506020850135925060408501359150606085013562002e4e8162003f5b565b939692955090935050565b600060c0828403121562002e6b578081fd5b82601f83011262002e7a578081fd5b60405160c0810181811067ffffffffffffffff8211171562002ea05762002ea062003f45565b604052808360c0810186101562002eb5578384fd5b835b600681101562002ee25762002ecc8262002d93565b8352602092830192919091019060010162002eb7565b509195945050505050565b6000806020838503121562002f00578182fd5b823567ffffffffffffffff8082111562002f18578384fd5b818501915085601f83011262002f2c578384fd5b81358181111562002f3b578485fd5b866020808302850101111562002f4f578485fd5b60209290920196919550909350505050565b60006020828403121562002f73578081fd5b815162001c338162003f5b565b60006020828403121562002f92578081fd5b62001c338262002d93565b6000806020838503121562002fb0578182fd5b823567ffffffffffffffff81111562002fc7578283fd5b62002fd58582860162002da6565b90969095509350505050565b60006020828403121562002ff3578081fd5b5035919050565b60008060a083850312156200300d578182fd5b823591508360a08401111562003021578081fd5b50926020919091019150565b60008060006040848603121562003042578283fd5b83359250602084013567ffffffffffffffff81111562003060578283fd5b6200306e8682870162002da6565b9497909650939450505050565b60008060006060848603121562003090578283fd5b505081359360208301359350604090920135919050565b600060208284031215620030b9578081fd5b815160ff8116811462001c33578182fd5b8060005b600681101562000941578151600190810b85526020948501949092019101620030ce565b600081518084526200310c81602086016020860162003e61565b601f01601f19169290920160200192915050565b600082516200313481846020870162003e61565b9190910192915050565b651b1a5cdd195960d21b815260060190565b918252602082015260400190565b6001600160a01b0391909116815260200190565b6001600160a01b039384168152919092166020820152604081019190915260600190565b60808101818360005b6004811015620031cd57620031b48262002d93565b600190810b84526020938401939290920191016200319f565b50505092915050565b60c08101620003938284620030ca565b60e08101620031f68285620030ca565b8260c08301529392505050565b610b408101818360005b600a811015620031cd578151805184526020808201516200323182870182620030ca565b5060408201516001600160a01b031660e08601526060909101516101008501526101209093019291909101906001016200320d565b602080825282518282018190526000919060409081850190868401855b82811015620032b4578151805185528681015187860152850151858501526060909301929085019060010162003283565b5091979650505050505050565b901515815260200190565b60006020825262001c336020830184620030f2565b600060408252620032f66040830186620030f2565b82810360208401528381528385602083013781602085830101526020601f19601f860116820101915050949350505050565b60208082526031908201527f41617665676f7463686947616d6546616365743a2041617665676f74636869206040820152706e616d65207573656420616c726561647960781b606082015260800190565b60208082526031908201527f4c696241617665676f746368693a206c6173742063686172206f66206e616d656040820152702063616e2774206265206120737061636560781b606082015260800190565b60208082526022908201527f4c69624469616d6f6e643a204d75737420626520636f6e7472616374206f776e60408201526132b960f11b606082015260800190565b60208082526043908201527f41617665676f7463686947616d6546616365743a205573656420736b696c6c2060408201527f706f696e74732069732067726561746572207468616e20736b696c6c20706f696060820152626e747360e81b608082015260a00190565b6020808252818101527f41617665676f7463686946616365743a20506f7274616c206e6f74206f70656e604082015260600190565b6020808252603e908201527f41617665676f7463686947616d6546616365743a204d75737420636c61696d2060408201527f41617665676f74636869206265666f72652073657474696e67206e616d650000606082015260800190565b60208082526029908201527f4c696245524332303a20455243323020746f6b656e206164647265737320686160408201526873206e6f20636f646560b81b606082015260800190565b60208082526024908201527f41617665676f7463686947616d6546616365743a20506f7274616c206e6f742060408201526337b832b760e11b606082015260800190565b60208082526031908201527f4c696245524332303a207472616e73666572206f72207472616e7366657246726040820152706f6d2072657475726e65642066616c736560781b606082015260800190565b60208082526032908201527f4c696241617665676f746368693a2066697273742063686172206f66206e616d604082015271652063616e2774206265206120737061636560701b606082015260800190565b6020808252601d908201527f4d61726b6574706c6163653a206f776e6572206e6f742073656c6c6572000000604082015260600190565b60208082526033908201527f41617665676f7463686947616d6546616365743a204e6f74206f776e6572206f60408201527219881d1bdad95b881bdc88185c1c1c9bdd9959606a1b606082015260800190565b60208082526039908201527f41617665676f7463686947616d6546616365743a204f6e6c792031302061617660408201527f65676f74636869206f7074696f6e7320617661696c61626c6500000000000000606082015260800190565b6020808252602b908201527f4c696245524332303a207472616e73666572206f72207472616e73666572467260408201526a1bdb481c995d995c9d195960aa1b606082015260800190565b6020808252818101527f41617665676f7463686946616365743a204d75737420626520636c61696d6564604082015260600190565b60208082526025908201527f41617665676f7463686947616d6566616365743a204e6f74205265616c6d4164604082015264647265737360d81b606082015260800190565b60208082526024908201527f4c696241617665676f746368693a206e616d652063616e2774206265203020636040820152636861727360e01b606082015260800190565b60208082526028908201527f4c696241617665676f746368693a204f6e6c792076616c696420666f722041616040820152677665676f7463686960c01b606082015260800190565b60208082526034908201527f4c696241707053746f726167653a204f6e6c792063616c6c61626c65206f6e20604082015273756e6c6f636b65642041617665676f746368697360601b606082015260800190565b6020808252603a908201527f67616d6546616365743a204f776e657220646f6573206e6f742068617665207560408201527f7020746f207468617420616d6f756e74206f6620746f6b656e73000000000000606082015260800190565b60208082526039908201527f41617665676f7463686947616d6546616365743a205f7374616b65416d6f756e60408201527f74206c657373207468616e206d696e696d756d207374616b6500000000000000606082015260800190565b6020808252603b908201527f4c696241707053746f726167653a204f6e6c792061617665676f74636869206f60408201527f776e65722063616e2063616c6c20746869732066756e6374696f6e0000000000606082015260800190565b60208082526034908201527f4c696241617665676f746368693a20696e76616c6964206368617261637465726040820152731034b71020b0bb32b3b7ba31b434903730b6b29760611b606082015260800190565b60208082526037908201527f4c696241617665676f746368693a206e616d652063616e27742062652067726560408201527f61746572207468616e2032352063686172616374657273000000000000000000606082015260800190565b6020808252602c908201527f41617665676f7463686947616d6546616365743a204e6f7420656e6f7567682060408201526b736b696c6c20706f696e747360a01b606082015260800190565b81516001600160a01b039081168252602080840151821690830152604080840151821690830152606092830151169181019190915260800190565b90815260200190565b91825280516020808401919091528101516040808401919091528101516001600160e81b031916606080840191909152015162ffffff16608082015260a00190565b60008160010b8360010b82821282617fff0382138115161562003b845762003b8462003f19565b82617fff1903821281161562003b9e5762003b9e62003f19565b50019392505050565b600080821280156001600160ff1b038490038513161562003bcc5762003bcc62003f19565b600160ff1b839003841281161562003be85762003be862003f19565b50500190565b6000821982111562003c045762003c0462003f19565b500190565b60008262003c1b5762003c1b62003f2f565b500490565b80825b600180861162003c34575062003c64565b81870482111562003c495762003c4962003f19565b8086161562003c5757918102915b9490941c93800262003c23565b94509492505050565b600062001c3360001960ff85168460008262003c8c5750600162001c33565b8162003c9b5750600062001c33565b816001811462003cb4576002811462003cbf5762003cec565b600191505062001c33565b60ff84111562003cd35762003cd362003f19565b6001841b915084821115620024f057620024f062003f19565b5060208310610133831016604e8410600b841016171562003d24575081810a8381111562003d1e5762003d1e62003f19565b62001c33565b62003d33848484600162003c20565b80860482111562003d485762003d4862003f19565b02949350505050565b60006001600160ff1b038184138284138082168684048611161562003d7a5762003d7a62003f19565b600160ff1b8487128281168783058912161562003d9b5762003d9b62003f19565b85871292508782058712848416161562003db95762003db962003f19565b8785058712818416161562003dd25762003dd262003f19565b505050929093029392505050565b600081600019048311821515161562003dfd5762003dfd62003f19565b500290565b60008083128015600160ff1b85018412161562003e235762003e2362003f19565b6001600160ff1b038401831381161562003e415762003e4162003f19565b50500390565b60008282101562003e5c5762003e5c62003f19565b500390565b60005b8381101562003e7e57818101518382015260200162003e64565b83811115620009415750506000910152565b60028104600182168062003ea557607f821691505b60208210811415620013f357634e487b7160e01b600052602260045260246000fd5b600060001982141562003ede5762003ede62003f19565b5060010190565b60008262003ef75762003ef762003f2f565b500690565b6000600160ff1b82141562003f155762003f1562003f19565b0390565b634e487b7160e01b600052601160045260246000fd5b634e487b7160e01b600052601260045260246000fd5b634e487b7160e01b600052604160045260246000fd5b801515811462003f6a57600080fd5b5056fe608060405234801561001057600080fd5b5060405161059138038061059183398101604081905261002f916101c2565b61004161007060201b61012f1760201c565b600080546001600160a01b0319166001600160a01b039290921691909117905561006a816100cd565b506102c1565b6000333014156100c757600080368080601f0160208091040260200160405190810160405280939291908181526020018383808284376000920191909152505050503601516001600160a01b031691506100ca9050565b50335b90565b6000546001600160a01b03166100ec610070602090811b61012f17901c565b6001600160a01b03161461011b5760405162461bcd60e51b81526004016101129061027a565b60405180910390fd5b60005460405163095ea7b360e01b81526001600160a01b038381169263095ea7b392610151929091169060001990600401610210565b602060405180830381600087803b15801561016b57600080fd5b505af115801561017f573d6000803e3d6000fd5b505050506040513d601f19601f820116820180604052508101906101a391906101f0565b6101bf5760405162461bcd60e51b815260040161011290610229565b50565b6000602082840312156101d3578081fd5b81516001600160a01b03811681146101e9578182fd5b9392505050565b600060208284031215610201578081fd5b815180151581146101e9578182fd5b6001600160a01b03929092168252602082015260400190565b60208082526031908201527f436f6c6c61746572616c457363726f773a20746f6b656e206e6f74206170707260408201527037bb32b2103337b9103a3930b739b332b960791b606082015260800190565b60208082526027908201527f436f6c6c61746572616c457363726f773a204e6f74206f776e6572206f6620636040820152661bdb9d1c9858dd60ca1b606082015260800190565b6102c1806102d06000396000f3fe608060405234801561001057600080fd5b506004361061002b5760003560e01c80632ce7500514610030575b600080fd5b61004361003e36600461018c565b610045565b005b6000546001600160a01b031661005961012f565b6001600160a01b0316146100885760405162461bcd60e51b815260040161007f90610244565b60405180910390fd5b60005460405163095ea7b360e01b81526001600160a01b038381169263095ea7b3926100be9290911690600019906004016101da565b602060405180830381600087803b1580156100d857600080fd5b505af11580156100ec573d6000803e3d6000fd5b505050506040513d601f19601f8201168201806040525081019061011091906101ba565b61012c5760405162461bcd60e51b815260040161007f906101f3565b50565b60003330141561018657600080368080601f0160208091040260200160405190810160405280939291908181526020018383808284376000920191909152505050503601516001600160a01b031691506101899050565b50335b90565b60006020828403121561019d578081fd5b81356001600160a01b03811681146101b3578182fd5b9392505050565b6000602082840312156101cb578081fd5b815180151581146101b3578182fd5b6001600160a01b03929092168252602082015260400190565b60208082526031908201527f436f6c6c61746572616c457363726f773a20746f6b656e206e6f74206170707260408201527037bb32b2103337b9103a3930b739b332b960791b606082015260800190565b60208082526027908201527f436f6c6c61746572616c457363726f773a204e6f74206f776e6572206f6620636040820152661bdb9d1c9858dd60ca1b60608201526080019056fea2646970667358221220be1f5eee9cac84b621508b4ea7dfb521e7249b60bcb9473a00f7f4344bcd7ccf64736f6c63430008010033a2646970667358221220eb6b3b0d75f3ea29070425f0e9694c7310e7b072abba718973db5beb363f7d7c64736f6c63430008010033",
  "linkReferences": {},
  "deployedLinkReferences": {}
}