{
  "_format": "hh-sol-artifact-1",
  "contractName": "AavegotchiFacet",
  "sourceName": "contracts/Aavegotchi/facets/AavegotchiFacet.sol",
  "abi": [
    {
      "anonymous": false,
      "inputs": [
        {
          "indexed": true,
          "internalType": "address",
          "name": "_owner",
          "type": "address"
        },
        {
          "indexed": true,
          "internalType": "address",
          "name": "_operator",
          "type": "address"
        },
        {
          "indexed": false,
          "internalType": "bool",
          "name": "_approved",
          "type": "bool"
        }
      ],
      "name": "PetOperatorApprovalForAll",
      "type": "event"
    },
    {
      "inputs": [
        {
          "internalType": "uint256",
          "name": "_tokenId",
          "type": "uint256"
        }
      ],
      "name": "aavegotchiClaimTime",
      "outputs": [
        {
          "internalType": "uint256",
          "name": "claimTime_",
          "type": "uint256"
        }
      ],
      "stateMutability": "view",
      "type": "function"
    },
    {
      "inputs": [
        {
          "internalType": "address",
          "name": "_owner",
          "type": "address"
        }
      ],
      "name": "allAavegotchisOfOwner",
      "outputs": [
        {
          "components": [
            {
              "internalType": "uint256",
              "name": "tokenId",
              "type": "uint256"
            },
            {
              "internalType": "string",
              "name": "name",
              "type": "string"
            },
            {
              "internalType": "address",
              "name": "owner",
              "type": "address"
            },
            {
              "internalType": "uint256",
              "name": "randomNumber",
              "type": "uint256"
            },
            {
              "internalType": "uint256",
              "name": "status",
              "type": "uint256"
            },
            {
              "internalType": "int16[6]",
              "name": "numericTraits",
              "type": "int16[6]"
            },
            {
              "internalType": "int16[6]",
              "name": "modifiedNumericTraits",
              "type": "int16[6]"
            },
            {
              "internalType": "uint16[16]",
              "name": "equippedWearables",
              "type": "uint16[16]"
            },
            {
              "internalType": "address",
              "name": "collateral",
              "type": "address"
            },
            {
              "internalType": "address",
              "name": "escrow",
              "type": "address"
            },
            {
              "internalType": "uint256",
              "name": "stakedAmount",
              "type": "uint256"
            },
            {
              "internalType": "uint256",
              "name": "minimumStake",
              "type": "uint256"
            },
            {
              "internalType": "uint256",
              "name": "kinship",
              "type": "uint256"
            },
            {
              "internalType": "uint256",
              "name": "lastInteracted",
              "type": "uint256"
            },
            {
              "internalType": "uint256",
              "name": "experience",
              "type": "uint256"
            },
            {
              "internalType": "uint256",
              "name": "toNextLevel",
              "type": "uint256"
            },
            {
              "internalType": "uint256",
              "name": "usedSkillPoints",
              "type": "uint256"
            },
            {
              "internalType": "uint256",
              "name": "level",
              "type": "uint256"
            },
            {
              "internalType": "uint256",
              "name": "hauntId",
              "type": "uint256"
            },
            {
              "internalType": "uint256",
              "name": "baseRarityScore",
              "type": "uint256"
            },
            {
              "internalType": "uint256",
              "name": "modifiedRarityScore",
              "type": "uint256"
            },
            {
              "internalType": "bool",
              "name": "locked",
              "type": "bool"
            },
            {
              "components": [
                {
                  "internalType": "uint256",
                  "name": "balance",
                  "type": "uint256"
                },
                {
                  "internalType": "uint256",
                  "name": "itemId",
                  "type": "uint256"
                },
                {
                  "components": [
                    {
                      "internalType": "string",
                      "name": "name",
                      "type": "string"
                    },
                    {
                      "internalType": "string",
                      "name": "description",
                      "type": "string"
                    },
                    {
                      "internalType": "string",
                      "name": "author",
                      "type": "string"
                    },
                    {
                      "internalType": "int8[6]",
                      "name": "traitModifiers",
                      "type": "int8[6]"
                    },
                    {
                      "internalType": "bool[16]",
                      "name": "slotPositions",
                      "type": "bool[16]"
                    },
                    {
                      "internalType": "uint8[]",
                      "name": "allowedCollaterals",
                      "type": "uint8[]"
                    },
                    {
                      "components": [
                        {
                          "internalType": "uint8",
                          "name": "x",
                          "type": "uint8"
                        },
                        {
                          "internalType": "uint8",
                          "name": "y",
                          "type": "uint8"
                        },
                        {
                          "internalType": "uint8",
                          "name": "width",
                          "type": "uint8"
                        },
                        {
                          "internalType": "uint8",
                          "name": "height",
                          "type": "uint8"
                        }
                      ],
                      "internalType": "struct Dimensions",
                      "name": "dimensions",
                      "type": "tuple"
                    },
                    {
                      "internalType": "uint256",
                      "name": "ghstPrice",
                      "type": "uint256"
                    },
                    {
                      "internalType": "uint256",
                      "name": "maxQuantity",
                      "type": "uint256"
                    },
                    {
                      "internalType": "uint256",
                      "name": "totalQuantity",
                      "type": "uint256"
                    },
                    {
                      "internalType": "uint32",
                      "name": "svgId",
                      "type": "uint32"
                    },
                    {
                      "internalType": "uint8",
                      "name": "rarityScoreModifier",
                      "type": "uint8"
                    },
                    {
                      "internalType": "bool",
                      "name": "canPurchaseWithGhst",
                      "type": "bool"
                    },
                    {
                      "internalType": "uint16",
                      "name": "minLevel",
                      "type": "uint16"
                    },
                    {
                      "internalType": "bool",
                      "name": "canBeTransferred",
                      "type": "bool"
                    },
                    {
                      "internalType": "uint8",
                      "name": "category",
                      "type": "uint8"
                    },
                    {
                      "internalType": "int16",
                      "name": "kinshipBonus",
                      "type": "int16"
                    },
                    {
                      "internalType": "uint32",
                      "name": "experienceBonus",
                      "type": "uint32"
                    }
                  ],
                  "internalType": "struct ItemType",
                  "name": "itemType",
                  "type": "tuple"
                }
              ],
              "internalType": "struct ItemTypeIO[]",
              "name": "items",
              "type": "tuple[]"
            }
          ],
          "internalType": "struct AavegotchiInfo[]",
          "name": "aavegotchiInfos_",
          "type": "tuple[]"
        }
      ],
      "stateMutability": "view",
      "type": "function"
    },
    {
      "inputs": [
        {
          "internalType": "address",
          "name": "_approved",
          "type": "address"
        },
        {
          "internalType": "uint256",
          "name": "_tokenId",
          "type": "uint256"
        }
      ],
      "name": "approve",
      "outputs": [],
      "stateMutability": "nonpayable",
      "type": "function"
    },
    {
      "inputs": [
        {
          "internalType": "address",
          "name": "_owner",
          "type": "address"
        }
      ],
      "name": "balanceOf",
      "outputs": [
        {
          "internalType": "uint256",
          "name": "balance_",
          "type": "uint256"
        }
      ],
      "stateMutability": "view",
      "type": "function"
    },
    {
      "inputs": [
        {
          "internalType": "uint256[]",
          "name": "_tokenIds",
          "type": "uint256[]"
        }
      ],
      "name": "batchOwnerOf",
      "outputs": [
        {
          "internalType": "address[]",
          "name": "owners_",
          "type": "address[]"
        }
      ],
      "stateMutability": "view",
      "type": "function"
    },
    {
      "inputs": [
        {
          "internalType": "uint256",
          "name": "_tokenId",
          "type": "uint256"
        }
      ],
      "name": "getAavegotchi",
      "outputs": [
        {
          "components": [
            {
              "internalType": "uint256",
              "name": "tokenId",
              "type": "uint256"
            },
            {
              "internalType": "string",
              "name": "name",
              "type": "string"
            },
            {
              "internalType": "address",
              "name": "owner",
              "type": "address"
            },
            {
              "internalType": "uint256",
              "name": "randomNumber",
              "type": "uint256"
            },
            {
              "internalType": "uint256",
              "name": "status",
              "type": "uint256"
            },
            {
              "internalType": "int16[6]",
              "name": "numericTraits",
              "type": "int16[6]"
            },
            {
              "internalType": "int16[6]",
              "name": "modifiedNumericTraits",
              "type": "int16[6]"
            },
            {
              "internalType": "uint16[16]",
              "name": "equippedWearables",
              "type": "uint16[16]"
            },
            {
              "internalType": "address",
              "name": "collateral",
              "type": "address"
            },
            {
              "internalType": "address",
              "name": "escrow",
              "type": "address"
            },
            {
              "internalType": "uint256",
              "name": "stakedAmount",
              "type": "uint256"
            },
            {
              "internalType": "uint256",
              "name": "minimumStake",
              "type": "uint256"
            },
            {
              "internalType": "uint256",
              "name": "kinship",
              "type": "uint256"
            },
            {
              "internalType": "uint256",
              "name": "lastInteracted",
              "type": "uint256"
            },
            {
              "internalType": "uint256",
              "name": "experience",
              "type": "uint256"
            },
            {
              "internalType": "uint256",
              "name": "toNextLevel",
              "type": "uint256"
            },
            {
              "internalType": "uint256",
              "name": "usedSkillPoints",
              "type": "uint256"
            },
            {
              "internalType": "uint256",
              "name": "level",
              "type": "uint256"
            },
            {
              "internalType": "uint256",
              "name": "hauntId",
              "type": "uint256"
            },
            {
              "internalType": "uint256",
              "name": "baseRarityScore",
              "type": "uint256"
            },
            {
              "internalType": "uint256",
              "name": "modifiedRarityScore",
              "type": "uint256"
            },
            {
              "internalType": "bool",
              "name": "locked",
              "type": "bool"
            },
            {
              "components": [
                {
                  "internalType": "uint256",
                  "name": "balance",
                  "type": "uint256"
                },
                {
                  "internalType": "uint256",
                  "name": "itemId",
                  "type": "uint256"
                },
                {
                  "components": [
                    {
                      "internalType": "string",
                      "name": "name",
                      "type": "string"
                    },
                    {
                      "internalType": "string",
                      "name": "description",
                      "type": "string"
                    },
                    {
                      "internalType": "string",
                      "name": "author",
                      "type": "string"
                    },
                    {
                      "internalType": "int8[6]",
                      "name": "traitModifiers",
                      "type": "int8[6]"
                    },
                    {
                      "internalType": "bool[16]",
                      "name": "slotPositions",
                      "type": "bool[16]"
                    },
                    {
                      "internalType": "uint8[]",
                      "name": "allowedCollaterals",
                      "type": "uint8[]"
                    },
                    {
                      "components": [
                        {
                          "internalType": "uint8",
                          "name": "x",
                          "type": "uint8"
                        },
                        {
                          "internalType": "uint8",
                          "name": "y",
                          "type": "uint8"
                        },
                        {
                          "internalType": "uint8",
                          "name": "width",
                          "type": "uint8"
                        },
                        {
                          "internalType": "uint8",
                          "name": "height",
                          "type": "uint8"
                        }
                      ],
                      "internalType": "struct Dimensions",
                      "name": "dimensions",
                      "type": "tuple"
                    },
                    {
                      "internalType": "uint256",
                      "name": "ghstPrice",
                      "type": "uint256"
                    },
                    {
                      "internalType": "uint256",
                      "name": "maxQuantity",
                      "type": "uint256"
                    },
                    {
                      "internalType": "uint256",
                      "name": "totalQuantity",
                      "type": "uint256"
                    },
                    {
                      "internalType": "uint32",
                      "name": "svgId",
                      "type": "uint32"
                    },
                    {
                      "internalType": "uint8",
                      "name": "rarityScoreModifier",
                      "type": "uint8"
                    },
                    {
                      "internalType": "bool",
                      "name": "canPurchaseWithGhst",
                      "type": "bool"
                    },
                    {
                      "internalType": "uint16",
                      "name": "minLevel",
                      "type": "uint16"
                    },
                    {
                      "internalType": "bool",
                      "name": "canBeTransferred",
                      "type": "bool"
                    },
                    {
                      "internalType": "uint8",
                      "name": "category",
                      "type": "uint8"
                    },
                    {
                      "internalType": "int16",
                      "name": "kinshipBonus",
                      "type": "int16"
                    },
                    {
                      "internalType": "uint32",
                      "name": "experienceBonus",
                      "type": "uint32"
                    }
                  ],
                  "internalType": "struct ItemType",
                  "name": "itemType",
                  "type": "tuple"
                }
              ],
              "internalType": "struct ItemTypeIO[]",
              "name": "items",
              "type": "tuple[]"
            }
          ],
          "internalType": "struct AavegotchiInfo",
          "name": "aavegotchiInfo_",
          "type": "tuple"
        }
      ],
      "stateMutability": "view",
      "type": "function"
    },
    {
      "inputs": [
        {
          "internalType": "uint256",
          "name": "_tokenId",
          "type": "uint256"
        }
      ],
      "name": "getApproved",
      "outputs": [
        {
          "internalType": "address",
          "name": "approved_",
          "type": "address"
        }
      ],
      "stateMutability": "view",
      "type": "function"
    },
    {
      "inputs": [
        {
          "internalType": "address",
          "name": "_owner",
          "type": "address"
        },
        {
          "internalType": "address",
          "name": "_operator",
          "type": "address"
        }
      ],
      "name": "isApprovedForAll",
      "outputs": [
        {
          "internalType": "bool",
          "name": "approved_",
          "type": "bool"
        }
      ],
      "stateMutability": "view",
      "type": "function"
    },
    {
      "inputs": [
        {
          "internalType": "address",
          "name": "_owner",
          "type": "address"
        },
        {
          "internalType": "address",
          "name": "_operator",
          "type": "address"
        }
      ],
      "name": "isPetOperatorForAll",
      "outputs": [
        {
          "internalType": "bool",
          "name": "approved_",
          "type": "bool"
        }
      ],
      "stateMutability": "view",
      "type": "function"
    },
    {
      "inputs": [],
      "name": "name",
      "outputs": [
        {
          "internalType": "string",
          "name": "",
          "type": "string"
        }
      ],
      "stateMutability": "view",
      "type": "function"
    },
    {
      "inputs": [
        {
          "internalType": "uint256",
          "name": "_tokenId",
          "type": "uint256"
        }
      ],
      "name": "ownerOf",
      "outputs": [
        {
          "internalType": "address",
          "name": "owner_",
          "type": "address"
        }
      ],
      "stateMutability": "view",
      "type": "function"
    },
    {
      "inputs": [
        {
          "internalType": "address",
          "name": "_from",
          "type": "address"
        },
        {
          "internalType": "address",
          "name": "_to",
          "type": "address"
        },
        {
          "internalType": "uint256[]",
          "name": "_tokenIds",
          "type": "uint256[]"
        },
        {
          "internalType": "bytes",
          "name": "_data",
          "type": "bytes"
        }
      ],
      "name": "safeBatchTransferFrom",
      "outputs": [],
      "stateMutability": "nonpayable",
      "type": "function"
    },
    {
      "inputs": [
        {
          "internalType": "address",
          "name": "_from",
          "type": "address"
        },
        {
          "internalType": "address",
          "name": "_to",
          "type": "address"
        },
        {
          "internalType": "uint256",
          "name": "_tokenId",
          "type": "uint256"
        }
      ],
      "name": "safeTransferFrom",
      "outputs": [],
      "stateMutability": "nonpayable",
      "type": "function"
    },
    {
      "inputs": [
        {
          "internalType": "address",
          "name": "_from",
          "type": "address"
        },
        {
          "internalType": "address",
          "name": "_to",
          "type": "address"
        },
        {
          "internalType": "uint256",
          "name": "_tokenId",
          "type": "uint256"
        },
        {
          "internalType": "bytes",
          "name": "_data",
          "type": "bytes"
        }
      ],
      "name": "safeTransferFrom",
      "outputs": [],
      "stateMutability": "nonpayable",
      "type": "function"
    },
    {
      "inputs": [
        {
          "internalType": "address",
          "name": "_operator",
          "type": "address"
        },
        {
          "internalType": "bool",
          "name": "_approved",
          "type": "bool"
        }
      ],
      "name": "setApprovalForAll",
      "outputs": [],
      "stateMutability": "nonpayable",
      "type": "function"
    },
    {
      "inputs": [
        {
          "internalType": "address",
          "name": "_operator",
          "type": "address"
        },
        {
          "internalType": "bool",
          "name": "_approved",
          "type": "bool"
        }
      ],
      "name": "setPetOperatorForAll",
      "outputs": [],
      "stateMutability": "nonpayable",
      "type": "function"
    },
    {
      "inputs": [],
      "name": "symbol",
      "outputs": [
        {
          "internalType": "string",
          "name": "",
          "type": "string"
        }
      ],
      "stateMutability": "view",
      "type": "function"
    },
    {
      "inputs": [
        {
          "internalType": "uint256",
          "name": "_index",
          "type": "uint256"
        }
      ],
      "name": "tokenByIndex",
      "outputs": [
        {
          "internalType": "uint256",
          "name": "tokenId_",
          "type": "uint256"
        }
      ],
      "stateMutability": "view",
      "type": "function"
    },
    {
      "inputs": [
        {
          "internalType": "address",
          "name": "_owner",
          "type": "address"
        }
      ],
      "name": "tokenIdsOfOwner",
      "outputs": [
        {
          "internalType": "uint32[]",
          "name": "tokenIds_",
          "type": "uint32[]"
        }
      ],
      "stateMutability": "view",
      "type": "function"
    },
    {
      "inputs": [
        {
          "internalType": "address",
          "name": "_owner",
          "type": "address"
        },
        {
          "internalType": "uint256",
          "name": "_index",
          "type": "uint256"
        }
      ],
      "name": "tokenOfOwnerByIndex",
      "outputs": [
        {
          "internalType": "uint256",
          "name": "tokenId_",
          "type": "uint256"
        }
      ],
      "stateMutability": "view",
      "type": "function"
    },
    {
      "inputs": [
        {
          "internalType": "uint256",
          "name": "_tokenId",
          "type": "uint256"
        }
      ],
      "name": "tokenURI",
      "outputs": [
        {
          "internalType": "string",
          "name": "",
          "type": "string"
        }
      ],
      "stateMutability": "pure",
      "type": "function"
    },
    {
      "inputs": [],
      "name": "totalSupply",
      "outputs": [
        {
          "internalType": "uint256",
          "name": "totalSupply_",
          "type": "uint256"
        }
      ],
      "stateMutability": "view",
      "type": "function"
    },
    {
      "inputs": [
        {
          "internalType": "address",
          "name": "_from",
          "type": "address"
        },
        {
          "internalType": "address",
          "name": "_to",
          "type": "address"
        },
        {
          "internalType": "uint256",
          "name": "_tokenId",
          "type": "uint256"
        }
      ],
      "name": "transferFrom",
      "outputs": [],
      "stateMutability": "nonpayable",
      "type": "function"
    }
  ],
  "bytecode": "0x608060405234801561001057600080fd5b50614164806100206000396000f3fe608060405234801561001057600080fd5b506004361061014d5760003560e01c80634f6ccce7116100c3578063b50d66621161007c578063b50d6662146102da578063b88d4fde146102ed578063c87b56dd14610300578063cd675d5714610313578063d7358fea14610326578063e985e9c5146103465761014d565b80634f6ccce7146102665780636352211e1461027957806370a082311461028c57806395d89b411461029f5780639e59e598146102a7578063a22cb465146102c75761014d565b806323b872dd1161011557806323b872dd146101da57806328cfbd46146101ed5780632f745c591461020057806333dc83b11461021357806337c1d5691461023357806342842e0e146102535761014d565b806306fdde0314610152578063081812fc14610170578063095ea7b31461019057806318160ddd146101a5578063186a58ca146101ba575b600080fd5b61015a610359565b6040516101679190613890565b60405180910390f35b61018361017e3660046131be565b6103ef565b6040516101679190613749565b6101a361019e36600461312b565b610438565b005b6101ad61052c565b6040516101679190613cd8565b6101cd6101c8366004613156565b610532565b604051610167919061379a565b6101a36101e8366004613049565b610695565b6101a36101fb366004612fb7565b6106ad565b6101ad61020e36600461312b565b61075b565b610226610221366004612f47565b6107f5565b60405161016791906137e7565b6102466102413660046131be565b61092a565b6040516101679190613cc5565b6101a3610261366004613049565b610941565b6101ad6102743660046131be565b61097b565b6101836102873660046131be565b6109eb565b6101ad61029a366004612f47565b610a28565b61015a610a6c565b6102ba6102b5366004612f47565b610a7e565b6040516101679190613847565b6101a36102d53660046130fa565b610b16565b6101ad6102e83660046131be565b610bab565b6101a36102fb366004613089565b610bce565b61015a61030e3660046131be565b610c31565b6101a36103213660046130fa565b610c55565b610339610334366004612f7f565b610cde565b6040516101679190613885565b610339610354366004612f7f565b610d0c565b60606000601701805461036b90614080565b80601f016020809104026020016040519081016040528092919081815260200182805461039790614080565b80156103e45780601f106103b9576101008083540402835291602001916103e4565b820191906000526020600020905b8154815290600101906020018083116103c757829003601f168201915b505050505090505b90565b601054600090821061041c5760405162461bcd60e51b815260040161041390613986565b60405180910390fd5b506000908152601360205260409020546001600160a01b031690565b6000818152600d60205260409020600a01546001600160a01b031661045b610d3a565b6001600160a01b0316816001600160a01b031614806104b457506001600160a01b038116600090815260126020526040812090610496610d3a565b6001600160a01b0316815260208101919091526040016000205460ff165b6104d05760405162461bcd60e51b815260040161041390613ac9565b60008281526013602052604080822080546001600160a01b0319166001600160a01b0387811691821790925591518593918516917f8c5be1e5ebec7d5bd14f71427d1e84f3dd0314c0f7b2291e5b200ac8c7c3b92591a4505050565b60105490565b60608167ffffffffffffffff81111561055b57634e487b7160e01b600052604160045260246000fd5b604051908082528060200260200182016040528015610584578160200160208202803683370190505b50905060005b8281101561068e57600d60008585848181106105b657634e487b7160e01b600052603260045260246000fd5b905060200201358152602001908152602001600020600a0160009054906101000a90046001600160a01b031682828151811061060257634e487b7160e01b600052603260045260246000fd5b60200260200101906001600160a01b031690816001600160a01b03168152505060006001600160a01b031682828151811061064d57634e487b7160e01b600052603260045260246000fd5b60200260200101516001600160a01b0316141561067c5760405162461bcd60e51b8152600401610413906138a3565b80610686816140b5565b91505061058a565b5092915050565b6106a86106a0610d3a565b848484610d96565b505050565b60006106b7610d3a565b905060005b848110156107515760008686838181106106e657634e487b7160e01b600052603260045260246000fd5b9050602002013590506106fb838a8a84610d96565b61073e838a8a8489898080601f016020809104026020016040519081016040528093929190818152602001838380828437600092019190915250610ec392505050565b5080610749816140b5565b9150506106bc565b5050505050505050565b6001600160a01b0382166000908152600e602052604081205482106107925760405162461bcd60e51b815260040161041390613be6565b6001600160a01b0383166000908152600e602052604090208054839081106107ca57634e487b7160e01b600052603260045260246000fd5b6000918252602090912060088204015460079091166004026101000a900463ffffffff169392505050565b6001600160a01b0381166000908152600e60205260409020546060908067ffffffffffffffff81111561083857634e487b7160e01b600052604160045260246000fd5b60405190808252806020026020018201604052801561087157816020015b61085e612cb6565b8152602001906001900390816108565790505b50915060005b81811015610923576001600160a01b0384166000908152600e6020526040902080546108e59190839081106108bc57634e487b7160e01b600052603260045260246000fd5b6000918252602090912060088204015460079091166004026101000a900463ffffffff16610f7e565b83828151811061090557634e487b7160e01b600052603260045260246000fd5b6020026020010181905250808061091b906140b5565b915050610877565b5050919050565b610932612cb6565b61093b82610f7e565b92915050565b600061094b610d3a565b905061095981858585610d96565b6109758185858560405180602001604052806000815250610ec3565b50505050565b601054600090821061099f5760405162461bcd60e51b815260040161041390613b58565b60108054839081106109c157634e487b7160e01b600052603260045260246000fd5b6000918252602090912060088204015460079091166004026101000a900463ffffffff1692915050565b6000818152600d60205260409020600a01546001600160a01b031680610a235760405162461bcd60e51b8152600401610413906138a3565b919050565b60006001600160a01b038216610a505760405162461bcd60e51b815260040161041390613c7a565b506001600160a01b03166000908152600e602052604090205490565b60606000601801805461036b90614080565b6001600160a01b0381166000908152600e6020908152604091829020805483518184028101840190945280845260609392830182828015610b0a57602002820191906000526020600020906000905b82829054906101000a900463ffffffff1663ffffffff1681526020019060040190602082600301049283019260010382029150808411610acd5790505b50505050509050919050565b8060126000610b23610d3a565b6001600160a01b03908116825260208083019390935260409182016000908120918716808252919093529120805460ff191692151592909217909155610b67610d3a565b6001600160a01b03167f17307eab39ab6107e8899845ad3d59bd9653f200f220920489ca2b5937696c3183604051610b9f9190613885565b60405180910390a35050565b6000908152600d6020526040902060090154600160a01b900464ffffffffff1690565b6000610bd8610d3a565b9050610be681878787610d96565b610c298187878787878080601f016020809104026020016040519081016040528093929190818152602001838380828437600092019190915250610ec392505050565b505050505050565b606061093b6040518060600160405280603081526020016140ff6030913983611342565b80603f6000610c62610d3a565b6001600160a01b03908116825260208083019390935260409182016000908120918716808252919093529120805460ff191692151592909217909155610ca6610d3a565b6001600160a01b03167f1903b4167d090b4c506fb1403a5ae9f9b403bd3e8a3feb33c8082d1a0a90530383604051610b9f9190613885565b6001600160a01b039182166000908152603f6020908152604080832093909416825291909152205460ff1690565b6001600160a01b03918216600090815260126020908152604080832093909416825291909152205460ff1690565b600033301415610d9157600080368080601f0160208091040260200160405190810160405280939291908181526020018383808284376000920191909152505050503601516001600160a01b031691506103ec9050565b503390565b610da0818561146e565b6001600160a01b038216610dc65760405162461bcd60e51b815260040161041390613a11565b6001600160a01b038316610dec5760405162461bcd60e51b815260040161041390613c31565b6000818152600d60205260409020600a01546001600160a01b03848116911614610e285760405162461bcd60e51b8152600401610413906139bd565b826001600160a01b0316846001600160a01b03161480610e6d57506001600160a01b0380841660009081526012602090815260408083209388168352929052205460ff165b80610e9157506000818152601360205260409020546001600160a01b038581169116145b610ead5760405162461bcd60e51b8152600401610413906138e4565b610eb883838361151f565b610975308285611829565b823b8015610c2957604051630a85bd0160e11b81526001600160a01b0385169063150b7a0290610efd90899089908890889060040161375d565b602060405180830381600087803b158015610f1757600080fd5b505af1158015610f2b573d6000803e3d6000fd5b505050506040513d601f19601f82011682018060405250810190610f4f9190613196565b6001600160e01b031916630a85bd0160e11b14610c295760405162461bcd60e51b815260040161041390613936565b610f86612cb6565b6000610f9061196d565b8383526000848152600d820160208181526040808420600a8101546001600160a01b0381169289019290925260048101546060890152600160a01b90910460ff16608088019081529388905291905260090154600160f01b900461ffff16610240850152519091506003141561133c576000838152600d820160205260409020600301805461101e90614080565b80601f016020809104026020016040519081016040528092919081815260200182805461104a90614080565b80156110975780601f1061106c57610100808354040283529160200191611097565b820191906000526020600020905b81548152906001019060200180831161107a57829003601f168201915b50505050506020838101919091526000848152600d8301909152604080822081516102008101928390529290916010918390855b82829054906101000a900461ffff1661ffff16815260200190600201906020826001010492830192600103820291508084116110cb57505050505060e0840191909152506000838152600d82016020818152604080842060098101546001600160a01b0390811661010089019081529589905293909252600b9091015482166101208601819052925190516370a0823160e01b81529116916370a08231916111769190600401613749565b60206040518083038186803b15801561118e57600080fd5b505afa1580156111a2573d6000803e3d6000fd5b505050506040513d601f19601f820116820180604052508101906111c691906131d6565b6101408301526000838152600d820160205260409020600601546101608301526111ef83611972565b6101808301526000838152600d8201602081815260408320600a810154600160a81b900464ffffffffff166101a0870152600501546101c08601819052928690525261123a906119e9565b6101e08301526000838152600d8201602052604090206005015461125d90611a1f565b6102208301526000838152600d820160208181526040808420600781015461020088015287855292909152805160c081019182905292600290920191600691908390855b82829054906101000a900460010b60010b815260200190600201906020826001010492830192600103820291508084116112a157505050505060a08401829052506112eb90611a60565b6102608301526112fa83611ae8565b61028084015260c08301526000838152600d820160205260409020600a0154600160d01b900460ff1615156102a08301526113353084611ccc565b6102c08301525b50919050565b60608082611372578360405160200161135b9190613712565b60405160208183030381529060405291505061093b565b8260005b811561138a57600101600a82049150611376565b8067ffffffffffffffff8111156113b157634e487b7160e01b600052604160045260246000fd5b6040519080825280601f01601f1916602001820160405280156113db576020820181803683370190505b50925084915060001981015b821561144057600a830660300160f81b8482806001900393508151811061141e57634e487b7160e01b600052603260045260246000fd5b60200101906001600160f81b031916908160001a905350600a830492506113e7565b50505083816040516020016114569291906136e3565b60405160208183030381529060405291505092915050565b600061147861196d565b63ffffffff80851660009081526043830160205260409020549192501680156109755763ffffffff81166000908152604283016020526040902080546001600160a01b038581169116146114de5760405162461bcd60e51b815260040161041390613b9c565b6002810154600160c81b900464ffffffffff161561150e5760405162461bcd60e51b815260040161041390613b9c565b61151882856122c5565b5050505050565b600061152961196d565b6001600160a01b0385166000818152600f830160209081526040808320878452825280832054938352600e8501909152812054929350909161156d9060019061403d565b9050808214611679576001600160a01b0386166000908152600e8401602052604081208054839081106115b057634e487b7160e01b600052603260045260246000fd5b90600052602060002090600891828204019190066004029054906101000a900463ffffffff1690508084600e016000896001600160a01b03166001600160a01b03168152602001908152602001600020848154811061161f57634e487b7160e01b600052603260045260246000fd5b600091825260208083206008830401805460079093166004026101000a63ffffffff8181021990941695841602949094179093556001600160a01b038a168252600f87018352604080832094909116825292909152208290555b6001600160a01b0386166000908152600e8401602052604090208054806116b057634e487b7160e01b600052603160045260246000fd5b60008281526020808220600860001990940193840401805463ffffffff600460078716026101000a0219169055919092556001600160a01b038089168352600f860182526040808420888552835280842084905560138701909252912054161561176857600084815260138401602052604080822080546001600160a01b0319169055518591906001600160a01b038916907f8c5be1e5ebec7d5bd14f71427d1e84f3dd0314c0f7b2291e5b200ac8c7c3b925908390a45b6000848152600d840160209081526040808320600a0180546001600160a01b0319166001600160a01b038a8116918217909255808552600e88018085528386208054600f8b0187528588208c8952875285882081905591865260018201815586529385206008850401805460079095166004026101000a63ffffffff81810219909616958b16029490941790935590518793918a16917fddf252ad1be2c89b69c2b068fc378daa952ba7f163c4a11628f55a4df523b3ef91a4505050505050565b600061183361196d565b6001600160a01b0380861660009081526039830160209081526040808320888452825280832093871683529290522054909150806118725750506106a8565b60008181526033830160205260409020600781015415158061189d5750600881015460ff1615156001145b156118aa575050506106a8565b600281015460038201546040516331a9108f60e11b81526000926001600160a01b031691636352211e916118e19190600401613cd8565b60206040518083038186803b1580156118f957600080fd5b505afa15801561190d573d6000803e3d6000fd5b505050506040513d601f19601f820116820180604052508101906119319190612f63565b60018301549091506001600160a01b038083169116146119645760018201546119649084906001600160a01b03166124a5565b50505050505050565b600090565b60008061197d61196d565b6000848152600d820160205260408120600a81015460088201549394509092600160a81b90910464ffffffffff16916119b6834261403d565b905060006119c76201518083613e25565b9050808311156119de576119db818461403d565b96505b505050505050919050565b6000806119f583611a1f565b905082611a03600283613e8b565b611a0e906032613fdf565b611a18919061403d565b9392505050565b600062077a42821115611a3457506063610a23565b600a611a49611a44846002613fdf565b6125ca565b611a539190613e25565b905061093b816001613e0d565b6000805b600681101561133c576000838260068110611a8f57634e487b7160e01b600052603260045260246000fd5b602002015160010b905060328112611abd57611aac816001613e0d565b611ab69084613e0d565b9250611ad5565b611ac8816064613ffe565b611ad29084613e0d565b92505b5080611ae0816140b5565b915050611a64565b611af0612d93565b600080611afb61196d565b6000858152600d820160205260409020600a0154909150600160a01b900460ff16600314611b3b5760405162461bcd60e51b815260040161041390613a94565b6000848152600d820160205260409020611b548561261d565b93506000805b6010811015611ca9576000838260108110611b8557634e487b7160e01b600052603260045260246000fd5b601081049190910154600f9091166002026101000a900461ffff16905080611bad5750611c97565b6000856006018281548110611bd257634e487b7160e01b600052603260045260246000fd5b90600052602060002090600b0201905060005b6006811015611c7757816003018160068110611c1157634e487b7160e01b600052603260045260246000fd5b602091828204019190069054906101000a900460000b60000b898260068110611c4a57634e487b7160e01b600052603260045260246000fd5b60200201818151611c5b9190613d88565b600190810b900b90525080611c6f816140b5565b915050611be5565b50600a810154611c9290640100000000900460ff1685613e0d565b935050505b80611ca1816140b5565b915050611b5a565b506000611cb586611a60565b9050611cc18282613e0d565b945050505050915091565b60606000611cd861196d565b6001600160a01b038516600090815260048201602090815260408083208784529091529020549091508067ffffffffffffffff811115611d2857634e487b7160e01b600052604160045260246000fd5b604051908082528060200260200182016040528015611d6157816020015b611d4e612db1565b815260200190600190039081611d465790505b50925060005b818110156122bc576001600160a01b038616600090815260048401602090815260408083208884529091528120805483908110611db457634e487b7160e01b600052603260045260246000fd5b60009182526020808320909101546001600160a01b038a16835260038701825260408084208a855283528084208285529092529120548651919250908290879085908110611e1257634e487b7160e01b600052603260045260246000fd5b6020026020010151602001818152505080868481518110611e4357634e487b7160e01b600052603260045260246000fd5b60209081029190910101515260068501805483908110611e7357634e487b7160e01b600052603260045260246000fd5b90600052602060002090600b020160405180610240016040529081600082018054611e9d90614080565b80601f0160208091040260200160405190810160405280929190818152602001828054611ec990614080565b8015611f165780601f10611eeb57610100808354040283529160200191611f16565b820191906000526020600020905b815481529060010190602001808311611ef957829003601f168201915b50505050508152602001600182018054611f2f90614080565b80601f0160208091040260200160405190810160405280929190818152602001828054611f5b90614080565b8015611fa85780601f10611f7d57610100808354040283529160200191611fa8565b820191906000526020600020905b815481529060010190602001808311611f8b57829003601f168201915b50505050508152602001600282018054611fc190614080565b80601f0160208091040260200160405190810160405280929190818152602001828054611fed90614080565b801561203a5780601f1061200f5761010080835404028352916020019161203a565b820191906000526020600020905b81548152906001019060200180831161201d57829003601f168201915b50505091835250506040805160c0810191829052602090920191906003840190600690826000855b82829054906101000a900460000b60000b815260200190600101906020826000010492830192600103820291508084116120625750505092845250506040805161020081019182905260209093019291506004840190601090826000855b825461010083900a900460ff1615158152602060019283018181049485019490930390920291018084116120c0579050505050505081526020016005820180548060200260200160405190810160405280929190818152602001828054801561216657602002820191906000526020600020906000905b825461010083900a900460ff168152602060019283018181049485019490930390920291018084116121375790505b50505091835250506040805160808082018352600685015460ff808216845261010080830482166020868101919091526201000084048316868801526301000000909304821660608087019190915292870194909452600787015494860194909452600886015490850152600985015490840152600a9093015463ffffffff80821660a08501526401000000008204831660c08501526501000000000082048316151560e085015261ffff6601000000000000830416948401949094526801000000000000000081048216151561012084015269010000000000000000008104909116610140830152600160501b8104600190810b810b900b610160830152600160601b900490911661018090910152865187908590811061229857634e487b7160e01b600052603260045260246000fd5b602002602001015160400181905250505080806122b4906140b5565b915050611d67565b50505092915050565b60006122cf61196d565b63ffffffff841660009081526042820160205260409020600281015491925090600160f01b900460ff16156123055750506124a1565b6002810154600160c81b900464ffffffffff16156123355760405162461bcd60e51b815260040161041390613b10565b60028101805460ff60f01b1916600160f01b17905561235e8385651b1a5cdd195960d21b6127c8565b60018101805463ffffffff600160c01b9182900481166000908152600d860160209081526040808320600a01805460ff60d01b19169055945493909304821681526043860190925290829020805463ffffffff191690559051908516907f58bf86d7321ca96f6873fbd24682c06a141b27bb3c7daa42393eb177d6da8d41906123e8904290613cd8565b60405180910390a260018101548154600583015460028401546003850154604051600160c01b860463ffffffff908116966001600160a01b03808816978d8416977ff7ec0ddea8bac5aa59bbf1289372170c1a5fea429c89d7fa2a41bd21741423809761249697600160a01b9093046bffffffffffffffffffffffff16966501000000000090920486169560048e01959185169490931692600160e01b909104169060068d01904290613cef565b60405180910390a450505b5050565b60006124af61196d565b600084815260348201602052604090206001810154919250906124d35750506124a1565b60008481526033830160205260409020600881015460ff161515600114806124fe5750600781015415155b1561250b575050506124a1565b60018101546001600160a01b0385811691161461253a5760405162461bcd60e51b815260040161041390613a5d565b60088101805460ff1916600117905560028101546001600160a01b03163014156125825760038101546000908152600d840160205260409020600a01805460ff60d01b191690555b847f10e53bca620314e794d61e37932062e81c48e88233765d09da42aeb00ae4dba08260040154436040516125b8929190613ce1565b60405180910390a26115188585612a58565b60008060026125da846001613e0d565b6125e49190613e25565b90508291505b8181101561133c579050806002816126028186613e25565b61260c9190613e0d565b6126169190613e25565b90506125ea565b612625612d93565b600061262f61196d565b6000848152600d8201602052604081206009015491925090620151809061266490600160c81b900464ffffffffff164261403d565b61266e9190613e25565b905060005b60068110156127c0576000858152600d84016020526040812060020182600681106126ae57634e487b7160e01b600052603260045260246000fd5b601091828204019190066002029054906101000a900460010b60010b9050600084600d016000888152602001908152602001600020600101836006811061270557634e487b7160e01b600052603260045260246000fd5b602091828204019190069054906101000a900460000b60000b905060008113801561272f57508381135b1561274f5761273e8482613ffe565b6127489083613dcc565b9150612779565b8361275c82600019613f5c565b13156127795761276c8482613dcc565b6127769083613dcc565b91505b8186846006811061279a57634e487b7160e01b600052603260045260246000fd5b602002019060010b908160010b81525050505080806127b8906140b5565b915050612673565b505050919050565b60006127d261196d565b6000838152604682016020908152604080832063ffffffff8816845290915290206001810154919250906128075750506106a8565b805463ffffffff168015612850576000848152604684016020908152604080832063ffffffff808616855292529091206002808501549101805463ffffffff1916919092161790555b600282015463ffffffff168015612897576000858152604685016020908152604080832063ffffffff808616855292529091208454815463ffffffff191692169190911790555b600085815260478501602052604090205463ffffffff878116911614156128e557600283015460008681526047860160205260409020805463ffffffff191663ffffffff9092169190911790555b600060018401819055835463ffffffff19908116855560029094018054909416909355848352604884016020908152604080852063ffffffff89811687529252909320805490931691508115612970576000858152604885016020908152604080832063ffffffff808716855292529091206002808601549101805463ffffffff1916919092161790555b50600282015463ffffffff1680156129b8576000858152604885016020908152604080832063ffffffff808616855292529091208454815463ffffffff191692169190911790555b6001600160a01b0387166000908152604985016020908152604080832088845290915290205463ffffffff87811691161415612a305760028301546001600160a01b038816600090815260498601602090815260408083208984529091529020805463ffffffff191663ffffffff9092169190911790555b505060006001820155805463ffffffff19908116825560029091018054909116905550505050565b6000612a6261196d565b60008481526034820160205260409020600181015491925090612a865750506124a1565b80548015612aa857600081815260348401602052604090206002808401549101555b60028201548015612ac85760008181526034850160205260409020835490555b60008681526033850160209081526040808320600481015484526035880190925291829020915190918891612afc90613737565b9081526020016040518091039020541415612b4957600284015460048201546000908152603587016020526040908190209051612b3890613737565b908152604051908190036020019020555b6000600185018190558085556002909401849055868452603685016020526040909320805490939092508215612b9357600083815260368601602052604090206002808601549101555b600284015491508115612bb55760008281526036860160205260409020845490555b50600086815260338501602090815260408083206001600160a01b03891684526037880183528184206004820154855290925291829020915190918891612bfb90613737565b9081526020016040518091039020541415612c5c5760028401546001600160a01b0387166000908152603787016020908152604080832060048601548452909152908190209051612c4b90613737565b908152604051908190036020019020555b6000600185018190558085556002850155600481015460405188917fd309bba073dd463d9d78e92766d06da7cde7d0e6e83149168a7bc913c9ecc44291612ca591904290613ce1565b60405180910390a250505050505050565b604051806102e00160405280600081526020016060815260200160006001600160a01b031681526020016000815260200160008152602001612cf6612d93565b8152602001612d03612d93565b8152602001612d10612dd7565b815260200160006001600160a01b0316815260200160006001600160a01b031681526020016000815260200160008152602001600081526020016000815260200160008152602001600081526020016000815260200160008152602001600081526020016000815260200160008152602001600015158152602001606081525090565b6040518060c001604052806006906020820280368337509192915050565b60405180606001604052806000815260200160008152602001612dd2612df6565b905290565b6040518061020001604052806010906020820280368337509192915050565b604051806102400160405280606081526020016060815260200160608152602001612e1f612d93565b8152602001612e2c612dd7565b815260200160608152602001612e40612e97565b815260006020820181905260408201819052606082018190526080820181905260a0820181905260c0820181905260e082018190526101008201819052610120820181905261014082018190526101609091015290565b60408051608081018252600080825260208201819052918101829052606081019190915290565b60008083601f840112612ecf578182fd5b50813567ffffffffffffffff811115612ee6578182fd5b6020830191508360208083028501011115612f0057600080fd5b9250929050565b60008083601f840112612f18578182fd5b50813567ffffffffffffffff811115612f2f578182fd5b602083019150836020828501011115612f0057600080fd5b600060208284031215612f58578081fd5b8135611a18816140e6565b600060208284031215612f74578081fd5b8151611a18816140e6565b60008060408385031215612f91578081fd5b8235612f9c816140e6565b91506020830135612fac816140e6565b809150509250929050565b60008060008060008060808789031215612fcf578182fd5b8635612fda816140e6565b95506020870135612fea816140e6565b9450604087013567ffffffffffffffff80821115613006578384fd5b6130128a838b01612ebe565b9096509450606089013591508082111561302a578384fd5b5061303789828a01612f07565b979a9699509497509295939492505050565b60008060006060848603121561305d578283fd5b8335613068816140e6565b92506020840135613078816140e6565b929592945050506040919091013590565b6000806000806000608086880312156130a0578081fd5b85356130ab816140e6565b945060208601356130bb816140e6565b935060408601359250606086013567ffffffffffffffff8111156130dd578182fd5b6130e988828901612f07565b969995985093965092949392505050565b6000806040838503121561310c578182fd5b8235613117816140e6565b915060208301358015158114612fac578182fd5b6000806040838503121561313d578182fd5b8235613148816140e6565b946020939093013593505050565b60008060208385031215613168578182fd5b823567ffffffffffffffff81111561317e578283fd5b61318a85828601612ebe565b90969095509350505050565b6000602082840312156131a7578081fd5b81516001600160e01b031981168114611a18578182fd5b6000602082840312156131cf578081fd5b5035919050565b6000602082840312156131e7578081fd5b5051919050565b6001600160a01b03169052565b6000815480845260208085019450838352808320835b838110156132365781546001600160a01b031687529582019560019182019101613211565b509495945050505050565b8060005b60108110156109755781511515845260209384019390910190600101613245565b8060005b6006811015610975578151600190810b8552602094850194909201910161326a565b806000805b6006811015611518578251820b855260209485019490920191600101613291565b6000815180845260208085018081965082840281019150828601855b8581101561348f5782840389528151606081518652868201518787015260408083015192508181880152825161052080848a01526133106105808a01836134fb565b915089850151605f196080818c860301818d015261332e85846134fb565b945085880151955060a09250818c860301838d015261334d85876134fb565b9688015196955060c094506133648c86018861328c565b87015195506101806133788c820188613241565b828801519650818c8703016103808d015261339386886134c3565b96508488015195506133a96103a08d0187613698565b60e08801516104208d01526101008801516104408d01526101208801516104608d015261014088015195506133e26104808d01876136d2565b61016088015195506133f86104a08d01876136dc565b870151945061340e9150506104c08a01846134f5565b6101a085015192506134246104e08a01846136ca565b6101c0850151925061343a6105008a01846134f5565b6101e0850151925061344e818a01846136dc565b505050610200820151613465610540880182613527565b50610220820151915061347c6105608701836136d2565b99860199945050908401906001016132ce565b5091979650505050505050565b8060005b601081101561097557815161ffff168452602093840193909101906001016134a0565b6000815180845260208085019450808401835b8381101561323657815160ff16875295820195908201906001016134d6565b15159052565b60008151808452613513816020860160208601614054565b601f01601f19169290920160200192915050565b60010b9052565b600061060082518452602083015181602086015261354e828601826134fb565b915050604083015161356360408601826131ee565b50606083015160608501526080830151608085015260a083015161358a60a0860182613266565b5060c083015161016061359f81870183613266565b60e085015191506102206135b58188018461349c565b61010086015192506135cb6104208801846131ee565b61012086015192506135e16104408801846131ee565b610140860151610460880152908501516104808701526101808501516104a08701526101a08501516104c08701526101c08501516104e08701526101e0850151610500870152610200850151610520870152840151610540860152506102408301516105608501526102608301516105808501526102808301516105a08501526102a08301516136756105c08601826134f5565b506102c08301518482036105e086015261368f82826132b2565b95945050505050565b60ff815116825260ff602082015116602083015260ff604082015116604083015260ff60608201511660608301525050565b61ffff169052565b63ffffffff169052565b60ff169052565b600083516136f5818460208801614054565b835190830190613709818360208801614054565b01949350505050565b60008251613724818460208701614054565b600360fc1b920191825250600101919050565b651b1a5cdd195960d21b815260060190565b6001600160a01b0391909116815260200190565b6001600160a01b0385811682528416602082015260408101839052608060608201819052600090613790908301846134fb565b9695505050505050565b6020808252825182820181905260009190848201906040850190845b818110156137db5783516001600160a01b0316835292840192918401916001016137b6565b50909695505050505050565b6000602080830181845280855180835260408601915060408482028701019250838701855b8281101561383a57603f1988860301845261382885835161352e565b9450928501929085019060010161380c565b5092979650505050505050565b6020808252825182820181905260009190848201906040850190845b818110156137db57835163ffffffff1683529284019291840191600101613863565b901515815260200190565b600060208252611a1860208301846134fb565b60208082526021908201527f41617665676f7463686946616365743a20696e76616c6964205f746f6b656e496040820152601960fa1b606082015260800190565b60208082526032908201527f41617665676f7463686946616365743a204e6f74206f776e6572206f72206170604082015271383937bb32b2103a37903a3930b739b332b960711b606082015260800190565b60208082526030908201527f41617665676f7463686946616365743a205472616e736665722072656a65637460408201526f65642f6661696c6564206279205f746f60801b606082015260800190565b6020808252601a908201527f4552433732313a20746f6b656e496420697320696e76616c6964000000000000604082015260600190565b60208082526034908201527f41617665676f7463686946616365743a205f66726f6d206973206e6f74206f776040820152731b995c8b081d1c985b9cd9995c8819985a5b195960621b606082015260800190565b6020808252602c908201527f41617665676f7463686946616365743a2043616e2774207472616e736665722060408201526b746f2030206164647265737360a01b606082015260800190565b6020808252601d908201527f4d61726b6574706c6163653a206f776e6572206e6f742073656c6c6572000000604082015260600190565b6020808252818101527f41617665676f7463686946616365743a204d75737420626520636c61696d6564604082015260600190565b60208082526027908201527f4552433732313a204e6f74206f776e6572206f72206f70657261746f72206f66604082015266103a37b5b2b71760c91b606082015260800190565b60208082526028908201527f4c6962476f746368694c656e64696e673a204c697374696e6720616c726561646040820152671e481859dc99595960c21b606082015260800190565b60208082526024908201527f41617665676f7463686946616365743a20696e646578206265796f6e6420737560408201526370706c7960e01b606082015260800190565b6020808252602a908201527f4c6962476f746368694c656e64696e673a2041617665676f7463686920697320604082015269696e206c656e64696e6760b01b606082015260800190565b6020808252602b908201527f41617665676f7463686946616365743a20696e646578206265796f6e64206f7760408201526a6e65722062616c616e636560a81b606082015260800190565b60208082526029908201527f41617665676f7463686946616365743a205f66726f6d2063616e27742062652060408201526830206164647265737360b81b606082015260800190565b6020808252602b908201527f41617665676f7463686946616365743a205f6f776e65722063616e277420626560408201526a206164647265737328302960a81b606082015260800190565b600060208252611a18602083018461352e565b90815260200190565b918252602082015260400190565b6bffffffffffffffffffffffff8916815263ffffffff88166020820152865460ff8082166040840152600882901c8116606084015260109190911c1660808201526001600160a01b03861660a08201526000610140613d5160c08401886131ee565b613d5e60e08401876136d2565b80610100840152613d71818401866131fb565b915050826101208301529998505050505050505050565b60008160010b8360010b82821282617fff03821381151615613dac57613dac6140d0565b82617fff19038212811615613dc357613dc36140d0565b50019392505050565b600080821280156001600160ff1b0384900385131615613dee57613dee6140d0565b600160ff1b8390038412811615613e0757613e076140d0565b50500190565b60008219821115613e2057613e206140d0565b500190565b600082613e4057634e487b7160e01b81526012600452602481fd5b500490565b80825b6001808611613e575750613e82565b818704821115613e6957613e696140d0565b80861615613e7657918102915b9490941c938002613e48565b94509492505050565b6000611a1860001960ff851684600082613ea757506001611a18565b81613eb457506000611a18565b8160018114613eca5760028114613ed457613f01565b6001915050611a18565b60ff841115613ee557613ee56140d0565b6001841b915084821115613efb57613efb6140d0565b50611a18565b5060208310610133831016604e8410600b8410161715613f34575081810a83811115613f2f57613f2f6140d0565b611a18565b613f418484846001613e45565b808604821115613f5357613f536140d0565b02949350505050565b60006001600160ff1b0381841382841380821686840486111615613f8257613f826140d0565b600160ff1b84871282811687830589121615613fa057613fa06140d0565b858712925087820587128484161615613fbb57613fbb6140d0565b87850587128184161615613fd157613fd16140d0565b505050929093029392505050565b6000816000190483118215151615613ff957613ff96140d0565b500290565b60008083128015600160ff1b85018412161561401c5761401c6140d0565b6001600160ff1b0384018313811615614037576140376140d0565b50500390565b60008282101561404f5761404f6140d0565b500390565b60005b8381101561406f578181015183820152602001614057565b838111156109755750506000910152565b60028104600182168061409457607f821691505b6020821081141561133c57634e487b7160e01b600052602260045260246000fd5b60006000198214156140c9576140c96140d0565b5060010190565b634e487b7160e01b600052601160045260246000fd5b6001600160a01b03811681146140fb57600080fd5b5056fe68747470733a2f2f6170702e61617665676f746368692e636f6d2f6d657461646174612f61617665676f74636869732fa2646970667358221220348b420753d8804cb85a2f640617bd13543d3a1f30b011d53004d4ad6f4a4c9e64736f6c63430008010033",
  "linkReferences": {},
  "deployedLinkReferences": {}
}