{
  "_format": "hh-sol-artifact-1",
  "contractName": "CollateralFacet",
  "sourceName": "contracts/Aavegotchi/facets/CollateralFacet.sol",
  "abi": [
    {
      "anonymous": false,
      "inputs": [
        {
          "indexed": true,
          "internalType": "uint256",
          "name": "_tokenId",
          "type": "uint256"
        },
        {
          "indexed": false,
          "internalType": "uint256",
          "name": "_reduceAmount",
          "type": "uint256"
        }
      ],
      "name": "DecreaseStake",
      "type": "event"
    },
    {
      "anonymous": false,
      "inputs": [
        {
          "indexed": true,
          "internalType": "uint256",
          "name": "_fromTokenId",
          "type": "uint256"
        },
        {
          "indexed": true,
          "internalType": "uint256",
          "name": "_toTokenId",
          "type": "uint256"
        },
        {
          "indexed": false,
          "internalType": "uint256",
          "name": "experience",
          "type": "uint256"
        }
      ],
      "name": "ExperienceTransfer",
      "type": "event"
    },
    {
      "anonymous": false,
      "inputs": [
        {
          "indexed": true,
          "internalType": "uint256",
          "name": "_tokenId",
          "type": "uint256"
        },
        {
          "indexed": false,
          "internalType": "uint256",
          "name": "_stakeAmount",
          "type": "uint256"
        }
      ],
      "name": "IncreaseStake",
      "type": "event"
    },
    {
      "inputs": [
        {
          "internalType": "uint256",
          "name": "_tokenId",
          "type": "uint256"
        }
      ],
      "name": "collateralBalance",
      "outputs": [
        {
          "internalType": "address",
          "name": "collateralType_",
          "type": "address"
        },
        {
          "internalType": "address",
          "name": "escrow_",
          "type": "address"
        },
        {
          "internalType": "uint256",
          "name": "balance_",
          "type": "uint256"
        }
      ],
      "stateMutability": "view",
      "type": "function"
    },
    {
      "inputs": [
        {
          "internalType": "uint256",
          "name": "_hauntId",
          "type": "uint256"
        },
        {
          "internalType": "uint256",
          "name": "_collateralId",
          "type": "uint256"
        }
      ],
      "name": "collateralInfo",
      "outputs": [
        {
          "components": [
            {
              "internalType": "address",
              "name": "collateralType",
              "type": "address"
            },
            {
              "components": [
                {
                  "internalType": "int16[6]",
                  "name": "modifiers",
                  "type": "int16[6]"
                },
                {
                  "internalType": "bytes3",
                  "name": "primaryColor",
                  "type": "bytes3"
                },
                {
                  "internalType": "bytes3",
                  "name": "secondaryColor",
                  "type": "bytes3"
                },
                {
                  "internalType": "bytes3",
                  "name": "cheekColor",
                  "type": "bytes3"
                },
                {
                  "internalType": "uint8",
                  "name": "svgId",
                  "type": "uint8"
                },
                {
                  "internalType": "uint8",
                  "name": "eyeShapeSvgId",
                  "type": "uint8"
                },
                {
                  "internalType": "uint16",
                  "name": "conversionRate",
                  "type": "uint16"
                },
                {
                  "internalType": "bool",
                  "name": "delisted",
                  "type": "bool"
                }
              ],
              "internalType": "struct AavegotchiCollateralTypeInfo",
              "name": "collateralTypeInfo",
              "type": "tuple"
            }
          ],
          "internalType": "struct AavegotchiCollateralTypeIO",
          "name": "collateralInfo_",
          "type": "tuple"
        }
      ],
      "stateMutability": "view",
      "type": "function"
    },
    {
      "inputs": [
        {
          "internalType": "uint256",
          "name": "_hauntId",
          "type": "uint256"
        }
      ],
      "name": "collaterals",
      "outputs": [
        {
          "internalType": "address[]",
          "name": "collateralTypes_",
          "type": "address[]"
        }
      ],
      "stateMutability": "view",
      "type": "function"
    },
    {
      "inputs": [
        {
          "internalType": "uint256",
          "name": "_tokenId",
          "type": "uint256"
        },
        {
          "internalType": "uint256",
          "name": "_toId",
          "type": "uint256"
        }
      ],
      "name": "decreaseAndDestroy",
      "outputs": [],
      "stateMutability": "nonpayable",
      "type": "function"
    },
    {
      "inputs": [
        {
          "internalType": "uint256",
          "name": "_tokenId",
          "type": "uint256"
        },
        {
          "internalType": "uint256",
          "name": "_reduceAmount",
          "type": "uint256"
        }
      ],
      "name": "decreaseStake",
      "outputs": [],
      "stateMutability": "nonpayable",
      "type": "function"
    },
    {
      "inputs": [],
      "name": "getAllCollateralTypes",
      "outputs": [
        {
          "internalType": "address[]",
          "name": "",
          "type": "address[]"
        }
      ],
      "stateMutability": "view",
      "type": "function"
    },
    {
      "inputs": [
        {
          "internalType": "uint256",
          "name": "_hauntId",
          "type": "uint256"
        }
      ],
      "name": "getCollateralInfo",
      "outputs": [
        {
          "components": [
            {
              "internalType": "address",
              "name": "collateralType",
              "type": "address"
            },
            {
              "components": [
                {
                  "internalType": "int16[6]",
                  "name": "modifiers",
                  "type": "int16[6]"
                },
                {
                  "internalType": "bytes3",
                  "name": "primaryColor",
                  "type": "bytes3"
                },
                {
                  "internalType": "bytes3",
                  "name": "secondaryColor",
                  "type": "bytes3"
                },
                {
                  "internalType": "bytes3",
                  "name": "cheekColor",
                  "type": "bytes3"
                },
                {
                  "internalType": "uint8",
                  "name": "svgId",
                  "type": "uint8"
                },
                {
                  "internalType": "uint8",
                  "name": "eyeShapeSvgId",
                  "type": "uint8"
                },
                {
                  "internalType": "uint16",
                  "name": "conversionRate",
                  "type": "uint16"
                },
                {
                  "internalType": "bool",
                  "name": "delisted",
                  "type": "bool"
                }
              ],
              "internalType": "struct AavegotchiCollateralTypeInfo",
              "name": "collateralTypeInfo",
              "type": "tuple"
            }
          ],
          "internalType": "struct AavegotchiCollateralTypeIO[]",
          "name": "collateralInfo_",
          "type": "tuple[]"
        }
      ],
      "stateMutability": "view",
      "type": "function"
    },
    {
      "inputs": [
        {
          "internalType": "uint256",
          "name": "_tokenId",
          "type": "uint256"
        },
        {
          "internalType": "uint256",
          "name": "_stakeAmount",
          "type": "uint256"
        }
      ],
      "name": "increaseStake",
      "outputs": [],
      "stateMutability": "nonpayable",
      "type": "function"
    },
    {
      "inputs": [
        {
          "internalType": "address",
          "name": "_collateralToken",
          "type": "address"
        },
        {
          "internalType": "uint8",
          "name": "_svgId",
          "type": "uint8"
        }
      ],
      "name": "setCollateralEyeShapeSvgId",
      "outputs": [],
      "stateMutability": "nonpayable",
      "type": "function"
    }
  ],
  "bytecode": "0x608060405234801561001057600080fd5b50611d46806100206000396000f3fe608060405234801561001057600080fd5b50600436106100935760003560e01c806349aa1f271161006657806349aa1f27146100fe5780634cd5d1f714610111578063934b5d1314610133578063a3ea00f114610153578063bec10cde1461016657610093565b806324c1173b1461009857806324d86f00146100c1578063294d499e146100d6578063338d0a9a146100de575b600080fd5b6100ab6100a63660046115c5565b610179565b6040516100b89190611761565b60405180910390f35b6100d46100cf3660046115f5565b6101e5565b005b6100ab6103d1565b6100f16100ec3660046115f5565b610437565b6040516100b89190611c2d565b6100d461010c3660046115f5565b61058c565b61012461011f3660046115c5565b610ba3565b6040516100b89392919061173d565b6101466101413660046115c5565b610c77565b6040516100b891906117ae565b6100d4610161366004611556565b610efa565b6100d46101743660046115f5565b610f92565b6000818152603d60209081526040918290208054835181840281018401909452808452606093928301828280156101d957602002820191906000526020600020905b81546001600160a01b031681526001909101906020018083116101bb575b50505050509050919050565b6000828152600d60205260409020600a01548290600160d01b900460ff16156102295760405162461bcd60e51b815260040161022090611acb565b60405180910390fd5b6000838152600d60205260409020600a015483906001600160a01b031661024e611088565b6001600160a01b0316146102745760405162461bcd60e51b815260040161022090611b1f565b6000848152600d60205260409020600b01546001600160a01b0316806102ac5760405162461bcd60e51b8152600401610220906119ed565b6000858152600d60205260408082206009015490516370a0823160e01b81526001600160a01b03909116919082906370a08231906102ee908690600401611729565b60206040518083038186803b15801561030657600080fd5b505afa15801561031a573d6000803e3d6000fd5b505050506040513d601f19601f8201168201806040525081019061033e91906115dd565b6000888152600d60205260409020600601549091508061035e8884611c5d565b101561037c5760405162461bcd60e51b815260040161022090611a79565b877f43c2f51b091d7988a9b26b7a0f304df6ca31ce05c86ac8ff6cb581529598b636886040516103ac9190611c3c565b60405180910390a26103c783856103c1611088565b8a6110e4565b5050505050505050565b6060600060190180548060200260200160405190810160405280929190818152602001828054801561042c57602002820191906000526020600020905b81546001600160a01b0316815260019091019060200180831161040e575b505050505090505b90565b61043f611466565b6000838152603d6020526040812080548490811061046d57634e487b7160e01b600052603260045260246000fd5b60009182526020808320909101546040805180820182526001600160a01b039092168083528085528484529381902081516101c081019092529394509092918301918161010081018260068282826020028201916000905b82829054906101000a900460010b60010b815260200190600201906020826001010492830192600103820291508084116104c55790505050509183525050600191909101546001600160e81b031960e882811b8216602085015263010000008304811b8216604085015266010000000000008304901b16606083015260ff600160481b820481166080840152600160501b8204811660a084015261ffff600160581b83041660c0840152600160681b90910416151560e09091015290529150505b92915050565b6000828152600d60205260409020600a01548290600160d01b900460ff16156105c75760405162461bcd60e51b815260040161022090611acb565b6000838152600d60205260409020600a015483906001600160a01b03166105ec611088565b6001600160a01b0316146106125760405162461bcd60e51b815260040161022090611b1f565b6000848152600d60205260409020600b01546001600160a01b03168061064a5760405162461bcd60e51b8152600401610220906119ed565b8385146106c8576000858152600d602052604090819020600501549051859087907fdf6a3b0443afce6d49c4e3983c00bd5f97d9dbce878fe8794403702665f7b4c290610698908590611c3c565b60405180910390a36000858152600d6020526040812060050180548392906106c1908490611c45565b9091555050505b6000858152600d60205260408120600a0180546001600160a01b03191690556106ef611088565b6001600160a01b0381166000818152600f602090815260408083208b8452825280832054938352600e909152812054929350909161072f90600190611c5d565b9050808214610838576001600160a01b0383166000908152600e6020526040812080548390811061077057634e487b7160e01b600052603260045260246000fd5b90600052602060002090600891828204019190066004029054906101000a900463ffffffff169050806000600e016000866001600160a01b03166001600160a01b0316815260200190815260200160002084815481106107e057634e487b7160e01b600052603260045260246000fd5b600091825260208083206008830401805460079093166004026101000a63ffffffff8181021990941695841602949094179093556001600160a01b0387168252600f8352604080832094909116825292909152208290555b6001600160a01b0383166000908152600e6020526040902080548061086d57634e487b7160e01b600052603160045260246000fd5b60008281526020808220600860001990940193840401805463ffffffff600460078716026101000a0219169055919092556001600160a01b038086168352600f825260408084208c855283528084208490556013909252912054161561091f5760008881526013602052604080822080546001600160a01b0319169055518991906001600160a01b038616907f8c5be1e5ebec7d5bd14f71427d1e84f3dd0314c0f7b2291e5b200ac8c7c3b925908390a45b60405188906000906001600160a01b038616907fddf252ad1be2c89b69c2b068fc378daa952ba7f163c4a11628f55a4df523b3ef908390a46000888152600d60205260408082206009015490516370a0823160e01b81526001600160a01b03909116919082906370a0823190610999908990600401611729565b60206040518083038186803b1580156109b157600080fd5b505afa1580156109c5573d6000803e3d6000fd5b505050506040513d601f19601f820116820180604052508101906109e991906115dd565b9050897f43c2f51b091d7988a9b26b7a0f304df6ca31ce05c86ac8ff6cb581529598b63682604051610a1b9190611c3c565b60405180910390a2610a2f828787846110e4565b60008a8152600d602052604081206003018054610a4b90611ca4565b80601f0160208091040260200160405190810160405280929190818152602001828054610a7790611ca4565b8015610ac45780601f10610a9957610100808354040283529160200191610ac4565b820191906000526020600020905b815481529060010190602001808311610aa757829003601f168201915b50505050509050600081511115610b05576014610ae0826111c5565b604051610aed919061170d565b908152604051908190036020019020805460ff191690555b60008b8152600d6020526040812090610b1e828261148e565b610b2c60018301600061148e565b610b3a60028301600061148e565b610b48600383016000611495565b50600060048201819055600582018190556006820181905560078201819055600882018190556009820155600a810180546001600160d81b0319169055600b0180546001600160a01b03191690555050505050505050505050565b6000818152600d60205260408120600b01546001600160a01b03168181610bdc5760405162461bcd60e51b8152600401610220906119ed565b6000848152600d6020526040908190206009015490516370a0823160e01b81526001600160a01b03909116935083906370a0823190610c1f908590600401611729565b60206040518083038186803b158015610c3757600080fd5b505afa158015610c4b573d6000803e3d6000fd5b505050506040513d601f19601f82011682018060405250810190610c6f91906115dd565b929491935050565b6000818152603d60209081526040808320805482518185028101850190935280835260609493830182828015610cd657602002820191906000526020600020905b81546001600160a01b03168152600190910190602001808311610cb8575b5050506000868152603d6020526040902054929350505067ffffffffffffffff811115610d1357634e487b7160e01b600052604160045260246000fd5b604051908082528060200260200182016040528015610d4c57816020015b610d39611466565b815260200190600190039081610d315790505b50915060005b8151811015610ef3576000828281518110610d7d57634e487b7160e01b600052603260045260246000fd5b6020026020010151905080848381518110610da857634e487b7160e01b600052603260045260246000fd5b6020908102919091018101516001600160a01b03928316905290821660009081529081905260409081902081516101c081019092528161010081018260068282826020028201916000905b82829054906101000a900460010b60010b81526020019060020190602082600101049283019260010382029150808411610df35790505050509183525050600191909101546001600160e81b031960e882811b8216602085015263010000008304811b8216604085015266010000000000008304901b16606083015260ff600160481b820481166080840152600160501b8204811660a084015261ffff600160581b83041660c0840152600160681b90910416151560e0909101528451859084908110610ed057634e487b7160e01b600052603260045260246000fd5b602002602001015160200181905250508080610eeb90611cdf565b915050610d52565b5050919050565b6000610f04611088565b601d549091506001600160a01b0380831691161480610f3b5750610f266113a7565b6001600160a01b0316816001600160a01b0316145b610f575760405162461bcd60e51b815260040161022090611875565b506001600160a01b039091166000908152602081905260409020600101805460ff909216600160501b0260ff60501b19909216919091179055565b6000828152600d60205260409020600a015482906001600160a01b0316610fb7611088565b6001600160a01b031614610fdd5760405162461bcd60e51b815260040161022090611b1f565b6000838152600d60205260409020600b01546001600160a01b0316806110155760405162461bcd60e51b8152600401610220906119ed565b6000848152600d6020526040908190206009015490516001600160a01b039091169085907fc83f4a4f2f86ecba3c60063e8d252c488091c40d8b484a301223e0fd1c9f6af390611066908790611c3c565b60405180910390a26110818161107a611088565b84876110e4565b5050505050565b6000333014156110df57600080368080601f0160208091040260200160405190810160405280939291908181526020018383808284376000920191909152505050503601516001600160a01b031691506104349050565b503390565b833b806111035760405162461bcd60e51b8152600401610220906118b6565b600080866001600160a01b03166323b872dd60e01b87878760405160240161112d9392919061173d565b60408051601f198184030181529181526020820180516001600160e01b03166001600160e01b031990941693909317909252905161116b919061170d565b6000604051808303816000865af19150503d80600081146111a8576040519150601f19603f3d011682016040523d82523d6000602084013e6111ad565b606091505b50915091506111bc82826113c3565b50505050505050565b60606000826040516020016111da919061170d565b60408051601f1981840301815291905280519091508061120c5760405162461bcd60e51b815260040161022090611a35565b601a811061122c5760405162461bcd60e51b815260040161022090611bd0565b60008260008151811061124f57634e487b7160e01b600052603260045260246000fd5b0160209081015160f81c915081141561127a5760405162461bcd60e51b815260040161022090611950565b82611286600184611c5d565b815181106112a457634e487b7160e01b600052603260045260246000fd5b0160209081015160f81c91508114156112cf5760405162461bcd60e51b815260040161022090611824565b60005b8281101561139d578381815181106112fa57634e487b7160e01b600052603260045260246000fd5b016020015160f81c9150601f821180156113145750607f82105b6113305760405162461bcd60e51b815260040161022090611b7c565b605b821080156113405750604082115b1561138b57611350826020611c45565b60f81b84828151811061137357634e487b7160e01b600052603260045260246000fd5b60200101906001600160f81b031916908160001a9053505b8061139581611cdf565b9150506112d2565b5091949350505050565b60006113b1611442565b600401546001600160a01b0316919050565b81156114055780511561140057808060200190518101906113e4919061159e565b6114005760405162461bcd60e51b8152600401610220906118ff565b61143e565b805115611426578060405162461bcd60e51b815260040161022091906117f1565b60405162461bcd60e51b8152600401610220906119a2565b5050565b7fc8fcad8db84d3cc18b4c41d551ea0ee66dd599cde068d998e57d5e09332c131c90565b604051806040016040528060006001600160a01b031681526020016114896114d4565b905290565b5060009055565b5080546114a190611ca4565b6000825580601f106114b357506114d1565b601f0160209004906000526020600020908101906114d1919061151f565b50565b6040518061010001604052806114e8611538565b815260006020820181905260408201819052606082018190526080820181905260a0820181905260c0820181905260e09091015290565b5b808211156115345760008155600101611520565b5090565b6040518060c001604052806006906020820280368337509192915050565b60008060408385031215611568578182fd5b82356001600160a01b038116811461157e578283fd5b9150602083013560ff81168114611593578182fd5b809150509250929050565b6000602082840312156115af578081fd5b815180151581146115be578182fd5b9392505050565b6000602082840312156115d6578081fd5b5035919050565b6000602082840312156115ee578081fd5b5051919050565b60008060408385031215611607578182fd5b50508035926020909101359150565b15159052565b6001600160e81b0319169052565b80516001600160a01b03168252602080820151805160008386015b6006821015611667578251600190810b82529285019291909101908401611645565b505050908101519061167c60e085018361161c565b6040810151915061169161010085018361161c565b606081015191506116a661012085018361161c565b608081015191506116bb610140850183611706565b60a081015191506116d0610160850183611706565b60c081015191506116e56101808501836116fe565b60e0015190506116f96101a0840182611616565b505050565b61ffff169052565b60ff169052565b6000825161171f818460208701611c74565b9190910192915050565b6001600160a01b0391909116815260200190565b6001600160a01b039384168152919092166020820152604081019190915260600190565b6020808252825182820181905260009190848201906040850190845b818110156117a25783516001600160a01b03168352928401929184019160010161177d565b50909695505050505050565b6020808252825182820181905260009190848201906040850190845b818110156117a2576117dd83855161162a565b928401926101c092909201916001016117ca565b6000602082528251806020840152611810816040850160208701611c74565b601f01601f19169190910160400192915050565b60208082526031908201527f4c696241617665676f746368693a206c6173742063686172206f66206e616d656040820152702063616e2774206265206120737061636560781b606082015260800190565b60208082526021908201527f4c696241707053746f726167653a20446f206e6f7420686176652061636365736040820152607360f81b606082015260800190565b60208082526029908201527f4c696245524332303a20455243323020746f6b656e206164647265737320686160408201526873206e6f20636f646560b81b606082015260800190565b60208082526031908201527f4c696245524332303a207472616e73666572206f72207472616e7366657246726040820152706f6d2072657475726e65642066616c736560781b606082015260800190565b60208082526032908201527f4c696241617665676f746368693a2066697273742063686172206f66206e616d604082015271652063616e2774206265206120737061636560701b606082015260800190565b6020808252602b908201527f4c696245524332303a207472616e73666572206f72207472616e73666572467260408201526a1bdb481c995d995c9d195960aa1b606082015260800190565b60208082526028908201527f436f6c6c61746572616c46616365743a20446f6573206e6f74206861766520616040820152676e20657363726f7760c01b606082015260800190565b60208082526024908201527f4c696241617665676f746368693a206e616d652063616e2774206265203020636040820152636861727360e01b606082015260800190565b60208082526032908201527f436f6c6c61746572616c46616365743a2043616e6e6f74207265647563652062604082015271656c6f77206d696e696d756d207374616b6560701b606082015260800190565b60208082526034908201527f4c696241707053746f726167653a204f6e6c792063616c6c61626c65206f6e20604082015273756e6c6f636b65642041617665676f746368697360601b606082015260800190565b6020808252603b908201527f4c696241707053746f726167653a204f6e6c792061617665676f74636869206f60408201527f776e65722063616e2063616c6c20746869732066756e6374696f6e0000000000606082015260800190565b60208082526034908201527f4c696241617665676f746368693a20696e76616c6964206368617261637465726040820152731034b71020b0bb32b3b7ba31b434903730b6b29760611b606082015260800190565b60208082526037908201527f4c696241617665676f746368693a206e616d652063616e27742062652067726560408201527f61746572207468616e2032352063686172616374657273000000000000000000606082015260800190565b6101c08101610586828461162a565b90815260200190565b60008219821115611c5857611c58611cfa565b500190565b600082821015611c6f57611c6f611cfa565b500390565b60005b83811015611c8f578181015183820152602001611c77565b83811115611c9e576000848401525b50505050565b600281046001821680611cb857607f821691505b60208210811415611cd957634e487b7160e01b600052602260045260246000fd5b50919050565b6000600019821415611cf357611cf3611cfa565b5060010190565b634e487b7160e01b600052601160045260246000fdfea2646970667358221220d8732a1fcdae16987c4f1f385352d3106e0c8fd81031f9037043d2faba3e671d64736f6c63430008010033",
  "linkReferences": {},
  "deployedLinkReferences": {}
}