{
  "_format": "hh-sol-artifact-1",
  "contractName": "ERC1155MarketplaceFacet",
  "sourceName": "contracts/Aavegotchi/facets/ERC1155MarketplaceFacet.sol",
  "abi": [
    {
      "anonymous": false,
      "inputs": [
        {
          "indexed": false,
          "internalType": "uint256",
          "name": "listingFeeInWei",
          "type": "uint256"
        }
      ],
      "name": "ChangedListingFee",
      "type": "event"
    },
    {
      "anonymous": false,
      "inputs": [
        {
          "indexed": true,
          "internalType": "uint256",
          "name": "listingId",
          "type": "uint256"
        },
        {
          "indexed": true,
          "internalType": "address",
          "name": "seller",
          "type": "address"
        },
        {
          "indexed": false,
          "internalType": "address",
          "name": "buyer",
          "type": "address"
        },
        {
          "indexed": false,
          "internalType": "address",
          "name": "erc1155TokenAddress",
          "type": "address"
        },
        {
          "indexed": false,
          "internalType": "uint256",
          "name": "erc1155TypeId",
          "type": "uint256"
        },
        {
          "indexed": true,
          "internalType": "uint256",
          "name": "category",
          "type": "uint256"
        },
        {
          "indexed": false,
          "internalType": "uint256",
          "name": "_quantity",
          "type": "uint256"
        },
        {
          "indexed": false,
          "internalType": "uint256",
          "name": "priceInWei",
          "type": "uint256"
        },
        {
          "indexed": false,
          "internalType": "uint256",
          "name": "time",
          "type": "uint256"
        }
      ],
      "name": "ERC1155ExecutedListing",
      "type": "event"
    },
    {
      "anonymous": false,
      "inputs": [
        {
          "indexed": true,
          "internalType": "uint256",
          "name": "listingId",
          "type": "uint256"
        },
        {
          "indexed": true,
          "internalType": "address",
          "name": "buyer",
          "type": "address"
        },
        {
          "indexed": true,
          "internalType": "address",
          "name": "recipient",
          "type": "address"
        }
      ],
      "name": "ERC1155ExecutedToRecipient",
      "type": "event"
    },
    {
      "anonymous": false,
      "inputs": [
        {
          "indexed": true,
          "internalType": "uint256",
          "name": "listingId",
          "type": "uint256"
        },
        {
          "indexed": true,
          "internalType": "address",
          "name": "seller",
          "type": "address"
        },
        {
          "indexed": false,
          "internalType": "address",
          "name": "erc1155TokenAddress",
          "type": "address"
        },
        {
          "indexed": false,
          "internalType": "uint256",
          "name": "erc1155TypeId",
          "type": "uint256"
        },
        {
          "indexed": true,
          "internalType": "uint256",
          "name": "category",
          "type": "uint256"
        },
        {
          "indexed": false,
          "internalType": "uint256",
          "name": "quantity",
          "type": "uint256"
        },
        {
          "indexed": false,
          "internalType": "uint256",
          "name": "priceInWei",
          "type": "uint256"
        },
        {
          "indexed": false,
          "internalType": "uint256",
          "name": "time",
          "type": "uint256"
        }
      ],
      "name": "ERC1155ListingAdd",
      "type": "event"
    },
    {
      "anonymous": false,
      "inputs": [
        {
          "indexed": true,
          "internalType": "uint256",
          "name": "listingId",
          "type": "uint256"
        }
      ],
      "name": "ERC1155ListingCancelled",
      "type": "event"
    },
    {
      "anonymous": false,
      "inputs": [
        {
          "indexed": true,
          "internalType": "uint256",
          "name": "listingId",
          "type": "uint256"
        },
        {
          "indexed": false,
          "internalType": "uint16[2]",
          "name": "principalSplit",
          "type": "uint16[2]"
        },
        {
          "indexed": false,
          "internalType": "address",
          "name": "affiliate",
          "type": "address"
        }
      ],
      "name": "ERC1155ListingSplit",
      "type": "event"
    },
    {
      "inputs": [
        {
          "internalType": "uint256",
          "name": "_listingId",
          "type": "uint256"
        }
      ],
      "name": "cancelERC1155Listing",
      "outputs": [],
      "stateMutability": "nonpayable",
      "type": "function"
    },
    {
      "inputs": [
        {
          "internalType": "uint256[]",
          "name": "_listingIds",
          "type": "uint256[]"
        }
      ],
      "name": "cancelERC1155Listings",
      "outputs": [],
      "stateMutability": "nonpayable",
      "type": "function"
    },
    {
      "inputs": [
        {
          "internalType": "uint256",
          "name": "_listingId",
          "type": "uint256"
        },
        {
          "internalType": "uint256",
          "name": "_quantity",
          "type": "uint256"
        },
        {
          "internalType": "uint256",
          "name": "_priceInWei",
          "type": "uint256"
        }
      ],
      "name": "executeERC1155Listing",
      "outputs": [],
      "stateMutability": "nonpayable",
      "type": "function"
    },
    {
      "inputs": [
        {
          "internalType": "uint256",
          "name": "_listingId",
          "type": "uint256"
        },
        {
          "internalType": "address",
          "name": "_contractAddress",
          "type": "address"
        },
        {
          "internalType": "uint256",
          "name": "_itemId",
          "type": "uint256"
        },
        {
          "internalType": "uint256",
          "name": "_quantity",
          "type": "uint256"
        },
        {
          "internalType": "uint256",
          "name": "_priceInWei",
          "type": "uint256"
        },
        {
          "internalType": "address",
          "name": "_recipient",
          "type": "address"
        }
      ],
      "name": "executeERC1155ListingToRecipient",
      "outputs": [],
      "stateMutability": "nonpayable",
      "type": "function"
    },
    {
      "inputs": [
        {
          "internalType": "address",
          "name": "_erc1155TokenAddress",
          "type": "address"
        },
        {
          "internalType": "uint256",
          "name": "_erc1155TypeId",
          "type": "uint256"
        }
      ],
      "name": "getERC1155Category",
      "outputs": [
        {
          "internalType": "uint256",
          "name": "category_",
          "type": "uint256"
        }
      ],
      "stateMutability": "view",
      "type": "function"
    },
    {
      "inputs": [
        {
          "internalType": "uint256",
          "name": "_listingId",
          "type": "uint256"
        }
      ],
      "name": "getERC1155Listing",
      "outputs": [
        {
          "components": [
            {
              "internalType": "uint256",
              "name": "listingId",
              "type": "uint256"
            },
            {
              "internalType": "address",
              "name": "seller",
              "type": "address"
            },
            {
              "internalType": "address",
              "name": "erc1155TokenAddress",
              "type": "address"
            },
            {
              "internalType": "uint256",
              "name": "erc1155TypeId",
              "type": "uint256"
            },
            {
              "internalType": "uint256",
              "name": "category",
              "type": "uint256"
            },
            {
              "internalType": "uint256",
              "name": "quantity",
              "type": "uint256"
            },
            {
              "internalType": "uint256",
              "name": "priceInWei",
              "type": "uint256"
            },
            {
              "internalType": "uint256",
              "name": "timeCreated",
              "type": "uint256"
            },
            {
              "internalType": "uint256",
              "name": "timeLastPurchased",
              "type": "uint256"
            },
            {
              "internalType": "uint256",
              "name": "sourceListingId",
              "type": "uint256"
            },
            {
              "internalType": "bool",
              "name": "sold",
              "type": "bool"
            },
            {
              "internalType": "bool",
              "name": "cancelled",
              "type": "bool"
            },
            {
              "internalType": "uint16[2]",
              "name": "principalSplit",
              "type": "uint16[2]"
            },
            {
              "internalType": "address",
              "name": "affiliate",
              "type": "address"
            }
          ],
          "internalType": "struct ERC1155Listing",
          "name": "listing_",
          "type": "tuple"
        }
      ],
      "stateMutability": "view",
      "type": "function"
    },
    {
      "inputs": [
        {
          "internalType": "address",
          "name": "_erc1155TokenAddress",
          "type": "address"
        },
        {
          "internalType": "uint256",
          "name": "_erc1155TypeId",
          "type": "uint256"
        },
        {
          "internalType": "address",
          "name": "_owner",
          "type": "address"
        }
      ],
      "name": "getERC1155ListingFromToken",
      "outputs": [
        {
          "components": [
            {
              "internalType": "uint256",
              "name": "listingId",
              "type": "uint256"
            },
            {
              "internalType": "address",
              "name": "seller",
              "type": "address"
            },
            {
              "internalType": "address",
              "name": "erc1155TokenAddress",
              "type": "address"
            },
            {
              "internalType": "uint256",
              "name": "erc1155TypeId",
              "type": "uint256"
            },
            {
              "internalType": "uint256",
              "name": "category",
              "type": "uint256"
            },
            {
              "internalType": "uint256",
              "name": "quantity",
              "type": "uint256"
            },
            {
              "internalType": "uint256",
              "name": "priceInWei",
              "type": "uint256"
            },
            {
              "internalType": "uint256",
              "name": "timeCreated",
              "type": "uint256"
            },
            {
              "internalType": "uint256",
              "name": "timeLastPurchased",
              "type": "uint256"
            },
            {
              "internalType": "uint256",
              "name": "sourceListingId",
              "type": "uint256"
            },
            {
              "internalType": "bool",
              "name": "sold",
              "type": "bool"
            },
            {
              "internalType": "bool",
              "name": "cancelled",
              "type": "bool"
            },
            {
              "internalType": "uint16[2]",
              "name": "principalSplit",
              "type": "uint16[2]"
            },
            {
              "internalType": "address",
              "name": "affiliate",
              "type": "address"
            }
          ],
          "internalType": "struct ERC1155Listing",
          "name": "listing_",
          "type": "tuple"
        }
      ],
      "stateMutability": "view",
      "type": "function"
    },
    {
      "inputs": [
        {
          "internalType": "uint256",
          "name": "_category",
          "type": "uint256"
        },
        {
          "internalType": "string",
          "name": "_sort",
          "type": "string"
        },
        {
          "internalType": "uint256",
          "name": "_length",
          "type": "uint256"
        }
      ],
      "name": "getERC1155Listings",
      "outputs": [
        {
          "components": [
            {
              "internalType": "uint256",
              "name": "listingId",
              "type": "uint256"
            },
            {
              "internalType": "address",
              "name": "seller",
              "type": "address"
            },
            {
              "internalType": "address",
              "name": "erc1155TokenAddress",
              "type": "address"
            },
            {
              "internalType": "uint256",
              "name": "erc1155TypeId",
              "type": "uint256"
            },
            {
              "internalType": "uint256",
              "name": "category",
              "type": "uint256"
            },
            {
              "internalType": "uint256",
              "name": "quantity",
              "type": "uint256"
            },
            {
              "internalType": "uint256",
              "name": "priceInWei",
              "type": "uint256"
            },
            {
              "internalType": "uint256",
              "name": "timeCreated",
              "type": "uint256"
            },
            {
              "internalType": "uint256",
              "name": "timeLastPurchased",
              "type": "uint256"
            },
            {
              "internalType": "uint256",
              "name": "sourceListingId",
              "type": "uint256"
            },
            {
              "internalType": "bool",
              "name": "sold",
              "type": "bool"
            },
            {
              "internalType": "bool",
              "name": "cancelled",
              "type": "bool"
            },
            {
              "internalType": "uint16[2]",
              "name": "principalSplit",
              "type": "uint16[2]"
            },
            {
              "internalType": "address",
              "name": "affiliate",
              "type": "address"
            }
          ],
          "internalType": "struct ERC1155Listing[]",
          "name": "listings_",
          "type": "tuple[]"
        }
      ],
      "stateMutability": "view",
      "type": "function"
    },
    {
      "inputs": [],
      "name": "getListingFeeInWei",
      "outputs": [
        {
          "internalType": "uint256",
          "name": "",
          "type": "uint256"
        }
      ],
      "stateMutability": "view",
      "type": "function"
    },
    {
      "inputs": [
        {
          "internalType": "address",
          "name": "_owner",
          "type": "address"
        },
        {
          "internalType": "uint256",
          "name": "_category",
          "type": "uint256"
        },
        {
          "internalType": "string",
          "name": "_sort",
          "type": "string"
        },
        {
          "internalType": "uint256",
          "name": "_length",
          "type": "uint256"
        }
      ],
      "name": "getOwnerERC1155Listings",
      "outputs": [
        {
          "components": [
            {
              "internalType": "uint256",
              "name": "listingId",
              "type": "uint256"
            },
            {
              "internalType": "address",
              "name": "seller",
              "type": "address"
            },
            {
              "internalType": "address",
              "name": "erc1155TokenAddress",
              "type": "address"
            },
            {
              "internalType": "uint256",
              "name": "erc1155TypeId",
              "type": "uint256"
            },
            {
              "internalType": "uint256",
              "name": "category",
              "type": "uint256"
            },
            {
              "internalType": "uint256",
              "name": "quantity",
              "type": "uint256"
            },
            {
              "internalType": "uint256",
              "name": "priceInWei",
              "type": "uint256"
            },
            {
              "internalType": "uint256",
              "name": "timeCreated",
              "type": "uint256"
            },
            {
              "internalType": "uint256",
              "name": "timeLastPurchased",
              "type": "uint256"
            },
            {
              "internalType": "uint256",
              "name": "sourceListingId",
              "type": "uint256"
            },
            {
              "internalType": "bool",
              "name": "sold",
              "type": "bool"
            },
            {
              "internalType": "bool",
              "name": "cancelled",
              "type": "bool"
            },
            {
              "internalType": "uint16[2]",
              "name": "principalSplit",
              "type": "uint16[2]"
            },
            {
              "internalType": "address",
              "name": "affiliate",
              "type": "address"
            }
          ],
          "internalType": "struct ERC1155Listing[]",
          "name": "listings_",
          "type": "tuple[]"
        }
      ],
      "stateMutability": "view",
      "type": "function"
    },
    {
      "inputs": [
        {
          "components": [
            {
              "internalType": "address",
              "name": "erc1155TokenAddress",
              "type": "address"
            },
            {
              "internalType": "uint256",
              "name": "erc1155TypeId",
              "type": "uint256"
            },
            {
              "internalType": "uint256",
              "name": "category",
              "type": "uint256"
            }
          ],
          "internalType": "struct ERC1155MarketplaceFacet.Category[]",
          "name": "_categories",
          "type": "tuple[]"
        }
      ],
      "name": "setERC1155Categories",
      "outputs": [],
      "stateMutability": "nonpayable",
      "type": "function"
    },
    {
      "inputs": [
        {
          "internalType": "address",
          "name": "_erc1155TokenAddress",
          "type": "address"
        },
        {
          "internalType": "uint256",
          "name": "_erc1155TypeId",
          "type": "uint256"
        },
        {
          "internalType": "uint256",
          "name": "_quantity",
          "type": "uint256"
        },
        {
          "internalType": "uint256",
          "name": "_priceInWei",
          "type": "uint256"
        }
      ],
      "name": "setERC1155Listing",
      "outputs": [],
      "stateMutability": "nonpayable",
      "type": "function"
    },
    {
      "inputs": [
        {
          "internalType": "address",
          "name": "_erc1155TokenAddress",
          "type": "address"
        },
        {
          "internalType": "uint256",
          "name": "_erc1155TypeId",
          "type": "uint256"
        },
        {
          "internalType": "uint256",
          "name": "_quantity",
          "type": "uint256"
        },
        {
          "internalType": "uint256",
          "name": "_priceInWei",
          "type": "uint256"
        },
        {
          "internalType": "uint16[2]",
          "name": "_principalSplit",
          "type": "uint16[2]"
        },
        {
          "internalType": "address",
          "name": "_affiliate",
          "type": "address"
        }
      ],
      "name": "setERC1155ListingWithSplit",
      "outputs": [],
      "stateMutability": "nonpayable",
      "type": "function"
    },
    {
      "inputs": [
        {
          "internalType": "uint256",
          "name": "_listingFeeInWei",
          "type": "uint256"
        }
      ],
      "name": "setListingFee",
      "outputs": [],
      "stateMutability": "nonpayable",
      "type": "function"
    },
    {
      "inputs": [
        {
          "internalType": "address",
          "name": "_erc1155TokenAddress",
          "type": "address"
        },
        {
          "internalType": "uint256[]",
          "name": "_erc1155TypeIds",
          "type": "uint256[]"
        },
        {
          "internalType": "address",
          "name": "_owner",
          "type": "address"
        }
      ],
      "name": "updateBatchERC1155Listing",
      "outputs": [],
      "stateMutability": "nonpayable",
      "type": "function"
    },
    {
      "inputs": [
        {
          "internalType": "address",
          "name": "_erc1155TokenAddress",
          "type": "address"
        },
        {
          "internalType": "uint256",
          "name": "_erc1155TypeId",
          "type": "uint256"
        },
        {
          "internalType": "address",
          "name": "_owner",
          "type": "address"
        }
      ],
      "name": "updateERC1155Listing",
      "outputs": [],
      "stateMutability": "nonpayable",
      "type": "function"
    }
  ],
  "bytecode": "0x608060405234801561001057600080fd5b50613f19806100206000396000f3fe608060405234801561001057600080fd5b50600436106101005760003560e01c806368edd21111610097578063dc1265f811610066578063dc1265f814610210578063e8da2bfa14610223578063e9a8887f14610236578063fac43c851461024957610100565b806368edd211146101cf578063781f11d4146101e257806392d718f6146101f5578063962095a11461020857610100565b806317ca3681116100d357806317ca368114610176578063446978f014610189578063519f62ed146101a9578063575ae876146101bc57610100565b806308642e241461010557806309c415af1461011a5780631254218814610143578063131dbd0914610163575b600080fd5b6101186101133660046131e6565b61025c565b005b61012d6101283660046131e6565b610270565b60405161013a9190613d6f565b60405180910390f35b61015661015136600461326d565b61039e565b60405161013a9190613589565b6101186101713660046131e6565b6105eb565b61011861018436600461315e565b610692565b61019c610197366004612f43565b61079f565b60405161013a9190613d7e565b61012d6101b7366004612f6c565b610836565b6101186101ca3660046132bb565b610985565b6101186101dd366004613216565b6109c4565b6101566101f0366004612fa7565b6109da565b61011861020336600461303c565b610c3d565b61019c610c4b565b61011861021e3660046130ee565b610c52565b610118610231366004613004565b610d7f565b610118610244366004612f6c565b610dad565b610118610257366004612ee0565b610db8565b61026d81610268610e0d565b610e69565b50565b610278612c65565b6000828152602a6020908152604080832081516101c0810183528154815260018201546001600160a01b0390811694820194909452600280830154909416818401526003820154606082015260048201546080820152600582015460a0820152600682015460c0820152600782015460e08201526008820154610100808301919091526009830154610120830152600a83015460ff8082161515610140850152919004161515610160820152825180840193849052909491936101808601939192600b860192908390855b82829054906101000a900461ffff1661ffff168152602001906002019060208260010104928301926001038202915080841161034357505050928452505050600c91909101546001600160a01b031660209091015292915050565b6000838152602b6020526040808220905160609291906103bf908690613413565b90815260200160405180910390205490508267ffffffffffffffff8111156103f757634e487b7160e01b600052604160045260246000fd5b60405190808252806020026020018201604052801561043057816020015b61041d612c65565b8152602001906001900390816104155790505b50915060005b811580159061044457508381105b156105e1576000828152602a6020908152604080832081516101c0810183528154815260018201546001600160a01b0390811694820194909452600280830154909416818401526003820154606082015260048201546080820152600582015460a0820152600682015460c0820152600782015460e08201526008820154610100808301919091526009830154610120830152600a83015460ff8082161515610140850152919004161515610160820152825180840193849052909491936101808601939192600b860192908390855b82829054906101000a900461ffff1661ffff168152602001906002019060208260010104928301926001038202915080841161051457505050928452505050600c91909101546001600160a01b0316602090910152835184908390811061058b57634e487b7160e01b600052603260045260246000fd5b60200260200101819052506000602c01856040516105a99190613413565b9081526020016040518091039020600083815260200190815260200160002060020154915080806105d990613e9c565b915050610436565b8252509392505050565b60006105f5610e0d565b601d549091506001600160a01b038083169116148061062c5750610617610f8a565b6001600160a01b0316816001600160a01b0316145b6106515760405162461bcd60e51b81526004016106489061369e565b60405180910390fd5b60308290556040517f47110aa6379903a1c93053b7d8b6e8bdbbadd893e457a1e10588c4e2a9575dc790610686908490613d7e565b60405180910390a15050565b61069a610fa6565b60005b818110156107995760008383838181106106c757634e487b7160e01b600052603260045260246000fd5b602090810292909201356000818152602a9093526040909220600a8101549293509160ff61010090910416151560011490508061070d5750600a81015460ff1615156001145b1561071a5750505061079b565b600a8101805461ff001916610100179055600481015460405183917fc1ee70d4dadc0ea8041f31f81b07d0ac9374b6bf41956d9cae562e672f3f8a919161076391904390613d87565b60405180910390a260018101546107849083906001600160a01b0316610feb565b5050808061079190613e9c565b91505061069d565b505b5050565b6001600160a01b038216600090815260316020908152604080832084845290915290205480610830576001600160a01b038316301480156108145750600080600601838154811061080057634e487b7160e01b600052603260045260246000fd5b90600052602060002090600b020160080154115b6108305760405162461bcd60e51b815260040161064890613c39565b92915050565b61083e612c65565b6001600160a01b038481166000908152602f6020908152604080832087845282528083208685168452825280832054808452602a835281842082516101c081018452815481526001820154871694810194909452600280820154909616848401526003810154606085015260048101546080850152600581015460a0850152600681015460c0850152600781015460e08501526008810154610100808601919091526009820154610120860152600a82015460ff8082161515610140880152919004161515610160850152825180840193849052919593949093610180860193600b8601928390855b82829054906101000a900461ffff1661ffff168152602001906002019060208260010104928301926001038202915080841161092757505050928452505050600c91909101546001600160a01b031660209091015295945050505050565b6000838152602a60205260409020600281015460038201546109be9186916001600160a01b039091169086866109b9610e0d565b611336565b50505050565b6109d2868686868686611336565b505050505050565b6001600160a01b0384166000908152602d6020908152604080832086845290915280822090516060929190610a10908690613413565b90815260200160405180910390205490508267ffffffffffffffff811115610a4857634e487b7160e01b600052604160045260246000fd5b604051908082528060200260200182016040528015610a8157816020015b610a6e612c65565b815260200190600190039081610a665790505b50915060005b8115801590610a9557508381105b15610c32576000828152602a6020908152604080832081516101c0810183528154815260018201546001600160a01b0390811694820194909452600280830154909416818401526003820154606082015260048201546080820152600582015460a0820152600682015460c0820152600782015460e08201526008820154610100808301919091526009830154610120830152600a83015460ff8082161515610140850152919004161515610160820152825180840193849052909491936101808601939192600b860192908390855b82829054906101000a900461ffff1661ffff1681526020019060020190602082600101049283019260010382029150808411610b6557505050928452505050600c91909101546001600160a01b03166020909101528351849083908110610bdc57634e487b7160e01b600052603260045260246000fd5b60200260200101819052506000602e0185604051610bfa9190613413565b908152602001604051809103902060008381526020019081526020016000206002015491508080610c2a90613e9c565b915050610a87565b825250949350505050565b6109d2868686868686611b03565b6030545b90565b6000610c5c610e0d565b6001600160a01b0381166000908152603b602052604090205490915060ff161515600114610c9c5760405162461bcd60e51b815260040161064890613afd565b60005b828110156109be57838382818110610cc757634e487b7160e01b600052603260045260246000fd5b9050606002016040013560006031016000868685818110610cf857634e487b7160e01b600052603260045260246000fd5b610d0e9260206060909202019081019150612ebf565b6001600160a01b03166001600160a01b031681526020019081526020016000206000868685818110610d5057634e487b7160e01b600052603260045260246000fd5b905060600201602001358152602001908152602001600020819055508080610d7790613e9c565b915050610c9f565b6109be84848484604051806040016040528061271061ffff168152602001600061ffff168152506000611b03565b6107998383836120dc565b60005b82811015610e0657610df485858584818110610de757634e487b7160e01b600052603260045260246000fd5b90506020020135846120dc565b80610dfe81613e9c565b915050610dbb565b5050505050565b600033301415610e6457600080368080601f0160208091040260200160405190810160405280939291908181526020018383808284376000920191909152505050503601516001600160a01b03169150610c4f9050565b503390565b6000610e7361228a565b9050600081602c01604051610e879061342f565b908152602001604051809103902060008581526020019081526020016000209050806001015460001415610ebc57505061079b565b6000848152602a830160205260409020600a81015460ff61010090910416151560011480610ef35750600a81015460ff1615156001145b15610f005750505061079b565b60018101546001600160a01b03858116911614610f2f5760405162461bcd60e51b815260040161064890613815565b600a8101805461ff001916610100179055600481015460405186917fc1ee70d4dadc0ea8041f31f81b07d0ac9374b6bf41956d9cae562e672f3f8a9191610f7891904390613d87565b60405180910390a2610e068585610feb565b6000610f9461228f565b600401546001600160a01b0316919050565b610fae61228f565b600401546001600160a01b0316610fc3610e0d565b6001600160a01b031614610fe95760405162461bcd60e51b815260040161064890613611565b565b6000610ff561228a565b9050600081602c016040516110099061342f565b90815260200160405180910390206000858152602001908152602001600020905080600101546000141561103e57505061079b565b8054801561107d57600083602c016040516110589061342f565b9081526040805160209281900383019020600085815292529020600284810154910155505b600282015480156110ba57600084602c0160405161109a9061342f565b908152604080516020928190038301902060008581529252902084549055505b6000868152602a85016020908152604080832060048101548452602b8801909252918290209151909188916110ee9061342f565b908152602001604051809103902054141561113b57600284015460048201546000908152602b8701602052604090819020905161112a9061342f565b908152604051908190036020019020555b6000600185018190558085556002850155604051602e86019061115d9061342f565b908152604080516020928190038301902060008a8152925290208054909450925082156111bb57600085602e016040516111969061342f565b9081526040805160209281900383019020600087815292529020600286810154910155505b6002840154915081156111fa57600085602e016040516111da9061342f565b908152604080516020928190038301902060008681529252902085549055505b506000868152602a8501602090815260408083206001600160a01b0389168452602d8801835281842060048201548552909252918290209151909188916112409061342f565b90815260200160405180910390205414156112a15760028401546001600160a01b0387166000908152602d870160209081526040808320600486015484529091529081902090516112909061342f565b908152604051908190036020019020555b60006001850181905580855560028086018290558201546001600160a01b039081168252602f870160209081526040808420600386015485528252808420928a168452919052808220919091556004820154905188917f276ac39b0f98215592b4487434c1618e3e527c57ca2f471ac93eb4eab16940919161132591904290613d87565b60405180910390a250505050505050565b6000868152602a6020526040902060078101546113655760405162461bcd60e51b815260040161064890613d2a565b600a81015460ff161561138a5760405162461bcd60e51b815260040161064890613a61565b600a810154610100900460ff16156113b45760405162461bcd60e51b8152600401610648906137cd565b806006015483146113d75760405162461bcd60e51b815260040161064890613a11565b60028101546001600160a01b038781169116146114065760405162461bcd60e51b815260040161064890613653565b848160030154146114295760405162461bcd60e51b815260040161064890613ce4565b6000611433610e0d565b60018301549091506001600160a01b039081169082168114156114685760405162461bcd60e51b815260040161064890613b5a565b600086116114885760405162461bcd60e51b815260040161064890613926565b82600501548611156114ac5760405162461bcd60e51b8152600401610648906136df565b858360050160008282546114c09190613e59565b90915550600090506114d28688613e3a565b601a546040516370a0823160e01b815291925082916001600160a01b03909116906370a0823190611507908790600401613441565b60206040518083038186803b15801561151f57600080fd5b505afa158015611533573d6000803e3d6000fd5b505050506040513d601f19601f8201168201806040525081019061155791906131fe565b10156115755760405162461bcd60e51b81526004016106489061384c565b60408051600080825260208201909252611615908390600c8801546001600160a01b0316156115f957604080518082019182905290600b8a0190600290826000855b82829054906101000a900461ffff1661ffff16815260200190600201906020826001010492830192600103820291508084116115b75790505050505050611610565b604080518082019091526127108152600060208201525b6122b3565b6040805161010081018252601a546001600160a01b03908116825287811660208084019190915287821683850152600c8a0154821660608401528351600081528082019094526080830193909352601e54811660a0830152601f54811660c0830152915490911660e082015290915061168e90826123f8565b426008860155602980549060006116a483613e9c565b9091555050602954604080516101c0810182528281526001600160a01b0380871660208301526002808a015490911682840152600389015460608301526004890154608083015260a082018c905260c082018b90524260e0830181905261010083015261012082018f90526001610140830152600061016083015282518084019093529091610180830191600b8a01908282826020028201916000905b82829054906101000a900461ffff1661ffff168152602001906002019060208260010104928301926001038202915080841161174157505050928452505050600c8801546001600160a01b039081166020928301526000848152602a835260409081902084518155928401516001840180546001600160a01b0319908116928516929092179055908401516002808501805490931691909316179055606083015160038301556080830151600483015560a0830151600583015560c0830151600683015560e083015160078301556101008084015160088401556101208401516009840155610140840151600a8401805461016087015160ff199091169215159290921761ff00191691151590920217905561018083015161186891600b84019190612cf0565b506101a09190910151600c90910180546001600160a01b0319166001600160a01b0390921691909117905560048601546040805180820190915260098152681c1d5c98da185cd95960ba1b60208201526118c491869184612559565b60058601546118e657600a8601805460ff191660011790556118e68c85610feb565b505060028401546001600160a01b03163014156119af5761190c82856003015489612742565b61191b85856003015489612981565b6052546003850154604051633a0ac57d60e21b81526001600160a01b039092169163e82b15f49161195791309187918b91908e9060040161346f565b600060405180830381600087803b15801561197157600080fd5b505af1158015611985573d6000803e3d6000fd5b505050506119aa30838787600301548b60405180602001604052806000815250612a45565b611a2c565b6002840154600385015460408051600081526020810191829052637921219560e11b9091526001600160a01b039092169163f242432a916119f99186918a918d90602481016134c7565b600060405180830381600087803b158015611a1357600080fd5b505af1158015611a27573d6000803e3d6000fd5b505050505b8360040154826001600160a01b03168b7f4004185f45cf5f331fe63afc9aa5aa0a0d8cfa1d6bc5d8c6cb0304136c49515c888860020160009054906101000a90046001600160a01b031689600301548d8b6006015442604051611a949695949392919061350c565b60405180910390a4846001600160a01b0316836001600160a01b031614611af757846001600160a01b0316836001600160a01b03168b7f6d10597eaea3b6f10739896c93a2cdebf87810d37226b40bc3e433745f55ce9c60405160405180910390a45b50505050505050505050565b6000611b0d610e0d565b90506000611b1b888861079f565b604051627eeac760e11b8152909150889087906001600160a01b0383169062fdd58e90611b4e9087908d90600401613542565b60206040518083038186803b158015611b6657600080fd5b505afa158015611b7a573d6000803e3d6000fd5b505050506040513d601f19601f82011682018060405250810190611b9e91906131fe565b1015611bbc5760405162461bcd60e51b81526004016106489061388f565b6001600160a01b038916301480611c4c575060405163e985e9c560e01b81526001600160a01b0382169063e985e9c590611bfc9086903090600401613455565b60206040518083038186803b158015611c1457600080fd5b505afa158015611c28573d6000803e3d6000fd5b505050506040513d601f19601f82011682018060405250810190611c4c919061319e565b611c685760405162461bcd60e51b8152600401610648906139c4565b6000611c748789613e3a565b9050670de0b6b3a7640000811015611c9e5760405162461bcd60e51b815260040161064890613971565b60208601518651611caf9190613ddc565b61ffff1661271014611cd35760405162461bcd60e51b815260040161064890613aa8565b6001600160a01b038516611d0757602086015161ffff1615611d075760405162461bcd60e51b815260040161064890613c87565b6001600160a01b03808b166000908152602f602090815260408083208d84528252808320938816835292905220548061204b5760298054906000611d4a83613e9c565b91905055506000602901549050806000602f0160008d6001600160a01b03166001600160a01b0316815260200190815260200160002060008c81526020019081526020016000206000876001600160a01b03166001600160a01b0316815260200190815260200160002081905550604051806101c00160405280828152602001866001600160a01b031681526020018c6001600160a01b031681526020018b81526020018581526020018a81526020018981526020014281526020016000815260200160008152602001600015158152602001600015158152602001888152602001876001600160a01b03168152506000602a0160008381526020019081526020016000206000820151816000015560208201518160010160006101000a8154816001600160a01b0302191690836001600160a01b0316021790555060408201518160020160006101000a8154816001600160a01b0302191690836001600160a01b03160217905550606082015181600301556080820151816004015560a0820151816005015560c0820151816006015560e082015181600701556101008201518160080155610120820151816009015561014082015181600a0160006101000a81548160ff02191690831515021790555061016082015181600a0160016101000a81548160ff02191690831515021790555061018082015181600b01906002611f55929190612cf0565b506101a082015181600c0160006101000a8154816001600160a01b0302191690836001600160a01b03160217905550905050611fb18585604051806040016040528060068152602001651b1a5cdd195960d21b81525084612559565b83856001600160a01b0316827ff99a07edc22c88f73b19df09fffa9b11c9ab5c5dd6dfc2f6e103a95f5b40e2fc8e8e8e8e42604051611ff495949392919061355b565b60405180910390a46001600160a01b0386161561204657807fabfb70fdd014e075c73fed3aa8dea5b5d2a0ee1a60595b9d0b3e4a58b1d8a2e0888860405161203d9291906135d8565b60405180910390a25b6120a7565b6000818152602a602052604090819020600581018b905560068101549151909183917f9a1e053d28c2efc6add1e4a5d1647a99e883b256a54f9ef4a0abf8fcba643a559161209d918e91904290613d95565b60405180910390a2505b603054156120cf576030546120cf906120be610e0d565b601a546001600160a01b0316612b02565b5050505050505050505050565b60006120e661228a565b6001600160a01b038086166000908152602f83016020908152604080832088845282528083209387168352929052205490915080612125575050610799565b6000818152602a830160205260409020600781015415806121555750600a81015460ff6101009091041615156001145b806121695750600a81015460ff1615156001145b1561217657505050610799565b6005810154801561226357600282015460018301546003840154604051627eeac760e11b81526001600160a01b039384169362fdd58e936121bc93911691600401613542565b60206040518083038186803b1580156121d457600080fd5b505afa1580156121e8573d6000803e3d6000fd5b505050506040513d601f19601f8201168201806040525081019061220c91906131fe565b905081600501548110156122635760058201819055600682015460405184917f9a1e053d28c2efc6add1e4a5d1647a99e883b256a54f9ef4a0abf8fcba643a559161225a9185914290613d95565b60405180910390a25b806122815760018201546122819084906001600160a01b0316610e69565b50505050505050565b600090565b7fc8fcad8db84d3cc18b4c41d551ea0ee66dd599cde068d998e57d5e09332c131c90565b6122bb612d86565b6000805b845181101561230f578481815181106122e857634e487b7160e01b600052603260045260246000fd5b6020026020010151826122fb9190613e02565b91508061230781613e9c565b9150506122bf565b50600061231d606487613e1a565b90506000606461232e886002613e3a565b6123389190613e1a565b9050600061234760c889613e1a565b90506000816123568486613e02565b6123609190613e02565b61236a868b613e59565b6123749190613e59565b87519091506000906127109061238e9061ffff1684613e3a565b6123989190613e1a565b9050600061271089600160200201516123b59061ffff1685613e3a565b6123bf9190613e1a565b6040805160c08101825297885260208801969096529486019390935260608501525050608082015260a081018590529150509392505050565b612414826000015183602001518460c001518460200151612b17565b612430826000015183602001518460a001518460000151612b17565b61244c826000015183602001518460e001518460400151612b17565b6124688260000151836020015184604001518460600151612b17565b60808101511561248e5761248e8260000151836020015184606001518460800151612b17565b6080820151511561079b5760005b8260800151518110156107995760008260a0015182815181106124cf57634e487b7160e01b600052603260045260246000fd5b6020026020010151111561254757612547836000015184602001518560800151848151811061250e57634e487b7160e01b600052603260045260246000fd5b60200260200101518560a00151858151811061253a57634e487b7160e01b600052603260045260246000fd5b6020026020010151612b17565b8061255181613e9c565b91505061249c565b600061256361228a565b6001600160a01b0386166000908152602d8201602090815260408083208884529091528082209051929350909161259b908690613413565b9081526020016040518091039020549050806000146125e757600082602e01856040516125c89190613413565b9081526040805160209281900383019020600085815292529020849055505b600082602e01856040516125fb9190613413565b9081526040805191829003602090810183206000888152908252828120600281018790556001600160a01b038c168252602d880183528382208b835290925291909120909250859161264e908890613413565b908152604080516020928190038301812093909355600184018790556000898152602b8701909252902090612684908790613413565b9081526020016040518091039020549150816000146126d057600083602c01866040516126b19190613413565b9081526040805160209281900383019020600086815292529020859055505b82602c01856040516126e29190613413565b9081526040805191829003602090810183206000888152908252828120600281018790558a8252602b8801909252919091209092508591612724908890613413565b90815260405190819003602001902055600101929092555050505050565b600061274c61228a565b6001600160a01b03851660009081526009820160209081526040808320878452909152902054909150808311156127955760405162461bcd60e51b815260040161064890613ba3565b61279f8382613e59565b6001600160a01b038616600090815260098401602090815260408083208884529091529020819055905080610e06576001600160a01b0385166000908152600b83016020908152604080832087845290915281205461280090600190613e59565b6001600160a01b0387166000908152600a850160205260408120549192509061282b90600190613e59565b9050808214612906576001600160a01b0387166000908152600a85016020526040812080548390811061286e57634e487b7160e01b600052603260045260246000fd5b906000526020600020015490508061ffff1685600a0160008a6001600160a01b03166001600160a01b0316815260200190815260200160002084815481106128c657634e487b7160e01b600052603260045260246000fd5b6000918252602090912001556128dd836001613e02565b6001600160a01b0389166000908152600b87016020908152604080832094835293905291909120555b6001600160a01b0387166000908152600a85016020526040902080548061293d57634e487b7160e01b600052603160045260246000fd5b6000828152602080822083016000199081018390559092019092556001600160a01b0389168252600b86018152604080832089845290915281205550505050505050565b600061298b61228a565b6001600160a01b038516600090815260098201602090815260408083208784529091528120805492935084929091906129c5908490613e02565b90915550506001600160a01b0384166000908152600b8201602090815260408083208684529091529020546109be576001600160a01b0384166000818152600a830160209081526040808320805460018101825581855283852061ffff8a169101559383529254600b850182528383208784529091529190205550505050565b833b80156122815760405163f23a6e6160e01b81526001600160a01b0386169063f23a6e6190612a81908a908a908990899089906004016134c7565b602060405180830381600087803b158015612a9b57600080fd5b505af1158015612aaf573d6000803e3d6000fd5b505050506040513d601f19601f82011682018060405250810190612ad391906131be565b6001600160e01b03191663f23a6e6160e01b146122815760405162461bcd60e51b815260040161064890613bef565b82156107995761079981836001600160a01b03865b833b80612b365760405162461bcd60e51b815260040161064890613733565b600080866001600160a01b03166323b872dd60e01b878787604051602401612b60939291906134a3565b60408051601f198184030181529181526020820180516001600160e01b03166001600160e01b0319909416939093179092529051612b9e9190613413565b6000604051808303816000865af19150503d8060008114612bdb576040519150601f19603f3d011682016040523d82523d6000602084013e612be0565b606091505b509150915061228182828115612c2c57805115612c275780806020019051810190612c0b919061319e565b612c275760405162461bcd60e51b81526004016106489061377c565b61079b565b805115612c4d578060405162461bcd60e51b815260040161064891906135fe565b60405162461bcd60e51b8152600401610648906138db565b604051806101c001604052806000815260200160006001600160a01b0316815260200160006001600160a01b0316815260200160008152602001600081526020016000815260200160008152602001600081526020016000815260200160008152602001600015158152602001600015158152602001612ce3612dbc565b8152600060209091015290565b600183019183908215612d765791602002820160005b83821115612d4657835183826101000a81548161ffff021916908361ffff1602179055509260200192600201602081600101049283019260010302612d06565b8015612d745782816101000a81549061ffff0219169055600201602081600101049283019260010302612d46565b505b50612d82929150612dda565b5090565b6040518060c001604052806000815260200160008152602001600081526020016000815260200160008152602001606081525090565b60405180604001604052806002906020820280368337509192915050565b5b80821115612d825760008155600101612ddb565b80356001600160a01b0381168114612e0657600080fd5b919050565b60008083601f840112612e1c578182fd5b50813567ffffffffffffffff811115612e33578182fd5b6020830191508360208083028501011115612e4d57600080fd5b9250929050565b600082601f830112612e64578081fd5b813567ffffffffffffffff811115612e7e57612e7e613ecd565b612e91601f8201601f1916602001613dab565b818152846020838601011115612ea5578283fd5b816020850160208301379081016020019190915292915050565b600060208284031215612ed0578081fd5b612ed982612def565b9392505050565b60008060008060608587031215612ef5578283fd5b612efe85612def565b9350602085013567ffffffffffffffff811115612f19578384fd5b612f2587828801612e0b565b9094509250612f38905060408601612def565b905092959194509250565b60008060408385031215612f55578182fd5b612f5e83612def565b946020939093013593505050565b600080600060608486031215612f80578283fd5b612f8984612def565b925060208401359150612f9e60408501612def565b90509250925092565b60008060008060808587031215612fbc578384fd5b612fc585612def565b935060208501359250604085013567ffffffffffffffff811115612fe7578283fd5b612ff387828801612e54565b949793965093946060013593505050565b60008060008060808587031215613019578384fd5b61302285612def565b966020860135965060408601359560600135945092505050565b60008060008060008060e08789031215613054578182fd5b61305d87612def565b95506020808801359550604088013594506060880135935088609f890112613083578283fd5b61308d6040613dab565b8060808a0160c08b018c8111156130a2578687fd5b865b60028110156130d057823561ffff811681146130be578889fd5b855293850193918501916001016130a4565b508296506130dd81612def565b955050505050509295509295509295565b60008060208385031215613100578182fd5b823567ffffffffffffffff80821115613117578384fd5b818501915085601f83011261312a578384fd5b813581811115613138578485fd5b86602060608302850101111561314c578485fd5b60209290920196919550909350505050565b60008060208385031215613170578182fd5b823567ffffffffffffffff811115613186578283fd5b61319285828601612e0b565b90969095509350505050565b6000602082840312156131af578081fd5b81518015158114612ed9578182fd5b6000602082840312156131cf578081fd5b81516001600160e01b031981168114612ed9578182fd5b6000602082840312156131f7578081fd5b5035919050565b60006020828403121561320f578081fd5b5051919050565b60008060008060008060c0878903121561322e578384fd5b8635955061323e60208801612def565b945060408701359350606087013592506080870135915061326160a08801612def565b90509295509295509295565b600080600060608486031215613281578081fd5b83359250602084013567ffffffffffffffff81111561329e578182fd5b6132aa86828701612e54565b925050604084013590509250925092565b6000806000606084860312156132cf578081fd5b505081359360208301359350604090920135919050565b6001600160a01b03169052565b8060005b60028110156109be57815161ffff168452602093840193909101906001016132f7565b15159052565b60008151808452613338816020860160208601613e70565b601f01601f19169290920160200192915050565b80518252602081015161336260208401826132e6565b50604081015161337560408401826132e6565b50606081015160608301526080810151608083015260a081015160a083015260c081015160c083015260e081015160e0830152610100808201518184015250610120808201518184015250610140808201516133d38285018261331a565b5050610160808201516133e88285018261331a565b5050610180808201516133fd828501826132f3565b50506101a08101516107996101c08401826132e6565b60008251613425818460208701613e70565b9190910192915050565b651b1a5cdd195960d21b815260060190565b6001600160a01b0391909116815260200190565b6001600160a01b0392831681529116602082015260400190565b6001600160a01b03958616815293851660208501529190931660408301526060820192909252608081019190915260a00190565b6001600160a01b039384168152919092166020820152604081019190915260600190565b6001600160a01b03868116825285166020820152604081018490526060810183905260a06080820181905260009061350190830184613320565b979650505050505050565b6001600160a01b03968716815294909516602085015260408401929092526060830152608082015260a081019190915260c00190565b6001600160a01b03929092168252602082015260400190565b6001600160a01b03959095168552602085019390935260408401919091526060830152608082015260a00190565b6020808252825182820181905260009190848201906040850190845b818110156135cc576135b883855161334c565b928401926101e092909201916001016135a5565b50909695505050505050565b606081016135e682856132f3565b6001600160a01b039290921660409190910152919050565b600060208252612ed96020830184613320565b60208082526022908201527f4c69624469616d6f6e643a204d75737420626520636f6e7472616374206f776e60408201526132b960f11b606082015260800190565b6020808252602b908201527f455243313135354d61726b6574706c6163653a20496e636f727265637420746f60408201526a6b656e206164647265737360a81b606082015260800190565b60208082526021908201527f4c696241707053746f726167653a20446f206e6f7420686176652061636365736040820152607360f81b606082015260800190565b60208082526034908201527f455243313135354d61726b6574706c6163653a207175616e746974792069732060408201527367726561746572207468616e206c697374696e6760601b606082015260800190565b60208082526029908201527f4c696245524332303a20455243323020746f6b656e206164647265737320686160408201526873206e6f20636f646560b81b606082015260800190565b60208082526031908201527f4c696245524332303a207472616e73666572206f72207472616e7366657246726040820152706f6d2072657475726e65642066616c736560781b606082015260800190565b60208082526028908201527f455243313135354d61726b6574706c6163653a206c697374696e672069732063604082015267185b98d95b1b195960c21b606082015260800190565b6020808252601d908201527f4d61726b6574706c6163653a206f776e6572206e6f742073656c6c6572000000604082015260600190565b60208082526023908201527f455243313135354d61726b6574706c6163653a206e6f7420656e6f75676820476040820152621214d560ea1b606082015260800190565b6020808252602c908201527f455243313135354d61726b6574706c6163653a204e6f7420656e6f756768204560408201526b292198989a9a903a37b5b2b760a11b606082015260800190565b6020808252602b908201527f4c696245524332303a207472616e73666572206f72207472616e73666572467260408201526a1bdb481c995d995c9d195960aa1b606082015260800190565b6020808252602b908201527f455243313135354d61726b6574706c6163653a205f7175616e7469747920636160408201526a6e2774206265207a65726f60a81b606082015260800190565b60208082526033908201527f455243313135354d61726b6574706c6163653a20636f73742073686f756c6420604082015272313290189023a429aa1037b9103630b933b2b960691b606082015260800190565b6020808252602d908201527f455243313135354d61726b6574706c6163653a204e6f7420617070726f76656460408201526c103337b9103a3930b739b332b960991b606082015260800190565b60208082526030908201527f455243313135354d61726b6574706c6163653a2077726f6e672070726963652060408201526f1bdc881c1c9a58d94818da185b99d95960821b606082015260800190565b60208082526027908201527f455243313135354d61726b6574706c6163653a206c697374696e6720697320736040820152661bdb19081bdd5d60ca1b606082015260800190565b60208082526035908201527f455243313135354d61726b6574706c6163653a2053756d206f66207072696e6360408201527406970616c2073706c697473206e6f7420313030303605c1b606082015260800190565b60208082526039908201527f4c696241707053746f726167653a206f6e6c7920616e204974656d4d616e616760408201527f65722063616e2063616c6c20746869732066756e6374696f6e00000000000000606082015260800190565b60208082526029908201527f455243313135354d61726b6574706c6163653a2062757965722063616e27742060408201526831329039b2b63632b960b91b606082015260800190565b6020808252602c908201527f4c69624974656d733a20446f65736e277420686176652074686174206d616e7960408201526b103a37903a3930b739b332b960a11b606082015260800190565b6020808252602a908201527f5765617261626c65733a205472616e736665722072656a65637465642f6661696040820152696c6564206279205f746f60b01b606082015260800190565b6020808252602e908201527f455243313135354d61726b6574706c6163653a2065726331313535206974656d60408201526d081b9bdd081cdd5c1c1bdc9d195960921b606082015260800190565b6020808252603c908201527f455243313135354d61726b6574706c6163653a20416666696c6961746520737060408201527f6c6974206d757374206265203020666f72206164647265737328302900000000606082015260800190565b60208082526026908201527f455243313135354d61726b6574706c6163653a20496e636f727265637420746f6040820152651ad95b881a5960d21b606082015260800190565b60208082526025908201527f455243313135354d61726b6574706c6163653a206c697374696e67206e6f7420604082015264199bdd5b9960da1b606082015260800190565b6101e08101610830828461334c565b90815260200190565b918252602082015260400190565b9283526020830191909152604082015260600190565b604051601f8201601f1916810167ffffffffffffffff81118282101715613dd457613dd4613ecd565b604052919050565b600061ffff808316818516808303821115613df957613df9613eb7565b01949350505050565b60008219821115613e1557613e15613eb7565b500190565b600082613e3557634e487b7160e01b81526012600452602481fd5b500490565b6000816000190483118215151615613e5457613e54613eb7565b500290565b600082821015613e6b57613e6b613eb7565b500390565b60005b83811015613e8b578181015183820152602001613e73565b838111156109be5750506000910152565b6000600019821415613eb057613eb0613eb7565b5060010190565b634e487b7160e01b600052601160045260246000fd5b634e487b7160e01b600052604160045260246000fdfea2646970667358221220b3cb4bc8f6bc5079d40c2209db761fa498ef0ec24ad32576efc9f736e3ba200164736f6c63430008010033",
  "linkReferences": {},
  "deployedLinkReferences": {}
}