{
  "_format": "hh-sol-artifact-1",
  "contractName": "ERC721MarketplaceFacet",
  "sourceName": "contracts/Aavegotchi/facets/ERC721MarketplaceFacet.sol",
  "abi": [
    {
      "anonymous": false,
      "inputs": [
        {
          "indexed": true,
          "internalType": "uint256",
          "name": "listingId",
          "type": "uint256"
        },
        {
          "indexed": true,
          "internalType": "address",
          "name": "seller",
          "type": "address"
        },
        {
          "indexed": false,
          "internalType": "address",
          "name": "buyer",
          "type": "address"
        },
        {
          "indexed": false,
          "internalType": "address",
          "name": "erc721TokenAddress",
          "type": "address"
        },
        {
          "indexed": false,
          "internalType": "uint256",
          "name": "erc721TokenId",
          "type": "uint256"
        },
        {
          "indexed": true,
          "internalType": "uint256",
          "name": "category",
          "type": "uint256"
        },
        {
          "indexed": false,
          "internalType": "uint256",
          "name": "priceInWei",
          "type": "uint256"
        },
        {
          "indexed": false,
          "internalType": "uint256",
          "name": "time",
          "type": "uint256"
        }
      ],
      "name": "ERC721ExecutedListing",
      "type": "event"
    },
    {
      "anonymous": false,
      "inputs": [
        {
          "indexed": true,
          "internalType": "uint256",
          "name": "listingId",
          "type": "uint256"
        },
        {
          "indexed": true,
          "internalType": "address",
          "name": "buyer",
          "type": "address"
        },
        {
          "indexed": true,
          "internalType": "address",
          "name": "recipient",
          "type": "address"
        }
      ],
      "name": "ERC721ExecutedToRecipient",
      "type": "event"
    },
    {
      "anonymous": false,
      "inputs": [
        {
          "indexed": true,
          "internalType": "uint256",
          "name": "listingId",
          "type": "uint256"
        },
        {
          "indexed": true,
          "internalType": "address",
          "name": "seller",
          "type": "address"
        },
        {
          "indexed": false,
          "internalType": "address",
          "name": "erc721TokenAddress",
          "type": "address"
        },
        {
          "indexed": false,
          "internalType": "uint256",
          "name": "erc721TokenId",
          "type": "uint256"
        },
        {
          "indexed": true,
          "internalType": "uint256",
          "name": "category",
          "type": "uint256"
        },
        {
          "indexed": false,
          "internalType": "uint256",
          "name": "time",
          "type": "uint256"
        }
      ],
      "name": "ERC721ListingAdd",
      "type": "event"
    },
    {
      "anonymous": false,
      "inputs": [
        {
          "indexed": true,
          "internalType": "uint256",
          "name": "listingId",
          "type": "uint256"
        },
        {
          "indexed": false,
          "internalType": "uint16[2]",
          "name": "principalSplit",
          "type": "uint16[2]"
        },
        {
          "indexed": false,
          "internalType": "address",
          "name": "affiliate",
          "type": "address"
        }
      ],
      "name": "ERC721ListingSplit",
      "type": "event"
    },
    {
      "inputs": [
        {
          "internalType": "address",
          "name": "_erc721TokenAddress",
          "type": "address"
        },
        {
          "internalType": "uint256",
          "name": "_erc721TokenId",
          "type": "uint256"
        },
        {
          "internalType": "uint256",
          "name": "_priceInWei",
          "type": "uint256"
        }
      ],
      "name": "addERC721Listing",
      "outputs": [],
      "stateMutability": "nonpayable",
      "type": "function"
    },
    {
      "inputs": [
        {
          "internalType": "address",
          "name": "_erc721TokenAddress",
          "type": "address"
        },
        {
          "internalType": "uint256",
          "name": "_erc721TokenId",
          "type": "uint256"
        },
        {
          "internalType": "uint256",
          "name": "_priceInWei",
          "type": "uint256"
        },
        {
          "internalType": "uint16[2]",
          "name": "_principalSplit",
          "type": "uint16[2]"
        },
        {
          "internalType": "address",
          "name": "_affiliate",
          "type": "address"
        }
      ],
      "name": "addERC721ListingWithSplit",
      "outputs": [],
      "stateMutability": "nonpayable",
      "type": "function"
    },
    {
      "inputs": [
        {
          "internalType": "uint256",
          "name": "_listingId",
          "type": "uint256"
        }
      ],
      "name": "cancelERC721Listing",
      "outputs": [],
      "stateMutability": "nonpayable",
      "type": "function"
    },
    {
      "inputs": [
        {
          "internalType": "address",
          "name": "_erc721TokenAddress",
          "type": "address"
        },
        {
          "internalType": "uint256",
          "name": "_erc721TokenId",
          "type": "uint256"
        }
      ],
      "name": "cancelERC721ListingByToken",
      "outputs": [],
      "stateMutability": "nonpayable",
      "type": "function"
    },
    {
      "inputs": [
        {
          "internalType": "uint256[]",
          "name": "_listingIds",
          "type": "uint256[]"
        }
      ],
      "name": "cancelERC721Listings",
      "outputs": [],
      "stateMutability": "nonpayable",
      "type": "function"
    },
    {
      "inputs": [
        {
          "internalType": "uint256",
          "name": "_listingId",
          "type": "uint256"
        }
      ],
      "name": "executeERC721Listing",
      "outputs": [],
      "stateMutability": "nonpayable",
      "type": "function"
    },
    {
      "inputs": [
        {
          "internalType": "uint256",
          "name": "_listingId",
          "type": "uint256"
        },
        {
          "internalType": "address",
          "name": "_contractAddress",
          "type": "address"
        },
        {
          "internalType": "uint256",
          "name": "_priceInWei",
          "type": "uint256"
        },
        {
          "internalType": "uint256",
          "name": "_tokenId",
          "type": "uint256"
        },
        {
          "internalType": "address",
          "name": "_recipient",
          "type": "address"
        }
      ],
      "name": "executeERC721ListingToRecipient",
      "outputs": [],
      "stateMutability": "nonpayable",
      "type": "function"
    },
    {
      "inputs": [
        {
          "internalType": "uint256",
          "name": "_listingId",
          "type": "uint256"
        }
      ],
      "name": "getAavegotchiListing",
      "outputs": [
        {
          "components": [
            {
              "internalType": "uint256",
              "name": "listingId",
              "type": "uint256"
            },
            {
              "internalType": "address",
              "name": "seller",
              "type": "address"
            },
            {
              "internalType": "address",
              "name": "erc721TokenAddress",
              "type": "address"
            },
            {
              "internalType": "uint256",
              "name": "erc721TokenId",
              "type": "uint256"
            },
            {
              "internalType": "uint256",
              "name": "category",
              "type": "uint256"
            },
            {
              "internalType": "uint256",
              "name": "priceInWei",
              "type": "uint256"
            },
            {
              "internalType": "uint256",
              "name": "timeCreated",
              "type": "uint256"
            },
            {
              "internalType": "uint256",
              "name": "timePurchased",
              "type": "uint256"
            },
            {
              "internalType": "bool",
              "name": "cancelled",
              "type": "bool"
            },
            {
              "internalType": "uint16[2]",
              "name": "principalSplit",
              "type": "uint16[2]"
            },
            {
              "internalType": "address",
              "name": "affiliate",
              "type": "address"
            }
          ],
          "internalType": "struct ERC721Listing",
          "name": "listing_",
          "type": "tuple"
        },
        {
          "components": [
            {
              "internalType": "uint256",
              "name": "tokenId",
              "type": "uint256"
            },
            {
              "internalType": "string",
              "name": "name",
              "type": "string"
            },
            {
              "internalType": "address",
              "name": "owner",
              "type": "address"
            },
            {
              "internalType": "uint256",
              "name": "randomNumber",
              "type": "uint256"
            },
            {
              "internalType": "uint256",
              "name": "status",
              "type": "uint256"
            },
            {
              "internalType": "int16[6]",
              "name": "numericTraits",
              "type": "int16[6]"
            },
            {
              "internalType": "int16[6]",
              "name": "modifiedNumericTraits",
              "type": "int16[6]"
            },
            {
              "internalType": "uint16[16]",
              "name": "equippedWearables",
              "type": "uint16[16]"
            },
            {
              "internalType": "address",
              "name": "collateral",
              "type": "address"
            },
            {
              "internalType": "address",
              "name": "escrow",
              "type": "address"
            },
            {
              "internalType": "uint256",
              "name": "stakedAmount",
              "type": "uint256"
            },
            {
              "internalType": "uint256",
              "name": "minimumStake",
              "type": "uint256"
            },
            {
              "internalType": "uint256",
              "name": "kinship",
              "type": "uint256"
            },
            {
              "internalType": "uint256",
              "name": "lastInteracted",
              "type": "uint256"
            },
            {
              "internalType": "uint256",
              "name": "experience",
              "type": "uint256"
            },
            {
              "internalType": "uint256",
              "name": "toNextLevel",
              "type": "uint256"
            },
            {
              "internalType": "uint256",
              "name": "usedSkillPoints",
              "type": "uint256"
            },
            {
              "internalType": "uint256",
              "name": "level",
              "type": "uint256"
            },
            {
              "internalType": "uint256",
              "name": "hauntId",
              "type": "uint256"
            },
            {
              "internalType": "uint256",
              "name": "baseRarityScore",
              "type": "uint256"
            },
            {
              "internalType": "uint256",
              "name": "modifiedRarityScore",
              "type": "uint256"
            },
            {
              "internalType": "bool",
              "name": "locked",
              "type": "bool"
            },
            {
              "components": [
                {
                  "internalType": "uint256",
                  "name": "balance",
                  "type": "uint256"
                },
                {
                  "internalType": "uint256",
                  "name": "itemId",
                  "type": "uint256"
                },
                {
                  "components": [
                    {
                      "internalType": "string",
                      "name": "name",
                      "type": "string"
                    },
                    {
                      "internalType": "string",
                      "name": "description",
                      "type": "string"
                    },
                    {
                      "internalType": "string",
                      "name": "author",
                      "type": "string"
                    },
                    {
                      "internalType": "int8[6]",
                      "name": "traitModifiers",
                      "type": "int8[6]"
                    },
                    {
                      "internalType": "bool[16]",
                      "name": "slotPositions",
                      "type": "bool[16]"
                    },
                    {
                      "internalType": "uint8[]",
                      "name": "allowedCollaterals",
                      "type": "uint8[]"
                    },
                    {
                      "components": [
                        {
                          "internalType": "uint8",
                          "name": "x",
                          "type": "uint8"
                        },
                        {
                          "internalType": "uint8",
                          "name": "y",
                          "type": "uint8"
                        },
                        {
                          "internalType": "uint8",
                          "name": "width",
                          "type": "uint8"
                        },
                        {
                          "internalType": "uint8",
                          "name": "height",
                          "type": "uint8"
                        }
                      ],
                      "internalType": "struct Dimensions",
                      "name": "dimensions",
                      "type": "tuple"
                    },
                    {
                      "internalType": "uint256",
                      "name": "ghstPrice",
                      "type": "uint256"
                    },
                    {
                      "internalType": "uint256",
                      "name": "maxQuantity",
                      "type": "uint256"
                    },
                    {
                      "internalType": "uint256",
                      "name": "totalQuantity",
                      "type": "uint256"
                    },
                    {
                      "internalType": "uint32",
                      "name": "svgId",
                      "type": "uint32"
                    },
                    {
                      "internalType": "uint8",
                      "name": "rarityScoreModifier",
                      "type": "uint8"
                    },
                    {
                      "internalType": "bool",
                      "name": "canPurchaseWithGhst",
                      "type": "bool"
                    },
                    {
                      "internalType": "uint16",
                      "name": "minLevel",
                      "type": "uint16"
                    },
                    {
                      "internalType": "bool",
                      "name": "canBeTransferred",
                      "type": "bool"
                    },
                    {
                      "internalType": "uint8",
                      "name": "category",
                      "type": "uint8"
                    },
                    {
                      "internalType": "int16",
                      "name": "kinshipBonus",
                      "type": "int16"
                    },
                    {
                      "internalType": "uint32",
                      "name": "experienceBonus",
                      "type": "uint32"
                    }
                  ],
                  "internalType": "struct ItemType",
                  "name": "itemType",
                  "type": "tuple"
                }
              ],
              "internalType": "struct ItemTypeIO[]",
              "name": "items",
              "type": "tuple[]"
            }
          ],
          "internalType": "struct AavegotchiInfo",
          "name": "aavegotchiInfo_",
          "type": "tuple"
        }
      ],
      "stateMutability": "view",
      "type": "function"
    },
    {
      "inputs": [
        {
          "internalType": "uint256",
          "name": "_category",
          "type": "uint256"
        },
        {
          "internalType": "string",
          "name": "_sort",
          "type": "string"
        },
        {
          "internalType": "uint256",
          "name": "_length",
          "type": "uint256"
        }
      ],
      "name": "getAavegotchiListings",
      "outputs": [
        {
          "components": [
            {
              "components": [
                {
                  "internalType": "uint256",
                  "name": "listingId",
                  "type": "uint256"
                },
                {
                  "internalType": "address",
                  "name": "seller",
                  "type": "address"
                },
                {
                  "internalType": "address",
                  "name": "erc721TokenAddress",
                  "type": "address"
                },
                {
                  "internalType": "uint256",
                  "name": "erc721TokenId",
                  "type": "uint256"
                },
                {
                  "internalType": "uint256",
                  "name": "category",
                  "type": "uint256"
                },
                {
                  "internalType": "uint256",
                  "name": "priceInWei",
                  "type": "uint256"
                },
                {
                  "internalType": "uint256",
                  "name": "timeCreated",
                  "type": "uint256"
                },
                {
                  "internalType": "uint256",
                  "name": "timePurchased",
                  "type": "uint256"
                },
                {
                  "internalType": "bool",
                  "name": "cancelled",
                  "type": "bool"
                },
                {
                  "internalType": "uint16[2]",
                  "name": "principalSplit",
                  "type": "uint16[2]"
                },
                {
                  "internalType": "address",
                  "name": "affiliate",
                  "type": "address"
                }
              ],
              "internalType": "struct ERC721Listing",
              "name": "listing_",
              "type": "tuple"
            },
            {
              "components": [
                {
                  "internalType": "uint256",
                  "name": "tokenId",
                  "type": "uint256"
                },
                {
                  "internalType": "string",
                  "name": "name",
                  "type": "string"
                },
                {
                  "internalType": "address",
                  "name": "owner",
                  "type": "address"
                },
                {
                  "internalType": "uint256",
                  "name": "randomNumber",
                  "type": "uint256"
                },
                {
                  "internalType": "uint256",
                  "name": "status",
                  "type": "uint256"
                },
                {
                  "internalType": "int16[6]",
                  "name": "numericTraits",
                  "type": "int16[6]"
                },
                {
                  "internalType": "int16[6]",
                  "name": "modifiedNumericTraits",
                  "type": "int16[6]"
                },
                {
                  "internalType": "uint16[16]",
                  "name": "equippedWearables",
                  "type": "uint16[16]"
                },
                {
                  "internalType": "address",
                  "name": "collateral",
                  "type": "address"
                },
                {
                  "internalType": "address",
                  "name": "escrow",
                  "type": "address"
                },
                {
                  "internalType": "uint256",
                  "name": "stakedAmount",
                  "type": "uint256"
                },
                {
                  "internalType": "uint256",
                  "name": "minimumStake",
                  "type": "uint256"
                },
                {
                  "internalType": "uint256",
                  "name": "kinship",
                  "type": "uint256"
                },
                {
                  "internalType": "uint256",
                  "name": "lastInteracted",
                  "type": "uint256"
                },
                {
                  "internalType": "uint256",
                  "name": "experience",
                  "type": "uint256"
                },
                {
                  "internalType": "uint256",
                  "name": "toNextLevel",
                  "type": "uint256"
                },
                {
                  "internalType": "uint256",
                  "name": "usedSkillPoints",
                  "type": "uint256"
                },
                {
                  "internalType": "uint256",
                  "name": "level",
                  "type": "uint256"
                },
                {
                  "internalType": "uint256",
                  "name": "hauntId",
                  "type": "uint256"
                },
                {
                  "internalType": "uint256",
                  "name": "baseRarityScore",
                  "type": "uint256"
                },
                {
                  "internalType": "uint256",
                  "name": "modifiedRarityScore",
                  "type": "uint256"
                },
                {
                  "internalType": "bool",
                  "name": "locked",
                  "type": "bool"
                },
                {
                  "components": [
                    {
                      "internalType": "uint256",
                      "name": "balance",
                      "type": "uint256"
                    },
                    {
                      "internalType": "uint256",
                      "name": "itemId",
                      "type": "uint256"
                    },
                    {
                      "components": [
                        {
                          "internalType": "string",
                          "name": "name",
                          "type": "string"
                        },
                        {
                          "internalType": "string",
                          "name": "description",
                          "type": "string"
                        },
                        {
                          "internalType": "string",
                          "name": "author",
                          "type": "string"
                        },
                        {
                          "internalType": "int8[6]",
                          "name": "traitModifiers",
                          "type": "int8[6]"
                        },
                        {
                          "internalType": "bool[16]",
                          "name": "slotPositions",
                          "type": "bool[16]"
                        },
                        {
                          "internalType": "uint8[]",
                          "name": "allowedCollaterals",
                          "type": "uint8[]"
                        },
                        {
                          "components": [
                            {
                              "internalType": "uint8",
                              "name": "x",
                              "type": "uint8"
                            },
                            {
                              "internalType": "uint8",
                              "name": "y",
                              "type": "uint8"
                            },
                            {
                              "internalType": "uint8",
                              "name": "width",
                              "type": "uint8"
                            },
                            {
                              "internalType": "uint8",
                              "name": "height",
                              "type": "uint8"
                            }
                          ],
                          "internalType": "struct Dimensions",
                          "name": "dimensions",
                          "type": "tuple"
                        },
                        {
                          "internalType": "uint256",
                          "name": "ghstPrice",
                          "type": "uint256"
                        },
                        {
                          "internalType": "uint256",
                          "name": "maxQuantity",
                          "type": "uint256"
                        },
                        {
                          "internalType": "uint256",
                          "name": "totalQuantity",
                          "type": "uint256"
                        },
                        {
                          "internalType": "uint32",
                          "name": "svgId",
                          "type": "uint32"
                        },
                        {
                          "internalType": "uint8",
                          "name": "rarityScoreModifier",
                          "type": "uint8"
                        },
                        {
                          "internalType": "bool",
                          "name": "canPurchaseWithGhst",
                          "type": "bool"
                        },
                        {
                          "internalType": "uint16",
                          "name": "minLevel",
                          "type": "uint16"
                        },
                        {
                          "internalType": "bool",
                          "name": "canBeTransferred",
                          "type": "bool"
                        },
                        {
                          "internalType": "uint8",
                          "name": "category",
                          "type": "uint8"
                        },
                        {
                          "internalType": "int16",
                          "name": "kinshipBonus",
                          "type": "int16"
                        },
                        {
                          "internalType": "uint32",
                          "name": "experienceBonus",
                          "type": "uint32"
                        }
                      ],
                      "internalType": "struct ItemType",
                      "name": "itemType",
                      "type": "tuple"
                    }
                  ],
                  "internalType": "struct ItemTypeIO[]",
                  "name": "items",
                  "type": "tuple[]"
                }
              ],
              "internalType": "struct AavegotchiInfo",
              "name": "aavegotchiInfo_",
              "type": "tuple"
            }
          ],
          "internalType": "struct ERC721MarketplaceFacet.AavegotchiListing[]",
          "name": "listings_",
          "type": "tuple[]"
        }
      ],
      "stateMutability": "view",
      "type": "function"
    },
    {
      "inputs": [
        {
          "internalType": "address",
          "name": "_erc721TokenAddress",
          "type": "address"
        },
        {
          "internalType": "uint256",
          "name": "_erc721TokenId",
          "type": "uint256"
        }
      ],
      "name": "getERC721Category",
      "outputs": [
        {
          "internalType": "uint256",
          "name": "category_",
          "type": "uint256"
        }
      ],
      "stateMutability": "view",
      "type": "function"
    },
    {
      "inputs": [
        {
          "internalType": "uint256",
          "name": "_listingId",
          "type": "uint256"
        }
      ],
      "name": "getERC721Listing",
      "outputs": [
        {
          "components": [
            {
              "internalType": "uint256",
              "name": "listingId",
              "type": "uint256"
            },
            {
              "internalType": "address",
              "name": "seller",
              "type": "address"
            },
            {
              "internalType": "address",
              "name": "erc721TokenAddress",
              "type": "address"
            },
            {
              "internalType": "uint256",
              "name": "erc721TokenId",
              "type": "uint256"
            },
            {
              "internalType": "uint256",
              "name": "category",
              "type": "uint256"
            },
            {
              "internalType": "uint256",
              "name": "priceInWei",
              "type": "uint256"
            },
            {
              "internalType": "uint256",
              "name": "timeCreated",
              "type": "uint256"
            },
            {
              "internalType": "uint256",
              "name": "timePurchased",
              "type": "uint256"
            },
            {
              "internalType": "bool",
              "name": "cancelled",
              "type": "bool"
            },
            {
              "internalType": "uint16[2]",
              "name": "principalSplit",
              "type": "uint16[2]"
            },
            {
              "internalType": "address",
              "name": "affiliate",
              "type": "address"
            }
          ],
          "internalType": "struct ERC721Listing",
          "name": "listing_",
          "type": "tuple"
        }
      ],
      "stateMutability": "view",
      "type": "function"
    },
    {
      "inputs": [
        {
          "internalType": "address",
          "name": "_erc721TokenAddress",
          "type": "address"
        },
        {
          "internalType": "uint256",
          "name": "_erc721TokenId",
          "type": "uint256"
        },
        {
          "internalType": "address",
          "name": "_owner",
          "type": "address"
        }
      ],
      "name": "getERC721ListingFromToken",
      "outputs": [
        {
          "components": [
            {
              "internalType": "uint256",
              "name": "listingId",
              "type": "uint256"
            },
            {
              "internalType": "address",
              "name": "seller",
              "type": "address"
            },
            {
              "internalType": "address",
              "name": "erc721TokenAddress",
              "type": "address"
            },
            {
              "internalType": "uint256",
              "name": "erc721TokenId",
              "type": "uint256"
            },
            {
              "internalType": "uint256",
              "name": "category",
              "type": "uint256"
            },
            {
              "internalType": "uint256",
              "name": "priceInWei",
              "type": "uint256"
            },
            {
              "internalType": "uint256",
              "name": "timeCreated",
              "type": "uint256"
            },
            {
              "internalType": "uint256",
              "name": "timePurchased",
              "type": "uint256"
            },
            {
              "internalType": "bool",
              "name": "cancelled",
              "type": "bool"
            },
            {
              "internalType": "uint16[2]",
              "name": "principalSplit",
              "type": "uint16[2]"
            },
            {
              "internalType": "address",
              "name": "affiliate",
              "type": "address"
            }
          ],
          "internalType": "struct ERC721Listing",
          "name": "listing_",
          "type": "tuple"
        }
      ],
      "stateMutability": "view",
      "type": "function"
    },
    {
      "inputs": [
        {
          "internalType": "uint256",
          "name": "_category",
          "type": "uint256"
        },
        {
          "internalType": "string",
          "name": "_sort",
          "type": "string"
        },
        {
          "internalType": "uint256",
          "name": "_length",
          "type": "uint256"
        }
      ],
      "name": "getERC721Listings",
      "outputs": [
        {
          "components": [
            {
              "internalType": "uint256",
              "name": "listingId",
              "type": "uint256"
            },
            {
              "internalType": "address",
              "name": "seller",
              "type": "address"
            },
            {
              "internalType": "address",
              "name": "erc721TokenAddress",
              "type": "address"
            },
            {
              "internalType": "uint256",
              "name": "erc721TokenId",
              "type": "uint256"
            },
            {
              "internalType": "uint256",
              "name": "category",
              "type": "uint256"
            },
            {
              "internalType": "uint256",
              "name": "priceInWei",
              "type": "uint256"
            },
            {
              "internalType": "uint256",
              "name": "timeCreated",
              "type": "uint256"
            },
            {
              "internalType": "uint256",
              "name": "timePurchased",
              "type": "uint256"
            },
            {
              "internalType": "bool",
              "name": "cancelled",
              "type": "bool"
            },
            {
              "internalType": "uint16[2]",
              "name": "principalSplit",
              "type": "uint16[2]"
            },
            {
              "internalType": "address",
              "name": "affiliate",
              "type": "address"
            }
          ],
          "internalType": "struct ERC721Listing[]",
          "name": "listings_",
          "type": "tuple[]"
        }
      ],
      "stateMutability": "view",
      "type": "function"
    },
    {
      "inputs": [
        {
          "internalType": "address",
          "name": "_owner",
          "type": "address"
        },
        {
          "internalType": "uint256",
          "name": "_category",
          "type": "uint256"
        },
        {
          "internalType": "string",
          "name": "_sort",
          "type": "string"
        },
        {
          "internalType": "uint256",
          "name": "_length",
          "type": "uint256"
        }
      ],
      "name": "getOwnerAavegotchiListings",
      "outputs": [
        {
          "components": [
            {
              "components": [
                {
                  "internalType": "uint256",
                  "name": "listingId",
                  "type": "uint256"
                },
                {
                  "internalType": "address",
                  "name": "seller",
                  "type": "address"
                },
                {
                  "internalType": "address",
                  "name": "erc721TokenAddress",
                  "type": "address"
                },
                {
                  "internalType": "uint256",
                  "name": "erc721TokenId",
                  "type": "uint256"
                },
                {
                  "internalType": "uint256",
                  "name": "category",
                  "type": "uint256"
                },
                {
                  "internalType": "uint256",
                  "name": "priceInWei",
                  "type": "uint256"
                },
                {
                  "internalType": "uint256",
                  "name": "timeCreated",
                  "type": "uint256"
                },
                {
                  "internalType": "uint256",
                  "name": "timePurchased",
                  "type": "uint256"
                },
                {
                  "internalType": "bool",
                  "name": "cancelled",
                  "type": "bool"
                },
                {
                  "internalType": "uint16[2]",
                  "name": "principalSplit",
                  "type": "uint16[2]"
                },
                {
                  "internalType": "address",
                  "name": "affiliate",
                  "type": "address"
                }
              ],
              "internalType": "struct ERC721Listing",
              "name": "listing_",
              "type": "tuple"
            },
            {
              "components": [
                {
                  "internalType": "uint256",
                  "name": "tokenId",
                  "type": "uint256"
                },
                {
                  "internalType": "string",
                  "name": "name",
                  "type": "string"
                },
                {
                  "internalType": "address",
                  "name": "owner",
                  "type": "address"
                },
                {
                  "internalType": "uint256",
                  "name": "randomNumber",
                  "type": "uint256"
                },
                {
                  "internalType": "uint256",
                  "name": "status",
                  "type": "uint256"
                },
                {
                  "internalType": "int16[6]",
                  "name": "numericTraits",
                  "type": "int16[6]"
                },
                {
                  "internalType": "int16[6]",
                  "name": "modifiedNumericTraits",
                  "type": "int16[6]"
                },
                {
                  "internalType": "uint16[16]",
                  "name": "equippedWearables",
                  "type": "uint16[16]"
                },
                {
                  "internalType": "address",
                  "name": "collateral",
                  "type": "address"
                },
                {
                  "internalType": "address",
                  "name": "escrow",
                  "type": "address"
                },
                {
                  "internalType": "uint256",
                  "name": "stakedAmount",
                  "type": "uint256"
                },
                {
                  "internalType": "uint256",
                  "name": "minimumStake",
                  "type": "uint256"
                },
                {
                  "internalType": "uint256",
                  "name": "kinship",
                  "type": "uint256"
                },
                {
                  "internalType": "uint256",
                  "name": "lastInteracted",
                  "type": "uint256"
                },
                {
                  "internalType": "uint256",
                  "name": "experience",
                  "type": "uint256"
                },
                {
                  "internalType": "uint256",
                  "name": "toNextLevel",
                  "type": "uint256"
                },
                {
                  "internalType": "uint256",
                  "name": "usedSkillPoints",
                  "type": "uint256"
                },
                {
                  "internalType": "uint256",
                  "name": "level",
                  "type": "uint256"
                },
                {
                  "internalType": "uint256",
                  "name": "hauntId",
                  "type": "uint256"
                },
                {
                  "internalType": "uint256",
                  "name": "baseRarityScore",
                  "type": "uint256"
                },
                {
                  "internalType": "uint256",
                  "name": "modifiedRarityScore",
                  "type": "uint256"
                },
                {
                  "internalType": "bool",
                  "name": "locked",
                  "type": "bool"
                },
                {
                  "components": [
                    {
                      "internalType": "uint256",
                      "name": "balance",
                      "type": "uint256"
                    },
                    {
                      "internalType": "uint256",
                      "name": "itemId",
                      "type": "uint256"
                    },
                    {
                      "components": [
                        {
                          "internalType": "string",
                          "name": "name",
                          "type": "string"
                        },
                        {
                          "internalType": "string",
                          "name": "description",
                          "type": "string"
                        },
                        {
                          "internalType": "string",
                          "name": "author",
                          "type": "string"
                        },
                        {
                          "internalType": "int8[6]",
                          "name": "traitModifiers",
                          "type": "int8[6]"
                        },
                        {
                          "internalType": "bool[16]",
                          "name": "slotPositions",
                          "type": "bool[16]"
                        },
                        {
                          "internalType": "uint8[]",
                          "name": "allowedCollaterals",
                          "type": "uint8[]"
                        },
                        {
                          "components": [
                            {
                              "internalType": "uint8",
                              "name": "x",
                              "type": "uint8"
                            },
                            {
                              "internalType": "uint8",
                              "name": "y",
                              "type": "uint8"
                            },
                            {
                              "internalType": "uint8",
                              "name": "width",
                              "type": "uint8"
                            },
                            {
                              "internalType": "uint8",
                              "name": "height",
                              "type": "uint8"
                            }
                          ],
                          "internalType": "struct Dimensions",
                          "name": "dimensions",
                          "type": "tuple"
                        },
                        {
                          "internalType": "uint256",
                          "name": "ghstPrice",
                          "type": "uint256"
                        },
                        {
                          "internalType": "uint256",
                          "name": "maxQuantity",
                          "type": "uint256"
                        },
                        {
                          "internalType": "uint256",
                          "name": "totalQuantity",
                          "type": "uint256"
                        },
                        {
                          "internalType": "uint32",
                          "name": "svgId",
                          "type": "uint32"
                        },
                        {
                          "internalType": "uint8",
                          "name": "rarityScoreModifier",
                          "type": "uint8"
                        },
                        {
                          "internalType": "bool",
                          "name": "canPurchaseWithGhst",
                          "type": "bool"
                        },
                        {
                          "internalType": "uint16",
                          "name": "minLevel",
                          "type": "uint16"
                        },
                        {
                          "internalType": "bool",
                          "name": "canBeTransferred",
                          "type": "bool"
                        },
                        {
                          "internalType": "uint8",
                          "name": "category",
                          "type": "uint8"
                        },
                        {
                          "internalType": "int16",
                          "name": "kinshipBonus",
                          "type": "int16"
                        },
                        {
                          "internalType": "uint32",
                          "name": "experienceBonus",
                          "type": "uint32"
                        }
                      ],
                      "internalType": "struct ItemType",
                      "name": "itemType",
                      "type": "tuple"
                    }
                  ],
                  "internalType": "struct ItemTypeIO[]",
                  "name": "items",
                  "type": "tuple[]"
                }
              ],
              "internalType": "struct AavegotchiInfo",
              "name": "aavegotchiInfo_",
              "type": "tuple"
            }
          ],
          "internalType": "struct ERC721MarketplaceFacet.AavegotchiListing[]",
          "name": "listings_",
          "type": "tuple[]"
        }
      ],
      "stateMutability": "view",
      "type": "function"
    },
    {
      "inputs": [
        {
          "internalType": "address",
          "name": "_owner",
          "type": "address"
        },
        {
          "internalType": "uint256",
          "name": "_category",
          "type": "uint256"
        },
        {
          "internalType": "string",
          "name": "_sort",
          "type": "string"
        },
        {
          "internalType": "uint256",
          "name": "_length",
          "type": "uint256"
        }
      ],
      "name": "getOwnerERC721Listings",
      "outputs": [
        {
          "components": [
            {
              "internalType": "uint256",
              "name": "listingId",
              "type": "uint256"
            },
            {
              "internalType": "address",
              "name": "seller",
              "type": "address"
            },
            {
              "internalType": "address",
              "name": "erc721TokenAddress",
              "type": "address"
            },
            {
              "internalType": "uint256",
              "name": "erc721TokenId",
              "type": "uint256"
            },
            {
              "internalType": "uint256",
              "name": "category",
              "type": "uint256"
            },
            {
              "internalType": "uint256",
              "name": "priceInWei",
              "type": "uint256"
            },
            {
              "internalType": "uint256",
              "name": "timeCreated",
              "type": "uint256"
            },
            {
              "internalType": "uint256",
              "name": "timePurchased",
              "type": "uint256"
            },
            {
              "internalType": "bool",
              "name": "cancelled",
              "type": "bool"
            },
            {
              "internalType": "uint16[2]",
              "name": "principalSplit",
              "type": "uint16[2]"
            },
            {
              "internalType": "address",
              "name": "affiliate",
              "type": "address"
            }
          ],
          "internalType": "struct ERC721Listing[]",
          "name": "listings_",
          "type": "tuple[]"
        }
      ],
      "stateMutability": "view",
      "type": "function"
    },
    {
      "inputs": [
        {
          "components": [
            {
              "internalType": "address",
              "name": "erc721TokenAddress",
              "type": "address"
            },
            {
              "internalType": "uint256",
              "name": "category",
              "type": "uint256"
            }
          ],
          "internalType": "struct ERC721MarketplaceFacet.Category[]",
          "name": "_categories",
          "type": "tuple[]"
        }
      ],
      "name": "setERC721Categories",
      "outputs": [],
      "stateMutability": "nonpayable",
      "type": "function"
    },
    {
      "inputs": [
        {
          "internalType": "address",
          "name": "_erc721TokenAddress",
          "type": "address"
        },
        {
          "internalType": "uint256",
          "name": "_erc721TokenId",
          "type": "uint256"
        },
        {
          "internalType": "address",
          "name": "_owner",
          "type": "address"
        }
      ],
      "name": "updateERC721Listing",
      "outputs": [],
      "stateMutability": "nonpayable",
      "type": "function"
    }
  ],
  "bytecode": "0x608060405234801561001057600080fd5b50615bae80620000216000396000f3fe608060405234801561001057600080fd5b506004361061010b5760003560e01c80636c20642f116100a2578063d33a32df11610071578063d33a32df14610233578063d90da10614610246578063df3ad6d114610259578063f17a5c6c1461026c578063fb8b1c561461027f5761010b565b80636c20642f146101cd57806388358431146101ed578063a676bafb14610200578063ba726be4146102205761010b565b80633eed635a116100de5780633eed635a146101745780634eff5a3e1461018757806353922ca5146101a757806366609c88146101ba5761010b565b80630adfab1714610110578063107146a4146101255780632170d3911461014e57806331b0b51414610161575b600080fd5b61012361011e36600461462c565b6102a0565b005b61013861013336600461472d565b6103b3565b6040516101459190614dc7565b60405180910390f35b61012361015c36600461444f565b6105f7565b61012361016f36600461441b565b61060b565b61012361018236600461437c565b610638565b61019a6101953660046146a8565b610643565b604051610145919061572e565b6101236101b53660046145bd565b61076c565b6101236101c83660046146d8565b610908565b6101e06101db3660046143bd565b610915565b6040516101459190614e47565b6101386101fb3660046143bd565b610b2d565b61021361020e366004614324565b610d7c565b604051610145919061575f565b61012361022e366004614324565b610e31565b61019a61024136600461437c565b610e47565b6101e061025436600461472d565b610f9b565b6101236102673660046146a8565b611193565b61012361027a3660046146a8565b6111a7565b61029261028d3660046146a8565b6111e3565b60405161014592919061573d565b6102a8611323565b60005b818110156103ae5760008383838181106102d557634e487b7160e01b600052603260045260246000fd5b60209081029290920135600081815260349093526040909220600181015492935091151590506103205760405162461bcd60e51b815260040161031790615636565b60405180910390fd5b6000828152603360205260409081902060088101805460ff1916600117905560048101549151909184917f10e53bca620314e794d61e37932062e81c48e88233765d09da42aeb00ae4dba091610377914390615768565b60405180910390a260018101546103989084906001600160a01b0316611368565b50505080806103a690615b1c565b9150506102ab565b505050565b600083815260356020526040808220905160609291906103d4908690614cf5565b9081526020016040518091039020549050826001600160401b0381111561040b57634e487b7160e01b600052604160045260246000fd5b60405190808252806020026020018201604052801561044457816020015b610431613e70565b8152602001906001900390816104295790505b50915060005b811580159061045857508381105b156105ed5760008281526033602090815260408083208151610160810183528154815260018201546001600160a01b0390811694820194909452600280830154909416818401526003820154606082015260048201546080820152600582015460a0820152600682015460c0820152600782015460e0820152600882015460ff1615156101008201528251808401938490529093919261012085019260098501918288855b82829054906101000a900461ffff1661ffff16815260200190600201906020826001010492830192600103820291508084116104fd57505050928452505050600a91909101546001600160a01b03166020909101528451909150819085908490811061057957634e487b7160e01b600052603260045260246000fd5b60200260200101516000018190525061059581606001516115c6565b8483815181106105b557634e487b7160e01b600052603260045260246000fd5b6020908102919091018101518101919091526000938452603490525060409091206002015490806105e581615b1c565b91505061044a565b8252509392505050565b610604858585858561198a565b5050505050565b6103ae838383604051806040016040528061271061ffff168152602001600061ffff16815250600061198a565b6103ae838383611fdf565b61064b613e95565b60008281526033602090815260408083208151610160810183528154815260018201546001600160a01b0390811694820194909452600280830154909416818401526003820154606082015260048201546080820152600582015460a0820152600682015460c0820152600782015460e0820152600882015460ff1615156101008201528251808401938490529094919361012086019391926009860192908390855b82829054906101000a900461ffff1661ffff16815260200190600201906020826001010492830192600103820291508084116106ee57505050928452505050600a91909101546001600160a01b031660209091015260c08101519091506107675760405162461bcd60e51b815260040161031790615681565b919050565b6000610776612123565b9050610780612180565b6001600160a01b0316816001600160a01b031614806107bc57506001600160a01b0381166000908152603b602052604090205460ff1615156001145b6107d85760405162461bcd60e51b815260040161031790614f1f565b60005b8281101561090257600084848381811061080557634e487b7160e01b600052603260045260246000fd5b905060400201602001359050600085858481811061083357634e487b7160e01b600052603260045260246000fd5b61084992602060409092020190810191506142ec565b90506003821161086b5760405162461bcd60e51b815260040161031790615028565b6001600160a01b03811630146108b0576000828152604060208190529020546001600160a01b0316156108b05760405162461bcd60e51b8152600401610317906152fb565b6001600160a01b0316600081815260386020908152604080832083805282528083208590559382528390529190912080546001600160a01b0319169091179055806108fa81615b1c565b9150506107db565b50505050565b610604858585858561219c565b6001600160a01b03841660009081526037602090815260408083208684529091528082209051606092919061094b908690614cf5565b9081526020016040518091039020549050826001600160401b0381111561098257634e487b7160e01b600052604160045260246000fd5b6040519080825280602002602001820160405280156109bb57816020015b6109a8613e95565b8152602001906001900390816109a05790505b50915060005b81158015906109cf57508381105b15610b225760008281526033602090815260408083208151610160810183528154815260018201546001600160a01b0390811694820194909452600280830154909416818401526003820154606082015260048201546080820152600582015460a0820152600682015460c0820152600782015460e0820152600882015460ff1615156101008201528251808401938490529094919361012086019391926009860192908390855b82829054906101000a900461ffff1661ffff1681526020019060020190602082600101049283019260010382029150808411610a7757505050928452505050600a91909101546001600160a01b03166020909101528351849083908110610aee57634e487b7160e01b600052603260045260246000fd5b6020908102919091018101919091526000928352603690526040909120600201549080610b1a81615b1c565b9150506109c1565b825250949350505050565b6001600160a01b038416600090815260376020908152604080832086845290915280822090516060929190610b63908690614cf5565b9081526020016040518091039020549050826001600160401b03811115610b9a57634e487b7160e01b600052604160045260246000fd5b604051908082528060200260200182016040528015610bd357816020015b610bc0613e70565b815260200190600190039081610bb85790505b50915060005b8115801590610be757508381105b15610b225760008281526033602090815260408083208151610160810183528154815260018201546001600160a01b0390811694820194909452600280830154909416818401526003820154606082015260048201546080820152600582015460a0820152600682015460c0820152600782015460e0820152600882015460ff1615156101008201528251808401938490529093919261012085019260098501918288855b82829054906101000a900461ffff1661ffff1681526020019060020190602082600101049283019260010382029150808411610c8c57505050928452505050600a91909101546001600160a01b031660209091015284519091508190859084908110610d0857634e487b7160e01b600052603260045260246000fd5b602002602001015160000181905250610d2481606001516115c6565b848381518110610d4457634e487b7160e01b600052603260045260246000fd5b602090810291909101810151810191909152600093845260369052506040909120600201549080610d7481615b1c565b915050610bd9565b60006001600160a01b038316301480610db757506001600160a01b038316600090815260386020908152604080832083805290915290205415155b610dd35760405162461bcd60e51b81526004016103179061539e565b6001600160a01b0383163014610e0d57506001600160a01b0382166000908152603860209081526040808320838052909152902054610e2b565b506000818152600d60205260409020600a0154600160a01b900460ff165b92915050565b610e438282610e3e612123565b6128f8565b5050565b610e4f613e95565b6001600160a01b03808516600090815260396020908152604080832087845282528083209386168352929052205480610e9a5760405162461bcd60e51b8152600401610317906153ef565b60008181526033602090815260408083208151610160810183528154815260018201546001600160a01b0390811694820194909452600280830154909416818401526003820154606082015260048201546080820152600582015460a0820152600682015460c0820152600782015460e0820152600882015460ff1615156101008201528251808401938490529094919361012086019391926009860192908390855b82829054906101000a900461ffff1661ffff1681526020019060020190602082600101049283019260010382029150808411610f3d57505050928452505050600a91909101546001600160a01b031660209091015295945050505050565b60008381526035602052604080822090516060929190610fbc908690614cf5565b9081526020016040518091039020549050826001600160401b03811115610ff357634e487b7160e01b600052604160045260246000fd5b60405190808252806020026020018201604052801561102c57816020015b611019613e95565b8152602001906001900390816110115790505b50915060005b811580159061104057508381105b156105ed5760008281526033602090815260408083208151610160810183528154815260018201546001600160a01b0390811694820194909452600280830154909416818401526003820154606082015260048201546080820152600582015460a0820152600682015460c0820152600782015460e0820152600882015460ff1615156101008201528251808401938490529094919361012086019391926009860192908390855b82829054906101000a900461ffff1661ffff16815260200190600201906020826001010492830192600103820291508084116110e857505050928452505050600a91909101546001600160a01b0316602090910152835184908390811061115f57634e487b7160e01b600052603260045260246000fd5b602090810291909101810191909152600092835260349052604090912060020154908061118b81615b1c565b915050611032565b6111a48161119f612123565b612947565b50565b6000818152603360205260409020600281015460058201546003830154610e439285926001600160a01b03909116916111de612123565b61219c565b6111eb613e95565b6111f3613f09565b60008381526033602090815260408083208151610160810183528154815260018201546001600160a01b0390811694820194909452600280830154909416818401526003820154606082015260048201546080820152600582015460a0820152600682015460c0820152600782015460e0820152600882015460ff1615156101008201528251808401938490529094919361012086019391926009860192908390855b82829054906101000a900461ffff1661ffff168152602001906002019060208260010104928301926001038202915080841161129657505050928452505050600a91909101546001600160a01b031660209091015260c081015190925061130f5760405162461bcd60e51b815260040161031790615681565b61131c82606001516115c6565b9050915091565b61132b612a6c565b600401546001600160a01b0316611340612123565b6001600160a01b0316146113665760405162461bcd60e51b815260040161031790614edd565b565b6000611372612a90565b60008481526034820160205260409020600181015491925090611396575050610e43565b805480156113b857600081815260348401602052604090206002808401549101555b600282015480156113d85760008181526034850160205260409020835490555b6000868152603385016020908152604080832060048101548452603588019092529182902091519091889161140c90614d11565b90815260200160405180910390205414156114595760028401546004820154600090815260358701602052604090819020905161144890614d11565b908152604051908190036020019020555b60006001850181905580855560029094018490558684526036850160205260409093208054909390925082156114a357600083815260368601602052604090206002808601549101555b6002840154915081156114c55760008281526036860160205260409020845490555b50600086815260338501602090815260408083206001600160a01b0389168452603788018352818420600482015485529092529182902091519091889161150b90614d11565b908152602001604051809103902054141561156c5760028401546001600160a01b038716600090815260378701602090815260408083206004860154845290915290819020905161155b90614d11565b908152604051908190036020019020555b6000600185018190558085556002850155600481015460405188917fd309bba073dd463d9d78e92766d06da7cde7d0e6e83149168a7bc913c9ecc442916115b591904290615768565b60405180910390a250505050505050565b6115ce613f09565b60006115d8612a90565b8383526000848152600d820160208181526040808420600a8101546001600160a01b0381169289019290925260048101546060890152600160a01b90910460ff16608088019081529388905291905260090154600160f01b900461ffff166102408501525190915060031415611984576000838152600d820160205260409020600301805461166690615ae7565b80601f016020809104026020016040519081016040528092919081815260200182805461169290615ae7565b80156116df5780601f106116b4576101008083540402835291602001916116df565b820191906000526020600020905b8154815290600101906020018083116116c257829003601f168201915b50505050506020838101919091526000848152600d8301909152604080822081516102008101928390529290916010918390855b82829054906101000a900461ffff1661ffff168152602001906002019060208260010104928301926001038202915080841161171357505050505060e0840191909152506000838152600d82016020818152604080842060098101546001600160a01b0390811661010089019081529589905293909252600b9091015482166101208601819052925190516370a0823160e01b81529116916370a08231916117be9190600401614d23565b60206040518083038186803b1580156117d657600080fd5b505afa1580156117ea573d6000803e3d6000fd5b505050506040513d601f19601f8201168201806040525081019061180e91906146c0565b6101408301526000838152600d8201602052604090206006015461016083015261183783612a95565b6101808301526000838152600d8201602081815260408320600a810154600160a81b900464ffffffffff166101a0870152600501546101c08601819052928690525261188290612b0c565b6101e08301526000838152600d820160205260409020600501546118a590612b42565b6102208301526000838152600d820160208181526040808420600781015461020088015287855292909152805160c081019182905292600290920191600691908390855b82829054906101000a900460010b60010b815260200190600201906020826001010492830192600103820291508084116118e957505050505060a084018290525061193390612b83565b61026083015261194283612c0b565b61028084015260c08301526000838152600d820160205260409020600a0154600160d01b900460ff1615156102a083015261197d3084612def565b6102c08301525b50919050565b846000611995612123565b9050806001600160a01b0316826001600160a01b0316636352211e886040518263ffffffff1660e01b81526004016119cd919061575f565b60206040518083038186803b1580156119e557600080fd5b505afa1580156119f9573d6000803e3d6000fd5b505050506040513d601f19601f82011682018060405250810190611a1d9190614308565b6001600160a01b031614611a435760405162461bcd60e51b81526004016103179061527a565b6001600160a01b038716301480611ad3575060405163e985e9c560e01b81526001600160a01b0383169063e985e9c590611a839084903090600401614d37565b60206040518083038186803b158015611a9b57600080fd5b505afa158015611aaf573d6000803e3d6000fd5b505050506040513d601f19601f82011682018060405250810190611ad39190614688565b80611b62575060405163020604bf60e21b815230906001600160a01b0384169063081812fc90611b07908a9060040161575f565b60206040518083038186803b158015611b1f57600080fd5b505afa158015611b33573d6000803e3d6000fd5b505050506040513d601f19601f82011682018060405250810190611b579190614308565b6001600160a01b0316145b611b7e5760405162461bcd60e51b815260040161031790615437565b6001600160a01b038716301415611bc8576000868152600d60205260409020600a0154600160d01b900460ff1615611bc85760405162461bcd60e51b8152600401610317906156d1565b670de0b6b3a7640000851015611bf05760405162461bcd60e51b81526004016103179061534b565b60208401518451611c01919061584e565b61ffff1661271014611c255760405162461bcd60e51b815260040161031790615194565b6001600160a01b038316611c5957602084015161ffff1615611c595760405162461bcd60e51b815260040161031790614fcb565b60328054906000611c6983615b1c565b90915550506032546000611c7d8989610d7c565b90506001811415611ca05760405162461bcd60e51b815260040161031790615553565b6001600160a01b03808a1660009081526039602090815260408083208c84528252808320938716835292905220548015611cde57611cde8185612947565b82600060390160008c6001600160a01b03166001600160a01b0316815260200190815260200160002060008b81526020019081526020016000206000866001600160a01b03166001600160a01b0316815260200190815260200160002081905550604051806101600160405280848152602001856001600160a01b031681526020018b6001600160a01b031681526020018a815260200183815260200189815260200142815260200160008152602001600015158152602001888152602001876001600160a01b0316815250600060330160008581526020019081526020016000206000820151816000015560208201518160010160006101000a8154816001600160a01b0302191690836001600160a01b0316021790555060408201518160020160006101000a8154816001600160a01b0302191690836001600160a01b03160217905550606082015181600301556080820151816004015560a0820151816005015560c0820151816006015560e082015181600701556101008201518160080160006101000a81548160ff02191690831515021790555061012082015181600901906002611e8f929190613fe6565b5061014082015181600a0160006101000a8154816001600160a01b0302191690836001600160a01b03160217905550905050611eeb8483604051806040016040528060068152602001651b1a5cdd195960d21b815250866133e7565b81846001600160a01b0316847fd9b541cd1d9650dbbcb9b244efe4aa9455a9e7bb329f80cd30ab25275534c72d8d8d8d604051611f2a93929190614da6565b60405180910390a46001600160a01b03861615611f7c57827f578ffc272d43e4ca7465fd44d471e0494a2b32e0caa226e1b9e61bbdc54fc96b8888604051611f73929190614e96565b60405180910390a25b6001600160a01b038a16301415611fb0576000898152600d60205260409020600a01805460ff60d01b1916600160d01b1790555b60305415611fd357603054601a54611fd3919086906001600160a01b031661355b565b50505050505050505050565b6000611fe9612a90565b6001600160a01b0380861660009081526039830160209081526040808320888452825280832093871683529290522054909150806120285750506103ae565b6000818152603383016020526040902060078101541515806120535750600881015460ff1615156001145b15612060575050506103ae565b600281015460038201546040516331a9108f60e11b81526000926001600160a01b031691636352211e91612097919060040161575f565b60206040518083038186803b1580156120af57600080fd5b505afa1580156120c3573d6000803e3d6000fd5b505050506040513d601f19601f820116820180604052508101906120e79190614308565b60018301549091506001600160a01b0380831691161461211a57600182015461211a9084906001600160a01b0316612947565b50505050505050565b60003330141561217a57600080368080601f0160208091040260200160405190810160405280939291908181526020018383808284376000920191909152505050503601516001600160a01b0316915061217d9050565b50335b90565b600061218a612a6c565b600401546001600160a01b0316919050565b60008581526033602052604090206007810154156121cc5760405162461bcd60e51b815260040161031790615233565b600881015460ff16156121f15760405162461bcd60e51b8152600401610317906155f2565b60068101546122125760405162461bcd60e51b815260040161031790614f87565b828160030154146122355760405162461bcd60e51b81526004016103179061550f565b60028101546001600160a01b038681169116146122645760405162461bcd60e51b8152600401610317906154c5565b838160050154146122875760405162461bcd60e51b815260040161031790615483565b6000612291612123565b60018301549091506001600160a01b039081169082168114156122c65760405162461bcd60e51b81526004016103179061507b565b601a546040516370a0823160e01b815287916001600160a01b0316906370a08231906122f6908690600401614d23565b60206040518083038186803b15801561230e57600080fd5b505afa158015612322573d6000803e3d6000fd5b505050506040513d601f19601f8201168201806040525081019061234691906146c0565b10156123645760405162461bcd60e51b8152600401610317906155b0565b4260078401556123748882611368565b6123a5818460040154604051806040016040528060098152602001681c1d5c98da185cd95960ba1b8152508b6133e7565b606080886001600160a01b03166301ffc9a7632a55205a6040518263ffffffff1660e01b81526004016123d89190614ebc565b60206040518083038186803b1580156123f057600080fd5b505afa158015612404573d6000803e3d6000fd5b505050506040513d601f19601f820116820180604052508101906124289190614688565b1561255b5760408051600180825281830190925290602080830190803683375050604080516001808252818301909252929450905060208083019080368337505060405163152a902d60e11b8152919250506001600160a01b038a1690632a55205a9061249b908a908c90600401615768565b604080518083038186803b1580156124b257600080fd5b505afa1580156124c6573d6000803e3d6000fd5b505050506040513d601f19601f820116820180604052508101906124ea919061434f565b8360008151811061250b57634e487b7160e01b600052603260045260246000fd5b602002602001018360008151811061253357634e487b7160e01b600052603260045260246000fd5b6020026020010182815250826001600160a01b03166001600160a01b03168152505050612668565b6040516301ffc9a760e01b81526001600160a01b038a16906301ffc9a79061258b906324d3493390600401614ebc565b60206040518083038186803b1580156125a357600080fd5b505afa1580156125b7573d6000803e3d6000fd5b505050506040513d601f19601f820116820180604052508101906125db9190614688565b1561266857604051632b2f58af60e21b81526001600160a01b038a169063acbd62bc9061260e908a908c90600401615768565b60006040518083038186803b15801561262657600080fd5b505afa15801561263a573d6000803e3d6000fd5b505050506040513d6000823e601f3d908101601f1916820160405261266291908101906144fb565b90925090505b600a8501546000906126fd908a9084906001600160a01b0316156126e15760408051808201918290529060098b0190600290826000855b82829054906101000a900461ffff1661ffff168152602001906002019060208260010104928301926001038202915080841161269f57905050505050506126f8565b604080518082019091526127108152600060208201525b613574565b6040805161010081018252601a546001600160a01b03908116825288811660208084019190915288821693830193909352600a8a01548116606083015260808201879052601e54811660a0830152601f54811660c0830152915490911660e082015290915061276c90826136b9565b60028601546001600160a01b03163014156127b6576003860180546000908152600d60205260409020600a01805460ff60d01b19169055546127b1908590899061381a565b612822565b60028601546003870154604051632142170760e11b81526001600160a01b03909216916342842e0e916127ef9188918c91600401614d51565b600060405180830381600087803b15801561280957600080fd5b505af115801561281d573d6000803e3d6000fd5b505050505b8560040154846001600160a01b03168c7f8abb27e53fc4ab514e7e5521910bdf2d1e48a69f150dbb671efa7ccc8f44bb288a8a60020160009054906101000a90046001600160a01b03168b600301548c6005015442604051612888959493929190614d75565b60405180910390a4866001600160a01b0316856001600160a01b0316146128eb57866001600160a01b0316856001600160a01b03168c7f0f52fde6171d45c02579364597406652690bf2264e564ba1a5b88ffa98d8815b60405160405180910390a45b5050505050505050505050565b6000612902612a90565b6001600160a01b0380861660009081526039830160209081526040808320888452825280832093871683529290522054909150806129415750506103ae565b61060481845b6000612951612a90565b60008481526034820160205260409020600181015491925090612975575050610e43565b60008481526033830160205260409020600881015460ff161515600114806129a05750600781015415155b156129ad57505050610e43565b60018101546001600160a01b038581169116146129dc5760405162461bcd60e51b81526004016103179061515d565b60088101805460ff1916600117905560028101546001600160a01b0316301415612a245760038101546000908152600d840160205260409020600a01805460ff60d01b191690555b847f10e53bca620314e794d61e37932062e81c48e88233765d09da42aeb00ae4dba0826004015443604051612a5a929190615768565b60405180910390a26106048585611368565b7fc8fcad8db84d3cc18b4c41d551ea0ee66dd599cde068d998e57d5e09332c131c90565b600090565b600080612aa0612a90565b6000848152600d820160205260408120600a81015460088201549394509092600160a81b90910464ffffffffff1691612ad98342615aa4565b90506000612aea620151808361588c565b905080831115612b0157612afe8184615aa4565b96505b505050505050919050565b600080612b1883612b42565b905082612b266002836158f2565b612b31906032615a46565b612b3b9190615aa4565b9392505050565b600062077a42821115612b5757506063610767565b600a612b6c612b67846002615a46565b613b24565b612b76919061588c565b9050610e2b816001615874565b6000805b6006811015611984576000838260068110612bb257634e487b7160e01b600052603260045260246000fd5b602002015160010b905060328112612be057612bcf816001615874565b612bd99084615874565b9250612bf8565b612beb816064615a65565b612bf59084615874565b92505b5080612c0381615b1c565b915050612b87565b612c1361407c565b600080612c1e612a90565b6000858152600d820160205260409020600a0154909150600160a01b900460ff16600314612c5e5760405162461bcd60e51b8152600401610317906152c6565b6000848152600d820160205260409020612c7785613b77565b93506000805b6010811015612dcc576000838260108110612ca857634e487b7160e01b600052603260045260246000fd5b601081049190910154600f9091166002026101000a900461ffff16905080612cd05750612dba565b6000856006018281548110612cf557634e487b7160e01b600052603260045260246000fd5b90600052602060002090600b0201905060005b6006811015612d9a57816003018160068110612d3457634e487b7160e01b600052603260045260246000fd5b602091828204019190069054906101000a900460000b60000b898260068110612d6d57634e487b7160e01b600052603260045260246000fd5b60200201818151612d7e91906157c9565b600190810b900b90525080612d9281615b1c565b915050612d08565b50600a810154612db590640100000000900460ff1685615874565b935050505b80612dc481615b1c565b915050612c7d565b506000612dd886612b83565b9050612de48282615874565b945050505050915091565b60606000612dfb612a90565b6001600160a01b03851660009081526004820160209081526040808320878452909152902054909150806001600160401b03811115612e4a57634e487b7160e01b600052604160045260246000fd5b604051908082528060200260200182016040528015612e8357816020015b612e7061409a565b815260200190600190039081612e685790505b50925060005b818110156133de576001600160a01b038616600090815260048401602090815260408083208884529091528120805483908110612ed657634e487b7160e01b600052603260045260246000fd5b60009182526020808320909101546001600160a01b038a16835260038701825260408084208a855283528084208285529092529120548651919250908290879085908110612f3457634e487b7160e01b600052603260045260246000fd5b6020026020010151602001818152505080868481518110612f6557634e487b7160e01b600052603260045260246000fd5b60209081029190910101515260068501805483908110612f9557634e487b7160e01b600052603260045260246000fd5b90600052602060002090600b020160405180610240016040529081600082018054612fbf90615ae7565b80601f0160208091040260200160405190810160405280929190818152602001828054612feb90615ae7565b80156130385780601f1061300d57610100808354040283529160200191613038565b820191906000526020600020905b81548152906001019060200180831161301b57829003601f168201915b5050505050815260200160018201805461305190615ae7565b80601f016020809104026020016040519081016040528092919081815260200182805461307d90615ae7565b80156130ca5780601f1061309f576101008083540402835291602001916130ca565b820191906000526020600020905b8154815290600101906020018083116130ad57829003601f168201915b505050505081526020016002820180546130e390615ae7565b80601f016020809104026020016040519081016040528092919081815260200182805461310f90615ae7565b801561315c5780601f106131315761010080835404028352916020019161315c565b820191906000526020600020905b81548152906001019060200180831161313f57829003601f168201915b50505091835250506040805160c0810191829052602090920191906003840190600690826000855b82829054906101000a900460000b60000b815260200190600101906020826000010492830192600103820291508084116131845750505092845250506040805161020081019182905260209093019291506004840190601090826000855b825461010083900a900460ff1615158152602060019283018181049485019490930390920291018084116131e2579050505050505081526020016005820180548060200260200160405190810160405280929190818152602001828054801561328857602002820191906000526020600020906000905b825461010083900a900460ff168152602060019283018181049485019490930390920291018084116132595790505b50505091835250506040805160808082018352600685015460ff808216845261010080830482166020868101919091526201000084048316868801526301000000909304821660608087019190915292870194909452600787015494860194909452600886015490850152600985015490840152600a9093015463ffffffff80821660a08501526401000000008204831660c08501526501000000000082048316151560e085015261ffff6601000000000000830416948401949094526801000000000000000081048216151561012084015269010000000000000000008104909116610140830152600160501b8104600190810b810b900b610160830152600160601b90049091166101809091015286518790859081106133ba57634e487b7160e01b600052603260045260246000fd5b602002602001015160400181905250505080806133d690615b1c565b915050612e89565b50505092915050565b60006133f1612a90565b6001600160a01b0386166000908152603782016020908152604080832088845290915280822090519293509091613429908690614cf5565b90815260200160405180910390205490508060001461345657600081815260368301602052604090208390555b60008381526036830160209081526040808320600281018590556001600160a01b038a168452603786018352818420898552909252918290209151909185916134a0908890614cf5565b908152604080516020928190038301812093909355600184018790556000898152603587019092529020906134d6908790614cf5565b90815260200160405180910390205491508160001461350357600082815260348401602052604090208490555b506000838152603483016020908152604080832060028101859055888452603586019092529182902091519091859161353d908890614cf5565b90815260405190819003602001902055600101929092555050505050565b82156103ae576103ae81836001600160a01b0386613d22565b61357c6140bb565b6000805b84518110156135d0578481815181106135a957634e487b7160e01b600052603260045260246000fd5b6020026020010151826135bc9190615874565b9150806135c881615b1c565b915050613580565b5060006135de60648761588c565b9050600060646135ef886002615a46565b6135f9919061588c565b9050600061360860c88961588c565b90506000816136178486615874565b6136219190615874565b61362b868b615aa4565b6136359190615aa4565b87519091506000906127109061364f9061ffff1684615a46565b613659919061588c565b9050600061271089600160200201516136769061ffff1685615a46565b613680919061588c565b6040805160c08101825297885260208801969096529486019390935260608501525050608082015260a081018590529150509392505050565b6136d5826000015183602001518460c001518460200151613d22565b6136f1826000015183602001518460a001518460000151613d22565b61370d826000015183602001518460e001518460400151613d22565b6137298260000151836020015184604001518460600151613d22565b60808101511561374f5761374f8260000151836020015184606001518460800151613d22565b60808201515115610e435760005b8260800151518110156103ae5760008260a00151828151811061379057634e487b7160e01b600052603260045260246000fd5b602002602001015111156138085761380883600001518460200151856080015184815181106137cf57634e487b7160e01b600052603260045260246000fd5b60200260200101518560a0015185815181106137fb57634e487b7160e01b600052603260045260246000fd5b6020026020010151613d22565b8061381281615b1c565b91505061375d565b6000613824612a90565b6001600160a01b0385166000818152600f830160209081526040808320878452825280832054938352600e8501909152812054929350909161386890600190615aa4565b9050808214613974576001600160a01b0386166000908152600e8401602052604081208054839081106138ab57634e487b7160e01b600052603260045260246000fd5b90600052602060002090600891828204019190066004029054906101000a900463ffffffff1690508084600e016000896001600160a01b03166001600160a01b03168152602001908152602001600020848154811061391a57634e487b7160e01b600052603260045260246000fd5b600091825260208083206008830401805460079093166004026101000a63ffffffff8181021990941695841602949094179093556001600160a01b038a168252600f87018352604080832094909116825292909152208290555b6001600160a01b0386166000908152600e8401602052604090208054806139ab57634e487b7160e01b600052603160045260246000fd5b60008281526020808220600860001990940193840401805463ffffffff600460078716026101000a0219169055919092556001600160a01b038089168352600f8601825260408084208885528352808420849055601387019092529120541615613a6357600084815260138401602052604080822080546001600160a01b0319169055518591906001600160a01b038916907f8c5be1e5ebec7d5bd14f71427d1e84f3dd0314c0f7b2291e5b200ac8c7c3b925908390a45b6000848152600d840160209081526040808320600a0180546001600160a01b0319166001600160a01b038a8116918217909255808552600e88018085528386208054600f8b0187528588208c8952875285882081905591865260018201815586529385206008850401805460079095166004026101000a63ffffffff81810219909616958b16029490941790935590518793918a16917fddf252ad1be2c89b69c2b068fc378daa952ba7f163c4a11628f55a4df523b3ef91a4505050505050565b6000806002613b34846001615874565b613b3e919061588c565b90508291505b8181101561198457905080600281613b5c818661588c565b613b669190615874565b613b70919061588c565b9050613b44565b613b7f61407c565b6000613b89612a90565b6000848152600d82016020526040812060090154919250906201518090613bbe90600160c81b900464ffffffffff1642615aa4565b613bc8919061588c565b905060005b6006811015613d1a576000858152600d8401602052604081206002018260068110613c0857634e487b7160e01b600052603260045260246000fd5b601091828204019190066002029054906101000a900460010b60010b9050600084600d0160008881526020019081526020016000206001018360068110613c5f57634e487b7160e01b600052603260045260246000fd5b602091828204019190069054906101000a900460000b60000b9050600081138015613c8957508381135b15613ca957613c988482615a65565b613ca2908361580d565b9150613cd3565b83613cb6826000196159c3565b1315613cd357613cc6848261580d565b613cd0908361580d565b91505b81868460068110613cf457634e487b7160e01b600052603260045260246000fd5b602002019060010b908160010b8152505050508080613d1290615b1c565b915050613bcd565b505050919050565b833b80613d415760405162461bcd60e51b8152600401610317906150c3565b600080866001600160a01b03166323b872dd60e01b878787604051602401613d6b93929190614d51565b60408051601f198184030181529181526020820180516001600160e01b03166001600160e01b0319909416939093179092529051613da99190614cf5565b6000604051808303816000865af19150503d8060008114613de6576040519150601f19603f3d011682016040523d82523d6000602084013e613deb565b606091505b509150915061211a82828115613e3757805115613e325780806020019051810190613e169190614688565b613e325760405162461bcd60e51b81526004016103179061510c565b610e43565b805115613e58578060405162461bcd60e51b81526004016103179190614eca565b60405162461bcd60e51b8152600401610317906151e8565b6040518060400160405280613e83613e95565b8152602001613e90613f09565b905290565b6040518061016001604052806000815260200160006001600160a01b0316815260200160006001600160a01b031681526020016000815260200160008152602001600081526020016000815260200160008152602001600015158152602001613efc6140f1565b8152600060209091015290565b604051806102e00160405280600081526020016060815260200160006001600160a01b031681526020016000815260200160008152602001613f4961407c565b8152602001613f5661407c565b8152602001613f6361410f565b815260200160006001600160a01b0316815260200160006001600160a01b031681526020016000815260200160008152602001600081526020016000815260200160008152602001600081526020016000815260200160008152602001600081526020016000815260200160008152602001600015158152602001606081525090565b60018301918390821561406c5791602002820160005b8382111561403c57835183826101000a81548161ffff021916908361ffff1602179055509260200192600201602081600101049283019260010302613ffc565b801561406a5782816101000a81549061ffff021916905560020160208160010104928301926001030261403c565b505b5061407892915061412e565b5090565b6040518060c001604052806006906020820280368337509192915050565b60405180606001604052806000815260200160008152602001613e90614143565b6040518060c001604052806000815260200160008152602001600081526020016000815260200160008152602001606081525090565b60405180604001604052806002906020820280368337509192915050565b6040518061020001604052806010906020820280368337509192915050565b5b80821115614078576000815560010161412f565b60405180610240016040528060608152602001606081526020016060815260200161416c61407c565b815260200161417961410f565b81526020016060815260200161418d6141e4565b815260006020820181905260408201819052606082018190526080820181905260a0820181905260c0820181905260e082018190526101008201819052610120820181905261014082018190526101609091015290565b60408051608081018252600080825260208201819052918101829052606081019190915290565b803561076781615b63565b600082601f830112614226578081fd5b8151602061423b614236836157a6565b615776565b8281528181019085830183850287018401881015614257578586fd5b855b8581101561427557815184529284019290840190600101614259565b5090979650505050505050565b600082601f830112614292578081fd5b81356001600160401b038111156142ab576142ab615b4d565b6142be601f8201601f1916602001615776565b8181528460208386010111156142d2578283fd5b816020850160208301379081016020019190915292915050565b6000602082840312156142fd578081fd5b8135612b3b81615b63565b600060208284031215614319578081fd5b8151612b3b81615b63565b60008060408385031215614336578081fd5b823561434181615b63565b946020939093013593505050565b60008060408385031215614361578182fd5b825161436c81615b63565b6020939093015192949293505050565b600080600060608486031215614390578081fd5b833561439b81615b63565b92506020840135915060408401356143b281615b63565b809150509250925092565b600080600080608085870312156143d2578081fd5b84356143dd81615b63565b93506020850135925060408501356001600160401b038111156143fe578182fd5b61440a87828801614282565b949793965093946060013593505050565b60008060006060848603121561442f578283fd5b833561443a81615b63565b95602085013595506040909401359392505050565b600080600080600060c08688031215614466578283fd5b853561447181615b63565b9450602086810135945060408701359350607f87018813614490578182fd5b61449a6040615776565b806060890160a08a018b8111156144af578586fd5b855b60028110156144dd57823561ffff811681146144cb578788fd5b855293850193918501916001016144b1565b508296506144ea8161420b565b955050505050509295509295909350565b6000806040838503121561450d578182fd5b82516001600160401b0380821115614523578384fd5b818501915085601f830112614536578384fd5b81516020614546614236836157a6565b82815281810190858301838502870184018b1015614562578889fd5b8896505b8487101561458d57805161457981615b63565b835260019690960195918301918301614566565b50918801519196509093505050808211156145a6578283fd5b506145b385828601614216565b9150509250929050565b600080602083850312156145cf578182fd5b82356001600160401b03808211156145e5578384fd5b818501915085601f8301126145f8578384fd5b813581811115614606578485fd5b86602060408302850101111561461a578485fd5b60209290920196919550909350505050565b6000806020838503121561463e578182fd5b82356001600160401b0380821115614654578384fd5b818501915085601f830112614667578384fd5b813581811115614675578485fd5b866020808302850101111561461a578485fd5b600060208284031215614699578081fd5b81518015158114612b3b578182fd5b6000602082840312156146b9578081fd5b5035919050565b6000602082840312156146d1578081fd5b5051919050565b600080600080600060a086880312156146ef578283fd5b85359450602086013561470181615b63565b93506040860135925060608601359150608086013561471f81615b63565b809150509295509295909350565b600080600060608486031215614741578081fd5b8335925060208401356001600160401b0381111561475d578182fd5b61476986828701614282565b925050604084013590509250925092565b6001600160a01b03169052565b8060005b6010811015610902578151151584526020938401939091019060010161478b565b8060005b6006811015610902578151600190810b855260209485019490920191016147b0565b806000805b6006811015610604578251820b8552602094850194909201916001016147d7565b6000815180845260208085018081965082840281019150828601855b858110156149d55782840389528151606081518652868201518787015260408083015192508181880152825161052080848a01526148566105808a0183614a7a565b915089850151605f196080818c860301818d01526148748584614a7a565b945085880151955060a09250818c860301838d01526148938587614a7a565b9688015196955060c094506148aa8c8601886147d2565b87015195506101806148be8c820188614787565b828801519650818c8703016103808d01526148d98688614a30565b96508488015195506148ef6103a08d0187614c10565b60e08801516104208d01526101008801516104408d01526101208801516104608d015261014088015195506149286104808d0187614ce4565b610160880151955061493e6104a08d0187614cee565b87015194506149549150506104c08a0184614a6d565b6101a0850151925061496a6104e08a0184614cdc565b6101c085015192506149806105008a0184614a6d565b6101e08501519250614994818a0184614cee565b5050506102008201516149ab610540880182614a73565b5061022082015191506149c2610560870183614ce4565b9986019994505090840190600101614814565b5091979650505050505050565b8060005b601081101561090257815161ffff168452602093840193909101906001016149e6565b8060005b600281101561090257815161ffff16845260209384019390910190600101614a0d565b6000815180845260208085019450808401835b83811015614a6257815160ff1687529582019590820190600101614a43565b509495945050505050565b15159052565b60010b9052565b60008151808452614a92816020860160208601615abb565b601f01601f19169290920160200192915050565b6000610600825184526020830151816020860152614ac682860182614a7a565b9150506040830151614adb604086018261477a565b50606083015160608501526080830151608085015260a0830151614b0260a08601826147ac565b5060c0830151610160614b17818701836147ac565b60e08501519150610220614b2d818801846149e2565b6101008601519250614b4361042088018461477a565b6101208601519250614b5961044088018461477a565b610140860151610460880152908501516104808701526101808501516104a08701526101a08501516104c08701526101c08501516104e08701526101e0850151610500870152610200850151610520870152840151610540860152506102408301516105608501526102608301516105808501526102808301516105a08501526102a0830151614bed6105c0860182614a6d565b506102c08301518482036105e0860152614c0782826147f8565b95945050505050565b60ff815116825260ff602082015116602083015260ff604082015116604083015260ff60608201511660608301525050565b805182526020810151614c58602084018261477a565b506040810151614c6b604084018261477a565b50606081015160608301526080810151608083015260a081015160a083015260c081015160c083015260e081015160e083015261010080820151614cb182850182614a6d565b505061012080820151614cc682850182614a09565b50506101408101516103ae61016084018261477a565b61ffff169052565b63ffffffff169052565b60ff169052565b60008251614d07818460208701615abb565b9190910192915050565b651b1a5cdd195960d21b815260060190565b6001600160a01b0391909116815260200190565b6001600160a01b0392831681529116602082015260400190565b6001600160a01b039384168152919092166020820152604081019190915260600190565b6001600160a01b03958616815293909416602084015260408301919091526060820152608081019190915260a00190565b6001600160a01b039390931683526020830191909152604082015260600190565b6000602080830181845280855180835260408601915060408482028701019250838701855b82811015614e3a57603f1988860301845281516101a0614e0d878351614c42565b87820151915080610180880152614e2681880183614aa6565b965050509285019290850190600101614dec565b5092979650505050505050565b6020808252825182820181905260009190848201906040850190845b81811015614e8a57614e76838551614c42565b928401926101809290920191600101614e63565b50909695505050505050565b60608101614ea48285614a09565b6001600160a01b039290921660409190910152919050565b60e09190911b815260200190565b600060208252612b3b6020830184614a7a565b60208082526022908201527f4c69624469616d6f6e643a204d75737420626520636f6e7472616374206f776e60408201526132b960f11b606082015260800190565b60208082526042908201527f4c696241707053746f726167653a206f6e6c7920616e204f776e6572206f722060408201527f4974656d4d616e616765722063616e2063616c6c20746869732066756e63746960608201526137b760f11b608082015260a00190565b60208082526024908201527f4552433732314d61726b6574706c6163653a206c697374696e67206e6f7420666040820152631bdd5b9960e21b606082015260800190565b6020808252603b908201527f4552433732314d61726b6574706c6163653a20416666696c696174652073706c60408201527f6974206d757374206265203020666f7220616464726573732830290000000000606082015260800190565b60208082526033908201527f4552433732314d61726b6574706c6163653a2041646465642063617465676f72604082015272792073686f756c642062652061626f7665203360681b606082015260800190565b60208082526028908201527f4552433732314d61726b6574706c6163653a2042757965722063616e27742062604082015267329039b2b63632b960c11b606082015260800190565b60208082526029908201527f4c696245524332303a20455243323020746f6b656e206164647265737320686160408201526873206e6f20636f646560b81b606082015260800190565b60208082526031908201527f4c696245524332303a207472616e73666572206f72207472616e7366657246726040820152706f6d2072657475726e65642066616c736560781b606082015260800190565b6020808252601d908201527f4d61726b6574706c6163653a206f776e6572206e6f742073656c6c6572000000604082015260600190565b60208082526034908201527f4552433732314d61726b6574706c6163653a2053756d206f66207072696e6369604082015273070616c2073706c697473206e6f742031303030360641b606082015260800190565b6020808252602b908201527f4c696245524332303a207472616e73666572206f72207472616e73666572467260408201526a1bdb481c995d995c9d195960aa1b606082015260800190565b60208082526027908201527f4552433732314d61726b6574706c6163653a206c697374696e6720616c726561604082015266191e481cdbdb1960ca1b606082015260800190565b6020808252602c908201527f4552433732314d61726b6574706c6163653a204e6f74206f776e6572206f662060408201526b22a9219b9918903a37b5b2b760a11b606082015260800190565b6020808252818101527f41617665676f7463686946616365743a204d75737420626520636c61696d6564604082015260600190565b60208082526030908201527f4552433732314d61726b6574706c6163653a2043617465676f7279206861732060408201526f185b1c9958591e481899595b881cd95d60821b606082015260800190565b60208082526033908201527f4552433732314d61726b6574706c6163653a2070726963652073686f756c6420604082015272313290189023a429aa1037b9103630b933b2b960691b606082015260800190565b60208082526031908201527f4552433732314d61726b6574706c6163653a204552433732312063617465676f6040820152701c9e48191bd95cc81b9bdd08195e1a5cdd607a1b606082015260800190565b60208082526028908201527f4552433732314d61726b6574706c6163653a206c697374696e6720646f65736e60408201526709dd08195e1a5cdd60c21b606082015260800190565b6020808252602c908201527f4552433732314d61726b6574706c6163653a204e6f7420617070726f7665642060408201526b3337b9103a3930b739b332b960a11b606082015260800190565b60208082526022908201527f4552433732314d61726b6574706c6163653a20496e636f727265637420707269604082015261636560f01b606082015260800190565b6020808252602a908201527f4552433732314d61726b6574706c6163653a20496e636f727265637420746f6b604082015269656e206164647265737360b01b606082015260800190565b60208082526024908201527f4552433732314d61726b6574706c6163653a20496e636f727265637420746f6b604082015263195b925160e21b606082015260800190565b6020808252603b908201527f4552433732314d61726b6574706c6163653a2043616e6e6f74206c697374206160408201527f20706f7274616c20746861742069732070656e64696e67205652460000000000606082015260800190565b60208082526022908201527f4552433732314d61726b6574706c6163653a204e6f7420656e6f75676820474860408201526114d560f21b606082015260800190565b60208082526024908201527f4552433732314d61726b6574706c6163653a206c697374696e672063616e63656040820152631b1b195960e21b606082015260800190565b6020808252602b908201527f4552433732314d61726b6574706c6163653a206c697374696e67496420646f6560408201526a1cc81b9bdd08195e1a5cdd60aa1b606082015260800190565b60208082526030908201527f4552433732314d61726b6574706c6163653a20455243373231206c697374696e60408201526f19c8191bd95cc81b9bdd08195e1a5cdd60821b606082015260800190565b60208082526038908201527f4552433732314d61726b6574706c6163653a204f6e6c792063616c6c61626c6560408201527f206f6e20756e6c6f636b65642041617665676f74636869730000000000000000606082015260800190565b6101808101610e2b8284614c42565b60006101a061574c8386614c42565b80610180840152614c0781840185614aa6565b90815260200190565b918252602082015260400190565b604051601f8201601f191681016001600160401b038111828210171561579e5761579e615b4d565b604052919050565b60006001600160401b038211156157bf576157bf615b4d565b5060209081020190565b60008160010b8360010b82821282617fff038213811516156157ed576157ed615b37565b82617fff1903821281161561580457615804615b37565b50019392505050565b600080821280156001600160ff1b038490038513161561582f5761582f615b37565b600160ff1b839003841281161561584857615848615b37565b50500190565b600061ffff80831681851680830382111561586b5761586b615b37565b01949350505050565b6000821982111561588757615887615b37565b500190565b6000826158a757634e487b7160e01b81526012600452602481fd5b500490565b80825b60018086116158be57506158e9565b8187048211156158d0576158d0615b37565b808616156158dd57918102915b9490941c9380026158af565b94509492505050565b6000612b3b60001960ff85168460008261590e57506001612b3b565b8161591b57506000612b3b565b8160018114615931576002811461593b57615968565b6001915050612b3b565b60ff84111561594c5761594c615b37565b6001841b91508482111561596257615962615b37565b50612b3b565b5060208310610133831016604e8410600b841016171561599b575081810a8381111561599657615996615b37565b612b3b565b6159a884848460016158ac565b8086048211156159ba576159ba615b37565b02949350505050565b60006001600160ff1b03818413828413808216868404861116156159e9576159e9615b37565b600160ff1b84871282811687830589121615615a0757615a07615b37565b858712925087820587128484161615615a2257615a22615b37565b87850587128184161615615a3857615a38615b37565b505050929093029392505050565b6000816000190483118215151615615a6057615a60615b37565b500290565b60008083128015600160ff1b850184121615615a8357615a83615b37565b6001600160ff1b0384018313811615615a9e57615a9e615b37565b50500390565b600082821015615ab657615ab6615b37565b500390565b60005b83811015615ad6578181015183820152602001615abe565b838111156109025750506000910152565b600281046001821680615afb57607f821691505b6020821081141561198457634e487b7160e01b600052602260045260246000fd5b6000600019821415615b3057615b30615b37565b5060010190565b634e487b7160e01b600052601160045260246000fd5b634e487b7160e01b600052604160045260246000fd5b6001600160a01b03811681146111a457600080fdfea2646970667358221220c1d81b07ac27621b8f91660cacbaec25fe26c231fc190294dd177c5f6290486a64736f6c63430008010033",
  "linkReferences": {},
  "deployedLinkReferences": {}
}