{
  "_format": "hh-sol-artifact-1",
  "contractName": "EscrowFacet",
  "sourceName": "contracts/Aavegotchi/facets/EscrowFacet.sol",
  "abi": [
    {
      "anonymous": false,
      "inputs": [
        {
          "indexed": true,
          "internalType": "uint256",
          "name": "_tokenId",
          "type": "uint256"
        },
        {
          "indexed": true,
          "internalType": "address",
          "name": "_erc20Contract",
          "type": "address"
        },
        {
          "indexed": true,
          "internalType": "address",
          "name": "_from",
          "type": "address"
        },
        {
          "indexed": false,
          "internalType": "address",
          "name": "_to",
          "type": "address"
        },
        {
          "indexed": false,
          "internalType": "uint256",
          "name": "_depositAmount",
          "type": "uint256"
        }
      ],
      "name": "Erc20Deposited",
      "type": "event"
    },
    {
      "anonymous": false,
      "inputs": [
        {
          "indexed": true,
          "internalType": "uint256",
          "name": "_tokenId",
          "type": "uint256"
        },
        {
          "indexed": true,
          "internalType": "address",
          "name": "_erc20Contract",
          "type": "address"
        },
        {
          "indexed": false,
          "internalType": "address",
          "name": "_from",
          "type": "address"
        },
        {
          "indexed": true,
          "internalType": "address",
          "name": "_to",
          "type": "address"
        },
        {
          "indexed": false,
          "internalType": "uint256",
          "name": "_transferAmount",
          "type": "uint256"
        }
      ],
      "name": "TransferEscrow",
      "type": "event"
    },
    {
      "inputs": [
        {
          "internalType": "uint256[]",
          "name": "_tokenIds",
          "type": "uint256[]"
        },
        {
          "internalType": "address[]",
          "name": "_erc20Contracts",
          "type": "address[]"
        },
        {
          "internalType": "uint256[]",
          "name": "_values",
          "type": "uint256[]"
        }
      ],
      "name": "batchDepositERC20",
      "outputs": [],
      "stateMutability": "nonpayable",
      "type": "function"
    },
    {
      "inputs": [
        {
          "internalType": "uint256[]",
          "name": "_tokenIds",
          "type": "uint256[]"
        },
        {
          "internalType": "uint256[]",
          "name": "_values",
          "type": "uint256[]"
        }
      ],
      "name": "batchDepositGHST",
      "outputs": [],
      "stateMutability": "nonpayable",
      "type": "function"
    },
    {
      "inputs": [
        {
          "internalType": "uint256",
          "name": "_tokenId",
          "type": "uint256"
        },
        {
          "internalType": "address",
          "name": "_erc20Contract",
          "type": "address"
        },
        {
          "internalType": "uint256",
          "name": "_value",
          "type": "uint256"
        }
      ],
      "name": "depositERC20",
      "outputs": [],
      "stateMutability": "nonpayable",
      "type": "function"
    },
    {
      "inputs": [
        {
          "internalType": "uint256",
          "name": "_tokenId",
          "type": "uint256"
        },
        {
          "internalType": "address",
          "name": "_erc20Contract",
          "type": "address"
        }
      ],
      "name": "escrowBalance",
      "outputs": [
        {
          "internalType": "uint256",
          "name": "",
          "type": "uint256"
        }
      ],
      "stateMutability": "view",
      "type": "function"
    },
    {
      "inputs": [
        {
          "internalType": "uint256",
          "name": "_tokenId",
          "type": "uint256"
        }
      ],
      "name": "gotchiEscrow",
      "outputs": [
        {
          "internalType": "address",
          "name": "",
          "type": "address"
        }
      ],
      "stateMutability": "view",
      "type": "function"
    },
    {
      "inputs": [
        {
          "internalType": "uint256",
          "name": "_tokenId",
          "type": "uint256"
        },
        {
          "internalType": "address",
          "name": "_erc20Contract",
          "type": "address"
        },
        {
          "internalType": "address",
          "name": "_recipient",
          "type": "address"
        },
        {
          "internalType": "uint256",
          "name": "_transferAmount",
          "type": "uint256"
        }
      ],
      "name": "transferEscrow",
      "outputs": [],
      "stateMutability": "nonpayable",
      "type": "function"
    }
  ],
  "bytecode": "0x608060405234801561001057600080fd5b506110ff806100206000396000f3fe608060405234801561001057600080fd5b50600436106100625760003560e01c8063467ab5cf14610067578063a8e39da01461007c578063ab0fcabf146100a5578063b0facab3146100b8578063db87db52146100cb578063ea20c3c6146100eb575b600080fd5b61007a6100753660046109e6565b6100fe565b005b61008f61008a366004610b05565b610209565b60405161009c9190610bf3565b60405180910390f35b61007a6100b3366004610b60565b61022a565b61007a6100c6366004610ba3565b610510565b6100de6100d9366004610b35565b6105f4565b60405161009c9190611069565b61007a6100f9366004610a7c565b6106b4565b8481146101265760405162461bcd60e51b815260040161011d90611017565b60405180910390fd5b8483146101455760405162461bcd60e51b815260040161011d90610ee9565b60005b8581101561020057600087878381811061017257634e487b7160e01b600052603260045260246000fd5b905060200201359050600086868481811061019d57634e487b7160e01b600052603260045260246000fd5b90506020020160208101906101b291906109c5565b905060008585858181106101d657634e487b7160e01b600052603260045260246000fd5b9050602002013590506101ea838383610510565b50505080806101f8906110a2565b915050610148565b50505050505050565b6000818152600d60205260409020600b01546001600160a01b03165b919050565b6000848152600d60205260409020600a015484906001600160a01b031661024f6107b6565b6001600160a01b0316146102755760405162461bcd60e51b815260040161011d90610fba565b6000858152600d60205260409020600a01548590600160d01b900460ff16156102b05760405162461bcd60e51b815260040161011d90610e95565b6000868152600d60205260409020600b8101546009909101546001600160a01b039182169116816102f35760405162461bcd60e51b815260040161011d90610c91565b866001600160a01b0316816001600160a01b031614156103255760405162461bcd60e51b815260040161011d90610f46565b6040516370a0823160e01b81526000906001600160a01b038916906370a0823190610354908690600401610bf3565b60206040518083038186803b15801561036c57600080fd5b505afa158015610380573d6000803e3d6000fd5b505050506040513d601f19601f820116820180604052508101906103a49190610b1d565b9050858110156103c65760405162461bcd60e51b815260040161011d90610dba565b866001600160a01b0316886001600160a01b03168a7f3add497713cabddc9b3f3d9963688a629915a706016b0b38c08a7e675b8da7ae868a60405161040c929190610c45565b60405180910390a4604051636eb1769f60e11b815286906001600160a01b038a169063dd62ed3e906104449087903090600401610c07565b60206040518083038186803b15801561045c57600080fd5b505afa158015610470573d6000803e3d6000fd5b505050506040513d601f19601f820116820180604052508101906104949190610b1d565b10156104f957604051632ce7500560e01b81526001600160a01b03841690632ce75005906104c6908b90600401610bf3565b600060405180830381600087803b1580156104e057600080fd5b505af11580156104f4573d6000803e3d6000fd5b505050505b61050588848989610813565b505050505050505050565b6000838152600d60205260409020600b8101546009909101546001600160a01b039182169116816105535760405162461bcd60e51b815260040161011d90610c91565b836001600160a01b0316816001600160a01b031614156105855760405162461bcd60e51b815260040161011d90610e23565b61058d6107b6565b6001600160a01b0316846001600160a01b0316867f6cd2b0bc62ff8328a951d28fac4af370c453c726630896bceb87466dcf6ed58385876040516105d2929190610c45565b60405180910390a46105ed846105e66107b6565b8486610813565b5050505050565b6000828152600d60205260408120600b01546001600160a01b03168061062c5760405162461bcd60e51b815260040161011d90610c91565b6040516370a0823160e01b81526000906001600160a01b038516906370a082319061065b908590600401610bf3565b60206040518083038186803b15801561067357600080fd5b505afa158015610687573d6000803e3d6000fd5b505050506040513d601f19601f820116820180604052508101906106ab9190610b1d565b95945050505050565b8281146106d35760405162461bcd60e51b815260040161011d90611017565b73385eeac5cb85a38a9a07a70c73e0a3271cfb54a760005b848110156107ae57600086868381811061071557634e487b7160e01b600052603260045260246000fd5b905060200201359050600085858481811061074057634e487b7160e01b600052603260045260246000fd5b6000858152600d60209081526040909120600b0154910292909201359250506001600160a01b0316806107855760405162461bcd60e51b815260040161011d90610c91565b610798856107916107b6565b8385610813565b50505080806107a6906110a2565b9150506106eb565b505050505050565b60003330141561080d57600080368080601f0160208091040260200160405190810160405280939291908181526020018383808284376000920191909152505050503601516001600160a01b031691506108109050565b50335b90565b833b806108325760405162461bcd60e51b815260040161011d90610cd5565b600080866001600160a01b03166323b872dd60e01b87878760405160240161085c93929190610c21565b60408051601f198184030181529181526020820180516001600160e01b03166001600160e01b031990941693909317909252905161089a9190610bd7565b6000604051808303816000865af19150503d80600081146108d7576040519150601f19603f3d011682016040523d82523d6000602084013e6108dc565b606091505b5091509150610200828281156109285780511561092357808060200190518101906109079190610ae5565b6109235760405162461bcd60e51b815260040161011d90610d1e565b610961565b805115610949578060405162461bcd60e51b815260040161011d9190610c5e565b60405162461bcd60e51b815260040161011d90610d6f565b5050565b80356001600160a01b038116811461022557600080fd5b60008083601f84011261098d578182fd5b50813567ffffffffffffffff8111156109a4578182fd5b60208301915083602080830285010111156109be57600080fd5b9250929050565b6000602082840312156109d6578081fd5b6109df82610965565b9392505050565b600080600080600080606087890312156109fe578182fd5b863567ffffffffffffffff80821115610a15578384fd5b610a218a838b0161097c565b90985096506020890135915080821115610a39578384fd5b610a458a838b0161097c565b90965094506040890135915080821115610a5d578384fd5b50610a6a89828a0161097c565b979a9699509497509295939492505050565b60008060008060408587031215610a91578384fd5b843567ffffffffffffffff80821115610aa8578586fd5b610ab48883890161097c565b90965094506020870135915080821115610acc578384fd5b50610ad98782880161097c565b95989497509550505050565b600060208284031215610af6578081fd5b815180151581146109df578182fd5b600060208284031215610b16578081fd5b5035919050565b600060208284031215610b2e578081fd5b5051919050565b60008060408385031215610b47578182fd5b82359150610b5760208401610965565b90509250929050565b60008060008060808587031215610b75578384fd5b84359350610b8560208601610965565b9250610b9360408601610965565b9396929550929360600135925050565b600080600060608486031215610bb7578283fd5b83359250610bc760208501610965565b9150604084013590509250925092565b60008251610be9818460208701611072565b9190910192915050565b6001600160a01b0391909116815260200190565b6001600160a01b0392831681529116602082015260400190565b6001600160a01b039384168152919092166020820152604081019190915260600190565b6001600160a01b03929092168252602082015260400190565b6000602082528251806020840152610c7d816040850160208701611072565b601f01601f19169190910160400192915050565b60208082526024908201527f457363726f7746616365743a20446f6573206e6f74206861766520616e20657360408201526363726f7760e01b606082015260800190565b60208082526029908201527f4c696245524332303a20455243323020746f6b656e206164647265737320686160408201526873206e6f20636f646560b81b606082015260800190565b60208082526031908201527f4c696245524332303a207472616e73666572206f72207472616e7366657246726040820152706f6d2072657475726e65642066616c736560781b606082015260800190565b6020808252602b908201527f4c696245524332303a207472616e73666572206f72207472616e73666572467260408201526a1bdb481c995d995c9d195960aa1b606082015260800190565b60208082526043908201527f457363726f7746616365743a2043616e6e6f74207472616e73666572206d6f7260408201527f65207468616e2063757272656e7420455243323020657363726f772062616c616060820152626e636560e81b608082015260a00190565b6020808252604c908201527f457363726f7746616365743a204465706f736974696e6720455243323020746f60408201527f6b656e2043414e4e4f542062652073616d6520617320636f6c6c61746572616c60608201526b1022a9219918103a37b5b2b760a11b608082015260a00190565b60208082526034908201527f4c696241707053746f726167653a204f6e6c792063616c6c61626c65206f6e20604082015273756e6c6f636b65642041617665676f746368697360601b606082015260800190565b6020808252603a908201527f457363726f7746616365743a20546f6b656e49447320616e642045524332304360408201527f6f6e747261637473206c656e677468206d757374206d61746368000000000000606082015260800190565b6020808252604e908201527f457363726f7746616365743a205472616e7366657272696e672045524332302060408201527f746f6b656e2043414e4e4f542062652073616d6520617320636f6c6c6174657260608201526d30b61022a9219918103a37b5b2b760911b608082015260a00190565b6020808252603b908201527f4c696241707053746f726167653a204f6e6c792061617665676f74636869206f60408201527f776e65722063616e2063616c6c20746869732066756e6374696f6e0000000000606082015260800190565b60208082526032908201527f457363726f7746616365743a20546f6b656e49447320616e642056616c756573604082015271040d8cadccee8d040daeae6e840dac2e8c6d60731b606082015260800190565b90815260200190565b60005b8381101561108d578181015183820152602001611075565b8381111561109c576000848401525b50505050565b60006000198214156110c257634e487b7160e01b81526011600452602481fd5b506001019056fea2646970667358221220dd43e58e6e7f0a46645fc1a641bad005bc2b9b0819384c860914822a4b9fe99964736f6c63430008010033",
  "linkReferences": {},
  "deployedLinkReferences": {}
}