{
  "_format": "hh-sol-artifact-1",
  "contractName": "GotchiLendingFacet",
  "sourceName": "contracts/Aavegotchi/facets/GotchiLendingFacet.sol",
  "abi": [
    {
      "inputs": [
        {
          "internalType": "uint32",
          "name": "_erc721TokenId",
          "type": "uint32"
        },
        {
          "internalType": "uint96",
          "name": "_initialCost",
          "type": "uint96"
        },
        {
          "internalType": "uint32",
          "name": "_period",
          "type": "uint32"
        },
        {
          "internalType": "uint8[3]",
          "name": "_revenueSplit",
          "type": "uint8[3]"
        },
        {
          "internalType": "address",
          "name": "_originalOwner",
          "type": "address"
        },
        {
          "internalType": "address",
          "name": "_thirdParty",
          "type": "address"
        },
        {
          "internalType": "uint32",
          "name": "_whitelistId",
          "type": "uint32"
        },
        {
          "internalType": "address[]",
          "name": "_revenueTokens",
          "type": "address[]"
        }
      ],
      "name": "addGotchiLending",
      "outputs": [],
      "stateMutability": "nonpayable",
      "type": "function"
    },
    {
      "inputs": [
        {
          "components": [
            {
              "internalType": "uint32",
              "name": "tokenId",
              "type": "uint32"
            },
            {
              "internalType": "uint96",
              "name": "initialCost",
              "type": "uint96"
            },
            {
              "internalType": "uint32",
              "name": "period",
              "type": "uint32"
            },
            {
              "internalType": "uint8[3]",
              "name": "revenueSplit",
              "type": "uint8[3]"
            },
            {
              "internalType": "address",
              "name": "originalOwner",
              "type": "address"
            },
            {
              "internalType": "address",
              "name": "thirdParty",
              "type": "address"
            },
            {
              "internalType": "uint32",
              "name": "whitelistId",
              "type": "uint32"
            },
            {
              "internalType": "address[]",
              "name": "revenueTokens",
              "type": "address[]"
            }
          ],
          "internalType": "struct GotchiLendingFacet.AddGotchiListing",
          "name": "p",
          "type": "tuple"
        }
      ],
      "name": "addGotchiListing",
      "outputs": [],
      "stateMutability": "nonpayable",
      "type": "function"
    },
    {
      "inputs": [
        {
          "internalType": "uint32",
          "name": "_listingId",
          "type": "uint32"
        },
        {
          "internalType": "uint32",
          "name": "_erc721TokenId",
          "type": "uint32"
        },
        {
          "internalType": "uint96",
          "name": "_initialCost",
          "type": "uint96"
        },
        {
          "internalType": "uint32",
          "name": "_period",
          "type": "uint32"
        },
        {
          "internalType": "uint8[3]",
          "name": "_revenueSplit",
          "type": "uint8[3]"
        }
      ],
      "name": "agreeGotchiLending",
      "outputs": [],
      "stateMutability": "nonpayable",
      "type": "function"
    },
    {
      "inputs": [
        {
          "components": [
            {
              "internalType": "uint32",
              "name": "tokenId",
              "type": "uint32"
            },
            {
              "internalType": "uint96",
              "name": "initialCost",
              "type": "uint96"
            },
            {
              "internalType": "uint32",
              "name": "period",
              "type": "uint32"
            },
            {
              "internalType": "uint8[3]",
              "name": "revenueSplit",
              "type": "uint8[3]"
            },
            {
              "internalType": "address",
              "name": "originalOwner",
              "type": "address"
            },
            {
              "internalType": "address",
              "name": "thirdParty",
              "type": "address"
            },
            {
              "internalType": "uint32",
              "name": "whitelistId",
              "type": "uint32"
            },
            {
              "internalType": "address[]",
              "name": "revenueTokens",
              "type": "address[]"
            }
          ],
          "internalType": "struct GotchiLendingFacet.AddGotchiListing[]",
          "name": "listings",
          "type": "tuple[]"
        }
      ],
      "name": "batchAddGotchiListing",
      "outputs": [],
      "stateMutability": "nonpayable",
      "type": "function"
    },
    {
      "inputs": [
        {
          "internalType": "uint32[]",
          "name": "_listingIds",
          "type": "uint32[]"
        }
      ],
      "name": "batchCancelGotchiLending",
      "outputs": [],
      "stateMutability": "nonpayable",
      "type": "function"
    },
    {
      "inputs": [
        {
          "internalType": "uint32[]",
          "name": "_erc721TokenIds",
          "type": "uint32[]"
        }
      ],
      "name": "batchCancelGotchiLendingByToken",
      "outputs": [],
      "stateMutability": "nonpayable",
      "type": "function"
    },
    {
      "inputs": [
        {
          "internalType": "uint32[]",
          "name": "_tokenIds",
          "type": "uint32[]"
        }
      ],
      "name": "batchClaimAndEndAndRelistGotchiLending",
      "outputs": [],
      "stateMutability": "nonpayable",
      "type": "function"
    },
    {
      "inputs": [
        {
          "internalType": "uint32[]",
          "name": "_tokenIds",
          "type": "uint32[]"
        }
      ],
      "name": "batchClaimAndEndGotchiLending",
      "outputs": [],
      "stateMutability": "nonpayable",
      "type": "function"
    },
    {
      "inputs": [
        {
          "internalType": "uint32[]",
          "name": "_tokenIds",
          "type": "uint32[]"
        }
      ],
      "name": "batchClaimGotchiLending",
      "outputs": [],
      "stateMutability": "nonpayable",
      "type": "function"
    },
    {
      "inputs": [
        {
          "components": [
            {
              "internalType": "uint32",
              "name": "tokenId",
              "type": "uint32"
            },
            {
              "internalType": "uint32",
              "name": "extension",
              "type": "uint32"
            }
          ],
          "internalType": "struct GotchiLendingFacet.BatchRenew[]",
          "name": "_batchRenewParams",
          "type": "tuple[]"
        }
      ],
      "name": "batchExtendGotchiLending",
      "outputs": [],
      "stateMutability": "nonpayable",
      "type": "function"
    },
    {
      "inputs": [
        {
          "internalType": "uint32",
          "name": "_listingId",
          "type": "uint32"
        }
      ],
      "name": "cancelGotchiLending",
      "outputs": [],
      "stateMutability": "nonpayable",
      "type": "function"
    },
    {
      "inputs": [
        {
          "internalType": "uint32",
          "name": "_erc721TokenId",
          "type": "uint32"
        }
      ],
      "name": "cancelGotchiLendingByToken",
      "outputs": [],
      "stateMutability": "nonpayable",
      "type": "function"
    },
    {
      "inputs": [
        {
          "internalType": "uint32",
          "name": "_tokenId",
          "type": "uint32"
        }
      ],
      "name": "claimAndEndAndRelistGotchiLending",
      "outputs": [],
      "stateMutability": "nonpayable",
      "type": "function"
    },
    {
      "inputs": [
        {
          "internalType": "uint32",
          "name": "_tokenId",
          "type": "uint32"
        }
      ],
      "name": "claimAndEndGotchiLending",
      "outputs": [],
      "stateMutability": "nonpayable",
      "type": "function"
    },
    {
      "inputs": [
        {
          "internalType": "uint32",
          "name": "_tokenId",
          "type": "uint32"
        }
      ],
      "name": "claimGotchiLending",
      "outputs": [],
      "stateMutability": "nonpayable",
      "type": "function"
    },
    {
      "inputs": [
        {
          "internalType": "uint32",
          "name": "_tokenId",
          "type": "uint32"
        },
        {
          "internalType": "uint32",
          "name": "extension",
          "type": "uint32"
        }
      ],
      "name": "extendGotchiLending",
      "outputs": [],
      "stateMutability": "nonpayable",
      "type": "function"
    }
  ],
  "bytecode": "0x608060405234801561001057600080fd5b50614ac8806100206000396000f3fe608060405234801561001057600080fd5b50600436106101005760003560e01c8063b59ffa0611610097578063d6795a2711610066578063d6795a27146101eb578063f0b09e3b146101fe578063f7b4edda14610211578063ffa7802d1461022457610100565b8063b59ffa061461019f578063b815a1ed146101b2578063ca11e5e8146101c5578063d2bfc577146101d857610100565b806385c3c3cf116100d357806385c3c3cf146101535780639379f2601461016657806396e1839114610179578063ae0c8bd81461018c57610100565b806317d979c0146101055780634277a16e1461011a5780637497a61c1461012d57806380825c6e14610140575b600080fd5b61011861011336600461387f565b610237565b005b6101186101283660046138d2565b610372565b61011861013b3660046137af565b6105ea565b61011861014e3660046138ec565b610673565b61011861016136600461391e565b6107f6565b61011861017436600461381f565b610818565b61011861018736600461381f565b610863565b61011861019a3660046138d2565b6108ae565b6101186101ad36600461381f565b610a44565b6101186101c036600461381f565b610a8f565b6101186101d336600461381f565b610ada565b6101186101e6366004613726565b610b25565b6101186101f9366004613983565b610b69565b61011861020c3660046138d2565b610c59565b61011861021f3660046138d2565b610d31565b6101186102323660046138d2565b610d55565b6000610241610e21565b825163ffffffff9081166000908152600d60209081526040808320600a01546001600160a01b03908116808552604d8452828520918716808652918452828520895190961685529490925290912054929350909160ff16908214806102a35750805b6102c85760405162461bcd60e51b81526004016102bf90614110565b60405180910390fd5b6000604051806101200160405280846001600160a01b03168152602001866000015163ffffffff16815260200186602001516001600160601b03168152602001866040015163ffffffff1681526020018660600151815260200186608001516001600160a01b031681526020018660a001516001600160a01b031681526020018660c0015163ffffffff1681526020018660e00151815250905061036b81610e7e565b5050505050565b6000604281610380846113e4565b63ffffffff90811682526020808301939093526040918201600090812083516102008101855281546001600160a01b038082168352600160a01b918290046001600160601b0316978301979097526001830154808816838801528181048616606080850191909152600160c01b820487166080850152600160e01b90910490951660a0830152600283015480881660c084015290810464ffffffffff90811660e0840152600160c81b820416610100830152600160f01b810460ff9081161515610120840152600160f81b90910416151561014082015260038083015490961661016082015284519384019485905294909361018086019392600486019291908390855b825461010083900a900460ff1681526020600192830181810494850194909303909202910180841161048457505050928452505050600582015464ffffffffff8116602080840191909152600160281b90910463ffffffff16604080840191909152600684018054825181850281018501909352808352606090940193919290919083018282801561053f57602002820191906000526020600020905b81546001600160a01b03168152600190910190602001808311610521575b5050505050815250509050610553826108ae565b6105e6604051806101000160405280836080015163ffffffff16815260200183602001516001600160601b03168152602001836101c0015163ffffffff16815260200183610180015181526020018360c001516001600160a01b031681526020018361016001516001600160a01b031681526020018360a0015163ffffffff168152602001836101e00151815250610237565b5050565b60005b8181101561066e5761066683838381811061061857634e487b7160e01b600052603260045260246000fd5b61062e92602060409092020190810191506138d2565b84848481811061064e57634e487b7160e01b600052603260045260246000fd5b905060400201602001602081019061014e91906138d2565b6001016105ed565b505050565b6000604281610681856113e4565b63ffffffff1681526020810191909152604001600090812080549092506001600160a01b0316906106b0610e21565b9050806001600160a01b0316826001600160a01b0316148061070557506001600160a01b038083166000908152604d60209081526040808320938516835292815282822063ffffffff891683529052205460ff165b6107215760405162461bcd60e51b81526004016102bf90613c53565b6002830154600160c81b900464ffffffffff161580159061074e57506002830154600160f81b900460ff16155b61076a5760405162461bcd60e51b81526004016102bf906144ed565b600583015462278d009061078c908690600160281b900463ffffffff16614953565b63ffffffff16106107af5760405162461bcd60e51b81526004016102bf90613fa4565b600583810180548692906107d1908490600160281b900463ffffffff16614953565b92506101000a81548163ffffffff021916908363ffffffff1602179055505050505050565b6000610800610e21565b9050610810818787878787611430565b505050505050565b60005b8181101561066e5761085b83838381811061084657634e487b7160e01b600052603260045260246000fd5b905060200201602081019061023291906138d2565b60010161081b565b60005b8181101561066e576108a683838381811061089157634e487b7160e01b600052603260045260246000fd5b905060200201602081019061012891906138d2565b600101610866565b60006108b9826113e4565b63ffffffff811660009081526042602052604081208054600182015493945090926001600160a01b03918216929116906108f1610e21565b9050600062278d008560050160059054906101000a900463ffffffff1663ffffffff16106109225762278d00610935565b6005850154600160281b900463ffffffff165b9050816001600160a01b0316846001600160a01b031614806109685750816001600160a01b0316836001600160a01b0316145b806109a657506001600160a01b038085166000908152604d60209081526040808320938616835292815282822063ffffffff8b1683529052205460ff165b6109c25760405162461bcd60e51b81526004016102bf90614658565b816001600160a01b0316836001600160a01b03161480610a0d575060028501544290610a039063ffffffff841690600160c81b900464ffffffffff1661497b565b64ffffffffff1611155b610a295760405162461bcd60e51b81526004016102bf90614452565b610a328661181e565b610a3b85611de1565b50505050505050565b60005b8181101561066e57610a87838383818110610a7257634e487b7160e01b600052603260045260246000fd5b905060200201602081019061021f91906138d2565b600101610a47565b60005b8181101561066e57610ad2838383818110610abd57634e487b7160e01b600052603260045260246000fd5b905060200201602081019061019a91906138d2565b600101610a92565b60005b8181101561066e57610b1d838383818110610b0857634e487b7160e01b600052603260045260246000fd5b905060200201602081019061020c91906138d2565b600101610add565b60005b81518110156105e657610b61828281518110610b5457634e487b7160e01b600052603260045260246000fd5b6020026020010151610237565b600101610b28565b604080516060818101909252600091889060039083908390808284376000920182905250604080516020808902828101820190935288825295965091949193508792508691829190850190849080828437600081840152601f19601f82011690508083019250505050505050905060006040518061010001604052808d63ffffffff1681526020018c6001600160601b031681526020018b63ffffffff168152602001848152602001896001600160a01b03168152602001886001600160a01b031681526020018763ffffffff168152602001838152509050610c4b81610237565b505050505050505050505050565b63ffffffff811660009081526042602052604090206002810154600160a01b900464ffffffffff16610c9d5760405162461bcd60e51b81526004016102bf90614048565b6000610ca7610e21565b82549091506001600160a01b03908116908216811480610d0557506001600160a01b038181166000908152604d6020908152604080832093861683529281528282206001870154600160c01b900463ffffffff1683529052205460ff165b610d215760405162461bcd60e51b81526004016102bf9061439a565b610d2b8482612059565b50505050565b63ffffffff808216600090815260436020526040902054610d529116610c59565b50565b6000610d60826113e4565b63ffffffff811660009081526042602052604081208054929350916001600160a01b031690610d8d610e21565b9050806001600160a01b0316826001600160a01b03161480610dbe575060018301546001600160a01b038281169116145b80610dfc57506001600160a01b038083166000908152604d60209081526040808320938516835292815282822063ffffffff891683529052205460ff165b610e185760405162461bcd60e51b81526004016102bf90614217565b61036b8461181e565b600033301415610e7857600080368080601f0160208091040260200160405190810160405280939291908181526020018383808284376000920191909152505050503601516001600160a01b03169150610e7b9050565b50335b90565b6000610e88612223565b60208084015163ffffffff908116600090815260438401909252604090912054919250168015610ec057610ec0818460000151612059565b610eec8360200151846060015185608001518660a001518760c001518860e00151896101000151612228565b604182018054600091908290610f079063ffffffff16614a42565b91906101000a81548163ffffffff021916908363ffffffff1602179055905080836043016000866020015163ffffffff1663ffffffff16815260200190815260200160002060006101000a81548163ffffffff021916908363ffffffff16021790555060405180610200016040528085600001516001600160a01b0316815260200185604001516001600160601b0316815260200160006001600160a01b031681526020018263ffffffff168152602001856020015163ffffffff1681526020018560e0015163ffffffff1681526020018560a001516001600160a01b031681526020014264ffffffffff168152602001600064ffffffffff1681526020016000151581526020016000151581526020018560c001516001600160a01b0316815260200185608001518152602001600064ffffffffff168152602001856060015163ffffffff1681526020018561010001518152508360420160008363ffffffff1663ffffffff16815260200190815260200160002060008201518160000160006101000a8154816001600160a01b0302191690836001600160a01b0316021790555060208201518160000160146101000a8154816001600160601b0302191690836001600160601b0316021790555060408201518160010160006101000a8154816001600160a01b0302191690836001600160a01b0316021790555060608201518160010160146101000a81548163ffffffff021916908363ffffffff16021790555060808201518160010160186101000a81548163ffffffff021916908363ffffffff16021790555060a082015181600101601c6101000a81548163ffffffff021916908363ffffffff16021790555060c08201518160020160006101000a8154816001600160a01b0302191690836001600160a01b0316021790555060e08201518160020160146101000a81548164ffffffffff021916908364ffffffffff1602179055506101008201518160020160196101000a81548164ffffffffff021916908364ffffffffff16021790555061012082015181600201601e6101000a81548160ff02191690831515021790555061014082015181600201601f6101000a81548160ff0219169083151502179055506101608201518160030160006101000a8154816001600160a01b0302191690836001600160a01b03160217905550610180820151816004019060036112819291906133e5565b506101a08201516005820180546101c085015163ffffffff16600160281b0268ffffffff00000000001964ffffffffff90941664ffffffffff1990921691909117929092169190911790556101e082015180516112e8916006840191602090910190613478565b50508451611301915082651b1a5cdd195960d21b61236a565b60208085015163ffffffff9081166000908152600d86019092526040808320600a01805460ff60d01b1916600160d01b17905551908316917fd2235b2f5daa2ac7ea851058a8b86b1e44cfa6c4904167f59114707b2574a87d91a2836020015163ffffffff1684600001516001600160a01b03168263ffffffff167f401b43233a27280cd47f2ab96720d97d5d7828aa46cc26d65b7593015c02acb38760400151886060015189608001518a60a001518b60c001518c60e001518d6101000151426040516113d69897969594939291906147ef565b60405180910390a450505050565b6000806113ef612223565b63ffffffff808516600090815260438301602052604090205416925090508161142a5760405162461bcd60e51b81526004016102bf90613d87565b50919050565b600061143a612223565b63ffffffff8716600090815260428201602052604090209091506114628888888888886124ea565b80546001600160a01b03811690600160a01b90046001600160601b0316156114a757601a8301546114a7906001600160a01b03168a836001600160601b038a1661276b565b6001820180546001600160a01b0319166001600160a01b038b1617905560028201805464ffffffffff60c81b1916600160c81b4264ffffffffff16021790556114fa8189651b1a5cdd195960d21b612843565b61150e8189651859dc99595960d21b61236a565b6001600160a01b03811660009081526044840160208181526040808420805460458901845282862063ffffffff8e8116808952918652938720805463ffffffff1916928516929092179091559383528054600181018255908552919093206008820401805460079092166004026101000a938402199091169282029290921790915561159d9082908b90612ad3565b6001600160a01b03808a166000818152603f8601602090815260408083209486168352938152838220805460ff1916600190811790915586015463ffffffff600160e01b9091041680835260518801825284832093835292905291822091901561162157600184015461161c90600160e01b900463ffffffff16612ddd565b6116ae565b604e8501546040516370a0823160e01b81526001600160a01b03909116906370a0823190611653908e90600401613b5e565b60206040518083038186803b15801561166b57600080fd5b505afa15801561167f573d6000803e3d6000fd5b505050506040513d601f19601f820116820180604052508101906116a391906138ba565b6116ae90600161493b565b90508015806116c457506116c182612e15565b81115b6116e05760405162461bcd60e51b81526004016102bf90613cb0565b6116f38263ffffffff808c1690612e2616565b5060405163ffffffff8b16907f28d7b849b5b1af16b5f1e07a41673a69940182a65953874032dc5e5698170f9690600090a28a6001600160a01b03168460000160009054906101000a90046001600160a01b03166001600160a01b03168b63ffffffff167f67725b3b5836354867e57ef59784870b52a0b07f53c7f0b41fefc726225f5bfb8c8860000160149054906101000a90046001600160601b03168960050160059054906101000a900463ffffffff168a6004018b60020160009054906101000a90046001600160a01b03168c60030160009054906101000a90046001600160a01b03168d600101601c9054906101000a900463ffffffff168e6006014260405161180999989796959493929190614771565b60405180910390a45050505050505050505050565b6000611828612223565b63ffffffff83166000908152604282016020526040812060068101549293509167ffffffffffffffff81111561186e57634e487b7160e01b600052604160045260246000fd5b604051908082528060200260200182016040528015611897578160200160208202803683370190505b506001830154600160c01b900463ffffffff166000908152600d850160205260409020600b01549091506001600160a01b0316806118e75760405162461bcd60e51b81526004016102bf90614554565b6001830154600160c01b900463ffffffff166000908152600d850160205260408120600901546001600160a01b0316905b6006850154811015611c6157600085600601828154811061194957634e487b7160e01b600052603260045260246000fd5b60009182526020822001546040516370a0823160e01b81526001600160a01b03909116925082906370a0823190611984908890600401613b5e565b60206040518083038186803b15801561199c57600080fd5b505afa1580156119b0573d6000803e3d6000fd5b505050506040513d601f19601f820116820180604052508101906119d491906138ba565b9050816001600160a01b0316846001600160a01b031614806119f4575080155b15611a2c576000868481518110611a1b57634e487b7160e01b600052603260045260246000fd5b602002602001018181525050611c57565b80868481518110611a4d57634e487b7160e01b600052603260045260246000fd5b6020908102919091010152604051636eb1769f60e11b815281906001600160a01b0384169063dd62ed3e90611a889089903090600401613b72565b60206040518083038186803b158015611aa057600080fd5b505afa158015611ab4573d6000803e3d6000fd5b505050506040513d601f19601f82011682018060405250810190611ad891906138ba565b1015611b3d57604051632ce7500560e01b81526001600160a01b03861690632ce7500590611b0a908590600401613b5e565b600060405180830381600087803b158015611b2457600080fd5b505af1158015611b38573d6000803e3d6000fd5b505050505b6004870154600090606490611b559060ff16846149e0565b611b5f91906149c0565b6004890154909150600090606490611b7f90610100900460ff16856149e0565b611b8991906149c0565b60028a01549091506000906001600160a01b031615611bb55760028a01546001600160a01b0316611bc1565b89546001600160a01b03165b90508215611bd557611bd58589838661276b565b8115611bf75760018a0154611bf79086908a906001600160a01b03168561276b565b60038a01546001600160a01b031615611c535760048a0154600090606490611c289062010000900460ff16876149e0565b611c3291906149c0565b60038c0154909150611c519087908b906001600160a01b03168461276b565b505b5050505b5050600101611918565b5060058401805464ffffffffff19164264ffffffffff1617905560405163ffffffff8716907f1be58214962a8cbd7ef85ef7b78dea02db2550cb988db85331a45d63032e177290611cb89060068801908790613bb0565b60405180910390a28360010160009054906101000a90046001600160a01b03166001600160a01b03168460000160009054906101000a90046001600160a01b03166001600160a01b03168763ffffffff167fee31c7b8017a392ce3690715faeb5c45ec46dc3483ea25d4b62e6f680cd878b38760010160189054906101000a900463ffffffff168860000160149054906101000a90046001600160601b03168960050160059054906101000a900463ffffffff168a6004018b60020160009054906101000a90046001600160a01b03168c60030160009054906101000a90046001600160a01b03168d600101601c9054906101000a900463ffffffff168e6006018e42604051611dd19a999897969594939291906146dd565b60405180910390a4505050505050565b6000611deb612223565b600183018054845463ffffffff600160c01b90920482166000818152604386016020908152604080832054600d8901909252909120600a01805460ff60d01b191690559354949550936001600160a01b039182169390921691611e5091168385612ad3565b6002850180546001600160f81b0316600160f81b17905563ffffffff831660009081526043850160205260409020805463ffffffff19169055611e938383612e39565b6001850154611eba908390600160a01b900463ffffffff16651859dc99595960d21b612843565b600185015463ffffffff600160e01b82048116600090815260518701602090815260408083206001600160a01b0386168452909152902091611f08918391600160c01b900481169061306716565b505060405163ffffffff8216907fd5052ec7f019796e5e27e648ce0dcc5514bdb14fb483caf83830b61f09f9a5bc90600090a28460010160009054906101000a90046001600160a01b03166001600160a01b03168560000160009054906101000a90046001600160a01b03166001600160a01b03168263ffffffff167f2240d94f92369c7722021a9f6158fa5577eedeae5191c5ce9fbcc9c66fe4a7ce8860010160189054906101000a900463ffffffff168960000160149054906101000a90046001600160601b03168a60050160059054906101000a900463ffffffff168b6004018c60020160009054906101000a90046001600160a01b03168d60030160009054906101000a90046001600160a01b03168e600101601c9054906101000a900463ffffffff168f6006014260405161204a99989796959493929190614771565b60405180910390a45050505050565b6000612063612223565b63ffffffff841660009081526042820160205260409020600281015491925090600160f01b900460ff16156120995750506105e6565b6002810154600160c81b900464ffffffffff16156120c95760405162461bcd60e51b81526004016102bf906142cb565b60028101805460ff60f01b1916600160f01b1790556120f28385651b1a5cdd195960d21b612843565b60018101805463ffffffff600160c01b9182900481166000908152600d860160209081526040808320600a01805460ff60d01b19169055945493909304821681526043860190925290829020805463ffffffff191690559051908516907f58bf86d7321ca96f6873fbd24682c06a141b27bb3c7daa42393eb177d6da8d419061217c9042906146d4565b60405180910390a260018101548154600583015460028401546003850154604051600160c01b860463ffffffff908116966001600160a01b03808816978d8416977ff7ec0ddea8bac5aa59bbf1289372170c1a5fea429c89d7fa2a41bd2174142380976113d697600160a01b9093046001600160601b031696600160281b90920486169560048e01959185169490931692600160e01b909104169060068d01904290614889565b600090565b6000612232612223565b90506001600160a01b03851661225a5760405162461bcd60e51b81526004016102bf90613d2a565b61226387613073565b61227f5760405162461bcd60e51b81526004016102bf906141d2565b61228a868386613097565b6122a65760405162461bcd60e51b81526004016102bf90613dca565b6122af836131c7565b806122be575063ffffffff8316155b6122da5760405162461bcd60e51b81526004016102bf90614313565b63ffffffff88166000908152600d820160205260409020600a0154600160a01b900460ff1660031461231e5760405162461bcd60e51b81526004016102bf90614281565b63ffffffff88166000908152600d820160205260409020600a0154600160d01b900460ff16156123605760405162461bcd60e51b81526004016102bf90613f47565b5050505050505050565b6000612374612223565b6001600160a01b0385166000908152604982016020908152604080832086845290915290205490915063ffffffff1680156123de576000838152604883016020908152604080832063ffffffff85811685529252909120805463ffffffff19169186169190911790555b6000838152604883016020908152604080832063ffffffff80891680865291845282852060028101805497831663ffffffff199889161790556001600160a01b038b168652604988018552838620898752855283862080549097168317909655600186019190915560478601909252909120541690811561248e576000848152604684016020908152604080832063ffffffff86811685529252909120805463ffffffff19169187169190911790555b506000838152604683016020908152604080832063ffffffff9788168085529083528184206002810180549690991663ffffffff1996871617909855958352604790940190529190912080549091168217905560019091015550565b60006124f4612223565b63ffffffff871660009081526042820160205260409020600281015491925090600160a01b900464ffffffffff1661253e5760405162461bcd60e51b81526004016102bf90613d87565b6002810154600160c81b900464ffffffffff161561256e5760405162461bcd60e51b81526004016102bf906142cb565b6002810154600160f01b900460ff161561259a5760405162461bcd60e51b81526004016102bf90613c11565b600181015463ffffffff878116600160c01b90920416146125cd5760405162461bcd60e51b81526004016102bf90614358565b80546001600160601b03868116600160a01b90920416146126005760405162461bcd60e51b81526004016102bf90614002565b600581015463ffffffff858116600160281b90920416146126335760405162461bcd60e51b81526004016102bf9061407d565b60005b60038110156126d35783816003811061265f57634e487b7160e01b600052603260045260246000fd5b6020020160208101906126729190613a3f565b60ff1682600401826003811061269857634e487b7160e01b600052603260045260246000fd5b602081049091015460ff601f9092166101000a900416146126cb5760405162461bcd60e51b81526004016102bf90613e1c565b600101612636565b5080546001600160a01b03898116911614156127015760405162461bcd60e51b81526004016102bf90613e63565b6001810154600160e01b900463ffffffff1615612360576001810154600160e01b900463ffffffff166000908152604b8301602090815260408083206001600160a01b038c1684529091529020546123605760405162461bcd60e51b81526004016102bf906144a4565b833b8061278a5760405162461bcd60e51b81526004016102bf90613ead565b600080866001600160a01b03166323b872dd60e01b8787876040516024016127b493929190613b8c565b60408051601f198184030181529181526020820180516001600160e01b03166001600160e01b03199094169390931790925290516127f29190613b42565b6000604051808303816000865af19150503d806000811461282f576040519150601f19603f3d011682016040523d82523d6000602084013e612834565b606091505b5091509150610a3b82826131e7565b600061284d612223565b6000838152604682016020908152604080832063ffffffff88168452909152902060018101549192509061288257505061066e565b805463ffffffff1680156128cb576000848152604684016020908152604080832063ffffffff808616855292529091206002808501549101805463ffffffff1916919092161790555b600282015463ffffffff168015612912576000858152604685016020908152604080832063ffffffff808616855292529091208454815463ffffffff191692169190911790555b600085815260478501602052604090205463ffffffff8781169116141561296057600283015460008681526047860160205260409020805463ffffffff191663ffffffff9092169190911790555b600060018401819055835463ffffffff19908116855560029094018054909416909355848352604884016020908152604080852063ffffffff898116875292529093208054909316915081156129eb576000858152604885016020908152604080832063ffffffff808716855292529091206002808601549101805463ffffffff1916919092161790555b50600282015463ffffffff168015612a33576000858152604885016020908152604080832063ffffffff808616855292529091208454815463ffffffff191692169190911790555b6001600160a01b0387166000908152604985016020908152604080832088845290915290205463ffffffff87811691161415612aab5760028301546001600160a01b038816600090815260498601602090815260408083208984529091529020805463ffffffff191663ffffffff9092169190911790555b505060006001820155805463ffffffff19908116825560029091018054909116905550505050565b6000612add612223565b6001600160a01b0385166000818152600f830160209081526040808320878452825280832054938352600e85019091528120549293509091612b21906001906149ff565b9050808214612c2d576001600160a01b0386166000908152600e840160205260408120805483908110612b6457634e487b7160e01b600052603260045260246000fd5b90600052602060002090600891828204019190066004029054906101000a900463ffffffff1690508084600e016000896001600160a01b03166001600160a01b031681526020019081526020016000208481548110612bd357634e487b7160e01b600052603260045260246000fd5b600091825260208083206008830401805460079093166004026101000a63ffffffff8181021990941695841602949094179093556001600160a01b038a168252600f87018352604080832094909116825292909152208290555b6001600160a01b0386166000908152600e840160205260409020805480612c6457634e487b7160e01b600052603160045260246000fd5b60008281526020808220600860001990940193840401805463ffffffff600460078716026101000a0219169055919092556001600160a01b038089168352600f8601825260408084208885528352808420849055601387019092529120541615612d1c57600084815260138401602052604080822080546001600160a01b0319169055518591906001600160a01b038916907f8c5be1e5ebec7d5bd14f71427d1e84f3dd0314c0f7b2291e5b200ac8c7c3b925908390a45b6000848152600d840160209081526040808320600a0180546001600160a01b0319166001600160a01b038a8116918217909255808552600e88018085528386208054600f8b0187528588208c8952875285882081905591865260018201815586529385206008850401805460079095166004026101000a63ffffffff81810219909616958b16029490941790935590518793918a16917fddf252ad1be2c89b69c2b068fc378daa952ba7f163c4a11628f55a4df523b3ef91a4505050505050565b600080612de8612223565b63ffffffff841660009081526050909101602090815260408083208380529091529020549150505b919050565b6000612e2082613262565b92915050565b6000612e328383613266565b9392505050565b6000612e43612223565b6001600160a01b0383166000818152604583016020908152604080832063ffffffff808a16855290835281842054948452604486019092528220549394509190911691612e92906001906149ff565b90508063ffffffff168263ffffffff1614612fc7576001600160a01b03841660009081526044840160205260408120805463ffffffff8416908110612ee757634e487b7160e01b600052603260045260246000fd5b90600052602060002090600891828204019190066004029054906101000a900463ffffffff16905080846044016000876001600160a01b03166001600160a01b031681526020019081526020016000208463ffffffff1681548110612f5c57634e487b7160e01b600052603260045260246000fd5b600091825260208083206008830401805460079093166004026101000a63ffffffff8181021990941695841602949094179093556001600160a01b0388168252604587018352604080832094821683529390925291909120805463ffffffff19169184169190911790555b6001600160a01b03841660009081526044840160205260409020805480612ffe57634e487b7160e01b600052603160045260246000fd5b60008281526020808220600860001990940193840401805463ffffffff600460078716026101000a810219909116909155929093556001600160a01b03909616865260459094018152604080862096909416855294909452509020805463ffffffff1916905550565b6000612e3283836132b0565b6000808263ffffffff16118015612e2057505062278d0063ffffffff909116111590565b6000806130a2612223565b60408601516020870151875192935090916130bd919061499b565b6130c7919061499b565b60ff166064146130e95760405162461bcd60e51b81526004016102bf90614183565b60005b84518110156131665781604c01600086838151811061311b57634e487b7160e01b600052603260045260246000fd5b6020908102919091018101516001600160a01b031682528101919091526040016000205460ff1661315e5760405162461bcd60e51b81526004016102bf9061460d565b6001016130ec565b506001600160a01b03831661319a57604085015160ff161561319a5760405162461bcd60e51b81526004016102bf9061459c565b600a845111156131bc5760405162461bcd60e51b81526004016102bf90614409565b506001949350505050565b6000806131d2612223565b604a015463ffffffff84161115915050919050565b8115613229578051156132245780806020019051810190613208919061385f565b6132245760405162461bcd60e51b81526004016102bf90613ef6565b6105e6565b80511561324a578060405162461bcd60e51b81526004016102bf9190613bde565b60405162461bcd60e51b81526004016102bf906140c5565b5490565b600061327283836133cd565b6132a857508154600181810184556000848152602080822090930184905584548482528286019093526040902091909155612e20565b506000612e20565b600081815260018301602052604081205480156133c35760006132d46001836149ff565b85549091506000906132e8906001906149ff565b905081811461336957600086600001828154811061331657634e487b7160e01b600052603260045260246000fd5b906000526020600020015490508087600001848154811061334757634e487b7160e01b600052603260045260246000fd5b6000918252602080832090910192909255918252600188019052604090208390555b855486908061338857634e487b7160e01b600052603160045260246000fd5b600190038181906000526020600020016000905590558560010160008681526020019081526020016000206000905560019350505050612e20565b6000915050612e20565b60009081526001919091016020526040902054151590565b6001830191839082156134685791602002820160005b8382111561343957835183826101000a81548160ff021916908360ff16021790555092602001926001016020816000010492830192600103026133fb565b80156134665782816101000a81549060ff0219169055600101602081600001049283019260010302613439565b505b506134749291506134cd565b5090565b828054828255906000526020600020908101928215613468579160200282015b8281111561346857825182546001600160a01b0319166001600160a01b03909116178255602090920191600190910190613498565b5b8082111561347457600081556001016134ce565b80356001600160a01b0381168114612e1057600080fd5b60008083601f84011261350a578182fd5b50813567ffffffffffffffff811115613521578182fd5b602083019150836020808302850101111561353b57600080fd5b9250929050565b600082601f830112613552578081fd5b8135602061356761356283614917565b6148e6565b8281528181019085830183850287018401881015613583578586fd5b855b858110156135a857613596826134e2565b84529284019290840190600101613585565b5090979650505050505050565b8060608101831015612e2057600080fd5b600082601f8301126135d6578081fd5b6135e060606148e6565b8083856060860111156135f1578384fd5b835b600381101561361a57613605826136fe565b845260209384019391909101906001016135f3565b509095945050505050565b60006101408284031215613637578081fd5b610100613643816148e6565b915061364e836136ea565b825261365c6020840161370f565b602083015261366d604084016136ea565b604083015261367f84606085016135c6565b606083015261369060c084016134e2565b60808301526136a160e084016134e2565b60a08301526136b18184016136ea565b60c08301525061012082013567ffffffffffffffff8111156136d257600080fd5b6136de84828501613542565b60e08301525092915050565b803563ffffffff81168114612e1057600080fd5b803560ff81168114612e1057600080fd5b80356001600160601b0381168114612e1057600080fd5b60006020808385031215613738578182fd5b823567ffffffffffffffff81111561374e578283fd5b8301601f8101851361375e578283fd5b803561376c61356282614917565b81815283810190838501865b848110156137a15761378f8a888435890101613625565b84529286019290860190600101613778565b509098975050505050505050565b600080602083850312156137c1578081fd5b823567ffffffffffffffff808211156137d8578283fd5b818501915085601f8301126137eb578283fd5b8135818111156137f9578384fd5b86602060408302850101111561380d578384fd5b60209290920196919550909350505050565b60008060208385031215613831578182fd5b823567ffffffffffffffff811115613847578283fd5b613853858286016134f9565b90969095509350505050565b600060208284031215613870578081fd5b81518015158114612e32578182fd5b600060208284031215613890578081fd5b813567ffffffffffffffff8111156138a6578182fd5b6138b284828501613625565b949350505050565b6000602082840312156138cb578081fd5b5051919050565b6000602082840312156138e3578081fd5b612e32826136ea565b600080604083850312156138fe578081fd5b613907836136ea565b9150613915602084016136ea565b90509250929050565b600080600080600060e08688031215613935578081fd5b61393e866136ea565b945061394c602087016136ea565b935061395a6040870161370f565b9250613968606087016136ea565b915061397787608088016135b5565b90509295509295909350565b60008060008060008060008060006101408a8c0312156139a1578687fd5b6139aa8a6136ea565b98506139b860208b0161370f565b97506139c660408b016136ea565b96506139d58b60608c016135b5565b95506139e360c08b016134e2565b94506139f160e08b016134e2565b9350613a006101008b016136ea565b92506101208a013567ffffffffffffffff811115613a1c578283fd5b613a288c828d016134f9565b915080935050809150509295985092959850929598565b600060208284031215613a50578081fd5b612e32826136fe565b6001600160a01b03169052565b6000815180845260208085019450808401835b83811015613a9e5781516001600160a01b031687529582019590820190600101613a79565b509495945050505050565b6000815480845260208085019450838352808320835b83811015613a9e5781546001600160a01b031687529582019560019182019101613abf565b6000815180845260208085019450808401835b83811015613a9e57815187529582019590820190600101613af7565b805460ff8116835260ff8160081c16602084015260ff8160101c166040840152505050565b63ffffffff169052565b60008251613b54818460208701614a16565b9190910192915050565b6001600160a01b0391909116815260200190565b6001600160a01b0392831681529116602082015260400190565b6001600160a01b039384168152919092166020820152604081019190915260600190565b600060408252613bc36040830185613aa9565b8281036020840152613bd58185613ae4565b95945050505050565b6000602082528251806020840152613bfd816040850160208701614a16565b601f01601f19169190910160400192915050565b60208082526022908201527f4c6962476f746368694c656e64696e673a204c697374696e672063616e63656c604082015261195960f21b606082015260800190565b60208082526039908201527f476f746368694c656e64696e673a204f6e6c79206c656e646572206f72206c6560408201527f6e64696e67206f70657261746f722063616e20657874656e6400000000000000606082015260800190565b60208082526054908201527f4c6962476f746368694c656e64696e673a20426f72726f776572206973206f7660408201527f657220626f72726f77206c696d697420666f7220746865206c696d69742073656060820152733a10313c903bb434ba32b634b9ba1037bbb732b960611b608082015260a00190565b60208082526037908201527f4c6962476f746368694c656e64696e673a204f726967696e616c206f776e657260408201527f2063616e6e6f74206265207a65726f2061646472657373000000000000000000606082015260800190565b60208082526023908201527f4c6962476f746368694c656e64696e673a204c697374696e67206e6f7420666f6040820152621d5b9960ea1b606082015260800190565b60208082526032908201527f4c6962476f746368694c656e64696e673a20526576656e756520706172616d656040820152711d195c9cc8185c99481b9bdd081d985b1a5960721b606082015260800190565b60208082526027908201527f4c6962476f746368694c656e64696e673a20496e76616c696420726576656e7560408201526619481cdc1b1a5d60ca1b606082015260800190565b6020808252602a908201527f4c6962476f746368694c656e64696e673a20426f72726f7765722063616e2774604082015269103132903632b73232b960b11b606082015260800190565b60208082526029908201527f4c696245524332303a20455243323020746f6b656e206164647265737320686160408201526873206e6f20636f646560b81b606082015260800190565b60208082526031908201527f4c696245524332303a207472616e73666572206f72207472616e7366657246726040820152706f6d2072657475726e65642066616c736560781b606082015260800190565b60208082526037908201527f4c6962476f746368694c656e64696e673a204f6e6c792063616c6c61626c652060408201527f6f6e20756e6c6f636b65642041617665676f7463686973000000000000000000606082015260800190565b602080825260409082018190527f476f746368694c656e64696e673a2043616e6e6f7420657874656e642061206c908201527f697374696e67206265796f6e6420746865206d6178696d756d20706572696f64606082015260800190565b60208082526026908201527f4c6962476f746368694c656e64696e673a20496e76616c696420696e697469616040820152651b0818dbdcdd60d21b606082015260800190565b6020808252818101527f476f746368694c656e64696e673a204c697374696e67206e6f7420666f756e64604082015260600190565b60208082526028908201527f4c6962476f746368694c656e64696e673a20496e76616c6964206c656e64696e60408201526719c81c195c9a5bd960c21b606082015260800190565b6020808252602b908201527f4c696245524332303a207472616e73666572206f72207472616e73666572467260408201526a1bdb481c995d995c9d195960aa1b606082015260800190565b6020808252604d908201527f476f746368694c656e64696e673a204f6e6c7920746865206f776e6572206f7260408201527f2061206c656e64696e67206f70657261746f722063616e206164642061206c6560608201526c1b991a5b99c81c995c5d595cdd609a1b608082015260a00190565b6020808252602f908201527f4c6962476f746368694c656e64696e673a2053756d206f6620726576656e756560408201526e02073706c697473206e6f742031303608c1b606082015260800190565b60208082526025908201527f4c6962476f746368694c656e64696e673a20506572696f64206973206e6f74206040820152641d985b1a5960da1b606082015260800190565b60208082526044908201527f476f746368694c656e64696e673a204f6e6c79206c656e646572206f7220626f60408201527f72726f776572206f72206c656e64696e67206f70657261746f722063616e20636060820152636c61696d60e01b608082015260a00190565b6020808252602a908201527f4c6962476f746368694c656e64696e673a2043616e206f6e6c79206c656e642060408201526941617665676f7463686960b01b606082015260800190565b60208082526028908201527f4c6962476f746368694c656e64696e673a204c697374696e6720616c726561646040820152671e481859dc99595960c21b606082015260800190565b60208082526025908201527f4c6962476f746368694c656e64696e673a2057686974656c697374206e6f7420604082015264199bdd5b9960da1b606082015260800190565b60208082526022908201527f4c6962476f746368694c656e64696e673a20496e76616c696420746f6b656e206040820152611a5960f21b606082015260800190565b60208082526049908201527f476f746368694c656e64696e673a204f6e6c7920746865206c656e646572206f60408201527f72206c656e64696e67206f70657261746f722063616e2063616e63656c20746860608201526865206c656e64696e6760b81b608082015260a00190565b60208082526029908201527f4c6962476f746368694c656e64696e673a20546f6f206d616e7920726576656e604082015268756520746f6b656e7360b81b606082015260800190565b60208082526032908201527f476f746368694c656e64696e673a2041677265656d656e74206e6f74206f7665604082015271391030b732103737ba103137b93937bbb2b960711b606082015260800190565b60208082526029908201527f4c6962476f746368694c656e64696e673a204e6f742077686974656c6973746560408201526864206164647265737360b81b606082015260800190565b60208082526041908201527f476f746368694c656e64696e673a2043616e6e6f7420657874656e642061206c60408201527f697374696e67207468617420686173206e6f74206265656e20626f72726f77656060820152601960fa1b608082015260a00190565b60208082526028908201527f4c6962476f746368694c656e64696e673a20457363726f77206973207a65726f604082015267206164647265737360c01b606082015260800190565b6020808252604b908201527f4c6962476f746368694c656e64696e673a20546869726420706172747920726560408201527f76656e75652073706c6974206d757374206265203020776974686f757420612060608201526a746869726420706172747960a81b608082015260a00190565b6020808252602b908201527f4c6962476f746368694c656e64696e673a20526576656e756520746f6b656e2060408201526a1b9bdd08185b1b1bddd95960aa1b606082015260800190565b60208082526056908201527f476f746368694c656e64696e673a204f6e6c79206c656e646572206f7220626f60408201527f72726f776572206f72206c656e64696e67206f70657261746f722063616e20636060820152751b185a5b48185b9908195b99081859dc99595b595b9d60521b608082015260a00190565b90815260200190565b600061018063ffffffff808e1684526001600160601b038d166020850152808c166040850152614710606085018c613b13565b6001600160a01b038a811660c0860152891660e08501528716610100840152610120830181905261474381840187613aa9565b90508281036101408401526147588186613ae4565b915050826101608301529b9a5050505050505050505050565b600061016063ffffffff808d1684526001600160601b038c166020850152808b1660408501526147a4606085018b613b13565b6001600160a01b0389811660c0860152881660e0850152861661010084015261012083018190526147d781840186613aa9565b915050826101408301529a9950505050505050505050565b60006101406001600160601b038b168352602063ffffffff8b1681850152604084018a845b600381101561483457815160ff1683529183019190830190600101614814565b5050505061484560a0840189613a59565b61485260c0840188613a59565b61485f60e0840187613b38565b8061010084015261487281840186613a66565b915050826101208301529998505050505050505050565b60006101406001600160601b038b16835263ffffffff808b1660208501526148b4604085018b613b13565b6001600160a01b0389811660a0860152881660c0850152861660e0840152610100830181905261487281840186613aa9565b604051601f8201601f1916810167ffffffffffffffff8111828210171561490f5761490f614a7c565b604052919050565b600067ffffffffffffffff82111561493157614931614a7c565b5060209081020190565b6000821982111561494e5761494e614a66565b500190565b600063ffffffff80831681851680830382111561497257614972614a66565b01949350505050565b600064ffffffffff80831681851680830382111561497257614972614a66565b600060ff821660ff84168060ff038211156149b8576149b8614a66565b019392505050565b6000826149db57634e487b7160e01b81526012600452602481fd5b500490565b60008160001904831182151516156149fa576149fa614a66565b500290565b600082821015614a1157614a11614a66565b500390565b60005b83811015614a31578181015183820152602001614a19565b83811115610d2b5750506000910152565b600063ffffffff80831681811415614a5c57614a5c614a66565b6001019392505050565b634e487b7160e01b600052601160045260246000fd5b634e487b7160e01b600052604160045260246000fdfea2646970667358221220835bda27b93f1e724278ce23cadb23c8f7d09f5bd31fcb5b17383f3eaa93eb1d64736f6c63430008010033",
  "linkReferences": {},
  "deployedLinkReferences": {}
}