{
  "_format": "hh-sol-artifact-1",
  "contractName": "ItemsFacet",
  "sourceName": "contracts/Aavegotchi/facets/ItemsFacet.sol",
  "abi": [
    {
      "anonymous": false,
      "inputs": [
        {
          "indexed": true,
          "internalType": "uint256",
          "name": "_tokenId",
          "type": "uint256"
        },
        {
          "indexed": false,
          "internalType": "uint16[16]",
          "name": "_oldWearables",
          "type": "uint16[16]"
        },
        {
          "indexed": false,
          "internalType": "uint16[16]",
          "name": "_newWearables",
          "type": "uint16[16]"
        }
      ],
      "name": "EquipWearables",
      "type": "event"
    },
    {
      "anonymous": false,
      "inputs": [
        {
          "indexed": true,
          "internalType": "address",
          "name": "_toContract",
          "type": "address"
        },
        {
          "indexed": true,
          "internalType": "uint256",
          "name": "_toTokenId",
          "type": "uint256"
        },
        {
          "indexed": true,
          "internalType": "uint256",
          "name": "_tokenTypeId",
          "type": "uint256"
        },
        {
          "indexed": false,
          "internalType": "uint256",
          "name": "_value",
          "type": "uint256"
        }
      ],
      "name": "TransferToParent",
      "type": "event"
    },
    {
      "anonymous": false,
      "inputs": [
        {
          "indexed": true,
          "internalType": "uint256",
          "name": "_tokenId",
          "type": "uint256"
        },
        {
          "indexed": false,
          "internalType": "uint256[]",
          "name": "_itemIds",
          "type": "uint256[]"
        },
        {
          "indexed": false,
          "internalType": "uint256[]",
          "name": "_quantities",
          "type": "uint256[]"
        }
      ],
      "name": "UseConsumables",
      "type": "event"
    },
    {
      "inputs": [
        {
          "internalType": "address",
          "name": "_owner",
          "type": "address"
        },
        {
          "internalType": "uint256",
          "name": "_id",
          "type": "uint256"
        }
      ],
      "name": "balanceOf",
      "outputs": [
        {
          "internalType": "uint256",
          "name": "bal_",
          "type": "uint256"
        }
      ],
      "stateMutability": "view",
      "type": "function"
    },
    {
      "inputs": [
        {
          "internalType": "address[]",
          "name": "_owners",
          "type": "address[]"
        },
        {
          "internalType": "uint256[]",
          "name": "_ids",
          "type": "uint256[]"
        }
      ],
      "name": "balanceOfBatch",
      "outputs": [
        {
          "internalType": "uint256[]",
          "name": "bals",
          "type": "uint256[]"
        }
      ],
      "stateMutability": "view",
      "type": "function"
    },
    {
      "inputs": [
        {
          "internalType": "address",
          "name": "_tokenContract",
          "type": "address"
        },
        {
          "internalType": "uint256",
          "name": "_tokenId",
          "type": "uint256"
        },
        {
          "internalType": "uint256",
          "name": "_id",
          "type": "uint256"
        }
      ],
      "name": "balanceOfToken",
      "outputs": [
        {
          "internalType": "uint256",
          "name": "value",
          "type": "uint256"
        }
      ],
      "stateMutability": "view",
      "type": "function"
    },
    {
      "inputs": [
        {
          "internalType": "uint256",
          "name": "_tokenId",
          "type": "uint256"
        },
        {
          "internalType": "uint16[16]",
          "name": "_wearablesToEquip",
          "type": "uint16[16]"
        }
      ],
      "name": "equipWearables",
      "outputs": [],
      "stateMutability": "nonpayable",
      "type": "function"
    },
    {
      "inputs": [
        {
          "internalType": "uint256",
          "name": "_tokenId",
          "type": "uint256"
        }
      ],
      "name": "equippedWearables",
      "outputs": [
        {
          "internalType": "uint16[16]",
          "name": "wearableIds_",
          "type": "uint16[16]"
        }
      ],
      "stateMutability": "view",
      "type": "function"
    },
    {
      "inputs": [
        {
          "internalType": "uint256",
          "name": "_itemId",
          "type": "uint256"
        }
      ],
      "name": "getItemType",
      "outputs": [
        {
          "components": [
            {
              "internalType": "string",
              "name": "name",
              "type": "string"
            },
            {
              "internalType": "string",
              "name": "description",
              "type": "string"
            },
            {
              "internalType": "string",
              "name": "author",
              "type": "string"
            },
            {
              "internalType": "int8[6]",
              "name": "traitModifiers",
              "type": "int8[6]"
            },
            {
              "internalType": "bool[16]",
              "name": "slotPositions",
              "type": "bool[16]"
            },
            {
              "internalType": "uint8[]",
              "name": "allowedCollaterals",
              "type": "uint8[]"
            },
            {
              "components": [
                {
                  "internalType": "uint8",
                  "name": "x",
                  "type": "uint8"
                },
                {
                  "internalType": "uint8",
                  "name": "y",
                  "type": "uint8"
                },
                {
                  "internalType": "uint8",
                  "name": "width",
                  "type": "uint8"
                },
                {
                  "internalType": "uint8",
                  "name": "height",
                  "type": "uint8"
                }
              ],
              "internalType": "struct Dimensions",
              "name": "dimensions",
              "type": "tuple"
            },
            {
              "internalType": "uint256",
              "name": "ghstPrice",
              "type": "uint256"
            },
            {
              "internalType": "uint256",
              "name": "maxQuantity",
              "type": "uint256"
            },
            {
              "internalType": "uint256",
              "name": "totalQuantity",
              "type": "uint256"
            },
            {
              "internalType": "uint32",
              "name": "svgId",
              "type": "uint32"
            },
            {
              "internalType": "uint8",
              "name": "rarityScoreModifier",
              "type": "uint8"
            },
            {
              "internalType": "bool",
              "name": "canPurchaseWithGhst",
              "type": "bool"
            },
            {
              "internalType": "uint16",
              "name": "minLevel",
              "type": "uint16"
            },
            {
              "internalType": "bool",
              "name": "canBeTransferred",
              "type": "bool"
            },
            {
              "internalType": "uint8",
              "name": "category",
              "type": "uint8"
            },
            {
              "internalType": "int16",
              "name": "kinshipBonus",
              "type": "int16"
            },
            {
              "internalType": "uint32",
              "name": "experienceBonus",
              "type": "uint32"
            }
          ],
          "internalType": "struct ItemType",
          "name": "itemType_",
          "type": "tuple"
        }
      ],
      "stateMutability": "view",
      "type": "function"
    },
    {
      "inputs": [
        {
          "internalType": "uint256[]",
          "name": "_itemIds",
          "type": "uint256[]"
        }
      ],
      "name": "getItemTypes",
      "outputs": [
        {
          "components": [
            {
              "internalType": "string",
              "name": "name",
              "type": "string"
            },
            {
              "internalType": "string",
              "name": "description",
              "type": "string"
            },
            {
              "internalType": "string",
              "name": "author",
              "type": "string"
            },
            {
              "internalType": "int8[6]",
              "name": "traitModifiers",
              "type": "int8[6]"
            },
            {
              "internalType": "bool[16]",
              "name": "slotPositions",
              "type": "bool[16]"
            },
            {
              "internalType": "uint8[]",
              "name": "allowedCollaterals",
              "type": "uint8[]"
            },
            {
              "components": [
                {
                  "internalType": "uint8",
                  "name": "x",
                  "type": "uint8"
                },
                {
                  "internalType": "uint8",
                  "name": "y",
                  "type": "uint8"
                },
                {
                  "internalType": "uint8",
                  "name": "width",
                  "type": "uint8"
                },
                {
                  "internalType": "uint8",
                  "name": "height",
                  "type": "uint8"
                }
              ],
              "internalType": "struct Dimensions",
              "name": "dimensions",
              "type": "tuple"
            },
            {
              "internalType": "uint256",
              "name": "ghstPrice",
              "type": "uint256"
            },
            {
              "internalType": "uint256",
              "name": "maxQuantity",
              "type": "uint256"
            },
            {
              "internalType": "uint256",
              "name": "totalQuantity",
              "type": "uint256"
            },
            {
              "internalType": "uint32",
              "name": "svgId",
              "type": "uint32"
            },
            {
              "internalType": "uint8",
              "name": "rarityScoreModifier",
              "type": "uint8"
            },
            {
              "internalType": "bool",
              "name": "canPurchaseWithGhst",
              "type": "bool"
            },
            {
              "internalType": "uint16",
              "name": "minLevel",
              "type": "uint16"
            },
            {
              "internalType": "bool",
              "name": "canBeTransferred",
              "type": "bool"
            },
            {
              "internalType": "uint8",
              "name": "category",
              "type": "uint8"
            },
            {
              "internalType": "int16",
              "name": "kinshipBonus",
              "type": "int16"
            },
            {
              "internalType": "uint32",
              "name": "experienceBonus",
              "type": "uint32"
            }
          ],
          "internalType": "struct ItemType[]",
          "name": "itemTypes_",
          "type": "tuple[]"
        }
      ],
      "stateMutability": "view",
      "type": "function"
    },
    {
      "inputs": [
        {
          "internalType": "address",
          "name": "_account",
          "type": "address"
        }
      ],
      "name": "itemBalances",
      "outputs": [
        {
          "components": [
            {
              "internalType": "uint256",
              "name": "itemId",
              "type": "uint256"
            },
            {
              "internalType": "uint256",
              "name": "balance",
              "type": "uint256"
            }
          ],
          "internalType": "struct ItemsFacet.ItemIdIO[]",
          "name": "bals_",
          "type": "tuple[]"
        }
      ],
      "stateMutability": "view",
      "type": "function"
    },
    {
      "inputs": [
        {
          "internalType": "address",
          "name": "_tokenContract",
          "type": "address"
        },
        {
          "internalType": "uint256",
          "name": "_tokenId",
          "type": "uint256"
        }
      ],
      "name": "itemBalancesOfToken",
      "outputs": [
        {
          "components": [
            {
              "internalType": "uint256",
              "name": "itemId",
              "type": "uint256"
            },
            {
              "internalType": "uint256",
              "name": "balance",
              "type": "uint256"
            }
          ],
          "internalType": "struct ItemsFacet.ItemIdIO[]",
          "name": "bals_",
          "type": "tuple[]"
        }
      ],
      "stateMutability": "view",
      "type": "function"
    },
    {
      "inputs": [
        {
          "internalType": "address",
          "name": "_tokenContract",
          "type": "address"
        },
        {
          "internalType": "uint256",
          "name": "_tokenId",
          "type": "uint256"
        }
      ],
      "name": "itemBalancesOfTokenWithTypes",
      "outputs": [
        {
          "components": [
            {
              "internalType": "uint256",
              "name": "balance",
              "type": "uint256"
            },
            {
              "internalType": "uint256",
              "name": "itemId",
              "type": "uint256"
            },
            {
              "components": [
                {
                  "internalType": "string",
                  "name": "name",
                  "type": "string"
                },
                {
                  "internalType": "string",
                  "name": "description",
                  "type": "string"
                },
                {
                  "internalType": "string",
                  "name": "author",
                  "type": "string"
                },
                {
                  "internalType": "int8[6]",
                  "name": "traitModifiers",
                  "type": "int8[6]"
                },
                {
                  "internalType": "bool[16]",
                  "name": "slotPositions",
                  "type": "bool[16]"
                },
                {
                  "internalType": "uint8[]",
                  "name": "allowedCollaterals",
                  "type": "uint8[]"
                },
                {
                  "components": [
                    {
                      "internalType": "uint8",
                      "name": "x",
                      "type": "uint8"
                    },
                    {
                      "internalType": "uint8",
                      "name": "y",
                      "type": "uint8"
                    },
                    {
                      "internalType": "uint8",
                      "name": "width",
                      "type": "uint8"
                    },
                    {
                      "internalType": "uint8",
                      "name": "height",
                      "type": "uint8"
                    }
                  ],
                  "internalType": "struct Dimensions",
                  "name": "dimensions",
                  "type": "tuple"
                },
                {
                  "internalType": "uint256",
                  "name": "ghstPrice",
                  "type": "uint256"
                },
                {
                  "internalType": "uint256",
                  "name": "maxQuantity",
                  "type": "uint256"
                },
                {
                  "internalType": "uint256",
                  "name": "totalQuantity",
                  "type": "uint256"
                },
                {
                  "internalType": "uint32",
                  "name": "svgId",
                  "type": "uint32"
                },
                {
                  "internalType": "uint8",
                  "name": "rarityScoreModifier",
                  "type": "uint8"
                },
                {
                  "internalType": "bool",
                  "name": "canPurchaseWithGhst",
                  "type": "bool"
                },
                {
                  "internalType": "uint16",
                  "name": "minLevel",
                  "type": "uint16"
                },
                {
                  "internalType": "bool",
                  "name": "canBeTransferred",
                  "type": "bool"
                },
                {
                  "internalType": "uint8",
                  "name": "category",
                  "type": "uint8"
                },
                {
                  "internalType": "int16",
                  "name": "kinshipBonus",
                  "type": "int16"
                },
                {
                  "internalType": "uint32",
                  "name": "experienceBonus",
                  "type": "uint32"
                }
              ],
              "internalType": "struct ItemType",
              "name": "itemType",
              "type": "tuple"
            }
          ],
          "internalType": "struct ItemTypeIO[]",
          "name": "itemBalancesOfTokenWithTypes_",
          "type": "tuple[]"
        }
      ],
      "stateMutability": "view",
      "type": "function"
    },
    {
      "inputs": [
        {
          "internalType": "address",
          "name": "_owner",
          "type": "address"
        }
      ],
      "name": "itemBalancesWithTypes",
      "outputs": [
        {
          "components": [
            {
              "internalType": "uint256",
              "name": "balance",
              "type": "uint256"
            },
            {
              "internalType": "uint256",
              "name": "itemId",
              "type": "uint256"
            },
            {
              "components": [
                {
                  "internalType": "string",
                  "name": "name",
                  "type": "string"
                },
                {
                  "internalType": "string",
                  "name": "description",
                  "type": "string"
                },
                {
                  "internalType": "string",
                  "name": "author",
                  "type": "string"
                },
                {
                  "internalType": "int8[6]",
                  "name": "traitModifiers",
                  "type": "int8[6]"
                },
                {
                  "internalType": "bool[16]",
                  "name": "slotPositions",
                  "type": "bool[16]"
                },
                {
                  "internalType": "uint8[]",
                  "name": "allowedCollaterals",
                  "type": "uint8[]"
                },
                {
                  "components": [
                    {
                      "internalType": "uint8",
                      "name": "x",
                      "type": "uint8"
                    },
                    {
                      "internalType": "uint8",
                      "name": "y",
                      "type": "uint8"
                    },
                    {
                      "internalType": "uint8",
                      "name": "width",
                      "type": "uint8"
                    },
                    {
                      "internalType": "uint8",
                      "name": "height",
                      "type": "uint8"
                    }
                  ],
                  "internalType": "struct Dimensions",
                  "name": "dimensions",
                  "type": "tuple"
                },
                {
                  "internalType": "uint256",
                  "name": "ghstPrice",
                  "type": "uint256"
                },
                {
                  "internalType": "uint256",
                  "name": "maxQuantity",
                  "type": "uint256"
                },
                {
                  "internalType": "uint256",
                  "name": "totalQuantity",
                  "type": "uint256"
                },
                {
                  "internalType": "uint32",
                  "name": "svgId",
                  "type": "uint32"
                },
                {
                  "internalType": "uint8",
                  "name": "rarityScoreModifier",
                  "type": "uint8"
                },
                {
                  "internalType": "bool",
                  "name": "canPurchaseWithGhst",
                  "type": "bool"
                },
                {
                  "internalType": "uint16",
                  "name": "minLevel",
                  "type": "uint16"
                },
                {
                  "internalType": "bool",
                  "name": "canBeTransferred",
                  "type": "bool"
                },
                {
                  "internalType": "uint8",
                  "name": "category",
                  "type": "uint8"
                },
                {
                  "internalType": "int16",
                  "name": "kinshipBonus",
                  "type": "int16"
                },
                {
                  "internalType": "uint32",
                  "name": "experienceBonus",
                  "type": "uint32"
                }
              ],
              "internalType": "struct ItemType",
              "name": "itemType",
              "type": "tuple"
            }
          ],
          "internalType": "struct ItemTypeIO[]",
          "name": "output_",
          "type": "tuple[]"
        }
      ],
      "stateMutability": "view",
      "type": "function"
    },
    {
      "inputs": [
        {
          "internalType": "string",
          "name": "_value",
          "type": "string"
        }
      ],
      "name": "setBaseURI",
      "outputs": [],
      "stateMutability": "nonpayable",
      "type": "function"
    },
    {
      "inputs": [
        {
          "internalType": "uint256",
          "name": "_id",
          "type": "uint256"
        }
      ],
      "name": "uri",
      "outputs": [
        {
          "internalType": "string",
          "name": "",
          "type": "string"
        }
      ],
      "stateMutability": "view",
      "type": "function"
    },
    {
      "inputs": [
        {
          "internalType": "uint256",
          "name": "_tokenId",
          "type": "uint256"
        },
        {
          "internalType": "uint256[]",
          "name": "_itemIds",
          "type": "uint256[]"
        },
        {
          "internalType": "uint256[]",
          "name": "_quantities",
          "type": "uint256[]"
        }
      ],
      "name": "useConsumables",
      "outputs": [],
      "stateMutability": "nonpayable",
      "type": "function"
    }
  ],
  "bytecode": "0x608060405234801561001057600080fd5b5061574980620000216000396000f3fe608060405234801561001057600080fd5b50600436106100e95760003560e01c80639f7b91c61161008c578063ea316ab211610066578063ea316ab214610205578063ea97843214610225578063ed44660114610245578063fcdbbe1d14610258576100e9565b80639f7b91c6146101bf578063c19a4ef5146101d2578063d72fecea146101f2576100e9565b806347f18c04116100c857806347f18c041461014a5780634e1273f41461016a57806355f804b31461018a5780637e2cd18d1461019f576100e9565b8062fdd58e146100ee5780630e89341c1461011757806339a209df14610137575b600080fd5b6101016100fc366004614633565b61026b565b60405161010e9190615006565b60405180910390f35b61012a6101253660046147fb565b610292565b60405161010e919061500f565b61010161014536600461465c565b61035e565b61015d6101583660046147fb565b610390565b60405161010e9190614dee565b61017d61017836600461468e565b6103ff565b60405161010e9190614fc2565b61019d610198366004614737565b610554565b005b6101b26101ad366004614633565b610655565b60405161010e9190614cc3565b61019d6101cd36600461482b565b6107de565b6101e56101e03660046147fb565b610ed5565b60405161010e91906155ac565b6101b2610200366004614619565b611319565b6102186102133660046146f7565b611484565b60405161010e9190614d8e565b610238610233366004614633565b611db9565b60405161010e9190614d12565b61019d61025336600461485f565b611dcc565b610238610266366004614619565b612641565b6001600160a01b039091166000908152600960209081526040808320938352929052205490565b60065460609082106102bf5760405162461bcd60e51b81526004016102b6906152ba565b60405180910390fd5b610356600060210180546102d29061567d565b80601f01602080910402602001604051908101604052809291908181526020018280546102fe9061567d565b801561034b5780601f106103205761010080835404028352916020019161034b565b820191906000526020600020905b81548152906001019060200180831161032e57829003601f168201915b505050505083612bee565b90505b919050565b6001600160a01b0390921660009081526003602090815260408083209383529281528282209382529290925290205490565b61039861433c565b6000828152600d602052604080822081516102008101928390529290916010918390855b82829054906101000a900461ffff1661ffff16815260200190600201906020826001010492830192600103820291508084116103bc575094979650505050505050565b60608382146104205760405162461bcd60e51b81526004016102b6906151ae565b8367ffffffffffffffff81111561044757634e487b7160e01b600052604160045260246000fd5b604051908082528060200260200182016040528015610470578160200160208202803683370190505b50905060005b8481101561054b5760008484838181106104a057634e487b7160e01b600052603260045260246000fd5b90506020020135905060008787848181106104cb57634e487b7160e01b600052603260045260246000fd5b90506020020160208101906104e09190614619565b6001600160a01b038116600090815260096020908152604080832086845290915290205485519192509085908590811061052a57634e487b7160e01b600052603260045260246000fd5b60200260200101818152505050508080610543906156b2565b915050610476565b50949350505050565b600061055e612d1a565b601d549091506001600160a01b03808316911614806105955750610580612d77565b6001600160a01b0316816001600160a01b0316145b6105b15760405162461bcd60e51b81526004016102b69061516d565b81516105c490602190602085019061435b565b5060005b600654811015610650576052546001600160a01b0316639942e7556105ed8584612bee565b836040518363ffffffff1660e01b815260040161060b929190615022565b600060405180830381600087803b15801561062557600080fd5b505af1158015610639573d6000803e3d6000fd5b505050508080610648906156b2565b9150506105c8565b505050565b6001600160a01b03821660009081526004602090815260408083208484529091529020546060908067ffffffffffffffff8111156106a357634e487b7160e01b600052604160045260246000fd5b6040519080825280602002602001820160405280156106dc57816020015b6106c96143db565b8152602001906001900390816106c15790505b50915060005b818110156107d6576001600160a01b0385166000908152600460209081526040808320878452909152812080548390811061072d57634e487b7160e01b600052603260045260246000fd5b906000526020600020015490508084838151811061075b57634e487b7160e01b600052603260045260246000fd5b602090810291909101810151919091526001600160a01b03871660009081526003825260408082208883528352808220848352909252205484518590849081106107b557634e487b7160e01b600052603260045260246000fd5b602090810291909101810151015250806107ce816156b2565b9150506106e2565b505092915050565b6000828152600d60205260409020600a015482906001600160a01b0316610803612d1a565b6001600160a01b0316146108295760405162461bcd60e51b81526004016102b690615506565b6000838152600d60205260409020600a01548390600160d01b900460ff16156108645760405162461bcd60e51b81526004016102b6906153cf565b6000848152600d60205260409020600a810154600160a01b900460ff166003146108a05760405162461bcd60e51b81526004016102b690615237565b847fd37dcec8474f1811cc879ac06724abd9c9af3ac1824ebcbc864c4854dbd602ea82600001866040516108d5929190614e1b565b60405180910390a260006108e7612d1a565b905060005b6010811015610ec257600086826010811061091757634e487b7160e01b600052603260045260246000fd5b60200201602081019061092a91906147e1565b61ffff169050600084836010811061095257634e487b7160e01b600052603260045260246000fd5b601091828204019190066002029054906101000a900461ffff1661ffff16905080821415610981575050610eb0565b818584601081106109a257634e487b7160e01b600052603260045260246000fd5b601091828204019190066002026101000a81548161ffff021916908361ffff16021790555080600014158015610a15575060068054829081106109f557634e487b7160e01b600052603260045260246000fd5b90600052602060002090600b0201600a0160089054906101000a900460ff165b15610ae357610a27308a836001612d93565b610a33848260016130a1565b605254604051633a0ac57d60e21b81526001600160a01b039091169063e82b15f490610a6c908790309082908790600190600401614c76565b600060405180830381600087803b158015610a8657600080fd5b505af1158015610a9a573d6000803e3d6000fd5b505050508089306001600160a01b03167f4b287e36a0531da8ccee303de127c778302f48d8fc9569b1fe1dcb9d64465c6d6001604051610ada9190615006565b60405180910390a45b8115610ead576000806006018381548110610b0e57634e487b7160e01b600052603260045260246000fd5b90600052602060002090600b0201905080600a0160069054906101000a900461ffff1661ffff16610b428760050154613166565b1015610b605760405162461bcd60e51b81526004016102b6906150d4565b600a810154600160481b900460ff1615610b8c5760405162461bcd60e51b81526004016102b690615384565b806004018460108110610baf57634e487b7160e01b600052603260045260246000fd5b602091828204019190069054906101000a900460ff1615156001151514610be85760405162461bcd60e51b81526004016102b69061526c565b60008082600501805480602002602001604051908101604052809291908181526020018280548015610c5757602002820191906000526020600020906000905b825461010083900a900460ff16815260206001928301818104948501949093039092029101808411610c285790505b50505050509050600081511115610cfd5760098801546001600160a01b0316600090815260016020526040812054905b8251811015610cdd57828181518110610cb057634e487b7160e01b600052603260045260246000fd5b602002602001015160ff16821415610ccb5760019350610cdd565b80610cd5816156b2565b915050610c87565b5082610cfb5760405162461bcd60e51b81526004016102b690615464565b505b50503060009081526003602090815260408083208d8452825280832086845290915290205460016004861415610d4c5784610d3e60c08d0160a08e016147e1565b61ffff161415610d4c575060025b6005861415610d745784610d6660a08d0160808e016147e1565b61ffff161415610d74575060025b80821015610ea9576001600160a01b03871660009081526009602090815260408083208884529091529020548190610dac90846155e3565b1015610dca5760405162461bcd60e51b81526004016102b690615044565b6000610dd6838361563a565b9050610de38887836131a7565b610def308e88846133e7565b858d306001600160a01b03167fe82810099d182b25e23e895715954d6e7b41867a02e2c693cce68a8f250e43d384604051610e2a9190615006565b60405180910390a4605254604051633a0ac57d60e21b81526001600160a01b039091169063e82b15f490610e6a908b90819030908c908890600401614c76565b600060405180830381600087803b158015610e8457600080fd5b505af1158015610e98573d6000803e3d6000fd5b50505050610ea730878a6134ca565b505b5050505b50505b80610eba816156b2565b9150506108ec565b50610ecc8661366f565b50505050505050565b610edd6143f5565b6006548210610efe5760405162461bcd60e51b81526004016102b6906152f1565b6006805483908110610f2057634e487b7160e01b600052603260045260246000fd5b90600052602060002090600b020160405180610240016040529081600082018054610f4a9061567d565b80601f0160208091040260200160405190810160405280929190818152602001828054610f769061567d565b8015610fc35780601f10610f9857610100808354040283529160200191610fc3565b820191906000526020600020905b815481529060010190602001808311610fa657829003601f168201915b50505050508152602001600182018054610fdc9061567d565b80601f01602080910402602001604051908101604052809291908181526020018280546110089061567d565b80156110555780601f1061102a57610100808354040283529160200191611055565b820191906000526020600020905b81548152906001019060200180831161103857829003601f168201915b5050505050815260200160028201805461106e9061567d565b80601f016020809104026020016040519081016040528092919081815260200182805461109a9061567d565b80156110e75780601f106110bc576101008083540402835291602001916110e7565b820191906000526020600020905b8154815290600101906020018083116110ca57829003601f168201915b50505091835250506040805160c0810191829052602090920191906003840190600690826000855b82829054906101000a900460000b60000b8152602001906001019060208260000104928301926001038202915080841161110f5750505092845250506040805161020081019182905260209093019291506004840190601090826000855b825461010083900a900460ff16151581526020600192830181810494850194909303909202910180841161116d579050505050505081526020016005820180548060200260200160405190810160405280929190818152602001828054801561121357602002820191906000526020600020906000905b825461010083900a900460ff168152602060019283018181049485019490930390920291018084116111e45790505b50505091835250506040805160808082018352600685015460ff808216845261010080830482166020868101919091526201000084048316868801526301000000909304821660608087019190915292870194909452600787015494860194909452600886015490850152600985015490840152600a9093015463ffffffff80821660a08501526401000000008204831660c0850152600160281b82048316151560e085015261ffff600160301b83041694840194909452600160401b810482161515610120840152600160481b8104909116610140830152600160501b8104600190810b810b900b610160830152600160601b90049091166101809091015292915050565b6001600160a01b0381166000908152600a60205260409020546060908067ffffffffffffffff81111561135c57634e487b7160e01b600052604160045260246000fd5b60405190808252806020026020018201604052801561139557816020015b6113826143db565b81526020019060019003908161137a5790505b50915060005b8181101561147d576001600160a01b0384166000908152600a602052604081208054839081106113db57634e487b7160e01b600052603260045260246000fd5b60009182526020808320909101546001600160a01b038816835260098252604080842082855290925291205485519192509085908490811061142d57634e487b7160e01b600052603260045260246000fd5b602002602001015160200181815250508084838151811061145e57634e487b7160e01b600052603260045260246000fd5b6020908102919091010151525080611475816156b2565b91505061139b565b5050919050565b6060816118c957600680546040805160208084028201810190925282815292919060009084015b828210156118be57838290600052602060002090600b0201604051806102400160405290816000820180546114df9061567d565b80601f016020809104026020016040519081016040528092919081815260200182805461150b9061567d565b80156115585780601f1061152d57610100808354040283529160200191611558565b820191906000526020600020905b81548152906001019060200180831161153b57829003601f168201915b505050505081526020016001820180546115719061567d565b80601f016020809104026020016040519081016040528092919081815260200182805461159d9061567d565b80156115ea5780601f106115bf576101008083540402835291602001916115ea565b820191906000526020600020905b8154815290600101906020018083116115cd57829003601f168201915b505050505081526020016002820180546116039061567d565b80601f016020809104026020016040519081016040528092919081815260200182805461162f9061567d565b801561167c5780601f106116515761010080835404028352916020019161167c565b820191906000526020600020905b81548152906001019060200180831161165f57829003601f168201915b50505091835250506040805160c0810191829052602090920191906003840190600690826000855b82829054906101000a900460000b60000b815260200190600101906020826000010492830192600103820291508084116116a45750505092845250506040805161020081019182905260209093019291506004840190601090826000855b825461010083900a900460ff16151581526020600192830181810494850194909303909202910180841161170257905050505050508152602001600582018054806020026020016040519081016040528092919081815260200182805480156117a857602002820191906000526020600020906000905b825461010083900a900460ff168152602060019283018181049485019490930390920291018084116117795790505b50505091835250506040805160808082018352600685015460ff808216845261010080830482166020868101919091526201000084048316868801526301000000909304821660608087019190915283880195909552600788015495870195909552600887015493860193909352600986015491850191909152600a9094015463ffffffff80821660a08601526401000000008204831660c0860152600160281b82048316151560e086015261ffff600160301b83041693850193909352600160401b810482161515610120850152600160481b8104909116610140840152600160501b8104600190810b810b810b610160850152600160601b90910490911661018090920191909152918352920191016114ab565b505050509050611db3565b8167ffffffffffffffff8111156118f057634e487b7160e01b600052604160045260246000fd5b60405190808252806020026020018201604052801561192957816020015b6119166143f5565b81526020019060019003908161190e5790505b50905060005b82811015611db157600684848381811061195957634e487b7160e01b600052603260045260246000fd5b905060200201358154811061197e57634e487b7160e01b600052603260045260246000fd5b90600052602060002090600b0201604051806102400160405290816000820180546119a89061567d565b80601f01602080910402602001604051908101604052809291908181526020018280546119d49061567d565b8015611a215780601f106119f657610100808354040283529160200191611a21565b820191906000526020600020905b815481529060010190602001808311611a0457829003601f168201915b50505050508152602001600182018054611a3a9061567d565b80601f0160208091040260200160405190810160405280929190818152602001828054611a669061567d565b8015611ab35780601f10611a8857610100808354040283529160200191611ab3565b820191906000526020600020905b815481529060010190602001808311611a9657829003601f168201915b50505050508152602001600282018054611acc9061567d565b80601f0160208091040260200160405190810160405280929190818152602001828054611af89061567d565b8015611b455780601f10611b1a57610100808354040283529160200191611b45565b820191906000526020600020905b815481529060010190602001808311611b2857829003601f168201915b50505091835250506040805160c0810191829052602090920191906003840190600690826000855b82829054906101000a900460000b60000b81526020019060010190602082600001049283019260010382029150808411611b6d5750505092845250506040805161020081019182905260209093019291506004840190601090826000855b825461010083900a900460ff161515815260206001928301818104948501949093039092029101808411611bcb5790505050505050815260200160058201805480602002602001604051908101604052809291908181526020018280548015611c7157602002820191906000526020600020906000905b825461010083900a900460ff16815260206001928301818104948501949093039092029101808411611c425790505b50505091835250506040805160808082018352600685015460ff808216845261010080830482166020868101919091526201000084048316868801526301000000909304821660608087019190915292870194909452600787015494860194909452600886015490850152600985015490840152600a9093015463ffffffff80821660a08501526401000000008204831660c0850152600160281b82048316151560e085015261ffff600160301b83041694840194909452600160401b810482161515610120840152600160481b8104909116610140830152600160501b8104600190810b810b900b610160830152600160601b9004909116610180909101528251839083908110611d9357634e487b7160e01b600052603260045260246000fd5b60200260200101819052508080611da9906156b2565b91505061192f565b505b92915050565b6060611dc583836137ae565b9392505050565b6000858152600d60205260409020600a01548590600160d01b900460ff1615611e075760405162461bcd60e51b81526004016102b6906153cf565b6000868152600d60205260409020600a015486906001600160a01b0316611e2c612d1a565b6001600160a01b031614611e525760405162461bcd60e51b81526004016102b690615506565b848314611e715760405162461bcd60e51b81526004016102b69061511c565b6000878152600d60205260409020600a0154600160a01b900460ff16600314611eac5760405162461bcd60e51b81526004016102b690615237565b6000611eb6612d1a565b905060005b86811015612589576000888883818110611ee557634e487b7160e01b600052603260045260246000fd5b9050602002013590506000878784818110611f1057634e487b7160e01b600052603260045260246000fd5b9050602002013590506000806006018381548110611f3e57634e487b7160e01b600052603260045260246000fd5b90600052602060002090600b020160405180610240016040529081600082018054611f689061567d565b80601f0160208091040260200160405190810160405280929190818152602001828054611f949061567d565b8015611fe15780601f10611fb657610100808354040283529160200191611fe1565b820191906000526020600020905b815481529060010190602001808311611fc457829003601f168201915b50505050508152602001600182018054611ffa9061567d565b80601f01602080910402602001604051908101604052809291908181526020018280546120269061567d565b80156120735780601f1061204857610100808354040283529160200191612073565b820191906000526020600020905b81548152906001019060200180831161205657829003601f168201915b5050505050815260200160028201805461208c9061567d565b80601f01602080910402602001604051908101604052809291908181526020018280546120b89061567d565b80156121055780601f106120da57610100808354040283529160200191612105565b820191906000526020600020905b8154815290600101906020018083116120e857829003601f168201915b50505091835250506040805160c0810191829052602090920191906003840190600690826000855b82829054906101000a900460000b60000b8152602001906001019060208260000104928301926001038202915080841161212d5750505092845250506040805161020081019182905260209093019291506004840190601090826000855b825461010083900a900460ff16151581526020600192830181810494850194909303909202910180841161218b579050505050505081526020016005820180548060200260200160405190810160405280929190818152602001828054801561223157602002820191906000526020600020906000905b825461010083900a900460ff168152602060019283018181049485019490930390920291018084116122025790505b50505091835250506040805160808082018352600685015460ff808216845261010080830482166020868101919091526201000084048316868801526301000000909304821660608087019190915292870194909452600787015494860194909452600886015490850152600985015490840152600a9093015463ffffffff80821660a08501526401000000008204831660c0850152600160281b82048316151560e085015261ffff600160301b83041694840194909452600160401b810482161515610120840152600160481b81048216610140840152600160501b8104600190810b810b900b610160840152600160601b9004909216610180909101526101e0820151919250166002146123595760405162461bcd60e51b81526004016102b690615423565b6123648584846131a7565b600081610200015160010b13156123bd5760008c8152600d602052604081206008015461020083015161239b90859060010b61561b565b6123a591906155e3565b60008e8152600d602052604090206008015550612449565b600081610200015160010b1215612449576000826123e283610200015160010b613d97565b6123ec919061561b565b60008e8152600d60205260409020600801549091508110156124345760008d8152600d60205260408120600801805483929061242990849061563a565b909155506124479050565b60008d8152600d60205260408120600801555b505b6000805b60068110156124a2578260600151816006811061247a57634e487b7160e01b600052603260045260246000fd5b602002015160000b1561249057600191506124a2565b8061249a816156b2565b91505061244d565b5080156124ef5760008d8152600d6020526040902060098101805464ffffffffff60c81b1916600160c81b4264ffffffffff160217905560608301516124ed91600101906006614496565b505b5061022081015163ffffffff16156125485760008c8152600d602052604081206005015461022083015161252a90859063ffffffff1661561b565b61253491906155e3565b60008e8152600d6020526040902060050155505b81816101200181815161255b919061563a565b9052506125678c61366f565b506125733084876134ca565b5050508080612581906156b2565b915050611ebb565b50877fca6e8d05db81d475410e91783892397c1513d9e22b1b4dc905efd1856a8d1c25888888886040516125c09493929190614f90565b60405180910390a260525460405163319f54d560e21b81526001600160a01b039091169063c67d53549061260590849081906000908d908d908d908d90600401614c20565b600060405180830381600087803b15801561261f57600080fd5b505af1158015612633573d6000803e3d6000fd5b505050505050505050505050565b6001600160a01b0381166000908152600a60205260409020546060908067ffffffffffffffff81111561268457634e487b7160e01b600052604160045260246000fd5b6040519080825280602002602001820160405280156126bd57816020015b6126aa614527565b8152602001906001900390816126a25790505b50915060005b8181101561147d576001600160a01b0384166000908152600a6020526040812080548390811061270357634e487b7160e01b600052603260045260246000fd5b60009182526020808320909101546001600160a01b038816835260098252604080842082855290925291205485519192509085908490811061275557634e487b7160e01b600052603260045260246000fd5b602002602001015160000181815250508084838151811061278657634e487b7160e01b600052603260045260246000fd5b602090810291909101810151015260068054829081106127b657634e487b7160e01b600052603260045260246000fd5b90600052602060002090600b0201604051806102400160405290816000820180546127e09061567d565b80601f016020809104026020016040519081016040528092919081815260200182805461280c9061567d565b80156128595780601f1061282e57610100808354040283529160200191612859565b820191906000526020600020905b81548152906001019060200180831161283c57829003601f168201915b505050505081526020016001820180546128729061567d565b80601f016020809104026020016040519081016040528092919081815260200182805461289e9061567d565b80156128eb5780601f106128c0576101008083540402835291602001916128eb565b820191906000526020600020905b8154815290600101906020018083116128ce57829003601f168201915b505050505081526020016002820180546129049061567d565b80601f01602080910402602001604051908101604052809291908181526020018280546129309061567d565b801561297d5780601f106129525761010080835404028352916020019161297d565b820191906000526020600020905b81548152906001019060200180831161296057829003601f168201915b50505091835250506040805160c0810191829052602090920191906003840190600690826000855b82829054906101000a900460000b60000b815260200190600101906020826000010492830192600103820291508084116129a55750505092845250506040805161020081019182905260209093019291506004840190601090826000855b825461010083900a900460ff161515815260206001928301818104948501949093039092029101808411612a035790505050505050815260200160058201805480602002602001604051908101604052809291908181526020018280548015612aa957602002820191906000526020600020906000905b825461010083900a900460ff16815260206001928301818104948501949093039092029101808411612a7a5790505b50505091835250506040805160808082018352600685015460ff808216845261010080830482166020868101919091526201000084048316868801526301000000909304821660608087019190915292870194909452600787015494860194909452600886015490850152600985015490840152600a9093015463ffffffff80821660a08501526401000000008204831660c0850152600160281b82048316151560e085015261ffff600160301b83041694840194909452600160401b810482161515610120840152600160481b8104909116610140830152600160501b8104600190810b810b900b610160830152600160601b9004909116610180909101528451859084908110612bcb57634e487b7160e01b600052603260045260246000fd5b602002602001015160400181905250508080612be6906156b2565b9150506126c3565b60608082612c1e5783604051602001612c079190614be9565b604051602081830303815290604052915050611db3565b8260005b8115612c3657600101600a82049150612c22565b8067ffffffffffffffff811115612c5d57634e487b7160e01b600052604160045260246000fd5b6040519080825280601f01601f191660200182016040528015612c87576020820181803683370190505b50925084915060001981015b8215612cec57600a830660300160f81b84828060019003935081518110612cca57634e487b7160e01b600052603260045260246000fd5b60200101906001600160f81b031916908160001a905350600a83049250612c93565b5050508381604051602001612d02929190614bba565b60405160208183030381529060405291505092915050565b600033301415612d7157600080368080601f0160208091040260200160405190810160405280939291908181526020018383808284376000920191909152505050503601516001600160a01b03169150612d749050565b50335b90565b6000612d81613db3565b600401546001600160a01b0316919050565b6000612d9d613dd7565b6001600160a01b03861660009081526003820160209081526040808320888452825280832087845290915290205490915080831115612dee5760405162461bcd60e51b81526004016102b690615563565b612df8838261563a565b6001600160a01b0387166000908152600384016020908152604080832089845282528083208884529091529020819055905080613029576001600160a01b038616600090815260058301602090815260408083208884528252808320878452909152812054612e699060019061563a565b6001600160a01b038816600090815260048501602090815260408083208a845290915281205491925090612e9f9060019061563a565b9050808214612f8b576001600160a01b038816600090815260048501602090815260408083208a84529091528120805483908110612eed57634e487b7160e01b600052603260045260246000fd5b60009182526020808320909101546001600160a01b038c16835260048801825260408084208c85529092529120805491925061ffff83169185908110612f4357634e487b7160e01b600052603260045260246000fd5b600091825260209091200155612f5a8360016155e3565b6001600160a01b038a16600090815260058701602090815260408083208c8452825280832094835293905291909120555b6001600160a01b038816600090815260048501602090815260408083208a84529091529020805480612fcd57634e487b7160e01b600052603160045260246000fd5b6000828152602080822083016000199081018390559092019092556001600160a01b038a1680835260058701825260408084208b855283528084208a855290925290822091909155301415613026576130268787613ddc565b50505b6001600160a01b038616301480156130415750806001145b15613099576000858152600d8301602052604090208054600160401b900461ffff168514801561307c57508054600160501b900461ffff1685145b15610ecc5760405162461bcd60e51b81526004016102b69061508b565b505050505050565b60006130ab613dd7565b6001600160a01b038516600090815260098201602090815260408083208784529091528120805492935084929091906130e59084906155e3565b90915550506001600160a01b0384166000908152600b820160209081526040808320868452909152902054613160576001600160a01b0384166000818152600a830160209081526040808320805460018101825581855283852061ffff8a169101559383529254600b85018252838320878452909152919020555b50505050565b600062077a4282111561317b57506063610359565b600a61319061318b84600261561b565b613e73565b61319a91906155fb565b90506103568160016155e3565b60006131b1613dd7565b6001600160a01b03851660009081526009820160209081526040808320878452909152902054909150808311156131fa5760405162461bcd60e51b81526004016102b6906154ba565b613204838261563a565b6001600160a01b0386166000908152600984016020908152604080832088845290915290208190559050806133e0576001600160a01b0385166000908152600b8301602090815260408083208784529091528120546132659060019061563a565b6001600160a01b0387166000908152600a85016020526040812054919250906132909060019061563a565b905080821461336b576001600160a01b0387166000908152600a8501602052604081208054839081106132d357634e487b7160e01b600052603260045260246000fd5b906000526020600020015490508061ffff1685600a0160008a6001600160a01b03166001600160a01b03168152602001908152602001600020848154811061332b57634e487b7160e01b600052603260045260246000fd5b6000918252602090912001556133428360016155e3565b6001600160a01b0389166000908152600b87016020908152604080832094835293905291909120555b6001600160a01b0387166000908152600a8501602052604090208054806133a257634e487b7160e01b600052603160045260246000fd5b6000828152602080822083016000199081018390559092019092556001600160a01b0389168252600b86018152604080832089845290915281205550505b5050505050565b60006133f1613dd7565b6001600160a01b0386166000908152600382016020908152604080832088845282528083208784529091528120805492935084929091906134339084906155e3565b90915550506001600160a01b0385166000908152600582016020908152604080832087845282528083208684529091529020546133e0576001600160a01b038516600081815260048301602090815260408083208884528252808320805460018101825581855283852061ffff8a169101555493835260058501825280832088845282528083208784529091529020555050505050565b60006134d4613dd7565b6001600160a01b038086166000908152602f83016020908152604080832088845282528083209387168352929052205490915080613513575050610650565b6000818152602a830160205260409020600781015415806135435750600a81015460ff6101009091041615156001145b806135575750600a81015460ff1615156001145b1561356457505050610650565b6005810154801561365157600282015460018301546003840154604051627eeac760e11b81526001600160a01b039384169362fdd58e936135aa93911691600401614caa565b60206040518083038186803b1580156135c257600080fd5b505afa1580156135d6573d6000803e3d6000fd5b505050506040513d601f19601f820116820180604052508101906135fa9190614813565b905081600501548110156136515760058201819055600682015460405184917f9a1e053d28c2efc6add1e4a5d1647a99e883b256a54f9ef4a0abf8fcba643a559161364891859142906155cd565b60405180910390a25b80610ecc576001820154610ecc9084906001600160a01b0316613ecc565b60008061367a613dd7565b6000848152600d820160205260409020600a0154909150600160a81b900464ffffffffff166136ab8161a8c06155e3565b4210156136bd57600092505050610359565b6000848152600d83016020526040812060080154906136dc834261563a565b905060006136ed62015180836155fb565b905060008184111561370657613703828561563a565b90505b60006028821015613715575060025b6137208160016155e3565b61372a90836155e3565b60008a8152600d890160205260409081902060088101839055600a01805464ffffffffff60a81b1916600160a81b4264ffffffffff16021790555190925089907ff1d9052616249588931b528467a23298d0d5a51136a364bb273a883a5c49cda590613797908590615006565b60405180910390a250600198975050505050505050565b606060006137ba613dd7565b6001600160a01b038516600090815260048201602090815260408083208784529091529020549091508067ffffffffffffffff81111561380a57634e487b7160e01b600052604160045260246000fd5b60405190808252806020026020018201604052801561384357816020015b613830614527565b8152602001906001900390816138285790505b50925060005b81811015613d8e576001600160a01b03861660009081526004840160209081526040808320888452909152812080548390811061389657634e487b7160e01b600052603260045260246000fd5b60009182526020808320909101546001600160a01b038a16835260038701825260408084208a8552835280842082855290925291205486519192509082908790859081106138f457634e487b7160e01b600052603260045260246000fd5b602002602001015160200181815250508086848151811061392557634e487b7160e01b600052603260045260246000fd5b6020908102919091010151526006850180548390811061395557634e487b7160e01b600052603260045260246000fd5b90600052602060002090600b02016040518061024001604052908160008201805461397f9061567d565b80601f01602080910402602001604051908101604052809291908181526020018280546139ab9061567d565b80156139f85780601f106139cd576101008083540402835291602001916139f8565b820191906000526020600020905b8154815290600101906020018083116139db57829003601f168201915b50505050508152602001600182018054613a119061567d565b80601f0160208091040260200160405190810160405280929190818152602001828054613a3d9061567d565b8015613a8a5780601f10613a5f57610100808354040283529160200191613a8a565b820191906000526020600020905b815481529060010190602001808311613a6d57829003601f168201915b50505050508152602001600282018054613aa39061567d565b80601f0160208091040260200160405190810160405280929190818152602001828054613acf9061567d565b8015613b1c5780601f10613af157610100808354040283529160200191613b1c565b820191906000526020600020905b815481529060010190602001808311613aff57829003601f168201915b50505091835250506040805160c0810191829052602090920191906003840190600690826000855b82829054906101000a900460000b60000b81526020019060010190602082600001049283019260010382029150808411613b445750505092845250506040805161020081019182905260209093019291506004840190601090826000855b825461010083900a900460ff161515815260206001928301818104948501949093039092029101808411613ba25790505050505050815260200160058201805480602002602001604051908101604052809291908181526020018280548015613c4857602002820191906000526020600020906000905b825461010083900a900460ff16815260206001928301818104948501949093039092029101808411613c195790505b50505091835250506040805160808082018352600685015460ff808216845261010080830482166020868101919091526201000084048316868801526301000000909304821660608087019190915292870194909452600787015494860194909452600886015490850152600985015490840152600a9093015463ffffffff80821660a08501526401000000008204831660c0850152600160281b82048316151560e085015261ffff600160301b83041694840194909452600160401b810482161515610120840152600160481b8104909116610140830152600160501b8104600190810b810b900b610160830152600160601b9004909116610180909101528651879085908110613d6a57634e487b7160e01b600052603260045260246000fd5b60200260200101516040018190525050508080613d86906156b2565b915050613849565b50505092915050565b600080821215613daf57613daa826156cd565b610356565b5090565b7fc8fcad8db84d3cc18b4c41d551ea0ee66dd599cde068d998e57d5e09332c131c90565b600090565b6000613de6613dd7565b905060005b6010811015613160576000848152600d83016020526040902083908260108110613e2557634e487b7160e01b600052603260045260246000fd5b601091828204019190066002029054906101000a900461ffff1661ffff161415613e615760405162461bcd60e51b81526004016102b690615334565b80613e6b816156b2565b915050613deb565b6000806002613e838460016155e3565b613e8d91906155fb565b90508291505b81811015613ec657905080600281613eab81866155fb565b613eb591906155e3565b613ebf91906155fb565b9050613e93565b50919050565b6000613ed6613dd7565b9050600081602c01604051613eea90614c0e565b908152602001604051809103902060008581526020019081526020016000209050806001015460001415613f1f575050613fed565b6000848152602a830160205260409020600a81015460ff61010090910416151560011480613f565750600a81015460ff1615156001145b15613f6357505050613fed565b60018101546001600160a01b03858116911614613f925760405162461bcd60e51b81526004016102b690615200565b600a8101805461ff001916610100179055600481015460405186917fc1ee70d4dadc0ea8041f31f81b07d0ac9374b6bf41956d9cae562e672f3f8a9191613fdb919043906155bf565b60405180910390a26133e08585613ff1565b5050565b6000613ffb613dd7565b9050600081602c0160405161400f90614c0e565b908152602001604051809103902060008581526020019081526020016000209050806001015460001415614044575050613fed565b8054801561408357600083602c0160405161405e90614c0e565b9081526040805160209281900383019020600085815292529020600284810154910155505b600282015480156140c057600084602c016040516140a090614c0e565b908152604080516020928190038301902060008581529252902084549055505b6000868152602a85016020908152604080832060048101548452602b8801909252918290209151909188916140f490614c0e565b908152602001604051809103902054141561414157600284015460048201546000908152602b8701602052604090819020905161413090614c0e565b908152604051908190036020019020555b6000600185018190558085556002850155604051602e86019061416390614c0e565b908152604080516020928190038301902060008a8152925290208054909450925082156141c157600085602e0160405161419c90614c0e565b9081526040805160209281900383019020600087815292529020600286810154910155505b60028401549150811561420057600085602e016040516141e090614c0e565b908152604080516020928190038301902060008681529252902085549055505b506000868152602a8501602090815260408083206001600160a01b0389168452602d88018352818420600482015485529092529182902091519091889161424690614c0e565b90815260200160405180910390205414156142a75760028401546001600160a01b0387166000908152602d8701602090815260408083206004860154845290915290819020905161429690614c0e565b908152604051908190036020019020555b60006001850181905580855560028086018290558201546001600160a01b039081168252602f870160209081526040808420600386015485528252808420928a168452919052808220919091556004820154905188917f276ac39b0f98215592b4487434c1618e3e527c57ca2f471ac93eb4eab16940919161432b919042906155bf565b60405180910390a250505050505050565b6040518061020001604052806010906020820280368337509192915050565b8280546143679061567d565b90600052602060002090601f01602090048101928261438957600085556143cf565b82601f106143a257805160ff19168380011785556143cf565b828001600101855582156143cf579182015b828111156143cf5782518255916020019190600101906143b4565b50613daf92915061454d565b604051806040016040528060008152602001600081525090565b60405180610240016040528060608152602001606081526020016060815260200161441e614562565b815260200161442b61433c565b81526020016060815260200161443f614580565b815260006020820181905260408201819052606082018190526080820181905260a0820181905260c0820181905260e082018190526101008201819052610120820181905261014082018190526101609091015290565b6001830191839082156143cf5791602002820160005b838211156144ed57835183826101000a81548160ff021916908360000b60ff16021790555092602001926001016020816000010492830192600103026144ac565b801561451a5782816101000a81549060ff02191690556001016020816000010492830192600103026144ed565b5050613daf92915061454d565b604051806060016040528060008152602001600081526020016145486143f5565b905290565b5b80821115613daf576000815560010161454e565b6040518060c001604052806006906020820280368337509192915050565b60408051608081018252600080825260208201819052918101829052606081019190915290565b80356001600160a01b038116811461035957600080fd5b60008083601f8401126145cf578081fd5b50813567ffffffffffffffff8111156145e6578182fd5b602083019150836020808302850101111561460057600080fd5b9250929050565b803561ffff8116811461035957600080fd5b60006020828403121561462a578081fd5b611dc5826145a7565b60008060408385031215614645578081fd5b61464e836145a7565b946020939093013593505050565b600080600060608486031215614670578081fd5b614679846145a7565b95602085013595506040909401359392505050565b600080600080604085870312156146a3578081fd5b843567ffffffffffffffff808211156146ba578283fd5b6146c6888389016145be565b909650945060208701359150808211156146de578283fd5b506146eb878288016145be565b95989497509550505050565b60008060208385031215614709578182fd5b823567ffffffffffffffff81111561471f578283fd5b61472b858286016145be565b90969095509350505050565b600060208284031215614748578081fd5b813567ffffffffffffffff8082111561475f578283fd5b818401915084601f830112614772578283fd5b813581811115614784576147846156fd565b604051601f8201601f19908116603f011681019083821181831017156147ac576147ac6156fd565b816040528281528760208487010111156147c4578586fd5b826020860160208301379182016020019490945295945050505050565b6000602082840312156147f2578081fd5b611dc582614607565b60006020828403121561480c578081fd5b5035919050565b600060208284031215614824578081fd5b5051919050565b60008061022080848603121561483f578283fd5b83359250848185011115614851578182fd5b506020830190509250929050565b600080600080600060608688031215614876578081fd5b85359450602086013567ffffffffffffffff80821115614894578283fd5b6148a089838a016145be565b909650945060408801359150808211156148b8578283fd5b506148c5888289016145be565b969995985093965092949392505050565b8060005b601081101561316057815115158452602093840193909101906001016148da565b806000805b60068110156133e0578251820b855260209485019490920191600101614900565b8060005b60108110156131605761ffff61493a83614607565b1684526020938401939190910190600101614925565b81835260006001600160fb1b03831115614968578081fd5b6020830280836020870137939093016020019283525090919050565b6000815180845260208085019450808401835b838110156149b657815160ff1687529582019590820190600101614997565b509495945050505050565b15159052565b60010b9052565b600081518084526149e6816020860160208601615651565b601f01601f19169290920160200192915050565b60ff815116825260ff602082015116602083015260ff604082015116604083015260ff60608201511660608301525050565b60006105208251818552614a42828601826149ce565b91505060208301518482036020860152614a5c82826149ce565b91505060408301518482036040860152614a7682826149ce565b9150506060830151614a8b60608601826148fb565b506080830151610120614aa0818701836148d6565b60a08501519150858303610320870152614aba8383614984565b925060c08501519150614ad16103408701836149fa565b60e08501516103c08701526101008501516103e087015284015161040086015250610140830151614b06610420860182614ba9565b50610160830151614b1b610440860182614bb3565b50610180830151614b306104608601826149c1565b506101a0830151614b45610480860182614ba1565b506101c0830151614b5a6104a08601826149c1565b506101e0830151614b6f6104c0860182614bb3565b50610200830151614b846104e08601826149c7565b50610220830151614b99610500860182614ba9565b509392505050565b61ffff169052565b63ffffffff169052565b60ff169052565b60008351614bcc818460208801615651565b835190830190614be0818360208801615651565b01949350505050565b60008251614bfb818460208701615651565b600360fc1b920191825250600101919050565b651b1a5cdd195960d21b815260060190565b6001600160a01b03888116825287811660208301528616604082015260a060608201819052600090614c559083018688614950565b8281036080840152614c68818587614950565b9a9950505050505050505050565b6001600160a01b03958616815293851660208501529190931660408301526060820192909252608081019190915260a00190565b6001600160a01b03929092168252602082015260400190565b602080825282518282018190526000919060409081850190868401855b82811015614d0557815180518552860151868501529284019290850190600101614ce0565b5091979650505050505050565b60208082528251828201819052600091906040908185019080840286018301878501865b83811015614d8057888303603f1901855281518051845287810151888501528601516060878501819052614d6c81860183614a2c565b968901969450505090860190600101614d36565b509098975050505050505050565b6000602080830181845280855180835260408601915060408482028701019250838701855b82811015614de157603f19888603018452614dcf858351614a2c565b94509285019290850190600101614db3565b5092979650505050505050565b6102008101818360005b6010811015613d8e57815161ffff16835260209283019290910190600101614df8565b6104008101818460005b601080600f830110614e375750614f7f565b825461ffff614e4886828416614ba1565b6020614e5a8188018385871c16614ba1565b60409350614e6e8488018385841c16614ba1565b506060614e82818801838560301c16614ba1565b6080614e948189018486881c16614ba1565b60a09450614ea9858901848660501c16614ba1565b60c0614ebb818a018587861c16614ba1565b60e09250614ed0838a01858760701c16614ba1565b614ee26101008a018587851c16614ba1565b614ef56101208a01858760901c16614ba1565b614f076101408a018587891c16614ba1565b614f1a6101608a01858760b01c16614ba1565b614f2c6101808a018587841c16614ba1565b5050614f416101a08801838560d01c16614ba1565b614f536101c088018385841c16614ba1565b5050614f666101e086018260f01c614ba1565b5050610200929092019160019190910190601001614e25565b505050611dc5610200830184614921565b600060408252614fa4604083018688614950565b8281036020840152614fb7818587614950565b979650505050505050565b6020808252825182820181905260009190848201906040850190845b81811015614ffa57835183529284019291840191600101614fde565b50909695505050505050565b90815260200190565b600060208252611dc560208301846149ce565b60006040825261503560408301856149ce565b90508260208301529392505050565b60208082526027908201527f4974656d7346616365743a205765617261626c652069736e277420696e20696e60408201526676656e746f727960c81b606082015260800190565b60208082526029908201527f4c69624974656d733a2043616e277420686f6c642031206974656d20696e20626040820152686f74682068616e647360b81b606082015260800190565b60208082526028908201527f4974656d7346616365743a204147206c6576656c206c6f776572207468616e206040820152671b5a5b93195d995b60c21b606082015260800190565b60208082526031908201527f4974656d7346616365743a205f6974656d496473206c656e67746820213d205f6040820152700e2eac2dce8d2e8d2cae640d8cadccee8d607b1b606082015260800190565b60208082526021908201527f4c696241707053746f726167653a20446f206e6f7420686176652061636365736040820152607360f81b606082015260800190565b60208082526032908201527f4974656d7346616365743a205f6f776e657273206c656e677468206e6f7420736040820152710c2daca40c2e640bed2c8e640d8cadccee8d60731b606082015260800190565b6020808252601d908201527f4d61726b6574706c6163653a206f776e6572206e6f742073656c6c6572000000604082015260600190565b6020808252818101527f4c696241617665676f746368693a204f6e6c792076616c696420666f72204147604082015260600190565b6020808252602e908201527f4974656d7346616365743a205765617261626c652063616e277420626520657160408201526d1d5a5c1c1959081a5b881cdb1bdd60921b606082015260800190565b6020808252601e908201527f4974656d7346616365743a204974656d205f6964206e6f7420666f756e640000604082015260600190565b60208082526023908201527f4974656d7346616365743a204974656d207479706520646f65736e27742065786040820152621a5cdd60ea1b606082015260800190565b60208082526030908201527f4974656d733a2043616e6e6f74207472616e73666572207765617261626c652060408201526f1d1a185d081a5cc8195c5d5a5c1c195960821b606082015260800190565b6020808252602b908201527f4974656d7346616365743a204f6e6c79207765617261626c65732063616e206260408201526a1948195c5d5a5c1c1c195960aa1b606082015260800190565b60208082526034908201527f4c696241707053746f726167653a204f6e6c792063616c6c61626c65206f6e20604082015273756e6c6f636b65642041617665676f746368697360601b606082015260800190565b60208082526021908201527f4974656d7346616365743a204974656d2069736e277420636f6e73756d61626c6040820152606560f81b606082015260800190565b60208082526036908201527f4974656d7346616365743a205765617261626c652063616e2774206265207573604082015275195908199bdc881d1a1a5cc818dbdb1b185d195c985b60521b606082015260800190565b6020808252602c908201527f4c69624974656d733a20446f65736e277420686176652074686174206d616e7960408201526b103a37903a3930b739b332b960a11b606082015260800190565b6020808252603b908201527f4c696241707053746f726167653a204f6e6c792061617665676f74636869206f60408201527f776e65722063616e2063616c6c20746869732066756e6374696f6e0000000000606082015260800190565b60208082526029908201527f4974656d733a20446f65736e277420686176652074686174206d616e7920746f604082015268103a3930b739b332b960b91b606082015260800190565b600060208252611dc56020830184614a2c565b918252602082015260400190565b9283526020830191909152604082015260600190565b600082198211156155f6576155f66156e7565b500190565b60008261561657634e487b7160e01b81526012600452602481fd5b500490565b6000816000190483118215151615615635576156356156e7565b500290565b60008282101561564c5761564c6156e7565b500390565b60005b8381101561566c578181015183820152602001615654565b838111156131605750506000910152565b60028104600182168061569157607f821691505b60208210811415613ec657634e487b7160e01b600052602260045260246000fd5b60006000198214156156c6576156c66156e7565b5060010190565b6000600160ff1b8214156156e3576156e36156e7565b0390565b634e487b7160e01b600052601160045260246000fd5b634e487b7160e01b600052604160045260246000fdfea2646970667358221220e2a78293bd02b0ab3615ffd5519ffd6180596deae72a769db927276353af487a64736f6c63430008010033",
  "linkReferences": {},
  "deployedLinkReferences": {}
}