{
  "_format": "hh-sol-artifact-1",
  "contractName": "ItemsTransferFacet",
  "sourceName": "contracts/Aavegotchi/facets/ItemsTransferFacet.sol",
  "abi": [
    {
      "inputs": [
        {
          "internalType": "address",
          "name": "_from",
          "type": "address"
        },
        {
          "internalType": "address",
          "name": "_toContract",
          "type": "address"
        },
        {
          "internalType": "uint256[]",
          "name": "_toTokenIds",
          "type": "uint256[]"
        },
        {
          "internalType": "uint256[][]",
          "name": "_ids",
          "type": "uint256[][]"
        },
        {
          "internalType": "uint256[][]",
          "name": "_values",
          "type": "uint256[][]"
        }
      ],
      "name": "batchBatchTransferToParent",
      "outputs": [],
      "stateMutability": "nonpayable",
      "type": "function"
    },
    {
      "inputs": [
        {
          "internalType": "address",
          "name": "_fromContract",
          "type": "address"
        },
        {
          "internalType": "uint256",
          "name": "_fromTokenId",
          "type": "uint256"
        },
        {
          "internalType": "address",
          "name": "_toContract",
          "type": "address"
        },
        {
          "internalType": "uint256",
          "name": "_toTokenId",
          "type": "uint256"
        },
        {
          "internalType": "uint256[]",
          "name": "_ids",
          "type": "uint256[]"
        },
        {
          "internalType": "uint256[]",
          "name": "_values",
          "type": "uint256[]"
        }
      ],
      "name": "batchTransferAsChild",
      "outputs": [],
      "stateMutability": "nonpayable",
      "type": "function"
    },
    {
      "inputs": [
        {
          "internalType": "address",
          "name": "_fromContract",
          "type": "address"
        },
        {
          "internalType": "uint256",
          "name": "_fromTokenId",
          "type": "uint256"
        },
        {
          "internalType": "address",
          "name": "_to",
          "type": "address"
        },
        {
          "internalType": "uint256[]",
          "name": "_ids",
          "type": "uint256[]"
        },
        {
          "internalType": "uint256[]",
          "name": "_values",
          "type": "uint256[]"
        }
      ],
      "name": "batchTransferFromParent",
      "outputs": [],
      "stateMutability": "nonpayable",
      "type": "function"
    },
    {
      "inputs": [
        {
          "internalType": "address",
          "name": "_from",
          "type": "address"
        },
        {
          "internalType": "address",
          "name": "_toContract",
          "type": "address"
        },
        {
          "internalType": "uint256",
          "name": "_toTokenId",
          "type": "uint256"
        },
        {
          "internalType": "uint256[]",
          "name": "_ids",
          "type": "uint256[]"
        },
        {
          "internalType": "uint256[]",
          "name": "_values",
          "type": "uint256[]"
        }
      ],
      "name": "batchTransferToParent",
      "outputs": [],
      "stateMutability": "nonpayable",
      "type": "function"
    },
    {
      "inputs": [
        {
          "internalType": "address",
          "name": "_to",
          "type": "address"
        },
        {
          "internalType": "uint256[]",
          "name": "_itemIds",
          "type": "uint256[]"
        },
        {
          "internalType": "uint256[]",
          "name": "_values",
          "type": "uint256[]"
        }
      ],
      "name": "extractItemsFromDiamond",
      "outputs": [],
      "stateMutability": "nonpayable",
      "type": "function"
    },
    {
      "inputs": [
        {
          "internalType": "address",
          "name": "_to",
          "type": "address"
        },
        {
          "internalType": "uint256",
          "name": "_tokenId",
          "type": "uint256"
        },
        {
          "internalType": "uint256[]",
          "name": "_itemIds",
          "type": "uint256[]"
        },
        {
          "internalType": "uint256[]",
          "name": "_values",
          "type": "uint256[]"
        }
      ],
      "name": "extractItemsFromSacrificedGotchi",
      "outputs": [],
      "stateMutability": "nonpayable",
      "type": "function"
    },
    {
      "inputs": [
        {
          "internalType": "address",
          "name": "",
          "type": "address"
        },
        {
          "internalType": "address",
          "name": "",
          "type": "address"
        },
        {
          "internalType": "uint256[]",
          "name": "",
          "type": "uint256[]"
        },
        {
          "internalType": "uint256[]",
          "name": "",
          "type": "uint256[]"
        },
        {
          "internalType": "bytes",
          "name": "",
          "type": "bytes"
        }
      ],
      "name": "onERC1155BatchReceived",
      "outputs": [
        {
          "internalType": "bytes4",
          "name": "",
          "type": "bytes4"
        }
      ],
      "stateMutability": "pure",
      "type": "function"
    },
    {
      "inputs": [
        {
          "internalType": "address",
          "name": "",
          "type": "address"
        },
        {
          "internalType": "address",
          "name": "",
          "type": "address"
        },
        {
          "internalType": "uint256",
          "name": "",
          "type": "uint256"
        },
        {
          "internalType": "uint256",
          "name": "",
          "type": "uint256"
        },
        {
          "internalType": "bytes",
          "name": "",
          "type": "bytes"
        }
      ],
      "name": "onERC1155Received",
      "outputs": [
        {
          "internalType": "bytes4",
          "name": "",
          "type": "bytes4"
        }
      ],
      "stateMutability": "pure",
      "type": "function"
    },
    {
      "inputs": [
        {
          "internalType": "address",
          "name": "_from",
          "type": "address"
        },
        {
          "internalType": "address",
          "name": "_to",
          "type": "address"
        },
        {
          "internalType": "uint256[]",
          "name": "_ids",
          "type": "uint256[]"
        },
        {
          "internalType": "uint256[]",
          "name": "_values",
          "type": "uint256[]"
        },
        {
          "internalType": "bytes",
          "name": "_data",
          "type": "bytes"
        }
      ],
      "name": "safeBatchTransferFrom",
      "outputs": [],
      "stateMutability": "nonpayable",
      "type": "function"
    },
    {
      "inputs": [
        {
          "internalType": "address",
          "name": "_from",
          "type": "address"
        },
        {
          "internalType": "address",
          "name": "_to",
          "type": "address"
        },
        {
          "internalType": "uint256",
          "name": "_id",
          "type": "uint256"
        },
        {
          "internalType": "uint256",
          "name": "_value",
          "type": "uint256"
        },
        {
          "internalType": "bytes",
          "name": "_data",
          "type": "bytes"
        }
      ],
      "name": "safeTransferFrom",
      "outputs": [],
      "stateMutability": "nonpayable",
      "type": "function"
    },
    {
      "inputs": [
        {
          "internalType": "address",
          "name": "_fromContract",
          "type": "address"
        },
        {
          "internalType": "uint256",
          "name": "_fromTokenId",
          "type": "uint256"
        },
        {
          "internalType": "address",
          "name": "_toContract",
          "type": "address"
        },
        {
          "internalType": "uint256",
          "name": "_toTokenId",
          "type": "uint256"
        },
        {
          "internalType": "uint256",
          "name": "_id",
          "type": "uint256"
        },
        {
          "internalType": "uint256",
          "name": "_value",
          "type": "uint256"
        }
      ],
      "name": "transferAsChild",
      "outputs": [],
      "stateMutability": "nonpayable",
      "type": "function"
    },
    {
      "inputs": [
        {
          "internalType": "address",
          "name": "_fromContract",
          "type": "address"
        },
        {
          "internalType": "uint256",
          "name": "_fromTokenId",
          "type": "uint256"
        },
        {
          "internalType": "address",
          "name": "_to",
          "type": "address"
        },
        {
          "internalType": "uint256",
          "name": "_id",
          "type": "uint256"
        },
        {
          "internalType": "uint256",
          "name": "_value",
          "type": "uint256"
        }
      ],
      "name": "transferFromParent",
      "outputs": [],
      "stateMutability": "nonpayable",
      "type": "function"
    },
    {
      "inputs": [
        {
          "internalType": "address",
          "name": "_from",
          "type": "address"
        },
        {
          "internalType": "address",
          "name": "_toContract",
          "type": "address"
        },
        {
          "internalType": "uint256",
          "name": "_toTokenId",
          "type": "uint256"
        },
        {
          "internalType": "uint256",
          "name": "_id",
          "type": "uint256"
        },
        {
          "internalType": "uint256",
          "name": "_value",
          "type": "uint256"
        }
      ],
      "name": "transferToParent",
      "outputs": [],
      "stateMutability": "nonpayable",
      "type": "function"
    }
  ],
  "bytecode": "0x608060405234801561001057600080fd5b50613491806100206000396000f3fe608060405234801561001057600080fd5b50600436106100cf5760003560e01c80636a8926e81161008c578063bc197c8111610066578063bc197c8114610181578063ea69aae2146101aa578063f23a6e61146101bd578063f242432a146101d0576100cf565b80636a8926e8146101485780636c71c40b1461015b5780636f5fd0141461016e576100cf565b80631e92e2f4146100d4578063271a6c59146100e95780632eb2c2d6146100fc5780633936b8d21461010f5780633c3b3c00146101225780634d11f02e14610135575b600080fd5b6100e76100e2366004612bcc565b6101e3565b005b6100e76100f7366004612b20565b6103c5565b6100e761010a366004612793565b610519565b6100e761011d366004612950565b610722565b6100e76101303660046126d8565b61086a565b6100e7610143366004612b71565b61099d565b6100e7610156366004612a9c565b610b24565b6100e7610169366004612a20565b610d49565b6100e761017c3660046129a0565b610f3b565b61019461018f366004612793565b611095565b6040516101a19190612e8a565b60405180910390f35b6100e76101b836600461283a565b6110a9565b6101946101cb3660046128d6565b611261565b6100e76101de3660046128d6565b611273565b60006101ed6113f1565b6001600160a01b0381166000908152603b602052604090205490915060ff1615156001146102365760405162461bcd60e51b815260040161022d906131a9565b60405180910390fd5b60006102406113f1565b6000888152600d60205260409020600a810154919250906001600160a01b03161561027d5760405162461bcd60e51b815260040161022d90613075565b60005b868110156103b95760008888838181106102aa57634e487b7160e01b600052603260045260246000fd5b90506020020135905060008787848181106102d557634e487b7160e01b600052603260045260246000fd5b9050602002013590506102ea308c848461144e565b6102f58c8383611761565b818b866001600160a01b031660008051602061341c8339815191528460405161031e919061332f565b60405180910390a4600060520160009054906101000a90046001600160a01b03166001600160a01b031663e82b15f486308f86866040518663ffffffff1660e01b8152600401610372959493929190612da4565b600060405180830381600087803b15801561038c57600080fd5b505af11580156103a0573d6000803e3d6000fd5b50505050505080806103b1906133d2565b915050610280565b50505050505050505050565b6001600160a01b0383166103eb5760405162461bcd60e51b815260040161022d906132e5565b600680548390811061040d57634e487b7160e01b600052603260045260246000fd5b90600052602060002090600b0201600a0160089054906101000a900460ff166104485760405162461bcd60e51b815260040161022d906130b7565b60006104526113f1565b905061045f818787611826565b61046b8686858561144e565b610476848484611761565b605254604051633a0ac57d60e21b81526001600160a01b039091169063e82b15f4906104ae9084908a90899089908990600401612da4565b600060405180830381600087803b1580156104c857600080fd5b505af11580156104dc573d6000803e3d6000fd5b505050508285876001600160a01b031660008051602061341c83398151915285604051610509919061332f565b60405180910390a4505050505050565b6001600160a01b03871661053f5760405162461bcd60e51b815260040161022d906132e5565b84831461055e5760405162461bcd60e51b815260040161022d90612efc565b60006105686113f1565b9050886001600160a01b0316816001600160a01b031614806105af57506001600160a01b03808a1660009081526012602090815260408083209385168352929052205460ff165b6105cb5760405162461bcd60e51b815260040161022d90613154565b60005b868110156106625760008888838181106105f857634e487b7160e01b600052603260045260246000fd5b905060200201359050600087878481811061062357634e487b7160e01b600052603260045260246000fd5b9050602002013590506106378c8383611ada565b6106428b8383611761565b61064d30838e611d1a565b5050808061065a906133d2565b9150506105ce565b5060525460405163319f54d560e21b81526001600160a01b039091169063c67d53549061069f9084908d908d908d908d908d908d90600401612d4e565b600060405180830381600087803b1580156106b957600080fd5b505af11580156106cd573d6000803e3d6000fd5b50505050610717818a8a8a8a8a8a8a8a8080601f016020809104026020016040519081016040528093929190818152602001838380828437600092019190915250611ebf92505050565b505050505050505050565b6001600160a01b0384166107485760405162461bcd60e51b815260040161022d906132e5565b60006107526113f1565b9050856001600160a01b0316816001600160a01b0316148061079957506001600160a01b0380871660009081526012602090815260408083209385168352929052205460ff165b6107b55760405162461bcd60e51b815260040161022d90613154565b6107c0868484611ada565b6107cc85858585611f80565b6107d7308488611d1a565b605254604051633a0ac57d60e21b81526001600160a01b039091169063e82b15f49061080f9084908a908a9089908990600401612da4565b600060405180830381600087803b15801561082957600080fd5b505af115801561083d573d6000803e3d6000fd5b505050508284866001600160a01b031660008051602061343c83398151915285604051610509919061332f565b6001600160a01b0387166108905760405162461bcd60e51b815260040161022d906132e5565b8483146108af5760405162461bcd60e51b815260040161022d90613018565b8281146108ce5760405162461bcd60e51b815260040161022d90612e9f565b60005b858110156107175760008787838181106108fb57634e487b7160e01b600052603260045260246000fd5b90506020020135905036600087878581811061092757634e487b7160e01b600052603260045260246000fd5b9050602002810190610939919061335c565b9150915036600087878781811061096057634e487b7160e01b600052603260045260246000fd5b9050602002810190610972919061335c565b915091506109858e8e87878787876110a9565b50505050508080610995906133d2565b9150506108d1565b6001600160a01b0384166109c35760405162461bcd60e51b815260040161022d906132e5565b60068054839081106109e557634e487b7160e01b600052603260045260246000fd5b90600052602060002090600b0201600a0160089054906101000a900460ff16610a205760405162461bcd60e51b815260040161022d906130b7565b6000610a2a6113f1565b9050610a37818888611826565b610a438787858561144e565b610a4f85858585611f80565b605254604051633a0ac57d60e21b81526001600160a01b039091169063e82b15f490610a879084908b908a9089908990600401612da4565b600060405180830381600087803b158015610aa157600080fd5b505af1158015610ab5573d6000803e3d6000fd5b505050508286886001600160a01b031660008051602061341c83398151915285604051610ae2919061332f565b60405180910390a48284866001600160a01b031660008051602061343c83398151915285604051610b13919061332f565b60405180910390a450505050505050565b828114610b435760405162461bcd60e51b815260040161022d90612e9f565b6001600160a01b038616610b695760405162461bcd60e51b815260040161022d906132e5565b6000610b736113f1565b9050610b80818a8a611826565b60005b84811015610ccf576000868683818110610bad57634e487b7160e01b600052603260045260246000fd5b9050602002013590506000858584818110610bd857634e487b7160e01b600052603260045260246000fd5b90506020020135905060006006018281548110610c0557634e487b7160e01b600052603260045260246000fd5b90600052602060002090600b0201600a0160089054906101000a900460ff16610c405760405162461bcd60e51b815260040161022d906130b7565b610c4c8c8c848461144e565b610c588a8a8484611f80565b818b8d6001600160a01b031660008051602061341c83398151915284604051610c81919061332f565b60405180910390a481898b6001600160a01b031660008051602061343c83398151915284604051610cb2919061332f565b60405180910390a450508080610cc7906133d2565b915050610b83565b5060525460405163319f54d560e21b81526001600160a01b039091169063c67d535490610d0c9084908d908c908b908b908b908b90600401612d4e565b600060405180830381600087803b158015610d2657600080fd5b505af1158015610d3a573d6000803e3d6000fd5b50505050505050505050505050565b828114610d685760405162461bcd60e51b815260040161022d90612e9f565b6001600160a01b038516610d8e5760405162461bcd60e51b815260040161022d906132e5565b6000610d986113f1565b9050610da5818989611826565b60005b84811015610ec2576000868683818110610dd257634e487b7160e01b600052603260045260246000fd5b9050602002013590506000858584818110610dfd57634e487b7160e01b600052603260045260246000fd5b90506020020135905060006006018281548110610e2a57634e487b7160e01b600052603260045260246000fd5b90600052602060002090600b0201600a0160089054906101000a900460ff16610e655760405162461bcd60e51b815260040161022d906130b7565b610e718b8b848461144e565b610e7c898383611761565b818a8c6001600160a01b031660008051602061341c83398151915284604051610ea5919061332f565b60405180910390a450508080610eba906133d2565b915050610da8565b5060525460405163319f54d560e21b81526001600160a01b039091169063c67d535490610eff9084908c908b908b908b908b908b90600401612d4e565b600060405180830381600087803b158015610f1957600080fd5b505af1158015610f2d573d6000803e3d6000fd5b505050505050505050505050565b6000610f456113f1565b6001600160a01b0381166000908152603b602052604090205490915060ff161515600114610f855760405162461bcd60e51b815260040161022d906131a9565b6000610f8f6113f1565b905060005b8581101561101d576000878783818110610fbe57634e487b7160e01b600052603260045260246000fd5b9050602002013590506000868684818110610fe957634e487b7160e01b600052603260045260246000fd5b905060200201359050610ffd308383611ada565b6110088a8383611761565b50508080611015906133d2565b915050610f94565b5060525460405163319f54d560e21b81526001600160a01b039091169063c67d53549061105a908490309082908c908c908c908c90600401612d4e565b600060405180830381600087803b15801561107457600080fd5b505af1158015611088573d6000803e3d6000fd5b5050505050505050505050565b63bc197c8160e01b98975050505050505050565b6001600160a01b0386166110cf5760405162461bcd60e51b815260040161022d906132e5565b8281146110ee5760405162461bcd60e51b815260040161022d90612e9f565b60006110f86113f1565b9050876001600160a01b0316816001600160a01b0316148061113f57506001600160a01b0380891660009081526012602090815260408083209385168352929052205460ff165b61115b5760405162461bcd60e51b815260040161022d90613154565b60005b8481101561122457600086868381811061118857634e487b7160e01b600052603260045260246000fd5b90506020020135905060008585848181106111b357634e487b7160e01b600052603260045260246000fd5b9050602002013590506111c78b8383611ada565b6111d38a8a8484611f80565b6111de30838d611d1a565b81898b6001600160a01b031660008051602061343c83398151915284604051611207919061332f565b60405180910390a45050808061121c906133d2565b91505061115e565b5060525460405163319f54d560e21b81526001600160a01b039091169063c67d535490610eff9084908c908c908b908b908b908b90600401612d4e565b63f23a6e6160e01b9695505050505050565b6001600160a01b0385166112995760405162461bcd60e51b815260040161022d906132e5565b60006112a36113f1565b9050866001600160a01b0316816001600160a01b031614806112ea57506001600160a01b0380881660009081526012602090815260408083209385168352929052205460ff165b806112fd57506001600160a01b03811630145b6113195760405162461bcd60e51b815260040161022d90613154565b611324878686611ada565b61132f868686611761565b61133a308689611d1a565b605254604051633a0ac57d60e21b81526001600160a01b039091169063e82b15f4906113729084908b908b908b908b90600401612da4565b600060405180830381600087803b15801561138c57600080fd5b505af11580156113a0573d6000803e3d6000fd5b505050506113e8818888888888888080601f01602080910402602001604051908101604052809392919081815260200183838082843760009201919091525061206392505050565b50505050505050565b60003330141561144857600080368080601f0160208091040260200160405190810160405280939291908181526020018383808284376000920191909152505050503601516001600160a01b0316915061144b9050565b50335b90565b6000611458612120565b6001600160a01b038616600090815260038201602090815260408083208884528252808320878452909152902054909150808311156114a95760405162461bcd60e51b815260040161022d9061329c565b6114b383826133bb565b6001600160a01b03871660009081526003840160209081526040808320898452825280832088845290915290208190559050806116e4576001600160a01b038616600090815260058301602090815260408083208884528252808320878452909152812054611524906001906133bb565b6001600160a01b038816600090815260048501602090815260408083208a84529091528120549192509061155a906001906133bb565b9050808214611646576001600160a01b038816600090815260048501602090815260408083208a845290915281208054839081106115a857634e487b7160e01b600052603260045260246000fd5b60009182526020808320909101546001600160a01b038c16835260048801825260408084208c85529092529120805491925061ffff831691859081106115fe57634e487b7160e01b600052603260045260246000fd5b6000918252602090912001556116158360016133a3565b6001600160a01b038a16600090815260058701602090815260408083208c8452825280832094835293905291909120555b6001600160a01b038816600090815260048501602090815260408083208a8452909152902080548061168857634e487b7160e01b600052603160045260246000fd5b6000828152602080822083016000199081018390559092019092556001600160a01b038a1680835260058701825260408084208b855283528084208a8552909252908220919091553014156116e1576116e18787612125565b50505b6001600160a01b038616301480156116fc5750806001145b15611759576000858152600d830160205260409020805468010000000000000000900461ffff168514801561173c57508054600160501b900461ffff1685145b156113e85760405162461bcd60e51b815260040161022d90612f48565b505050505050565b600061176b612120565b6001600160a01b038516600090815260098201602090815260408083208784529091528120805492935084929091906117a59084906133a3565b90915550506001600160a01b0384166000908152600b820160209081526040808320868452909152902054611820576001600160a01b0384166000818152600a830160209081526040808320805460018101825581855283852061ffff8a169101559383529254600b85018252838320878452909152919020555b50505050565b6001600160a01b038216301415611908576000818152600d60205260409020600a01546001600160a01b0390811690841681148061188957506001600160a01b0380821660009081526012602090815260408083209388168352929052205460ff165b806118ad57506000828152601360205260409020546001600160a01b038581169116145b6118c95760405162461bcd60e51b815260040161022d90613154565b6000828152600d60205260409020600a0154600160d01b900460ff16156119025760405162461bcd60e51b815260040161022d90613100565b50611ad5565b6040516331a9108f60e11b81526000906001600160a01b03841690636352211e9061193790859060040161332f565b60206040518083038186803b15801561194f57600080fd5b505afa158015611963573d6000803e3d6000fd5b505050506040513d601f19601f8201168201806040525081019061198791906126b5565b9050836001600160a01b0316816001600160a01b03161480611a355750836001600160a01b0316836001600160a01b031663081812fc846040518263ffffffff1660e01b81526004016119da919061332f565b60206040518083038186803b1580156119f257600080fd5b505afa158015611a06573d6000803e3d6000fd5b505050506040513d601f19601f82011682018060405250810190611a2a91906126b5565b6001600160a01b0316145b80611ab9575060405163e985e9c560e01b81526001600160a01b0384169063e985e9c590611a699084908890600401612d34565b60206040518083038186803b158015611a8157600080fd5b505afa158015611a95573d6000803e3d6000fd5b505050506040513d601f19601f82011682018060405250810190611ab99190612c43565b6118205760405162461bcd60e51b815260040161022d90613154565b505050565b6000611ae4612120565b6001600160a01b0385166000908152600982016020908152604080832087845290915290205490915080831115611b2d5760405162461bcd60e51b815260040161022d90613206565b611b3783826133bb565b6001600160a01b038616600090815260098401602090815260408083208884529091529020819055905080611d13576001600160a01b0385166000908152600b830160209081526040808320878452909152812054611b98906001906133bb565b6001600160a01b0387166000908152600a8501602052604081205491925090611bc3906001906133bb565b9050808214611c9e576001600160a01b0387166000908152600a850160205260408120805483908110611c0657634e487b7160e01b600052603260045260246000fd5b906000526020600020015490508061ffff1685600a0160008a6001600160a01b03166001600160a01b031681526020019081526020016000208481548110611c5e57634e487b7160e01b600052603260045260246000fd5b600091825260209091200155611c758360016133a3565b6001600160a01b0389166000908152600b87016020908152604080832094835293905291909120555b6001600160a01b0387166000908152600a850160205260409020805480611cd557634e487b7160e01b600052603160045260246000fd5b6000828152602080822083016000199081018390559092019092556001600160a01b0389168252600b86018152604080832089845290915281205550505b5050505050565b6000611d24612120565b6001600160a01b038086166000908152602f83016020908152604080832088845282528083209387168352929052205490915080611d63575050611ad5565b6000818152602a83016020526040902060078101541580611d935750600a81015460ff6101009091041615156001145b80611da75750600a81015460ff1615156001145b15611db457505050611ad5565b60058101548015611ea157600282015460018301546003840154604051627eeac760e11b81526001600160a01b039384169362fdd58e93611dfa93911691600401612e71565b60206040518083038186803b158015611e1257600080fd5b505afa158015611e26573d6000803e3d6000fd5b505050506040513d601f19601f82011682018060405250810190611e4a9190612c8b565b90508160050154811015611ea15760058201819055600682015460405184917f9a1e053d28c2efc6add1e4a5d1647a99e883b256a54f9ef4a0abf8fcba643a5591611e989185914290613346565b60405180910390a25b806113e85760018201546113e89084906001600160a01b03166121bc565b853b80156107175760405163bc197c8160e01b81526001600160a01b0388169063bc197c8190611eff908c908c908b908b908b908b908b90600401612dd8565b602060405180830381600087803b158015611f1957600080fd5b505af1158015611f2d573d6000803e3d6000fd5b505050506040513d601f19601f82011682018060405250810190611f519190612c63565b6001600160e01b03191663bc197c8160e01b146107175760405162461bcd60e51b815260040161022d90613252565b6000611f8a612120565b6001600160a01b038616600090815260038201602090815260408083208884528252808320878452909152812080549293508492909190611fcc9084906133a3565b90915550506001600160a01b038516600090815260058201602090815260408083208784528252808320868452909152902054611d13576001600160a01b038516600081815260048301602090815260408083208884528252808320805460018101825581855283852061ffff8a169101555493835260058501825280832088845282528083208784529091529020555050505050565b833b80156113e85760405163f23a6e6160e01b81526001600160a01b0386169063f23a6e619061209f908a908a90899089908990600401612e2c565b602060405180830381600087803b1580156120b957600080fd5b505af11580156120cd573d6000803e3d6000fd5b505050506040513d601f19601f820116820180604052508101906120f19190612c63565b6001600160e01b03191663f23a6e6160e01b146113e85760405162461bcd60e51b815260040161022d90613252565b600090565b600061212f612120565b905060005b6010811015611820576000848152600d8301602052604090208390826010811061216e57634e487b7160e01b600052603260045260246000fd5b601091828204019190066002029054906101000a900461ffff1661ffff1614156121aa5760405162461bcd60e51b815260040161022d90612fc8565b806121b4816133d2565b915050612134565b60006121c6612120565b9050600081602c016040516121da90612d22565b90815260200160405180910390206000858152602001908152602001600020905080600101546000141561220f5750506122dd565b6000848152602a830160205260409020600a81015460ff610100909104161515600114806122465750600a81015460ff1615156001145b15612253575050506122dd565b60018101546001600160a01b038581169116146122825760405162461bcd60e51b815260040161022d90612f91565b600a8101805461ff001916610100179055600481015460405186917fc1ee70d4dadc0ea8041f31f81b07d0ac9374b6bf41956d9cae562e672f3f8a91916122cb91904390613338565b60405180910390a2611d1385856122e1565b5050565b60006122eb612120565b9050600081602c016040516122ff90612d22565b9081526020016040518091039020600085815260200190815260200160002090508060010154600014156123345750506122dd565b8054801561237357600083602c0160405161234e90612d22565b9081526040805160209281900383019020600085815292529020600284810154910155505b600282015480156123b057600084602c0160405161239090612d22565b908152604080516020928190038301902060008581529252902084549055505b6000868152602a85016020908152604080832060048101548452602b8801909252918290209151909188916123e490612d22565b908152602001604051809103902054141561243157600284015460048201546000908152602b8701602052604090819020905161242090612d22565b908152604051908190036020019020555b6000600185018190558085556002850155604051602e86019061245390612d22565b908152604080516020928190038301902060008a8152925290208054909450925082156124b157600085602e0160405161248c90612d22565b9081526040805160209281900383019020600087815292529020600286810154910155505b6002840154915081156124f057600085602e016040516124d090612d22565b908152604080516020928190038301902060008681529252902085549055505b506000868152602a8501602090815260408083206001600160a01b0389168452602d88018352818420600482015485529092529182902091519091889161253690612d22565b90815260200160405180910390205414156125975760028401546001600160a01b0387166000908152602d8701602090815260408083206004860154845290915290819020905161258690612d22565b908152604051908190036020019020555b60006001850181905580855560028086018290558201546001600160a01b039081168252602f870160209081526040808420600386015485528252808420928a168452919052808220919091556004820154905188917f276ac39b0f98215592b4487434c1618e3e527c57ca2f471ac93eb4eab16940919161261b91904290613338565b60405180910390a250505050505050565b60008083601f84011261263d578182fd5b50813567ffffffffffffffff811115612654578182fd5b602083019150836020808302850101111561266e57600080fd5b9250929050565b60008083601f840112612686578182fd5b50813567ffffffffffffffff81111561269d578182fd5b60208301915083602082850101111561266e57600080fd5b6000602082840312156126c6578081fd5b81516126d181613403565b9392505050565b60008060008060008060008060a0898b0312156126f3578384fd5b88356126fe81613403565b9750602089013561270e81613403565b9650604089013567ffffffffffffffff8082111561272a578586fd5b6127368c838d0161262c565b909850965060608b013591508082111561274e578586fd5b61275a8c838d0161262c565b909650945060808b0135915080821115612772578384fd5b5061277f8b828c0161262c565b999c989b5096995094979396929594505050565b60008060008060008060008060a0898b0312156127ae578384fd5b88356127b981613403565b975060208901356127c981613403565b9650604089013567ffffffffffffffff808211156127e5578586fd5b6127f18c838d0161262c565b909850965060608b0135915080821115612809578586fd5b6128158c838d0161262c565b909650945060808b013591508082111561282d578384fd5b5061277f8b828c01612675565b600080600080600080600060a0888a031215612854578283fd5b873561285f81613403565b9650602088013561286f81613403565b955060408801359450606088013567ffffffffffffffff80821115612892578485fd5b61289e8b838c0161262c565b909650945060808a01359150808211156128b6578384fd5b506128c38a828b0161262c565b989b979a50959850939692959293505050565b60008060008060008060a087890312156128ee578182fd5b86356128f981613403565b9550602087013561290981613403565b94506040870135935060608701359250608087013567ffffffffffffffff811115612932578283fd5b61293e89828a01612675565b979a9699509497509295939492505050565b600080600080600060a08688031215612967578081fd5b853561297281613403565b9450602086013561298281613403565b94979496505050506040830135926060810135926080909101359150565b6000806000806000606086880312156129b7578081fd5b85356129c281613403565b9450602086013567ffffffffffffffff808211156129de578283fd5b6129ea89838a0161262c565b90965094506040880135915080821115612a02578283fd5b50612a0f8882890161262c565b969995985093965092949392505050565b600080600080600080600060a0888a031215612a3a578081fd5b8735612a4581613403565b9650602088013595506040880135612a5c81613403565b9450606088013567ffffffffffffffff80821115612a78578283fd5b612a848b838c0161262c565b909650945060808a01359150808211156128b6578283fd5b60008060008060008060008060c0898b031215612ab7578182fd5b8835612ac281613403565b9750602089013596506040890135612ad981613403565b955060608901359450608089013567ffffffffffffffff80821115612afc578384fd5b612b088c838d0161262c565b909650945060a08b0135915080821115612772578384fd5b600080600080600060a08688031215612b37578283fd5b8535612b4281613403565b9450602086013593506040860135612b5981613403565b94979396509394606081013594506080013592915050565b60008060008060008060c08789031215612b89578384fd5b8635612b9481613403565b9550602087013594506040870135612bab81613403565b959894975094956060810135955060808101359460a0909101359350915050565b60008060008060008060808789031215612be4578384fd5b8635612bef81613403565b955060208701359450604087013567ffffffffffffffff80821115612c12578586fd5b612c1e8a838b0161262c565b90965094506060890135915080821115612c36578384fd5b5061293e89828a0161262c565b600060208284031215612c54578081fd5b815180151581146126d1578182fd5b600060208284031215612c74578081fd5b81516001600160e01b0319811681146126d1578182fd5b600060208284031215612c9c578081fd5b5051919050565b81835260006001600160fb1b03831115612cbb578081fd5b6020830280836020870137939093016020019283525090919050565b60008151808452815b81811015612cfc57602081850181015186830182015201612ce0565b81811115612d0d5782602083870101525b50601f01601f19169290920160200192915050565b651b1a5cdd195960d21b815260060190565b6001600160a01b0392831681529116602082015260400190565b6001600160a01b03888116825287811660208301528616604082015260a060608201819052600090612d839083018688612ca3565b8281036080840152612d96818587612ca3565b9a9950505050505050505050565b6001600160a01b03958616815293851660208501529190931660408301526060820192909252608081019190915260a00190565b6001600160a01b0388811682528716602082015260a060408201819052600090612e059083018789612ca3565b8281036060840152612e18818688612ca3565b90508281036080840152612d968185612cd7565b6001600160a01b03868116825285166020820152604081018490526060810183905260a060808201819052600090612e6690830184612cd7565b979650505050505050565b6001600160a01b03929092168252602082015260400190565b6001600160e01b031991909116815260200190565b60208082526037908201527f4974656d735472616e736665723a206964732e6c656e677468206e6f7420746860408201527f652073616d652061732076616c7565732e6c656e677468000000000000000000606082015260800190565b6020808252602c908201527f4974656d735472616e736665723a20696473206e6f742073616d65206c656e6760408201526b74682061732076616c75657360a01b606082015260800190565b60208082526029908201527f4c69624974656d733a2043616e277420686f6c642031206974656d20696e20626040820152686f74682068616e647360b81b606082015260800190565b6020808252601d908201527f4d61726b6574706c6163653a206f776e6572206e6f742073656c6c6572000000604082015260600190565b60208082526030908201527f4974656d733a2043616e6e6f74207472616e73666572207765617261626c652060408201526f1d1a185d081a5cc8195c5d5a5c1c195960821b606082015260800190565b6020808252603b908201527f4974656d735472616e736665723a206964732e6c656e677468206e6f7420746860408201527f652073616d6520617320746f546f6b656e496473206c656e6774680000000000606082015260800190565b60208082526022908201527f41617665676f7463686920686173206e6f74206265656e207361637269666963604082015261195960f21b606082015260800190565b60208082526029908201527f4974656d735472616e736665723a204974656d2063616e6e6f74206265207472604082015268185b9cd9995c9c995960ba1b606082015260800190565b60208082526034908201527f4974656d735472616e736665723a204f6e6c792063616c6c61626c65206f6e20604082015273756e6c6f636b65642041617665676f746368697360601b606082015260800190565b60208082526035908201527f4974656d735472616e736665723a204e6f74206f776e657220616e64206e6f746040820152741030b8383937bb32b2103a37903a3930b739b332b960591b606082015260800190565b60208082526039908201527f4c696241707053746f726167653a206f6e6c7920616e204974656d4d616e616760408201527f65722063616e2063616c6c20746869732066756e6374696f6e00000000000000606082015260800190565b6020808252602c908201527f4c69624974656d733a20446f65736e277420686176652074686174206d616e7960408201526b103a37903a3930b739b332b960a11b606082015260800190565b6020808252602a908201527f5765617261626c65733a205472616e736665722072656a65637465642f6661696040820152696c6564206279205f746f60b01b606082015260800190565b60208082526029908201527f4974656d733a20446f65736e277420686176652074686174206d616e7920746f604082015268103a3930b739b332b960b91b606082015260800190565b6020808252602a908201527f4974656d735472616e736665723a2043616e2774207472616e7366657220746f6040820152692030206164647265737360b01b606082015260800190565b90815260200190565b918252602082015260400190565b9283526020830191909152604082015260600190565b6000808335601e19843603018112613372578283fd5b83018035915067ffffffffffffffff82111561338c578283fd5b602090810192508102360382131561266e57600080fd5b600082198211156133b6576133b66133ed565b500190565b6000828210156133cd576133cd6133ed565b500390565b60006000198214156133e6576133e66133ed565b5060010190565b634e487b7160e01b600052601160045260246000fd5b6001600160a01b038116811461341857600080fd5b5056fe4b287e36a0531da8ccee303de127c778302f48d8fc9569b1fe1dcb9d64465c6de82810099d182b25e23e895715954d6e7b41867a02e2c693cce68a8f250e43d3a26469706673582212201445a4111e78c0befcecf00666e3dcbb918623745d1b829181865f68785856ea64736f6c63430008010033",
  "linkReferences": {},
  "deployedLinkReferences": {}
}