{
  "_format": "hh-sol-artifact-1",
  "contractName": "LendingGetterAndSetterFacet",
  "sourceName": "contracts/Aavegotchi/facets/LendingGetterAndSetterFacet.sol",
  "abi": [
    {
      "anonymous": false,
      "inputs": [
        {
          "indexed": true,
          "internalType": "address",
          "name": "lender",
          "type": "address"
        },
        {
          "indexed": true,
          "internalType": "address",
          "name": "lendingOperator",
          "type": "address"
        },
        {
          "indexed": true,
          "internalType": "uint32",
          "name": "tokenId",
          "type": "uint32"
        },
        {
          "indexed": false,
          "internalType": "bool",
          "name": "isLendingOperator",
          "type": "bool"
        }
      ],
      "name": "LendingOperatorSet",
      "type": "event"
    },
    {
      "inputs": [
        {
          "internalType": "address[]",
          "name": "tokens",
          "type": "address[]"
        }
      ],
      "name": "allowRevenueTokens",
      "outputs": [],
      "stateMutability": "nonpayable",
      "type": "function"
    },
    {
      "inputs": [
        {
          "internalType": "address",
          "name": "_lender",
          "type": "address"
        }
      ],
      "name": "balanceOfLentGotchis",
      "outputs": [
        {
          "internalType": "uint256",
          "name": "balance_",
          "type": "uint256"
        }
      ],
      "stateMutability": "view",
      "type": "function"
    },
    {
      "inputs": [
        {
          "internalType": "address",
          "name": "_lendingOperator",
          "type": "address"
        },
        {
          "components": [
            {
              "internalType": "uint32",
              "name": "_tokenId",
              "type": "uint32"
            },
            {
              "internalType": "bool",
              "name": "_isLendingOperator",
              "type": "bool"
            }
          ],
          "internalType": "struct LendingGetterAndSetterFacet.LendingOperatorInputs[]",
          "name": "_inputs",
          "type": "tuple[]"
        }
      ],
      "name": "batchSetLendingOperator",
      "outputs": [],
      "stateMutability": "nonpayable",
      "type": "function"
    },
    {
      "inputs": [
        {
          "internalType": "address[]",
          "name": "tokens",
          "type": "address[]"
        }
      ],
      "name": "disallowRevenueTokens",
      "outputs": [],
      "stateMutability": "nonpayable",
      "type": "function"
    },
    {
      "inputs": [
        {
          "internalType": "uint32",
          "name": "_erc721TokenId",
          "type": "uint32"
        }
      ],
      "name": "getGotchiLendingFromToken",
      "outputs": [
        {
          "components": [
            {
              "internalType": "address",
              "name": "lender",
              "type": "address"
            },
            {
              "internalType": "uint96",
              "name": "initialCost",
              "type": "uint96"
            },
            {
              "internalType": "address",
              "name": "borrower",
              "type": "address"
            },
            {
              "internalType": "uint32",
              "name": "listingId",
              "type": "uint32"
            },
            {
              "internalType": "uint32",
              "name": "erc721TokenId",
              "type": "uint32"
            },
            {
              "internalType": "uint32",
              "name": "whitelistId",
              "type": "uint32"
            },
            {
              "internalType": "address",
              "name": "originalOwner",
              "type": "address"
            },
            {
              "internalType": "uint40",
              "name": "timeCreated",
              "type": "uint40"
            },
            {
              "internalType": "uint40",
              "name": "timeAgreed",
              "type": "uint40"
            },
            {
              "internalType": "bool",
              "name": "canceled",
              "type": "bool"
            },
            {
              "internalType": "bool",
              "name": "completed",
              "type": "bool"
            },
            {
              "internalType": "address",
              "name": "thirdParty",
              "type": "address"
            },
            {
              "internalType": "uint8[3]",
              "name": "revenueSplit",
              "type": "uint8[3]"
            },
            {
              "internalType": "uint40",
              "name": "lastClaimed",
              "type": "uint40"
            },
            {
              "internalType": "uint32",
              "name": "period",
              "type": "uint32"
            },
            {
              "internalType": "address[]",
              "name": "revenueTokens",
              "type": "address[]"
            }
          ],
          "internalType": "struct GotchiLending",
          "name": "listing_",
          "type": "tuple"
        }
      ],
      "stateMutability": "view",
      "type": "function"
    },
    {
      "inputs": [
        {
          "internalType": "uint32",
          "name": "_erc721TokenId",
          "type": "uint32"
        }
      ],
      "name": "getGotchiLendingIdByToken",
      "outputs": [
        {
          "internalType": "uint32",
          "name": "",
          "type": "uint32"
        }
      ],
      "stateMutability": "view",
      "type": "function"
    },
    {
      "inputs": [
        {
          "internalType": "uint32",
          "name": "_listingId",
          "type": "uint32"
        }
      ],
      "name": "getGotchiLendingListingInfo",
      "outputs": [
        {
          "components": [
            {
              "internalType": "address",
              "name": "lender",
              "type": "address"
            },
            {
              "internalType": "uint96",
              "name": "initialCost",
              "type": "uint96"
            },
            {
              "internalType": "address",
              "name": "borrower",
              "type": "address"
            },
            {
              "internalType": "uint32",
              "name": "listingId",
              "type": "uint32"
            },
            {
              "internalType": "uint32",
              "name": "erc721TokenId",
              "type": "uint32"
            },
            {
              "internalType": "uint32",
              "name": "whitelistId",
              "type": "uint32"
            },
            {
              "internalType": "address",
              "name": "originalOwner",
              "type": "address"
            },
            {
              "internalType": "uint40",
              "name": "timeCreated",
              "type": "uint40"
            },
            {
              "internalType": "uint40",
              "name": "timeAgreed",
              "type": "uint40"
            },
            {
              "internalType": "bool",
              "name": "canceled",
              "type": "bool"
            },
            {
              "internalType": "bool",
              "name": "completed",
              "type": "bool"
            },
            {
              "internalType": "address",
              "name": "thirdParty",
              "type": "address"
            },
            {
              "internalType": "uint8[3]",
              "name": "revenueSplit",
              "type": "uint8[3]"
            },
            {
              "internalType": "uint40",
              "name": "lastClaimed",
              "type": "uint40"
            },
            {
              "internalType": "uint32",
              "name": "period",
              "type": "uint32"
            },
            {
              "internalType": "address[]",
              "name": "revenueTokens",
              "type": "address[]"
            }
          ],
          "internalType": "struct GotchiLending",
          "name": "listing_",
          "type": "tuple"
        },
        {
          "components": [
            {
              "internalType": "uint256",
              "name": "tokenId",
              "type": "uint256"
            },
            {
              "internalType": "string",
              "name": "name",
              "type": "string"
            },
            {
              "internalType": "address",
              "name": "owner",
              "type": "address"
            },
            {
              "internalType": "uint256",
              "name": "randomNumber",
              "type": "uint256"
            },
            {
              "internalType": "uint256",
              "name": "status",
              "type": "uint256"
            },
            {
              "internalType": "int16[6]",
              "name": "numericTraits",
              "type": "int16[6]"
            },
            {
              "internalType": "int16[6]",
              "name": "modifiedNumericTraits",
              "type": "int16[6]"
            },
            {
              "internalType": "uint16[16]",
              "name": "equippedWearables",
              "type": "uint16[16]"
            },
            {
              "internalType": "address",
              "name": "collateral",
              "type": "address"
            },
            {
              "internalType": "address",
              "name": "escrow",
              "type": "address"
            },
            {
              "internalType": "uint256",
              "name": "stakedAmount",
              "type": "uint256"
            },
            {
              "internalType": "uint256",
              "name": "minimumStake",
              "type": "uint256"
            },
            {
              "internalType": "uint256",
              "name": "kinship",
              "type": "uint256"
            },
            {
              "internalType": "uint256",
              "name": "lastInteracted",
              "type": "uint256"
            },
            {
              "internalType": "uint256",
              "name": "experience",
              "type": "uint256"
            },
            {
              "internalType": "uint256",
              "name": "toNextLevel",
              "type": "uint256"
            },
            {
              "internalType": "uint256",
              "name": "usedSkillPoints",
              "type": "uint256"
            },
            {
              "internalType": "uint256",
              "name": "level",
              "type": "uint256"
            },
            {
              "internalType": "uint256",
              "name": "hauntId",
              "type": "uint256"
            },
            {
              "internalType": "uint256",
              "name": "baseRarityScore",
              "type": "uint256"
            },
            {
              "internalType": "uint256",
              "name": "modifiedRarityScore",
              "type": "uint256"
            },
            {
              "internalType": "bool",
              "name": "locked",
              "type": "bool"
            },
            {
              "components": [
                {
                  "internalType": "uint256",
                  "name": "balance",
                  "type": "uint256"
                },
                {
                  "internalType": "uint256",
                  "name": "itemId",
                  "type": "uint256"
                },
                {
                  "components": [
                    {
                      "internalType": "string",
                      "name": "name",
                      "type": "string"
                    },
                    {
                      "internalType": "string",
                      "name": "description",
                      "type": "string"
                    },
                    {
                      "internalType": "string",
                      "name": "author",
                      "type": "string"
                    },
                    {
                      "internalType": "int8[6]",
                      "name": "traitModifiers",
                      "type": "int8[6]"
                    },
                    {
                      "internalType": "bool[16]",
                      "name": "slotPositions",
                      "type": "bool[16]"
                    },
                    {
                      "internalType": "uint8[]",
                      "name": "allowedCollaterals",
                      "type": "uint8[]"
                    },
                    {
                      "components": [
                        {
                          "internalType": "uint8",
                          "name": "x",
                          "type": "uint8"
                        },
                        {
                          "internalType": "uint8",
                          "name": "y",
                          "type": "uint8"
                        },
                        {
                          "internalType": "uint8",
                          "name": "width",
                          "type": "uint8"
                        },
                        {
                          "internalType": "uint8",
                          "name": "height",
                          "type": "uint8"
                        }
                      ],
                      "internalType": "struct Dimensions",
                      "name": "dimensions",
                      "type": "tuple"
                    },
                    {
                      "internalType": "uint256",
                      "name": "ghstPrice",
                      "type": "uint256"
                    },
                    {
                      "internalType": "uint256",
                      "name": "maxQuantity",
                      "type": "uint256"
                    },
                    {
                      "internalType": "uint256",
                      "name": "totalQuantity",
                      "type": "uint256"
                    },
                    {
                      "internalType": "uint32",
                      "name": "svgId",
                      "type": "uint32"
                    },
                    {
                      "internalType": "uint8",
                      "name": "rarityScoreModifier",
                      "type": "uint8"
                    },
                    {
                      "internalType": "bool",
                      "name": "canPurchaseWithGhst",
                      "type": "bool"
                    },
                    {
                      "internalType": "uint16",
                      "name": "minLevel",
                      "type": "uint16"
                    },
                    {
                      "internalType": "bool",
                      "name": "canBeTransferred",
                      "type": "bool"
                    },
                    {
                      "internalType": "uint8",
                      "name": "category",
                      "type": "uint8"
                    },
                    {
                      "internalType": "int16",
                      "name": "kinshipBonus",
                      "type": "int16"
                    },
                    {
                      "internalType": "uint32",
                      "name": "experienceBonus",
                      "type": "uint32"
                    }
                  ],
                  "internalType": "struct ItemType",
                  "name": "itemType",
                  "type": "tuple"
                }
              ],
              "internalType": "struct ItemTypeIO[]",
              "name": "items",
              "type": "tuple[]"
            }
          ],
          "internalType": "struct AavegotchiInfo",
          "name": "aavegotchiInfo_",
          "type": "tuple"
        }
      ],
      "stateMutability": "view",
      "type": "function"
    },
    {
      "inputs": [
        {
          "internalType": "bytes32",
          "name": "_status",
          "type": "bytes32"
        },
        {
          "internalType": "uint256",
          "name": "_length",
          "type": "uint256"
        }
      ],
      "name": "getGotchiLendings",
      "outputs": [
        {
          "components": [
            {
              "internalType": "address",
              "name": "lender",
              "type": "address"
            },
            {
              "internalType": "uint96",
              "name": "initialCost",
              "type": "uint96"
            },
            {
              "internalType": "address",
              "name": "borrower",
              "type": "address"
            },
            {
              "internalType": "uint32",
              "name": "listingId",
              "type": "uint32"
            },
            {
              "internalType": "uint32",
              "name": "erc721TokenId",
              "type": "uint32"
            },
            {
              "internalType": "uint32",
              "name": "whitelistId",
              "type": "uint32"
            },
            {
              "internalType": "address",
              "name": "originalOwner",
              "type": "address"
            },
            {
              "internalType": "uint40",
              "name": "timeCreated",
              "type": "uint40"
            },
            {
              "internalType": "uint40",
              "name": "timeAgreed",
              "type": "uint40"
            },
            {
              "internalType": "bool",
              "name": "canceled",
              "type": "bool"
            },
            {
              "internalType": "bool",
              "name": "completed",
              "type": "bool"
            },
            {
              "internalType": "address",
              "name": "thirdParty",
              "type": "address"
            },
            {
              "internalType": "uint8[3]",
              "name": "revenueSplit",
              "type": "uint8[3]"
            },
            {
              "internalType": "uint40",
              "name": "lastClaimed",
              "type": "uint40"
            },
            {
              "internalType": "uint32",
              "name": "period",
              "type": "uint32"
            },
            {
              "internalType": "address[]",
              "name": "revenueTokens",
              "type": "address[]"
            }
          ],
          "internalType": "struct GotchiLending[]",
          "name": "listings_",
          "type": "tuple[]"
        }
      ],
      "stateMutability": "view",
      "type": "function"
    },
    {
      "inputs": [],
      "name": "getGotchiLendingsLength",
      "outputs": [
        {
          "internalType": "uint256",
          "name": "",
          "type": "uint256"
        }
      ],
      "stateMutability": "view",
      "type": "function"
    },
    {
      "inputs": [
        {
          "internalType": "uint32",
          "name": "_listingId",
          "type": "uint32"
        }
      ],
      "name": "getLendingListingInfo",
      "outputs": [
        {
          "components": [
            {
              "internalType": "address",
              "name": "lender",
              "type": "address"
            },
            {
              "internalType": "uint96",
              "name": "initialCost",
              "type": "uint96"
            },
            {
              "internalType": "address",
              "name": "borrower",
              "type": "address"
            },
            {
              "internalType": "uint32",
              "name": "listingId",
              "type": "uint32"
            },
            {
              "internalType": "uint32",
              "name": "erc721TokenId",
              "type": "uint32"
            },
            {
              "internalType": "uint32",
              "name": "whitelistId",
              "type": "uint32"
            },
            {
              "internalType": "address",
              "name": "originalOwner",
              "type": "address"
            },
            {
              "internalType": "uint40",
              "name": "timeCreated",
              "type": "uint40"
            },
            {
              "internalType": "uint40",
              "name": "timeAgreed",
              "type": "uint40"
            },
            {
              "internalType": "bool",
              "name": "canceled",
              "type": "bool"
            },
            {
              "internalType": "bool",
              "name": "completed",
              "type": "bool"
            },
            {
              "internalType": "address",
              "name": "thirdParty",
              "type": "address"
            },
            {
              "internalType": "uint8[3]",
              "name": "revenueSplit",
              "type": "uint8[3]"
            },
            {
              "internalType": "uint40",
              "name": "lastClaimed",
              "type": "uint40"
            },
            {
              "internalType": "uint32",
              "name": "period",
              "type": "uint32"
            },
            {
              "internalType": "address[]",
              "name": "revenueTokens",
              "type": "address[]"
            }
          ],
          "internalType": "struct GotchiLending",
          "name": "listing_",
          "type": "tuple"
        }
      ],
      "stateMutability": "view",
      "type": "function"
    },
    {
      "inputs": [
        {
          "internalType": "address",
          "name": "_lender",
          "type": "address"
        }
      ],
      "name": "getLentTokenIdsOfLender",
      "outputs": [
        {
          "internalType": "uint32[]",
          "name": "tokenIds_",
          "type": "uint32[]"
        }
      ],
      "stateMutability": "view",
      "type": "function"
    },
    {
      "inputs": [
        {
          "internalType": "address",
          "name": "_lender",
          "type": "address"
        },
        {
          "internalType": "bytes32",
          "name": "_status",
          "type": "bytes32"
        },
        {
          "internalType": "uint256",
          "name": "_length",
          "type": "uint256"
        }
      ],
      "name": "getOwnerGotchiLendings",
      "outputs": [
        {
          "components": [
            {
              "internalType": "address",
              "name": "lender",
              "type": "address"
            },
            {
              "internalType": "uint96",
              "name": "initialCost",
              "type": "uint96"
            },
            {
              "internalType": "address",
              "name": "borrower",
              "type": "address"
            },
            {
              "internalType": "uint32",
              "name": "listingId",
              "type": "uint32"
            },
            {
              "internalType": "uint32",
              "name": "erc721TokenId",
              "type": "uint32"
            },
            {
              "internalType": "uint32",
              "name": "whitelistId",
              "type": "uint32"
            },
            {
              "internalType": "address",
              "name": "originalOwner",
              "type": "address"
            },
            {
              "internalType": "uint40",
              "name": "timeCreated",
              "type": "uint40"
            },
            {
              "internalType": "uint40",
              "name": "timeAgreed",
              "type": "uint40"
            },
            {
              "internalType": "bool",
              "name": "canceled",
              "type": "bool"
            },
            {
              "internalType": "bool",
              "name": "completed",
              "type": "bool"
            },
            {
              "internalType": "address",
              "name": "thirdParty",
              "type": "address"
            },
            {
              "internalType": "uint8[3]",
              "name": "revenueSplit",
              "type": "uint8[3]"
            },
            {
              "internalType": "uint40",
              "name": "lastClaimed",
              "type": "uint40"
            },
            {
              "internalType": "uint32",
              "name": "period",
              "type": "uint32"
            },
            {
              "internalType": "address[]",
              "name": "revenueTokens",
              "type": "address[]"
            }
          ],
          "internalType": "struct GotchiLending[]",
          "name": "listings_",
          "type": "tuple[]"
        }
      ],
      "stateMutability": "view",
      "type": "function"
    },
    {
      "inputs": [
        {
          "internalType": "address",
          "name": "_lender",
          "type": "address"
        },
        {
          "internalType": "bytes32",
          "name": "_status",
          "type": "bytes32"
        }
      ],
      "name": "getOwnerGotchiLendingsLength",
      "outputs": [
        {
          "internalType": "uint256",
          "name": "",
          "type": "uint256"
        }
      ],
      "stateMutability": "view",
      "type": "function"
    },
    {
      "inputs": [
        {
          "internalType": "uint32",
          "name": "_tokenId",
          "type": "uint32"
        },
        {
          "internalType": "address[]",
          "name": "_revenueTokens",
          "type": "address[]"
        }
      ],
      "name": "getTokenBalancesInEscrow",
      "outputs": [
        {
          "internalType": "uint256[]",
          "name": "revenueBalances",
          "type": "uint256[]"
        }
      ],
      "stateMutability": "view",
      "type": "function"
    },
    {
      "inputs": [
        {
          "internalType": "uint32",
          "name": "_erc721TokenId",
          "type": "uint32"
        }
      ],
      "name": "isAavegotchiLent",
      "outputs": [
        {
          "internalType": "bool",
          "name": "",
          "type": "bool"
        }
      ],
      "stateMutability": "view",
      "type": "function"
    },
    {
      "inputs": [
        {
          "internalType": "uint32",
          "name": "_erc721TokenId",
          "type": "uint32"
        }
      ],
      "name": "isAavegotchiListed",
      "outputs": [
        {
          "internalType": "bool",
          "name": "",
          "type": "bool"
        }
      ],
      "stateMutability": "view",
      "type": "function"
    },
    {
      "inputs": [
        {
          "internalType": "address",
          "name": "_lender",
          "type": "address"
        },
        {
          "internalType": "address",
          "name": "_lendingOperator",
          "type": "address"
        },
        {
          "internalType": "uint32",
          "name": "_tokenId",
          "type": "uint32"
        }
      ],
      "name": "isLendingOperator",
      "outputs": [
        {
          "internalType": "bool",
          "name": "",
          "type": "bool"
        }
      ],
      "stateMutability": "view",
      "type": "function"
    },
    {
      "inputs": [
        {
          "internalType": "address",
          "name": "token",
          "type": "address"
        }
      ],
      "name": "revenueTokenAllowed",
      "outputs": [
        {
          "internalType": "bool",
          "name": "",
          "type": "bool"
        }
      ],
      "stateMutability": "view",
      "type": "function"
    },
    {
      "inputs": [
        {
          "internalType": "address",
          "name": "_lendingOperator",
          "type": "address"
        },
        {
          "internalType": "uint32",
          "name": "_tokenId",
          "type": "uint32"
        },
        {
          "internalType": "bool",
          "name": "_isLendingOperator",
          "type": "bool"
        }
      ],
      "name": "setLendingOperator",
      "outputs": [],
      "stateMutability": "nonpayable",
      "type": "function"
    }
  ],
  "bytecode": "0x608060405234801561001057600080fd5b50613233806100206000396000f3fe608060405234801561001057600080fd5b50600436106101215760003560e01c80635b8368d8116100ad578063b11deb2911610071578063b11deb291461028c578063d731d44e1461029f578063df4a0912146102b2578063f10cf615146102c5578063fc02e4ee146102d857610121565b80635b8368d81461021f5780636368cb21146102325780636f0994b014610253578063773c373614610266578063a4df11a81461027957610121565b806311ff1799116100f457806311ff1799146101a457806324213779146101b757806326ed9b1b146101d757806333f012ce146101f75780635a5fb2c51461020c57610121565b80630bc5c17a146101265780630cf0676e1461014f57806310e02d9214610164578063113df56414610184575b600080fd5b61013961013436600461252c565b6102f8565b6040516101469190612b1c565b60405180910390f35b61015761045c565b6040516101469190612eb1565b610177610172366004612414565b610469565b6040516101469190612abc565b610197610192366004612512565b610583565b6040516101469190612d19565b6101776101b23660046124d9565b6105b2565b6101ca6101c5366004612328565b6106b6565b6040516101469190612b9e565b6101ea6101e536600461230e565b6106f5565b6040516101469190612b60565b61020a61020536600461236a565b61078d565b005b61020a61021a366004612446565b610818565b61020a61022d36600461247f565b610942565b610245610240366004612512565b6109c5565b604051610146929190612d2c565b61015761026136600461230e565b6109fa565b6101ca61027436600461230e565b610a15565b61020a61028736600461247f565b610a37565b6101ca61029a366004612512565b610ab4565b6101ca6102ad366004612512565b610abf565b6101976102c0366004612512565b610aca565b6101576102d33660046123eb565b610adb565b6102eb6102e6366004612512565b610b4b565b6040516101469190612eba565b60608167ffffffffffffffff81111561032157634e487b7160e01b600052604160045260246000fd5b60405190808252806020026020018201604052801561034a578160200160208202803683370190505b509050600061035e8563ffffffff16610b66565b6101200151905060005b838110156104535784848281811061039057634e487b7160e01b600052603260045260246000fd5b90506020020160208101906103a5919061230e565b6001600160a01b03166370a08231836040518263ffffffff1660e01b81526004016103d09190612aa8565b60206040518083038186803b1580156103e857600080fd5b505afa1580156103fc573d6000803e3d6000fd5b505050506040513d601f19601f8201168201806040525081019061042091906124fa565b83828151811061044057634e487b7160e01b600052603260045260246000fd5b6020908102919091010152600101610368565b50509392505050565b60415463ffffffff165b90565b6001600160a01b038316600090815260496020908152604080832085845290915290205460609063ffffffff168267ffffffffffffffff8111156104bd57634e487b7160e01b600052604160045260246000fd5b6040519080825280602002602001820160405280156104f657816020015b6104e3611fdd565b8152602001906001900390816104db5790505b50915060005b63ffffffff82161580159061051057508381105b156105795761051e82610f2a565b83828151811061053e57634e487b7160e01b600052603260045260246000fd5b602090810291909101810191909152600086815260488252604080822063ffffffff95861683529092522060020154909116906001016104fc565b8252509392505050565b61058b611fdd565b63ffffffff8083166000908152604360205260409020546105ac9116610f2a565b92915050565b60008281526047602052604090205460609063ffffffff168267ffffffffffffffff8111156105f157634e487b7160e01b600052604160045260246000fd5b60405190808252806020026020018201604052801561062a57816020015b610617611fdd565b81526020019060019003908161060f5790505b50915060005b63ffffffff82161580159061064457508381105b156106ad5761065282610f2a565b83828151811061067257634e487b7160e01b600052603260045260246000fd5b602090810291909101810191909152600086815260468252604080822063ffffffff9586168352909252206002015490911690600101610630565b82525092915050565b6001600160a01b038084166000908152604d60209081526040808320938616835292815282822063ffffffff851683529052205460ff165b9392505050565b6001600160a01b03811660009081526044602090815260409182902080548351818402810184019094528084526060939283018282801561078157602002820191906000526020600020906000905b82829054906101000a900463ffffffff1663ffffffff16815260200190600401906020826003010492830192600103820291508084116107445790505b50505050509050919050565b60005b818110156108125761080a848484848181106107bc57634e487b7160e01b600052603260045260246000fd5b6107d29260206040909202019081019150612512565b8585858181106107f257634e487b7160e01b600052603260045260246000fd5b905060400201602001602081019061021a91906124bf565b600101610790565b50505050565b63ffffffff82166000818152600d60205260409020600a01546001600160a01b0316610842611134565b6001600160a01b0316146108715760405162461bcd60e51b815260040161086890612cbc565b60405180910390fd5b63ffffffff83166000818152600d60205260409020600a0154600160d01b900460ff16156108b15760405162461bcd60e51b815260040161086890612c68565b60006108bb611134565b6001600160a01b038181166000818152604d60209081526040808320948c1680845294825280832063ffffffff8c16808552925291829020805460ff19168a15151790559051939450927f160787829b02b2d2716cb25e529db007ac1aab89f8660269852157327f4505f890610932908990612b9e565b60405180910390a4505050505050565b61094a611190565b60005b818110156109c0576001604c600085858581811061097b57634e487b7160e01b600052603260045260246000fd5b9050602002016020810190610990919061230e565b6001600160a01b031681526020810191909152604001600020805460ff191691151591909117905560010161094d565b505050565b6109cd611fdd565b6109d5612064565b6109de83610f2a565b91506109f3826080015163ffffffff16610b66565b9050915091565b6001600160a01b031660009081526044602052604090205490565b6001600160a01b0381166000908152604c602052604090205460ff165b919050565b610a3f611190565b60005b818110156109c0576000604c81858585818110610a6f57634e487b7160e01b600052603260045260246000fd5b9050602002016020810190610a84919061230e565b6001600160a01b031681526020810191909152604001600020805460ff1916911515919091179055600101610a42565b60006105ac826111d5565b60006105ac826113e7565b610ad2611fdd565b6105ac82610f2a565b6001600160a01b038216600090815260496020908152604080832084845290915281205463ffffffff16815b63ffffffff821615610b4357600084815260486020908152604080832063ffffffff958616845290915290206002015490911690600101610b07565b949350505050565b63ffffffff9081166000908152604360205260409020541690565b610b6e612064565b6000610b7861146a565b8383526000848152600d820160208181526040808420600a8101546001600160a01b0381169289019290925260048101546060890152600160a01b90910460ff16608088019081529388905291905260090154600160f01b900461ffff166102408501525190915060031415610f24576000838152600d8201602052604090206003018054610c0690613197565b80601f0160208091040260200160405190810160405280929190818152602001828054610c3290613197565b8015610c7f5780601f10610c5457610100808354040283529160200191610c7f565b820191906000526020600020905b815481529060010190602001808311610c6257829003601f168201915b50505050506020838101919091526000848152600d8301909152604080822081516102008101928390529290916010918390855b82829054906101000a900461ffff1661ffff1681526020019060020190602082600101049283019260010382029150808411610cb357505050505060e0840191909152506000838152600d82016020818152604080842060098101546001600160a01b0390811661010089019081529589905293909252600b9091015482166101208601819052925190516370a0823160e01b81529116916370a0823191610d5e9190600401612aa8565b60206040518083038186803b158015610d7657600080fd5b505afa158015610d8a573d6000803e3d6000fd5b505050506040513d601f19601f82011682018060405250810190610dae91906124fa565b6101408301526000838152600d82016020526040902060060154610160830152610dd78361146f565b6101808301526000838152600d8201602081815260408320600a810154600160a81b900464ffffffffff166101a0870152600501546101c086018190529286905252610e22906114e6565b6101e08301526000838152600d82016020526040902060050154610e4590611515565b6102208301526000838152600d820160208181526040808420600781015461020088015287855292909152805160c081019182905292600290920191600691908390855b82829054906101000a900460010b60010b81526020019060020190602082600101049283019260010382029150808411610e8957505050505060a0840182905250610ed390611556565b610260830152610ee2836115de565b61028084015260c08301526000838152600d820160205260409020600a0154600160d01b900460ff1615156102a0830152610f1d30846117c2565b6102c08301525b50919050565b610f32611fdd565b6000610f3c61146a565b63ffffffff8481166000908152604283016020908152604080832081516102008101835281546001600160a01b038082168352600160a01b918290046001600160601b0316958301959095526001830154808616838601528181048816606080850191909152600160c01b820489166080850152600160e01b90910490971660a0830152600283015480861660c084015290810464ffffffffff90811660e0840152600160c81b820416610100830152600160f01b810460ff9081161515610120840152600160f81b909104161515610140820152600380830154909416610160820152825195860192839052959650936101808601939092600486019290918390855b825461010083900a900460ff1681526020600192830181810494850194909303909202910180841161104057505050928452505050600582015464ffffffffff81166020808401919091526501000000000090910463ffffffff1660408084019190915260068401805482518185028101850190935280835260609094019391929091908301828280156110fd57602002820191906000526020600020905b81546001600160a01b031681526001909101906020018083116110df575b50505050508152505091508160e0015164ffffffffff1660001415610f245760405162461bcd60e51b815260040161086890612beb565b60003330141561118b57600080368080601f0160208091040260200160405190810160405280939291908181526020018383808284376000920191909152505050503601516001600160a01b031691506104669050565b503390565b611198611dbb565b600401546001600160a01b03166111ad611134565b6001600160a01b0316146111d35760405162461bcd60e51b815260040161086890612ba9565b565b6000806111e061146a565b63ffffffff8481166000908152604383016020908152604080832054841680845260428601835281842082516102008101845281546001600160a01b038082168352600160a01b918290046001600160601b0316968301969096526001830154808716838701528181048916606080850191909152600160c01b82048a166080850152600160e01b90910490981660a0830152600283015480871660c084015290810464ffffffffff90811660e0840152600160c81b820416610100830152600160f01b810460ff9081161515610120840152600160f81b9091041615156101408201526003808301549095166101608201528351968701938490529697509095939490926101808501926004850191908288855b825461010083900a900460ff168152602060019283018181049485019490930390920291018084116112f557505050928452505050600582015464ffffffffff81166020808401919091526501000000000090910463ffffffff1660408084019190915260068401805482518185028101850190935280835260609094019391929091908301828280156113b257602002820191906000526020600020905b81546001600160a01b03168152600190910190602001808311611394575b505050505081525050905060008263ffffffff161180156113de575060008160e0015164ffffffffff16115b95945050505050565b6000806113f261146a565b90506113fd836111d5565b61140b576000915050610a32565b63ffffffff8381166000908152604383016020908152604080832054909316808352604285019091529190206002810154600160c81b900464ffffffffff16158015906113de575060020154600160f81b900460ff1615949350505050565b600090565b60008061147a61146a565b6000848152600d820160205260408120600a81015460088201549394509092600160a81b90910464ffffffffff16916114b38342613180565b905060006114c46201518083612f68565b9050808311156114db576114d88184613180565b96505b505050505050919050565b6000806114f283611515565b905082611500600283612fce565b61150b906032613122565b6106ee9190613180565b600062077a4282111561152a57506063610a32565b600a61153f61153a846002613122565b611ddf565b6115499190612f68565b90506105ac816001612f50565b6000805b6006811015610f2457600083826006811061158557634e487b7160e01b600052603260045260246000fd5b602002015160010b9050603281126115b3576115a2816001612f50565b6115ac9084612f50565b92506115cb565b6115be816064613141565b6115c89084612f50565b92505b50806115d6816131cc565b91505061155a565b6115e6612141565b6000806115f161146a565b6000858152600d820160205260409020600a0154909150600160a01b900460ff166003146116315760405162461bcd60e51b815260040161086890612c33565b6000848152600d82016020526040902061164a85611e32565b93506000805b601081101561179f57600083826010811061167b57634e487b7160e01b600052603260045260246000fd5b601081049190910154600f9091166002026101000a900461ffff169050806116a3575061178d565b60008560060182815481106116c857634e487b7160e01b600052603260045260246000fd5b90600052602060002090600b0201905060005b600681101561176d5781600301816006811061170757634e487b7160e01b600052603260045260246000fd5b602091828204019190069054906101000a900460000b60000b89826006811061174057634e487b7160e01b600052603260045260246000fd5b602002018181516117519190612ecb565b600190810b900b90525080611765816131cc565b9150506116db565b50600a81015461178890640100000000900460ff1685612f50565b935050505b80611797816131cc565b915050611650565b5060006117ab86611556565b90506117b78282612f50565b945050505050915091565b606060006117ce61146a565b6001600160a01b038516600090815260048201602090815260408083208784529091529020549091508067ffffffffffffffff81111561181e57634e487b7160e01b600052604160045260246000fd5b60405190808252806020026020018201604052801561185757816020015b61184461215f565b81526020019060019003908161183c5790505b50925060005b81811015611db2576001600160a01b0386166000908152600484016020908152604080832088845290915281208054839081106118aa57634e487b7160e01b600052603260045260246000fd5b60009182526020808320909101546001600160a01b038a16835260038701825260408084208a85528352808420828552909252912054865191925090829087908590811061190857634e487b7160e01b600052603260045260246000fd5b602002602001015160200181815250508086848151811061193957634e487b7160e01b600052603260045260246000fd5b6020908102919091010151526006850180548390811061196957634e487b7160e01b600052603260045260246000fd5b90600052602060002090600b02016040518061024001604052908160008201805461199390613197565b80601f01602080910402602001604051908101604052809291908181526020018280546119bf90613197565b8015611a0c5780601f106119e157610100808354040283529160200191611a0c565b820191906000526020600020905b8154815290600101906020018083116119ef57829003601f168201915b50505050508152602001600182018054611a2590613197565b80601f0160208091040260200160405190810160405280929190818152602001828054611a5190613197565b8015611a9e5780601f10611a7357610100808354040283529160200191611a9e565b820191906000526020600020905b815481529060010190602001808311611a8157829003601f168201915b50505050508152602001600282018054611ab790613197565b80601f0160208091040260200160405190810160405280929190818152602001828054611ae390613197565b8015611b305780601f10611b0557610100808354040283529160200191611b30565b820191906000526020600020905b815481529060010190602001808311611b1357829003601f168201915b50505091835250506040805160c0810191829052602090920191906003840190600690826000855b82829054906101000a900460000b60000b81526020019060010190602082600001049283019260010382029150808411611b585750505092845250506040805161020081019182905260209093019291506004840190601090826000855b825461010083900a900460ff161515815260206001928301818104948501949093039092029101808411611bb65790505050505050815260200160058201805480602002602001604051908101604052809291908181526020018280548015611c5c57602002820191906000526020600020906000905b825461010083900a900460ff16815260206001928301818104948501949093039092029101808411611c2d5790505b50505091835250506040805160808082018352600685015460ff808216845261010080830482166020868101919091526201000084048316868801526301000000909304821660608087019190915292870194909452600787015494860194909452600886015490850152600985015490840152600a9093015463ffffffff80821660a08501526401000000008204831660c08501526501000000000082048316151560e085015261ffff6601000000000000830416948401949094526801000000000000000081048216151561012084015269010000000000000000008104909116610140830152600160501b8104600190810b810b900b610160830152600160601b9004909116610180909101528651879085908110611d8e57634e487b7160e01b600052603260045260246000fd5b60200260200101516040018190525050508080611daa906131cc565b91505061185d565b50505092915050565b7fc8fcad8db84d3cc18b4c41d551ea0ee66dd599cde068d998e57d5e09332c131c90565b6000806002611def846001612f50565b611df99190612f68565b90508291505b81811015610f2457905080600281611e178186612f68565b611e219190612f50565b611e2b9190612f68565b9050611dff565b611e3a612141565b6000611e4461146a565b6000848152600d82016020526040812060090154919250906201518090611e7990600160c81b900464ffffffffff1642613180565b611e839190612f68565b905060005b6006811015611fd5576000858152600d8401602052604081206002018260068110611ec357634e487b7160e01b600052603260045260246000fd5b601091828204019190066002029054906101000a900460010b60010b9050600084600d0160008881526020019081526020016000206001018360068110611f1a57634e487b7160e01b600052603260045260246000fd5b602091828204019190069054906101000a900460000b60000b9050600081138015611f4457508381135b15611f6457611f538482613141565b611f5d9083612f0f565b9150611f8e565b83611f718260001961309f565b1315611f8e57611f818482612f0f565b611f8b9083612f0f565b91505b81868460068110611faf57634e487b7160e01b600052603260045260246000fd5b602002019060010b908160010b8152505050508080611fcd906131cc565b915050611e88565b505050919050565b6040805161020081018252600080825260208201819052918101829052606081018290526080810182905260a0810182905260c0810182905260e08101829052610100810182905261012081018290526101408101829052610160810191909152610180810161204b612185565b8152600060208201819052604082015260609081015290565b604051806102e00160405280600081526020016060815260200160006001600160a01b0316815260200160008152602001600081526020016120a4612141565b81526020016120b1612141565b81526020016120be6121a3565b815260200160006001600160a01b0316815260200160006001600160a01b031681526020016000815260200160008152602001600081526020016000815260200160008152602001600081526020016000815260200160008152602001600081526020016000815260200160008152602001600015158152602001606081525090565b6040518060c001604052806006906020820280368337509192915050565b604051806060016040528060008152602001600081526020016121806121c2565b905290565b60405180606001604052806003906020820280368337509192915050565b6040518061020001604052806010906020820280368337509192915050565b6040518061024001604052806060815260200160608152602001606081526020016121eb612141565b81526020016121f86121a3565b81526020016060815260200161220c612263565b815260006020820181905260408201819052606082018190526080820181905260a0820181905260c0820181905260e082018190526101008201819052610120820181905261014082018190526101609091015290565b60408051608081018252600080825260208201819052918101829052606081019190915290565b80356001600160a01b0381168114610a3257600080fd5b60008083601f8401126122b2578182fd5b50813567ffffffffffffffff8111156122c9578182fd5b60208301915083602080830285010111156122e357600080fd5b9250929050565b80358015158114610a3257600080fd5b803563ffffffff81168114610a3257600080fd5b60006020828403121561231f578081fd5b6106ee8261228a565b60008060006060848603121561233c578182fd5b6123458461228a565b92506123536020850161228a565b9150612361604085016122fa565b90509250925092565b60008060006040848603121561237e578283fd5b6123878461228a565b9250602084013567ffffffffffffffff808211156123a3578384fd5b818601915086601f8301126123b6578384fd5b8135818111156123c4578485fd5b8760206040830285010111156123d8578485fd5b6020830194508093505050509250925092565b600080604083850312156123fd578182fd5b6124068361228a565b946020939093013593505050565b600080600060608486031215612428578283fd5b6124318461228a565b95602085013595506040909401359392505050565b60008060006060848603121561245a578283fd5b6124638461228a565b9250612471602085016122fa565b9150612361604085016122ea565b60008060208385031215612491578182fd5b823567ffffffffffffffff8111156124a7578283fd5b6124b3858286016122a1565b90969095509350505050565b6000602082840312156124d0578081fd5b6106ee826122ea565b600080604083850312156124eb578182fd5b50508035926020909101359150565b60006020828403121561250b578081fd5b5051919050565b600060208284031215612523578081fd5b6106ee826122fa565b600080600060408486031215612540578283fd5b612549846122fa565b9250602084013567ffffffffffffffff811115612564578283fd5b612570868287016122a1565b9497909650939450505050565b6001600160a01b03169052565b6000815180845260208085019450808401835b838110156125c25781516001600160a01b03168752958201959082019060010161259d565b509495945050505050565b8060005b601081101561081257815115158452602093840193909101906001016125d1565b8060005b6006811015610812578151600190810b855260209485019490920191016125f6565b806000805b600681101561263e578251820b85526020948501949092019160010161261d565b5050505050565b6000815180845260208085019450848183028601828601855b8581101561281f5783830389528151606081518552868201518786015260408083015192508181870152825161052080848901526126a06105808901836128b8565b915089850151605f196080818b860301818c01526126be85846128b8565b945085880151955060a09250818b860301838c01526126dd85876128b8565b9688015196955060c094506126f48b860188612618565b87015195506101806127088b8201886125cd565b828801519650818b8703016103808c01526127238688612879565b96508488015195506127396103a08c0187612903565b60e08801516104208c01526101008801516104408c01526101208801516104608c015261014088015195506127726104808c0187612a7f565b61016088015195506127886104a08c0187612a94565b870151945061279e9150506104c08901846128ab565b6101a085015192506127b46104e0890184612a77565b6101c085015192506127ca6105008901846128ab565b6101e085015192506127de81890184612a94565b5050506102008201516127f56105408701826128b1565b50610220820151915061280c610560860183612a7f565b998601999350509084019060010161265e565b5090979650505050505050565b8060005b601081101561081257815161ffff16845260209384019390910190600101612830565b8060005b600381101561081257815160ff16845260209384019390910190600101612857565b6000815180845260208085019450808401835b838110156125c257815160ff168752958201959082019060010161288c565b15159052565b60010b9052565b60008151808452815b818110156128dd576020818501810151868301820152016128c1565b818111156128ee5782602083870101525b50601f01601f19169290920160200192915050565b60ff815116825260ff602082015116602083015260ff604082015116604083015260ff60608201511660608301525050565b600061024061294584845161257d565b60208301516129576020860182612a9b565b50604083015161296a604086018261257d565b50606083015161297d6060860182612a7f565b5060808301516129906080860182612a7f565b5060a08301516129a360a0860182612a7f565b5060c08301516129b660c086018261257d565b5060e08301516129c960e0860182612a89565b50610100808401516129dd82870182612a89565b5050610120808401516129f2828701826128ab565b505061014080840151612a07828701826128ab565b505061016080840151612a1c8287018261257d565b505061018080840151612a3182870182612853565b50506101a08301516101e0612a4881870183612a89565b6101c08501519150612a5e610200870183612a7f565b840151610220860183905290506113de8583018261258a565b61ffff169052565b63ffffffff169052565b64ffffffffff169052565b60ff169052565b6001600160601b03169052565b6001600160a01b0391909116815260200190565b6000602080830181845280855180835260408601915060408482028701019250838701855b82811015612b0f57603f19888603018452612afd858351612935565b94509285019290850190600101612ae1565b5092979650505050505050565b6020808252825182820181905260009190848201906040850190845b81811015612b5457835183529284019291840191600101612b38565b50909695505050505050565b6020808252825182820181905260009190848201906040850190845b81811015612b5457835163ffffffff1683529284019291840191600101612b7c565b901515815260200190565b60208082526022908201527f4c69624469616d6f6e643a204d75737420626520636f6e7472616374206f776e60408201526132b960f11b606082015260800190565b60208082526028908201527f4c6962476f746368694c656e64696e673a204c697374696e6720646f6573206e6040820152671bdd08195e1a5cdd60c21b606082015260800190565b6020808252818101527f41617665676f7463686946616365743a204d75737420626520636c61696d6564604082015260600190565b60208082526034908201527f4c696241707053746f726167653a204f6e6c792063616c6c61626c65206f6e20604082015273756e6c6f636b65642041617665676f746368697360601b606082015260800190565b6020808252603b908201527f4c696241707053746f726167653a204f6e6c792061617665676f74636869206f60408201527f776e65722063616e2063616c6c20746869732066756e6374696f6e0000000000606082015260800190565b6000602082526106ee6020830184612935565b600060408252612d3f6040830185612935565b8281036020840152610600845182526020850151816020840152612d65828401826128b8565b9150506040850151612d7a604084018261257d565b50606085015160608301526080850151608083015260a0850151612da160a08401826125f2565b5060c0850151610160612db6818501836125f2565b60e08701519150610220612dcc8186018461282c565b6101008801519250612de261042086018461257d565b6101208801519250612df861044086018461257d565b610140880151610460860152908701516104808501526101808701516104a08501526101a08701516104c08501526101c08701516104e08501526101e0870151610500850152610200870151610520850152860151610540840152506102408501516105608301526102608501516105808301526102808501516105a08301526102a0850151612e8c6105c08401826128ab565b506102c08501518282036105e0840152612ea68282612645565b979650505050505050565b90815260200190565b63ffffffff91909116815260200190565b60008160010b8360010b82821282617fff03821381151615612eef57612eef6131e7565b82617fff19038212811615612f0657612f066131e7565b50019392505050565b600080821280156001600160ff1b0384900385131615612f3157612f316131e7565b600160ff1b8390038412811615612f4a57612f4a6131e7565b50500190565b60008219821115612f6357612f636131e7565b500190565b600082612f8357634e487b7160e01b81526012600452602481fd5b500490565b80825b6001808611612f9a5750612fc5565b818704821115612fac57612fac6131e7565b80861615612fb957918102915b9490941c938002612f8b565b94509492505050565b60006106ee60001960ff851684600082612fea575060016106ee565b81612ff7575060006106ee565b816001811461300d576002811461301757613044565b60019150506106ee565b60ff841115613028576130286131e7565b6001841b91508482111561303e5761303e6131e7565b506106ee565b5060208310610133831016604e8410600b8410161715613077575081810a83811115613072576130726131e7565b6106ee565b6130848484846001612f88565b808604821115613096576130966131e7565b02949350505050565b60006001600160ff1b03818413828413808216868404861116156130c5576130c56131e7565b600160ff1b848712828116878305891216156130e3576130e36131e7565b8587129250878205871284841616156130fe576130fe6131e7565b87850587128184161615613114576131146131e7565b505050929093029392505050565b600081600019048311821515161561313c5761313c6131e7565b500290565b60008083128015600160ff1b85018412161561315f5761315f6131e7565b6001600160ff1b038401831381161561317a5761317a6131e7565b50500390565b600082821015613192576131926131e7565b500390565b6002810460018216806131ab57607f821691505b60208210811415610f2457634e487b7160e01b600052602260045260246000fd5b60006000198214156131e0576131e06131e7565b5060010190565b634e487b7160e01b600052601160045260246000fdfea2646970667358221220bc583fc98136f2714dd2f11c71585fba4014d7b486e97bc33201d35ba44f5b1b64736f6c63430008010033",
  "linkReferences": {},
  "deployedLinkReferences": {}
}