{
  "_format": "hh-sol-artifact-1",
  "contractName": "PeripheryFacet",
  "sourceName": "contracts/Aavegotchi/facets/PeripheryFacet.sol",
  "abi": [
    {
      "inputs": [
        {
          "internalType": "address",
          "name": "_operator",
          "type": "address"
        },
        {
          "internalType": "address",
          "name": "_from",
          "type": "address"
        },
        {
          "internalType": "address",
          "name": "_to",
          "type": "address"
        },
        {
          "internalType": "uint256[]",
          "name": "_ids",
          "type": "uint256[]"
        },
        {
          "internalType": "uint256[]",
          "name": "_values",
          "type": "uint256[]"
        },
        {
          "internalType": "bytes",
          "name": "_data",
          "type": "bytes"
        }
      ],
      "name": "peripherySafeBatchTransferFrom",
      "outputs": [],
      "stateMutability": "nonpayable",
      "type": "function"
    },
    {
      "inputs": [
        {
          "internalType": "address",
          "name": "_operator",
          "type": "address"
        },
        {
          "internalType": "address",
          "name": "_from",
          "type": "address"
        },
        {
          "internalType": "address",
          "name": "_to",
          "type": "address"
        },
        {
          "internalType": "uint256",
          "name": "_id",
          "type": "uint256"
        },
        {
          "internalType": "uint256",
          "name": "_value",
          "type": "uint256"
        },
        {
          "internalType": "bytes",
          "name": "_data",
          "type": "bytes"
        }
      ],
      "name": "peripherySafeTransferFrom",
      "outputs": [],
      "stateMutability": "nonpayable",
      "type": "function"
    },
    {
      "inputs": [
        {
          "internalType": "address",
          "name": "_operator",
          "type": "address"
        },
        {
          "internalType": "bool",
          "name": "_approved",
          "type": "bool"
        },
        {
          "internalType": "address",
          "name": "_onBehalfOf",
          "type": "address"
        }
      ],
      "name": "peripherySetApprovalForAll",
      "outputs": [],
      "stateMutability": "nonpayable",
      "type": "function"
    },
    {
      "inputs": [
        {
          "internalType": "string",
          "name": "_value",
          "type": "string"
        }
      ],
      "name": "peripherySetBaseURI",
      "outputs": [
        {
          "internalType": "uint256",
          "name": "_itemsLength",
          "type": "uint256"
        }
      ],
      "stateMutability": "nonpayable",
      "type": "function"
    },
    {
      "inputs": [],
      "name": "removeInterface",
      "outputs": [],
      "stateMutability": "nonpayable",
      "type": "function"
    },
    {
      "inputs": [
        {
          "internalType": "address",
          "name": "_periphery",
          "type": "address"
        }
      ],
      "name": "setPeriphery",
      "outputs": [],
      "stateMutability": "nonpayable",
      "type": "function"
    }
  ],
  "bytecode": "0x608060405234801561001057600080fd5b50611926806100206000396000f3fe608060405234801561001057600080fd5b50600436106100625760003560e01c806328a6ddc714610067578063474f32f71461007c57806392d5716f1461008f578063aeb22934146100b8578063cf2a46da146100cb578063d0cd350f146100d3575b600080fd5b61007a610075366004611201565b6100e6565b005b61007a61008a3660046112cb565b6102b9565b6100a261009d3660046113c2565b6103fc565b6040516100af9190611812565b60405180910390f35b61007a6100c63660046111e0565b610455565b61007a61047f565b61007a6100e1366004611352565b6104b5565b60006100f061052a565b6052549091506001600160a01b038083169116146101295760405162461bcd60e51b81526004016101209061169a565b60405180910390fd5b6001600160a01b03881661014f5760405162461bcd60e51b8152600401610120906117c8565b85841461016e5760405162461bcd60e51b815260040161012090611617565b886001600160a01b03168a6001600160a01b031614806101b357506001600160a01b03808a166000908152601260209081526040808320938e168352929052205460ff165b6101cf5760405162461bcd60e51b8152600401610120906116dd565b60005b868110156102665760008888838181106101fc57634e487b7160e01b600052603260045260246000fd5b905060200201359050600087878481811061022757634e487b7160e01b600052603260045260246000fd5b90506020020135905061023b8c8383610587565b6102468b83836107c7565b61025130838e61088c565b5050808061025e906118a9565b9150506101d2565b506102ad8a8a8a8a8a8a8a8a8a8080601f016020809104026020016040519081016040528093929190818152602001838380828437600092019190915250610a3b92505050565b50505050505050505050565b60006102c361052a565b6052549091506001600160a01b038083169116146102f35760405162461bcd60e51b81526004016101209061169a565b6001600160a01b0386166103195760405162461bcd60e51b8152600401610120906117c8565b866001600160a01b0316886001600160a01b0316148061035e57506001600160a01b038088166000908152601260209081526040808320938c168352929052205460ff165b8061037157506001600160a01b03881630145b61038d5760405162461bcd60e51b8152600401610120906116dd565b610398878686610587565b6103a38686866107c7565b6103ae30868961088c565b6103f2888888888888888080601f016020809104026020016040519081016040528093929190818152602001838380828437600092019190915250610b0792505050565b5050505050505050565b60008061040761052a565b6052549091506001600160a01b038083169116146104375760405162461bcd60e51b81526004016101209061169a565b825161044a9060219060208601906110a2565b505060065492915050565b61045d610bc4565b605280546001600160a01b0319166001600160a01b0392909216919091179055565b610487610bc4565b6000610491610c09565b636cdb3d1360e11b6000908152600390910160205260409020805460ff1916905550565b60006104bf61052a565b6052549091506001600160a01b038083169116146104ef5760405162461bcd60e51b81526004016101209061169a565b506001600160a01b03908116600090815260126020908152604080832095909316825293909352909120805460ff1916911515919091179055565b60003330141561058157600080368080601f0160208091040260200160405190810160405280939291908181526020018383808284376000920191909152505050503601516001600160a01b031691506105849050565b50335b90565b6000610591610c2d565b6001600160a01b03851660009081526009820160209081526040808320878452909152902054909150808311156105da5760405162461bcd60e51b815260040161012090611732565b6105e48382611857565b6001600160a01b0386166000908152600984016020908152604080832088845290915290208190559050806107c0576001600160a01b0385166000908152600b83016020908152604080832087845290915281205461064590600190611857565b6001600160a01b0387166000908152600a850160205260408120549192509061067090600190611857565b905080821461074b576001600160a01b0387166000908152600a8501602052604081208054839081106106b357634e487b7160e01b600052603260045260246000fd5b906000526020600020015490508061ffff1685600a0160008a6001600160a01b03166001600160a01b03168152602001908152602001600020848154811061070b57634e487b7160e01b600052603260045260246000fd5b60009182526020909120015561072283600161183f565b6001600160a01b0389166000908152600b87016020908152604080832094835293905291909120555b6001600160a01b0387166000908152600a85016020526040902080548061078257634e487b7160e01b600052603160045260246000fd5b6000828152602080822083016000199081018390559092019092556001600160a01b0389168252600b86018152604080832089845290915281205550505b5050505050565b60006107d1610c2d565b6001600160a01b0385166000908152600982016020908152604080832087845290915281208054929350849290919061080b90849061183f565b90915550506001600160a01b0384166000908152600b820160209081526040808320868452909152902054610886576001600160a01b0384166000818152600a830160209081526040808320805460018101825581855283852061ffff8a169101559383529254600b85018252838320878452909152919020555b50505050565b6000610896610c2d565b6001600160a01b038086166000908152602f830160209081526040808320888452825280832093871683529290522054909150806108d5575050610a36565b6000818152602a830160205260409020600781015415806109055750600a81015460ff6101009091041615156001145b806109195750600a81015460ff1615156001145b1561092657505050610a36565b60058101548015610a1357600282015460018301546003840154604051627eeac760e11b81526001600160a01b039384169362fdd58e9361096c939116916004016115bc565b60206040518083038186803b15801561098457600080fd5b505afa158015610998573d6000803e3d6000fd5b505050506040513d601f19601f820116820180604052508101906109bc919061146c565b90508160050154811015610a135760058201819055600682015460405184917f9a1e053d28c2efc6add1e4a5d1647a99e883b256a54f9ef4a0abf8fcba643a5591610a0a9185914290611829565b60405180910390a25b80610a31576001820154610a319084906001600160a01b0316610c32565b505050505b505050565b853b8015610afc5760405163bc197c8160e01b81526001600160a01b0388169063bc197c8190610a7b908c908c908b908b908b908b908b90600401611515565b602060405180830381600087803b158015610a9557600080fd5b505af1158015610aa9573d6000803e3d6000fd5b505050506040513d601f19601f82011682018060405250810190610acd919061139a565b6001600160e01b03191663bc197c8160e01b14610afc5760405162461bcd60e51b81526004016101209061177e565b505050505050505050565b833b8015610a315760405163f23a6e6160e01b81526001600160a01b0386169063f23a6e6190610b43908a908a90899089908990600401611577565b602060405180830381600087803b158015610b5d57600080fd5b505af1158015610b71573d6000803e3d6000fd5b505050506040513d601f19601f82011682018060405250810190610b95919061139a565b6001600160e01b03191663f23a6e6160e01b14610a315760405162461bcd60e51b81526004016101209061177e565b610bcc610c09565b600401546001600160a01b0316610be161052a565b6001600160a01b031614610c075760405162461bcd60e51b8152600401610120906115d5565b565b7fc8fcad8db84d3cc18b4c41d551ea0ee66dd599cde068d998e57d5e09332c131c90565b600090565b6000610c3c610c2d565b9050600081602c01604051610c5090611503565b908152602001604051809103902060008581526020019081526020016000209050806001015460001415610c85575050610d53565b6000848152602a830160205260409020600a81015460ff61010090910416151560011480610cbc5750600a81015460ff1615156001145b15610cc957505050610d53565b60018101546001600160a01b03858116911614610cf85760405162461bcd60e51b815260040161012090611663565b600a8101805461ff001916610100179055600481015460405186917fc1ee70d4dadc0ea8041f31f81b07d0ac9374b6bf41956d9cae562e672f3f8a9191610d419190439061181b565b60405180910390a26107c08585610d57565b5050565b6000610d61610c2d565b9050600081602c01604051610d7590611503565b908152602001604051809103902060008581526020019081526020016000209050806001015460001415610daa575050610d53565b80548015610de957600083602c01604051610dc490611503565b9081526040805160209281900383019020600085815292529020600284810154910155505b60028201548015610e2657600084602c01604051610e0690611503565b908152604080516020928190038301902060008581529252902084549055505b6000868152602a85016020908152604080832060048101548452602b880190925291829020915190918891610e5a90611503565b9081526020016040518091039020541415610ea757600284015460048201546000908152602b87016020526040908190209051610e9690611503565b908152604051908190036020019020555b6000600185018190558085556002850155604051602e860190610ec990611503565b908152604080516020928190038301902060008a815292529020805490945092508215610f2757600085602e01604051610f0290611503565b9081526040805160209281900383019020600087815292529020600286810154910155505b600284015491508115610f6657600085602e01604051610f4690611503565b908152604080516020928190038301902060008681529252902085549055505b506000868152602a8501602090815260408083206001600160a01b0389168452602d880183528184206004820154855290925291829020915190918891610fac90611503565b908152602001604051809103902054141561100d5760028401546001600160a01b0387166000908152602d87016020908152604080832060048601548452909152908190209051610ffc90611503565b908152604051908190036020019020555b60006001850181905580855560028086018290558201546001600160a01b039081168252602f870160209081526040808420600386015485528252808420928a168452919052808220919091556004820154905188917f276ac39b0f98215592b4487434c1618e3e527c57ca2f471ac93eb4eab1694091916110919190429061181b565b60405180910390a250505050505050565b8280546110ae9061186e565b90600052602060002090601f0160209004810192826110d05760008555611116565b82601f106110e957805160ff1916838001178555611116565b82800160010185558215611116579182015b828111156111165782518255916020019190600101906110fb565b50611122929150611126565b5090565b5b808211156111225760008155600101611127565b80356001600160a01b038116811461115257600080fd5b919050565b60008083601f840112611168578081fd5b50813567ffffffffffffffff81111561117f578182fd5b602083019150836020808302850101111561119957600080fd5b9250929050565b60008083601f8401126111b1578182fd5b50813567ffffffffffffffff8111156111c8578182fd5b60208301915083602082850101111561119957600080fd5b6000602082840312156111f1578081fd5b6111fa8261113b565b9392505050565b600080600080600080600080600060c08a8c03121561121e578485fd5b6112278a61113b565b985061123560208b0161113b565b975061124360408b0161113b565b965060608a013567ffffffffffffffff8082111561125f578687fd5b61126b8d838e01611157565b909850965060808c0135915080821115611283578586fd5b61128f8d838e01611157565b909650945060a08c01359150808211156112a7578384fd5b506112b48c828d016111a0565b915080935050809150509295985092959850929598565b600080600080600080600060c0888a0312156112e5578283fd5b6112ee8861113b565b96506112fc6020890161113b565b955061130a6040890161113b565b9450606088013593506080880135925060a088013567ffffffffffffffff811115611333578283fd5b61133f8a828b016111a0565b989b979a50959850939692959293505050565b600080600060608486031215611366578283fd5b61136f8461113b565b925060208401358015158114611383578283fd5b91506113916040850161113b565b90509250925092565b6000602082840312156113ab578081fd5b81516001600160e01b0319811681146111fa578182fd5b6000602082840312156113d3578081fd5b813567ffffffffffffffff808211156113ea578283fd5b818401915084601f8301126113fd578283fd5b81358181111561140f5761140f6118da565b604051601f8201601f19908116603f01168101908382118183101715611437576114376118da565b8160405282815287602084870101111561144f578586fd5b826020860160208301379182016020019490945295945050505050565b60006020828403121561147d578081fd5b5051919050565b81835260006001600160fb1b0383111561149c578081fd5b6020830280836020870137939093016020019283525090919050565b60008151808452815b818110156114dd576020818501810151868301820152016114c1565b818111156114ee5782602083870101525b50601f01601f19169290920160200192915050565b651b1a5cdd195960d21b815260060190565b6001600160a01b0388811682528716602082015260a0604082018190526000906115429083018789611484565b8281036060840152611555818688611484565b9050828103608084015261156981856114b8565b9a9950505050505050505050565b6001600160a01b03868116825285166020820152604081018490526060810183905260a0608082018190526000906115b1908301846114b8565b979650505050505050565b6001600160a01b03929092168252602082015260400190565b60208082526022908201527f4c69624469616d6f6e643a204d75737420626520636f6e7472616374206f776e60408201526132b960f11b606082015260800190565b6020808252602c908201527f4974656d735472616e736665723a20696473206e6f742073616d65206c656e6760408201526b74682061732076616c75657360a01b606082015260800190565b6020808252601d908201527f4d61726b6574706c6163653a206f776e6572206e6f742073656c6c6572000000604082015260600190565b60208082526023908201527f4c696241707053746f726167653a204e6f74207765617261626c65206469616d6040820152621bdb9960ea1b606082015260800190565b60208082526035908201527f4974656d735472616e736665723a204e6f74206f776e657220616e64206e6f746040820152741030b8383937bb32b2103a37903a3930b739b332b960591b606082015260800190565b6020808252602c908201527f4c69624974656d733a20446f65736e277420686176652074686174206d616e7960408201526b103a37903a3930b739b332b960a11b606082015260800190565b6020808252602a908201527f5765617261626c65733a205472616e736665722072656a65637465642f6661696040820152696c6564206279205f746f60b01b606082015260800190565b6020808252602a908201527f4974656d735472616e736665723a2043616e2774207472616e7366657220746f6040820152692030206164647265737360b01b606082015260800190565b90815260200190565b918252602082015260400190565b9283526020830191909152604082015260600190565b60008219821115611852576118526118c4565b500190565b600082821015611869576118696118c4565b500390565b60028104600182168061188257607f821691505b602082108114156118a357634e487b7160e01b600052602260045260246000fd5b50919050565b60006000198214156118bd576118bd6118c4565b5060010190565b634e487b7160e01b600052601160045260246000fd5b634e487b7160e01b600052604160045260246000fdfea26469706673582212203d8690516f38f88a0d869162618346ac2e9f59ff4d9cb70fddf3261767ec7c9864736f6c63430008010033",
  "linkReferences": {},
  "deployedLinkReferences": {}
}