{
  "_format": "hh-sol-artifact-1",
  "contractName": "SvgFacet",
  "sourceName": "contracts/Aavegotchi/facets/SvgFacet.sol",
  "abi": [
    {
      "inputs": [
        {
          "internalType": "bytes32",
          "name": "_svgType",
          "type": "bytes32"
        },
        {
          "internalType": "uint256",
          "name": "_numLayers",
          "type": "uint256"
        }
      ],
      "name": "deleteLastSvgLayers",
      "outputs": [],
      "stateMutability": "nonpayable",
      "type": "function"
    },
    {
      "inputs": [
        {
          "internalType": "uint256",
          "name": "_tokenId",
          "type": "uint256"
        }
      ],
      "name": "getAavegotchiSvg",
      "outputs": [
        {
          "internalType": "string",
          "name": "ag_",
          "type": "string"
        }
      ],
      "stateMutability": "view",
      "type": "function"
    },
    {
      "inputs": [
        {
          "internalType": "uint256",
          "name": "_itemId",
          "type": "uint256"
        }
      ],
      "name": "getItemSvg",
      "outputs": [
        {
          "internalType": "string",
          "name": "ag_",
          "type": "string"
        }
      ],
      "stateMutability": "view",
      "type": "function"
    },
    {
      "inputs": [],
      "name": "getNextSleeveId",
      "outputs": [
        {
          "internalType": "uint256",
          "name": "",
          "type": "uint256"
        }
      ],
      "stateMutability": "view",
      "type": "function"
    },
    {
      "inputs": [
        {
          "internalType": "bytes32",
          "name": "_svgType",
          "type": "bytes32"
        },
        {
          "internalType": "uint256",
          "name": "_itemId",
          "type": "uint256"
        }
      ],
      "name": "getSvg",
      "outputs": [
        {
          "internalType": "string",
          "name": "svg_",
          "type": "string"
        }
      ],
      "stateMutability": "view",
      "type": "function"
    },
    {
      "inputs": [
        {
          "internalType": "bytes32",
          "name": "_svgType",
          "type": "bytes32"
        },
        {
          "internalType": "uint256[]",
          "name": "_itemIds",
          "type": "uint256[]"
        }
      ],
      "name": "getSvgs",
      "outputs": [
        {
          "internalType": "string[]",
          "name": "svgs_",
          "type": "string[]"
        }
      ],
      "stateMutability": "view",
      "type": "function"
    },
    {
      "inputs": [
        {
          "internalType": "uint256",
          "name": "_tokenId",
          "type": "uint256"
        }
      ],
      "name": "portalAavegotchisSvg",
      "outputs": [
        {
          "internalType": "string[10]",
          "name": "svg_",
          "type": "string[10]"
        }
      ],
      "stateMutability": "view",
      "type": "function"
    },
    {
      "inputs": [
        {
          "internalType": "uint256",
          "name": "_hauntId",
          "type": "uint256"
        },
        {
          "internalType": "address",
          "name": "_collateralType",
          "type": "address"
        },
        {
          "internalType": "int16[6]",
          "name": "_numericTraits",
          "type": "int16[6]"
        },
        {
          "internalType": "uint16[16]",
          "name": "equippedWearables",
          "type": "uint16[16]"
        }
      ],
      "name": "previewAavegotchi",
      "outputs": [
        {
          "internalType": "string",
          "name": "ag_",
          "type": "string"
        }
      ],
      "stateMutability": "view",
      "type": "function"
    },
    {
      "inputs": [
        {
          "internalType": "uint256[]",
          "name": "_itemIds",
          "type": "uint256[]"
        },
        {
          "components": [
            {
              "internalType": "uint8",
              "name": "x",
              "type": "uint8"
            },
            {
              "internalType": "uint8",
              "name": "y",
              "type": "uint8"
            },
            {
              "internalType": "uint8",
              "name": "width",
              "type": "uint8"
            },
            {
              "internalType": "uint8",
              "name": "height",
              "type": "uint8"
            }
          ],
          "internalType": "struct Dimensions[]",
          "name": "_dimensions",
          "type": "tuple[]"
        }
      ],
      "name": "setItemsDimensions",
      "outputs": [],
      "stateMutability": "nonpayable",
      "type": "function"
    },
    {
      "inputs": [
        {
          "components": [
            {
              "internalType": "uint256",
              "name": "sleeveId",
              "type": "uint256"
            },
            {
              "internalType": "uint256",
              "name": "wearableId",
              "type": "uint256"
            }
          ],
          "internalType": "struct SvgFacet.Sleeve[]",
          "name": "_sleeves",
          "type": "tuple[]"
        }
      ],
      "name": "setSleeves",
      "outputs": [],
      "stateMutability": "nonpayable",
      "type": "function"
    },
    {
      "inputs": [
        {
          "internalType": "string",
          "name": "_svg",
          "type": "string"
        },
        {
          "components": [
            {
              "internalType": "bytes32",
              "name": "svgType",
              "type": "bytes32"
            },
            {
              "internalType": "uint256[]",
              "name": "sizes",
              "type": "uint256[]"
            }
          ],
          "internalType": "struct LibSvg.SvgTypeAndSizes[]",
          "name": "_typesAndSizes",
          "type": "tuple[]"
        }
      ],
      "name": "storeSvg",
      "outputs": [],
      "stateMutability": "nonpayable",
      "type": "function"
    },
    {
      "inputs": [
        {
          "internalType": "string",
          "name": "_svg",
          "type": "string"
        },
        {
          "components": [
            {
              "internalType": "bytes32",
              "name": "svgType",
              "type": "bytes32"
            },
            {
              "internalType": "uint256[]",
              "name": "ids",
              "type": "uint256[]"
            },
            {
              "internalType": "uint256[]",
              "name": "sizes",
              "type": "uint256[]"
            }
          ],
          "internalType": "struct LibSvg.SvgTypeAndIdsAndSizes[]",
          "name": "_typesAndIdsAndSizes",
          "type": "tuple[]"
        }
      ],
      "name": "updateSvg",
      "outputs": [],
      "stateMutability": "nonpayable",
      "type": "function"
    }
  ],
  "bytecode": "0x608060405234801561001057600080fd5b5061462d806100206000396000f3fe608060405234801561001057600080fd5b50600436106100b45760003560e01c80636a646f34116100715780636a646f341461014557806388254c7c14610165578063945f4e2414610185578063ea9fd8e814610198578063f300633d146101ab578063fd91838f146101be576100b4565b8063082b571a146100b957806317c50d2c146100ce578063295041f0146100f75780632c63a8341461010a5780632f7f5bb11461011f57806336f2198314610132575b600080fd5b6100cc6100c7366004613119565b6101d1565b005b6100e16100dc3660046132ed565b6102b2565b6040516100ee9190613e75565b60405180910390f35b6100e1610105366004613305565b6103ad565b610112610421565b6040516100ee91906140c9565b6100cc61012d366004613285565b610478565b6100cc610140366004613285565b6104d5565b6101586101533660046132ed565b61052b565b6040516100ee9190613c9c565b61017861017336600461321b565b61067e565b6040516100ee9190613cea565b6100e16101933660046132ed565b61075f565b6100cc6101a6366004613188565b6108cd565b6100e16101b9366004613264565b6109eb565b6100cc6101cc366004613264565b6109fe565b60006101db610ab2565b6001600160a01b0381166000908152603b602052604090205490915060ff1615156001146102245760405162461bcd60e51b815260040161021b90614029565b60405180910390fd5b60005b828110156102ac5783838281811061024f57634e487b7160e01b600052603260045260246000fd5b60400291909101359050603a600086868581811061027d57634e487b7160e01b600052603260045260246000fd5b9050604002016020013581526020019081526020016000208190555080806102a49061446c565b915050610227565b50505050565b60065460609082106102d65760405162461bcd60e51b815260040161021b90613efe565b60606102ee687765617261626c657360b81b84610b0e565b9050600080600601848154811061031557634e487b7160e01b600052603260045260246000fd5b90600052602060002090600b0201600601905061035460405180606001604052806035815260200161457c60359139825462010000900460ff16610b40565b6040805180820190915260018152600160fd1b6020820152825461038291906301000000900460ff16610b40565b8360405160200161039593929190613802565b60405160208183030381529060405292505050919050565b606060006103c985856103c36001600019614406565b89610c6c565b90506103d5818461136e565b6040516020016103e5919061361c565b6040516020818303038152906040529050806040516020016104079190613c5a565b604051602081830303815290604052915050949350505050565b600080600201600061046160405180604001604052806007815260200166736c656576657360c81b815250604051806020016040528060008152506114e5565b815260208101919091526040016000205490505b90565b6000610482610ab2565b6001600160a01b0381166000908152603b602052604090205490915060ff1615156001146104c25760405162461bcd60e51b815260040161021b90614029565b6104ce85858585611539565b5050505050565b60006104df610ab2565b6001600160a01b0381166000908152603b602052604090205490915060ff16151560011461051f5760405162461bcd60e51b815260040161021b90614029565b6104ce8585858561175c565b610533612e74565b6000828152600d60205260409020600a0154600160a01b900460ff1660021461056e5760405162461bcd60e51b815260040161021b90613ec9565b6000828152600d6020526040812060090154600160f01b900461ffff169061059584611910565b905060005b600a8110156106765760008282600a81106105c557634e487b7160e01b600052603260045260246000fd5b6020020151604001519050610606818484600a81106105f457634e487b7160e01b600052603260045260246000fd5b60200201516020015160001987610c6c565b61061e6961617665676f7463686960b01b6003610b0e565b60405160200161062f929190613c12565b6040516020818303038152906040528583600a811061065e57634e487b7160e01b600052603260045260246000fd5b6020020152508061066e8161446c565b91505061059a565b505050919050565b606081806001600160401b038111156106a757634e487b7160e01b600052604160045260246000fd5b6040519080825280602002602001820160405280156106da57816020015b60608152602001906001900390816106c55790505b50915060005b81811015610756576107188686868481811061070c57634e487b7160e01b600052603260045260246000fd5b90506020020135610b0e565b83828151811061073857634e487b7160e01b600052603260045260246000fd5b6020026020010181905250808061074e9061446c565b9150506106e0565b50509392505050565b6000818152600d60205260409020600a01546060906001600160a01b03166107995760405162461bcd60e51b815260040161021b90613e88565b6000828152600d60205260409020600a810154600990910154606091600160a01b900460ff1690600160f01b900461ffff16816107f1576107ea6c1c1bdc9d185b0b58db1bdcd959609a1b82610b0e565b92506108a3565b60ff821660021415610815576107ea6a3837b93a30b616b7b832b760a91b82610b0e565b60ff8216600314156108a3576000858152600d60205260408082206009810154825160c08101938490526001600160a01b039091169361089f93859360020191600691908390855b82829054906101000a900460010b60010b8152602001906002019060208260010104928301926001038202915080841161085d57905050505050508885610c6c565b9350505b826040516020016108b49190613c5a565b6040516020818303038152906040529350505050919050565b60006108d7610ab2565b6001600160a01b0381166000908152603b602052604090205490915060ff1615156001146109175760405162461bcd60e51b815260040161021b90614029565b8382146109365760405162461bcd60e51b815260040161021b90613fd8565b60005b848110156109e35783838281811061096157634e487b7160e01b600052603260045260246000fd5b905060800201600060060187878481811061098c57634e487b7160e01b600052603260045260246000fd5b90506020020135815481106109b157634e487b7160e01b600052603260045260246000fd5b90600052602060002090600b020160060181816109ce91906144dd565b508190506109db8161446c565b915050610939565b505050505050565b60606109f78383610b0e565b9392505050565b6000610a08610ab2565b6001600160a01b0381166000908152603b602052604090205490915060ff161515600114610a485760405162461bcd60e51b815260040161021b90614029565b60005b828110156102ac576000848152600260205260409020805480610a7e57634e487b7160e01b600052603160045260246000fd5b600082815260209020810160001990810180546001600160c01b031916905501905580610aaa8161446c565b915050610a4b565b600033301415610b0957600080368080601f0160208091040260200160405190810160405280939291908181526020018383808284376000920191909152505050503601516001600160a01b031691506104759050565b503390565b60606000610b1a611a8f565b60008581526002820160205260409020909150610b378185611a94565b95945050505050565b60608082610b705783604051602001610b599190613866565b604051602081830303815290604052915050610c66565b8260005b8115610b8857600101600a82049150610b74565b806001600160401b03811115610bae57634e487b7160e01b600052604160045260246000fd5b6040519080825280601f01601f191660200182016040528015610bd8576020820181803683370190505b50925084915060001981015b8215610c3d57600a830660300160f81b84828060019003935081518110610c1b57634e487b7160e01b600052603260045260246000fd5b60200101906001600160f81b031916908160001a905350600a83049250610be4565b5050508381604051602001610c53929190613638565b6040516020818303038152906040529150505b92915050565b6060610c76612e9c565b6001600160a01b038616600090815260208190526040902060010154610c9e9060e81b611b6e565b81526001600160a01b038616600090815260208190526040902060010154610ccf906301000000900460e81b611b6e565b6020808301919091526001600160a01b0387166000908152908190526040902060010154610d09906601000000000000900460e81b611b6e565b6040820152610d266961617665676f7463686960b01b6002610b0e565b6001600160a01b038716600090815260208190526040902060010154909250610d68906a636f6c6c61746572616c7360a81b90600160481b900460ff16610b0e565b60608201526865796553686170657360b81b60018414610dd9576000610d8d85611d1e565b604051602001610d9d919061361c565b6040516020818303038152906040529050610dd5604051602001610dc090613ad5565b604051602081830303815290604052826114e5565b9150505b60808087015160010b90830181905260001315610e0557610dfb816000610b0e565b60c0830152610f87565b606182608001511315610e43576001600160a01b038716600090815260208190526040902060010154610dfb908290600160501b900460ff16610b0e565b6040518061024001604052806000815260200160018152602001600281526020016005815260200160078152602001600a8152602001600f81526020016014815260200160198152602001602a8152602001603a8152602001604b81526020016050815260200160558152602001605a8152602001605d8152602001605f815260200160628152508260a0018190525060005b610ee260016012614406565b811015610f85578260a001518160128110610f0d57634e487b7160e01b600052603260045260246000fd5b6020020151836080015112158015610f5a575060a0830151610f3082600161421d565b60128110610f4e57634e487b7160e01b600052603260045260246000fd5b60200201518360800151125b15610f7357610f698282610b0e565b60c0840152610f85565b80610f7d8161446c565b915050610ed6565b505b856005602002015160010b8260800181815250506040518061010001604052806000815260200160028152602001600a815260200160198152602001604b8152602001605a81526020016062815260200160648152508261010001819052506040518060e001604052806040518060400160405280600681526020016523231818232360d11b81525081526020016040518060400160405280600681526020016518181b1a232360d11b8152508152602001604051806040016040528060068152602001651aa2191a212360d11b8152508152602001836000015181526020016040518060400160405280600681526020016533363831384560d01b81525081526020016040518060400160405280600681526020016545413843323760d01b81525081526020016040518060400160405280600681526020016506a628c8c82760d31b81525081525082610120018190525060008260800151121561110e5760408051808201909152600681526523231818232360d11b602082015260e0830152611218565b6063826080015113156111425760408051808201909152600681526506a628c8c82760d31b602082015260e0830152611218565b60005b61115160016008614406565b81101561121657826101000151816008811061117d57634e487b7160e01b600052603260045260246000fd5b60200201518360800151121580156111cb57506101008301516111a182600161421d565b600881106111bf57634e487b7160e01b600052603260045260246000fd5b60200201518360800151125b156112045782610120015181600781106111f557634e487b7160e01b600052603260045260246000fd5b602002015160e0840152611216565b8061120e8161446c565b915050611145565b505b6000858152600d60205260408082208151610200810192839052916010908285855b82829054906101000a900461ffff1661ffff168152602001906002019060208260010104928301926001038202915080841161123a579050505050505090506000198614156112db5761128e838783611e63565b6112a66961617665676f7463686960b01b6004610b0e565b8585606001518660c001516040516020016112c59594939291906136be565b6040516020818303038152906040529350611363565b6112e86001600019614406565b86141561131c57600181526112fe838783611e63565b8484606001518560c001516040516020016112c59493929190613667565b611327838783611e63565b8484606001518560c001516040516020016113459493929190613667565b6040516020818303038152906040529350611360848261136e565b93505b505050949350505050565b6060611378612f00565b60e083015161ffff16801561139957611392816007611f03565b82526113b4565b6113b16961617665676f7463686960b01b6004610b0e565b82525b50825161ffff1680156113d5576113ca816120f4565b60c084015260208301525b826113ee6961617665676f7463686960b01b6003610b0e565b6040516020016113ff929190613638565b60408051808303601f1901815291815283015250602083015161ffff1680156114335761142d816001611f03565b60608301525b50604083015161ffff1680156114545761144e816002611f03565b60808301525b50606083015161ffff1680156114755761146f816003611f03565b60a08301525b50608083015161ffff16801561149657611490816004611f03565b60e08301525b5060a083015161ffff1680156114b8576114b1816005611f03565b6101008301525b5060c083015161ffff1680156114da576114d3816006611f03565b6101208301525b610b378483876122c6565b60008083836040516020016114fb929190613638565b604051602081830303815290604052905060208151111561152e5760405162461bcd60e51b815260040161021b90614086565b602001519392505050565b6000611543611a8f565b90507f9b0014ffd423ce86cb8e4db5b723051b2c64b2f0f52f57854402be02ac8aaa0e8383604051611576929190613d4a565b60405180910390a1600061158a868661259a565b90506000805b8481101561175257368686838181106115b957634e487b7160e01b600052603260045260246000fd5b90506020028101906115cb9190614118565b905060005b6115dd60408301836140d2565b905081101561173d5760006115f560408401846140d2565b8381811061161357634e487b7160e01b600052603260045260246000fd5b905060200201359050600083806020019061162e91906140d2565b8481811061164c57634e487b7160e01b600052603260045260246000fd5b9050602002013590506040518060600160405280886001600160a01b031681526020018761ffff1681526020018361ffff168152508860020160008660000135815260200190815260200160002082815481106116b957634e487b7160e01b600052603260045260246000fd5b6000918252602091829020835191018054928401516040909401516001600160a01b03199093166001600160a01b039092169190911761ffff60a01b1916600160a01b61ffff948516021761ffff60b01b1916600160b01b9390921692909202179055611726828761421d565b9550505080806117359061446c565b9150506115d0565b5050808061174a9061446c565b915050611590565b5050505050505050565b6000611766611a8f565b90507f0f6d7f4707d30f76042fe2e9e5b3a798697eea80f3af64651e3760059051ee248383604051611799929190613df9565b60405180910390a160006117ad868661259a565b90506000805b8481101561175257368686838181106117dc57634e487b7160e01b600052603260045260246000fd5b90506020028101906117ee919061412d565b905060005b61180060208301836140d2565b90508110156118fb57600061181860208401846140d2565b8381811061183657634e487b7160e01b600052603260045260246000fd5b8535600090815260028b016020908152604080832081516060810183526001600160a01b038e8116825261ffff8e81168387019081529786029990990135808a16948301948552835460018101855593875294909520905191018054955192516001600160a01b0319909616919094161761ffff60a01b1916600160a01b918716919091021761ffff60b01b1916600160b01b9390951692909202939093179092555090506118e5818661421d565b94505080806118f39061446c565b9150506117f3565b505080806119089061446c565b9150506117b3565b611918612f53565b6000611922611a8f565b6000848152600d820160205260409020600a0154909150600160a01b900460ff166002146119625760405162461bcd60e51b815260040161021b90613ec9565b6000838152600c82016020908152604080832054600d85019092528220600901549091600160f01b90910461ffff16905b600a811015611a865760006119a98385846126fc565b80519091508683600a81106119ce57634e487b7160e01b600052603260045260246000fd5b60200201515260408101518683600a81106119f957634e487b7160e01b600052603260045260246000fd5b60200201516001600160a01b0390911660409091015260608101518683600a8110611a3457634e487b7160e01b600052603260045260246000fd5b6020020151606001818152505080602001518683600a8110611a6657634e487b7160e01b600052603260045260246000fd5b602002015160200181905250508080611a7e9061446c565b915050611993565b50505050919050565b600090565b81546060908210611ab75760405162461bcd60e51b815260040161021b90613f40565b6000838381548110611ad957634e487b7160e01b600052603260045260246000fd5b600091825260209091200180549091506001600160a01b0381169061ffff600160b01b8204811691600160a01b900416816001600160401b03811115611b2f57634e487b7160e01b600052604160045260246000fd5b6040519080825280601f01601f191660200182016040528015611b59576020820181803683370190505b509450818160208701853c5050505092915050565b604080518082018252601081526f181899199a1a9b1b9c1ca0a121a222a360811b602082015281516006808252818401909352606092600091906020820181803683370190505090506000805b6003811015611d1257836004878360038110611be757634e487b7160e01b600052603260045260246000fd5b1a60f81b6001600160f81b031916901c60f81c60ff1681518110611c1b57634e487b7160e01b600052603260045260246000fd5b602001015160f81c60f81b838381518110611c4657634e487b7160e01b600052603260045260246000fd5b60200101906001600160f81b031916908160001a90535081611c678161446c565b92505083868260038110611c8b57634e487b7160e01b600052603260045260246000fd5b825191901a600f16908110611cb057634e487b7160e01b600052603260045260246000fd5b602001015160f81c60f81b838381518110611cdb57634e487b7160e01b600052603260045260246000fd5b60200101906001600160f81b031916908160001a90535081611cfc8161446c565b9250508080611d0a9061446c565b915050611bbb565b5090925050505b919050565b606081611d4357506040805180820190915260018152600360fc1b6020820152611d19565b8160005b8115611d6d5780611d578161446c565b9150611d669050600a8361425a565b9150611d47565b6000816001600160401b03811115611d9557634e487b7160e01b600052604160045260246000fd5b6040519080825280601f01601f191660200182016040528015611dbf576020820181803683370190505b509050815b8515611e5a57611dd5600182614406565b90506000611de4600a8861425a565b611def90600a61437f565b611df99088614406565b611e04906030614235565b905060008160f81b905080848481518110611e2f57634e487b7160e01b600052603260045260246000fd5b60200101906001600160f81b031916908160001a905350611e51600a8961425a565b97505050611dc4565b50949350505050565b60606000198314158015611e9e5750815161ffff16151580611e8c5750608082015161ffff1615155b80611e9e575060a082015161ffff1615155b15611ede57835160208086015160408088015160e08901519151611ec8959491929185910161388b565b60405160208183030381529060405290506109f7565b835160208086015160408088015160e08901519151611ec895949192918591016139c1565b60606000806006018481548110611f2a57634e487b7160e01b600052603260045260246000fd5b60009182526020808320604080516080810182526006600b9095029092019384015460ff8082168452610100820481169484019490945262010000810484169183019190915263010000009004909116606082015290925090611f8c856129d2565b905080611fc26040518060400160405280600a815260200169111f1e39bb33903c1e9160b11b815250846000015160ff16610b40565b611ff06040518060400160405280600581526020016411103c9e9160d91b815250856020015160ff16610b40565b60405160200161200293929190613aeb565b60408051601f19818403018152919052935060058514156120a4578361205a6040518060600160405280602681526020016145d260269139845161204790600261439e565b61205290604061441d565b60ff16610b40565b600a85015461207c90687765617261626c657360b81b9063ffffffff16610b0e565b60405160200161208e93929190613792565b60405160208183030381529060405293506120eb565b600a83015484906120c890687765617261626c657360b81b9063ffffffff16610b0e565b6040516020016120d9929190613729565b60405160208183030381529060405293505b50505092915050565b606080600080600601848154811061211c57634e487b7160e01b600052603260045260246000fd5b6000918252602091829020604080516080810182526006600b9094029092019283015460ff808216845261010082048116848701526201000082048116848401526301000000909104811660608401528151808301909252600a825269111f1e39bb33903c1e9160b11b948201949094528151929450909261219e9216610b40565b6121cc6040518060400160405280600581526020016411103c9e9160d91b815250836020015160ff16610b40565b600a8401546121ee90687765617261626c657360b81b9063ffffffff16610b0e565b60405160200161220093929190613b6c565b60408051601f198184030181529181526000878152603a602052205490945080156122be576122586040518060400160405280600a815260200169111f1e39bb33903c1e9160b11b815250836000015160ff16610b40565b6122866040518060400160405280600581526020016411103c9e9160d91b815250846020015160ff16610b40565b61229a66736c656576657360c81b84610b0e565b6040516020016122ac93929190613802565b60405160208183030381529060405293505b505050915091565b606060006123136040518060400160405280600a8152602001697765617261626c65732d60b01b81525060405180604001604052806005815260200164199c9bdb9d60da1b8152506114e5565b8451602080870151604080890151905194955061233294889301613667565b60408051808303601f190181529181526000838152604f60209081528282208984015161ffff1683528152828220600283529052205490925060ff1680156123a457506000818152604f60209081526040808320606089015161ffff16845282528083206003845290915290205460ff165b80156123bd5750846002602002015161ffff1661012d14155b156123fb578184606001518560a0015186608001516040516020016123e59493929190613667565b6040516020818303038152906040529150612556565b6000818152604f602090815260408083208883015161ffff16845282528083206001845290915290205460ff168061243f5750846002602002015161ffff1661012d145b801561247557506000818152604f60209081526040808320606089015161ffff16845282528083206003845290915290205460ff165b1561249d578184608001518560a0015186606001516040516020016123e59493929190613667565b6000818152604f602090815260408083208883015161ffff16845282528083206001845290915290205460ff16806124e15750846002602002015161ffff1661012d145b80156124f95750846002602002015161ffff1661012d145b156125215781846080015185606001518660a001516040516020016123e59493929190613667565b81846060015185608001518660a001516040516020016125449493929190613667565b60405160208183030381529060405291505b818460c001518560e001518661010001518761012001516040516020016125819594939291906136be565b6040516020818303038152906040529150509392505050565b600061600082106125bd5760405162461bcd60e51b815260040161021b90613f85565b60408051808201909152600e81526d610000600e6000396100006000f360901b602082015260f883901b6001600160f81b031960f085901b8116908216600081901a602285015350808360018151811061262757634e487b7160e01b600052603260045260246000fd5b60200101906001600160f81b031916908160001a9053508183600a8151811061266057634e487b7160e01b600052603260045260246000fd5b60200101906001600160f81b031916908160001a905350808360098151811061269957634e487b7160e01b600052603260045260246000fd5b60200101906001600160f81b031916908160001a90535060008387876040516020016126c79392919061376d565b60405160208183030381529060405290508051602082016000f09450846126f2573d6000803e3d6000fd5b5050505092915050565b612704612f81565b600061270e611a8f565b905060008484604051602001612725929190613c8e565b60408051601f1981840301815291815281516020928301208086526000898152603d860190935290822080549193509061275f9084614487565b8154811061277d57634e487b7160e01b600052603260045260246000fd5b6000918252602080832091909101546001600160a01b0316808352908590526040808320815160c08101928390529294506127fd938693926006918390855b82829054906101000a900460010b60010b815260200190600201906020826001010492830192600103820291508084116127bc579050505050505089612b51565b6020858101919091526001600160a01b038216604080870182905260009182529185905281812082516101c08101938490529192829061010082019083906006908288855b82829054906101000a900460010b60010b815260200190600201906020826001010492830192600103820291508084116128425790505050509183525050600191909101546001600160e81b031960e882811b821660208086019190915263010000008404821b831660408601526601000000000000840490911b909116606084015260ff600160481b830481166080850152600160501b8304811660a085015261ffff600160581b8404811660c080870191909152600160681b909404909116151560e0909401939093529083015190880151929350169060009061292790612d48565b9050600082856001600160a01b031663313ce5676040518163ffffffff1660e01b815260040160206040518083038186803b15801561296557600080fd5b505afa158015612979573d6000803e3d6000fd5b505050506040513d601f19601f8201168201806040525081019061299d91906133bd565b6129a890600a6142b4565b6129b2919061425a565b90506129be828261437f565b606089015250959998505050505050505050565b6060816129ff575060408051808201909152600d81526c7765617261626c652d626f647960981b60208201525b6001821415612a2e575060408051808201909152600d81526c7765617261626c652d6661636560981b60208201525b6002821415612a5d575060408051808201909152600d81526c7765617261626c652d6579657360981b60208201525b6003821415612a8c575060408051808201909152600d81526c1dd9585c98589b194b5a195859609a1b60208201525b6004821415612ace576040518060400160405280602081526020017f7765617261626c652d68616e64207765617261626c652d68616e642d6c65667481525090505b6005821415612af3576040518060600160405280602181526020016145b16021913990505b6006821415612b21575060408051808201909152600c81526b1dd9585c98589b194b5c195d60a21b60208201525b6007821415611d1957505060408051808201909152600b81526a7765617261626c652d626760a81b602082015290565b612b59612faf565b8160011415612c545760005b6006811015612c4e576000612b7b82600861437f565b86901c60ff1690506063811115612bdd57612b9760028261425a565b90506063811115612bdd5760648683604051602001612bb7929190613c8e565b6040516020818303038152906040528051906020012060001c612bda9190614487565b90505b848260068110612bfd57634e487b7160e01b600052603260045260246000fd5b6020020151612c0c90826141d9565b838360068110612c2c57634e487b7160e01b600052603260045260246000fd5b600192830b90920b602090920201525080612c468161446c565b915050612b65565b506109f7565b60005b6006811015612d40576000612c6d82600861437f565b86901c60ff1690506063811115612ccf57612c89606482614406565b90506063811115612ccf5760648683604051602001612ca9929190613c8e565b6040516020818303038152906040528051906020012060001c612ccc9190614487565b90505b848260068110612cef57634e487b7160e01b600052603260045260246000fd5b6020020151612cfe90826141d9565b838360068110612d1e57634e487b7160e01b600052603260045260246000fd5b600192830b90920b602090920201525080612d388161446c565b915050612c57565b509392505050565b600080612d5483612dec565b905061012c811015612d6a57600a915050611d19565b61012c8110158015612d7d57506101c281105b15612d8c57600a915050611d19565b6101c28110158015612da0575061020d8111155b15612daf576019915050611d19565b61020e8110158015612dc357506102448111155b15612dd2576064915050611d19565b6102458110612de6576103e8915050611d19565b50919050565b6000805b6006811015612de6576000838260068110612e1b57634e487b7160e01b600052603260045260246000fd5b602002015160010b905060328112612e4957612e3881600161421d565b612e42908461421d565b9250612e61565b612e548160646143c7565b612e5e908461421d565b92505b5080612e6c8161446c565b915050612df0565b604051806101400160405280600a905b6060815260200190600190039081612e845790505090565b6040518061014001604052806060815260200160608152602001606081526020016060815260200160008152602001612ed3612fcd565b81526020016060815260200160608152602001612eee612fec565b8152602001612efb61300b565b905290565b604051806101400160405280606081526020016060815260200160608152602001606081526020016060815260200160608152602001606081526020016060815260200160608152602001606081525090565b604051806101400160405280600a905b612f6b612f81565b815260200190600190039081612f635790505090565b604051806080016040528060008152602001612f9b612faf565b815260006020820181905260409091015290565b6040518060c001604052806006906020820280368337509192915050565b6040518061024001604052806012906020820280368337509192915050565b6040518061010001604052806008906020820280368337509192915050565b6040805160e0810190915260608152600660208201612e84565b60008083601f840112613036578182fd5b5081356001600160401b0381111561304c578182fd5b602083019150836020808302850101111561306657600080fd5b9250929050565b600082601f83011261307d578081fd5b6010602061020061308d81614142565b808688848901111561309d578687fd5b8693505b858410156130ce57803561ffff811681146130ba578788fd5b8352600193909301929184019184016130a1565b50979650505050505050565b60008083601f8401126130eb578182fd5b5081356001600160401b03811115613101578182fd5b60208301915083602082850101111561306657600080fd5b6000806020838503121561312b578182fd5b82356001600160401b0380821115613141578384fd5b818501915085601f830112613154578384fd5b813581811115613162578485fd5b866020604083028501011115613176578485fd5b60209290920196919550909350505050565b6000806000806040858703121561319d578182fd5b84356001600160401b03808211156131b3578384fd5b6131bf88838901613025565b909650945060208701359150808211156131d7578384fd5b818701915087601f8301126131ea578384fd5b8135818111156131f8578485fd5b88602060808302850101111561320c578485fd5b95989497505060200194505050565b60008060006040848603121561322f578283fd5b8335925060208401356001600160401b0381111561324b578283fd5b61325786828701613025565b9497909650939450505050565b60008060408385031215613276578182fd5b50508035926020909101359150565b6000806000806040858703121561329a578384fd5b84356001600160401b03808211156132b0578586fd5b6132bc888389016130da565b909650945060208701359150808211156132d4578384fd5b506132e187828801613025565b95989497509550505050565b6000602082840312156132fe578081fd5b5035919050565b600080600080610300858703121561331b578182fd5b843593506020808601356001600160a01b0381168114613339578384fd5b9350605f86018713613349578283fd5b600661335c61335782614172565b614142565b80604089016101008a018b811115613372578788fd5b875b8581101561339e5782358060010b811461338c57898afd5b85529386019391860191600101613374565b508297506133ac8c8261306d565b965050505050505092959194509250565b6000602082840312156133ce578081fd5b81516109f781614569565b81835260006001600160fb1b038311156133f1578081fd5b6020830280836020870137939093016020019283525090919050565b6000815161341f818560208601614440565b9290920192915050565b60008151808452613441816020860160208601614440565b601f01601f19169290920160200192915050565b7f2e676f746368692d68616e647355707b646973706c61793a6e6f6e653b7d00008152601e0190565b7f2e676f746368692d68616e6473446f776e436c6f7365647b646973706c61793a815265626c6f636b7d60d01b602082015260260190565b7f2e676f746368692d68616e6473446f776e4f70656e7b646973706c61793a626c8152646f636b3b7d60d81b602082015260250190565b7f3b7d2e676f746368692d736c65657665732d75707b646973706c61793a6e6f6e815262653b7d60e81b602082015260230190565b671e17b9ba3cb6329f60c11b815260080190565b7f2e676f746368692d68616e6473446f776e436c6f7365647b646973706c61793a8152656e6f6e653b7d60d01b602082015260260190565b7f3b7d2e676f746368692d7072696d6172792d6d6f7574687b66696c6c3a2300008152601e0190565b7f2e676f746368692d68616e6473446f776e4f70656e7b646973706c61793a6e6f8152636e653b7d60e01b602082015260240190565b7f3c73766720786d6c6e733d22687474703a2f2f7777772e77332e6f72672f323081527f30302f737667222076696577426f783d22302030203634203634223e000000006020820152603c0190565b6000825161362e818460208701614440565b9190910192915050565b6000835161364a818460208801614440565b83519083019061365e818360208801614440565b01949350505050565b60008551613679818460208a01614440565b85519083019061368d818360208a01614440565b85519101906136a0818360208901614440565b84519101906136b3818360208801614440565b019695505050505050565b600086516136d0818460208b01614440565b8651908301906136e4818360208b01614440565b86519101906136f7818360208a01614440565b855191019061370a818360208901614440565b845191019061371d818360208801614440565b01979650505050505050565b6000835161373b818460208801614440565b83519083019061374f818360208801614440565b691e17b9bb339f1e17b39f60b11b9101908152600a01949350505050565b6000845161377f818460208901614440565b8201838582379092019182525092915050565b600084516137a4818460208901614440565b8451908301906137b8818360208901614440565b6516101814911f60d11b910190815283516137da816006840160208801614440565b6d1e17b39f1e17b9bb339f1e17b39f60911b6006929091019182015260140195945050505050565b60008451613814818460208901614440565b845190830190613828818360208901614440565b61111f60f11b91019081528351613846816002840160208801614440565b651e17b9bb339f60d11b6002929091019182015260080195945050505050565b60008251613878818460208701614440565b600360fc1b920191825250600101919050565b60007f3c7374796c653e2e676f746368692d7072696d6172797b66696c6c3a23000000825286516138c381601d850160208b01614440565b7f3b7d2e676f746368692d7365636f6e646172797b66696c6c3a23000000000000601d918401918201528651613900816037840160208b01614440565b753b7d2e676f746368692d636865656b7b66696c6c3a2360501b60379290910191820152855161393781604d840160208a01614440565b601d81830101915050783b7d2e676f746368692d657965436f6c6f727b66696c6c3a2360381b60308201528451613975816049840160208901614440565b6139b46139af6139aa6139a56139a061399b6139956049888a010161356e565b8b61340d565b6134ed565b613455565b6134b6565b613536565b613522565b9998505050505050505050565b60007f3c7374796c653e2e676f746368692d7072696d6172797b66696c6c3a23000000825286516139f981601d850160208b01614440565b7f3b7d2e676f746368692d7365636f6e646172797b66696c6c3a23000000000000601d918401918201528651613a36816037840160208b01614440565b753b7d2e676f746368692d636865656b7b66696c6c3a2360501b603792909101918201528551613a6d81604d840160208a01614440565b601d81830101915050783b7d2e676f746368692d657965436f6c6f727b66696c6c3a2360381b60308201528451613aab816049840160208901614440565b6139b46139af613ad0613acb6139a061399b6139956049888a010161356e565b613597565b61347e565b690caf2caa6d0c2e0cae6960b31b8152600a0190565b60007f3c6720636c6173733d22676f746368692d7765617261626c652000000000000082528451613b2381601a850160208901614440565b845190830190613b3a81601a840160208901614440565b8451910190613b5081601a840160208801614440565b61111f60f11b9101601a810191909152601c0195945050505050565b60007f3c6720636c6173733d22676f746368692d7765617261626c65207765617261628252666c652d626f647960c81b60208301528451613bb4816027850160208901614440565b845190830190613bcb816027840160208901614440565b61111f60f11b602792909101918201528351613bee816029840160208801614440565b691e17b9bb339f1e17b39f60b11b6029929091019182015260330195945050505050565b6000613c1d826135cd565b8451613c2d818360208901614440565b8451910190613c40818360208801614440565b651e17b9bb339f60d11b9101908152600601949350505050565b6000613c65826135cd565b8351613c75818360208801614440565b651e17b9bb339f60d11b91019081526006019392505050565b918252602082015260400190565b6020808252600090610160830183820185845b600a811015613cde57601f19878503018352613ccc848351613429565b93509184019190840190600101613caf565b50919695505050505050565b6000602080830181845280855180835260408601915060408482028701019250838701855b82811015613d3d57603f19888603018452613d2b858351613429565b94509285019290850190600101613d0f565b5092979650505050505050565b602080825281810183905260009060408084018583028501820187855b88811015613deb57878303603f190184528135368b9003605e19018112613d8c578788fd5b8a01803584526060613da088830183614192565b828a880152613db283880182846133d9565b92505050613dc287830183614192565b925085820388870152613dd68284836133d9565b96890196955050509186019150600101613d67565b509098975050505050505050565b602080825281810183905260009060408084018583028501820187855b88811015613deb57878303603f190184528135368b9003603e19018112613e3b578788fd5b8a0180358452613e4d87820182614192565b91508688860152613e6187860183836133d9565b958801959450505090850190600101613e16565b6000602082526109f76020830184613429565b60208082526021908201527f53766746616365743a205f746f6b656e496420646f6573206e6f7420657869736040820152601d60fa1b606082015260800190565b6020808252818101527f41617665676f7463686946616365743a20506f7274616c206e6f74206f70656e604082015260600190565b60208082526022908201527f4974656d7346616365743a205f6964206e6f7420666f756e6420666f72206974604082015261656d60f01b606082015260800190565b60208082526025908201527f4c69625376673a205356472074797065206f7220696420646f6573206e6f7420604082015264195e1a5cdd60da1b606082015260800190565b60208082526033908201527f53766753746f726167653a2045786365656465642032342c353736206279746560408201527273206d617820636f6e74726163742073697a6560681b606082015260800190565b60208082526031908201527f53766746616365743a205f6974656d496473206e6f742073616d65206c656e676040820152707468206173205f64696d656e73696f6e7360781b606082015260800190565b60208082526039908201527f4c696241707053746f726167653a206f6e6c7920616e204974656d4d616e616760408201527f65722063616e2063616c6c20746869732066756e6374696f6e00000000000000606082015260800190565b60208082526023908201527f4c69625376673a2062797465732061727261792067726561746572207468616e60408201526210199960e91b606082015260800190565b90815260200190565b6000808335601e198436030181126140e8578283fd5b8301803591506001600160401b03821115614101578283fd5b602090810192508102360382131561306657600080fd5b60008235605e1983360301811261362e578182fd5b60008235603e1983360301811261362e578182fd5b604051601f8201601f191681016001600160401b038111828210171561416a5761416a6144c7565b604052919050565b60006001600160401b0382111561418b5761418b6144c7565b5060200290565b6000808335601e198436030181126141a8578283fd5b83016020810192503590506001600160401b038111156141c757600080fd5b60208102360383131561306657600080fd5b60008160010b8360010b82821282617fff038213811516156141fd576141fd61449b565b82617fff190382128116156142145761421461449b565b50019392505050565b600082198211156142305761423061449b565b500190565b600060ff821660ff84168060ff038211156142525761425261449b565b019392505050565b600082614269576142696144b1565b500490565b80825b600180861161428057506142ab565b8187048211156142925761429261449b565b8086161561429f57918102915b9490941c938002614271565b94509492505050565b60006109f760001960ff8516846000826142d0575060016109f7565b816142dd575060006109f7565b81600181146142f357600281146142fd57614324565b60019150506109f7565b60ff84111561430e5761430e61449b565b6001841b915084821115612c4e57612c4e61449b565b5060208310610133831016604e8410600b8410161715614357575081810a838111156143525761435261449b565b6109f7565b614364848484600161426e565b8086048211156143765761437661449b565b02949350505050565b60008160001904831182151516156143995761439961449b565b500290565b600060ff821660ff84168160ff04811182151516156143bf576143bf61449b565b029392505050565b60008083128015600160ff1b8501841216156143e5576143e561449b565b6001600160ff1b03840183138116156144005761440061449b565b50500390565b6000828210156144185761441861449b565b500390565b600060ff821660ff8416808210156144375761443761449b565b90039392505050565b60005b8381101561445b578181015183820152602001614443565b838111156102ac5750506000910152565b60006000198214156144805761448061449b565b5060010190565b600082614496576144966144b1565b500690565b634e487b7160e01b600052601160045260246000fd5b634e487b7160e01b600052601260045260246000fd5b634e487b7160e01b600052604160045260246000fd5b81356144e881614569565b815460ff191660ff9190911617808255602083013561450681614569565b61ff008160081b1661ff0019831617915050808255604083013561452981614569565b62ff00008160101b1662ff000019831617915050808255606083013561454e81614569565b63ff0000008160181b1663ff00000019831617835550505050565b60ff8116811461457857600080fd5b5056fe3c73766720786d6c6e733d22687474703a2f2f7777772e77332e6f72672f323030302f737667222076696577426f783d22302030207765617261626c652d68616e64207765617261626c652d68616e642d72696768743c67207472616e73666f726d3d227363616c65282d312c203129207472616e736c617465282da2646970667358221220e92cb67300cf59d4cb42ce0597d6078b0382b4ffb3d36cba567178184fde283f64736f6c63430008010033",
  "linkReferences": {},
  "deployedLinkReferences": {}
}