{
  "_format": "hh-sol-artifact-1",
  "contractName": "SvgViewsFacet",
  "sourceName": "contracts/Aavegotchi/facets/SvgViewsFacet.sol",
  "abi": [
    {
      "inputs": [
        {
          "internalType": "uint256",
          "name": "_tokenId",
          "type": "uint256"
        }
      ],
      "name": "getAavegotchiSideSvgs",
      "outputs": [
        {
          "internalType": "string[]",
          "name": "ag_",
          "type": "string[]"
        }
      ],
      "stateMutability": "view",
      "type": "function"
    },
    {
      "inputs": [
        {
          "internalType": "uint256",
          "name": "_itemId",
          "type": "uint256"
        }
      ],
      "name": "getItemSvgs",
      "outputs": [
        {
          "internalType": "string[]",
          "name": "svg_",
          "type": "string[]"
        }
      ],
      "stateMutability": "view",
      "type": "function"
    },
    {
      "inputs": [
        {
          "internalType": "uint256[]",
          "name": "_itemIds",
          "type": "uint256[]"
        }
      ],
      "name": "getItemsSvgs",
      "outputs": [
        {
          "internalType": "string[][]",
          "name": "svgs_",
          "type": "string[][]"
        }
      ],
      "stateMutability": "view",
      "type": "function"
    },
    {
      "inputs": [
        {
          "internalType": "uint256",
          "name": "_hauntId",
          "type": "uint256"
        },
        {
          "internalType": "address",
          "name": "_collateralType",
          "type": "address"
        },
        {
          "internalType": "int16[6]",
          "name": "_numericTraits",
          "type": "int16[6]"
        },
        {
          "internalType": "uint16[16]",
          "name": "equippedWearables",
          "type": "uint16[16]"
        }
      ],
      "name": "previewSideAavegotchi",
      "outputs": [
        {
          "internalType": "string[]",
          "name": "ag_",
          "type": "string[]"
        }
      ],
      "stateMutability": "view",
      "type": "function"
    },
    {
      "inputs": [
        {
          "components": [
            {
              "internalType": "uint256",
              "name": "itemId",
              "type": "uint256"
            },
            {
              "internalType": "string",
              "name": "side",
              "type": "string"
            },
            {
              "components": [
                {
                  "internalType": "uint8",
                  "name": "x",
                  "type": "uint8"
                },
                {
                  "internalType": "uint8",
                  "name": "y",
                  "type": "uint8"
                },
                {
                  "internalType": "uint8",
                  "name": "width",
                  "type": "uint8"
                },
                {
                  "internalType": "uint8",
                  "name": "height",
                  "type": "uint8"
                }
              ],
              "internalType": "struct Dimensions",
              "name": "dimensions",
              "type": "tuple"
            }
          ],
          "internalType": "struct SvgViewsFacet.SideViewDimensionsArgs[]",
          "name": "_sideViewDimensions",
          "type": "tuple[]"
        }
      ],
      "name": "setSideViewDimensions",
      "outputs": [],
      "stateMutability": "nonpayable",
      "type": "function"
    },
    {
      "inputs": [
        {
          "components": [
            {
              "internalType": "uint256",
              "name": "itemId",
              "type": "uint256"
            },
            {
              "internalType": "uint256",
              "name": "slotPosition",
              "type": "uint256"
            },
            {
              "internalType": "bytes32",
              "name": "side",
              "type": "bytes32"
            },
            {
              "internalType": "bool",
              "name": "exceptionBool",
              "type": "bool"
            }
          ],
          "internalType": "struct SvgViewsFacet.SideViewExceptions[]",
          "name": "_sideViewExceptions",
          "type": "tuple[]"
        }
      ],
      "name": "setSideViewExceptions",
      "outputs": [],
      "stateMutability": "nonpayable",
      "type": "function"
    }
  ],
  "bytecode": "0x608060405234801561001057600080fd5b506157d680620000216000396000f3fe608060405234801561001057600080fd5b50600436106100625760003560e01c806353214ba4146100675780636e9507ea1461007c57806374750d18146100a5578063de6b93d9146100b8578063f5a456ea146100cb578063fd4e21a2146100eb575b600080fd5b61007a61007536600461469b565b6100fe565b005b61008f61008a3660046147b2565b610409565b60405161009c91906151a2565b60405180910390f35b61008f6100b33660046147ca565b6108a3565b61007a6100c636600461465b565b610b95565b6100de6100d936600461465b565b610ce9565b60405161009c9190615142565b61008f6100f93660046147b2565b610dc7565b600061010861100b565b9050610112611068565b6001600160a01b0316816001600160a01b0316148061014e57506001600160a01b0381166000908152603b602052604090205460ff1615156001145b6101735760405162461bcd60e51b815260040161016a906151b5565b60405180910390fd5b60006101be6040518060400160405280600a8152602001697765617261626c65732d60b01b81525060405180604001604052806005815260200164199c9bdb9d60da1b815250611084565b9050600061020a6040518060400160405280600a8152602001697765617261626c65732d60b01b815250604051806040016040528060048152602001631b19599d60e21b815250611084565b905060006102576040518060400160405280600a8152602001697765617261626c65732d60b01b815250604051806040016040528060058152602001641c9a59da1d60da1b815250611084565b905060006102a36040518060400160405280600a8152602001697765617261626c65732d60b01b815250604051806040016040528060048152602001636261636b60e01b815250611084565b905060005b868110156103ff5760008888838181106102d257634e487b7160e01b600052603260045260246000fd5b905060800201604001359050858114806102eb57508481145b806102f557508381145b806102ff57508281145b61031b5760405162461bcd60e51b815260040161016a9061525f565b88888381811061033b57634e487b7160e01b600052603260045260246000fd5b9050608002016060016020810190610353919061470b565b6000828152604f60205260408120908b8b8681811061038257634e487b7160e01b600052603260045260246000fd5b90506080020160000135815260200190815260200160002060008b8b868181106103bc57634e487b7160e01b600052603260045260246000fd5b90506080020160200135815260200190815260200160002060006101000a81548160ff0219169083151502179055505080806103f790615614565b9150506102a8565b5050505050505050565b6000818152600d602052604090819020600901548151600480825260a0820190935260609261ffff600160f01b9093049290921691816020015b6060815260200190600190039081610443579050506000848152600d60205260409020600a0154909250600160a01b900460ff166003146104965760405162461bcd60e51b815260040161016a9061535e565b604051632517d38960e21b8152309063945f4e24906104b99086906004016153d6565b60006040518083038186803b1580156104d157600080fd5b505afa1580156104e5573d6000803e3d6000fd5b505050506040513d6000823e601f3d908101601f1916820160405261050d919081019061472b565b8260008151811061052e57634e487b7160e01b600052603260045260246000fd5b6020908102919091018101919091526000848152600d90915260408082206009810154825160c08101938490526001600160a01b0390911693929091600201906006908285855b82829054906101000a900460010b60010b81526020019060020190602082600101049283019260010382029150808411610575575050506000898152600d6020526040808220815161020081019283905296975091959450909250601091508285855b82829054906101000a900461ffff1661ffff16815260200190600201906020826001010492830192600103820291508084116105d85790505050505050905060006040518060600160405280603c8152602001615765603c9139905061065e604051806040016040528060048152602001631b19599d60e21b81525085858a89876110d8565b8660018151811061067f57634e487b7160e01b600052603260045260246000fd5b602002602001018190525080866001815181106106ac57634e487b7160e01b600052603260045260246000fd5b60200260200101516040516020016106c5929190614c00565b604051602081830303815290604052866001815181106106f557634e487b7160e01b600052603260045260246000fd5b602002602001018190525061072b604051806040016040528060058152602001641c9a59da1d60da1b81525085858a89876110d8565b8660028151811061074c57634e487b7160e01b600052603260045260246000fd5b6020026020010181905250808660028151811061077957634e487b7160e01b600052603260045260246000fd5b6020026020010151604051602001610792929190614c00565b604051602081830303815290604052866002815181106107c257634e487b7160e01b600052603260045260246000fd5b60200260200101819052506107f7604051806040016040528060048152602001636261636b60e01b81525085858a89876110d8565b8660038151811061081857634e487b7160e01b600052603260045260246000fd5b6020026020010181905250808660038151811061084557634e487b7160e01b600052603260045260246000fd5b602002602001015160405160200161085e929190614c00565b6040516020818303038152906040528660038151811061088e57634e487b7160e01b600052603260045260246000fd5b60200260200101819052505050505050919050565b60408051600480825260a08201909252606091816020015b60608152602001906001900390816108bb575050604051630295041f60e41b8152909150309063295041f0906108fb9088908890889088906004016153df565b60006040518083038186803b15801561091357600080fd5b505afa158015610927573d6000803e3d6000fd5b505050506040513d6000823e601f3d908101601f1916820160405261094f919081019061472b565b8160008151811061097057634e487b7160e01b600052603260045260246000fd5b602002602001018190525060006040518060600160405280603c8152602001615765603c9139905060006109d2604051806040016040528060048152602001631b19599d60e21b815250878760016000196109cb91906155ae565b8b896110d8565b9050806040516020016109e5919061495b565b60405160208183030381529060405290508181604051602001610a09929190614c00565b60405160208183030381529060405283600181518110610a3957634e487b7160e01b600052603260045260246000fd5b6020026020010181905250610a76604051806040016040528060058152602001641c9a59da1d60da1b815250878760016000196109cb91906155ae565b905080604051602001610a89919061495b565b60405160208183030381529060405290508181604051602001610aad929190614c00565b60405160208183030381529060405283600281518110610add57634e487b7160e01b600052603260045260246000fd5b6020026020010181905250610b19604051806040016040528060048152602001636261636b60e01b815250878760016000196109cb91906155ae565b905080604051602001610b2c919061495b565b60405160208183030381529060405290508181604051602001610b50929190614c00565b60405160208183030381529060405283600381518110610b8057634e487b7160e01b600052603260045260246000fd5b60200260200101819052505050949350505050565b6000610b9f61100b565b6001600160a01b0381166000908152603b602052604090205490915060ff161515600114610bdf5760405162461bcd60e51b815260040161016a90615301565b60005b82811015610ce357838382818110610c0a57634e487b7160e01b600052603260045260246000fd5b9050602002810190610c1c91906154a2565b604001603e6000868685818110610c4357634e487b7160e01b600052603260045260246000fd5b9050602002810190610c5591906154a2565b600001358152602001908152602001600020858584818110610c8757634e487b7160e01b600052603260045260246000fd5b9050602002810190610c9991906154a2565b610ca790602081019061545d565b604051610cb592919061494b565b908152604051908190036020019020610cce828261566d565b50819050610cdb81615614565b915050610be2565b50505050565b60608167ffffffffffffffff811115610d1257634e487b7160e01b600052604160045260246000fd5b604051908082528060200260200182016040528015610d4557816020015b6060815260200190600190039081610d305790505b50905060005b82811015610dc057610d82848483818110610d7657634e487b7160e01b600052603260045260246000fd5b90506020020135610dc7565b828281518110610da257634e487b7160e01b600052603260045260246000fd5b60200260200101819052508080610db890615614565b915050610d4b565b5092915050565b6006546060908210610deb5760405162461bcd60e51b815260040161016a9061521d565b60408051600480825260a0820190925290816020015b6060815260200190600190039081610e01579050509050610e6b60006006018381548110610e3f57634e487b7160e01b600052603260045260246000fd5b90600052602060002090600b0201600601610e66687765617261626c657360b81b856118f5565b611927565b81600081518110610e8c57634e487b7160e01b600052603260045260246000fd5b6020026020010181905250610ee56000603e016000848152602001908152602001600020604051610ebc90614fea565b9081526020016040518091039020610e666d1dd9585c98589b195ccb5b19599d60921b856118f5565b81600181518110610f0657634e487b7160e01b600052603260045260246000fd5b6020026020010181905250610f606000603e016000848152602001908152602001600020604051610f3690614ffa565b9081526020016040518091039020610e666e1dd9585c98589b195ccb5c9a59da1d608a1b856118f5565b81600281518110610f8157634e487b7160e01b600052603260045260246000fd5b6020026020010181905250610fda6000603e016000848152602001908152602001600020604051610fb190615132565b9081526020016040518091039020610e666d7765617261626c65732d6261636b60901b856118f5565b81600381518110610ffb57634e487b7160e01b600052603260045260246000fd5b6020026020010181905250919050565b60003330141561106257600080368080601f0160208091040260200160405190810160405280939291908181526020018383808284376000920191909152505050503601516001600160a01b031691506110659050565b50335b90565b60006110726119ad565b600401546001600160a01b0316919050565b600080838360405160200161109a929190614977565b60405160208183030381529060405290506020815111156110cd5760405162461bcd60e51b815260040161016a90615393565b602001519392505050565b60606110e261448d565b6001600160a01b03871660009081526020819052604090206001015461110a9060e81b6119d1565b81526001600160a01b03871660009081526020819052604090206001015461113b906301000000900460e81b6119d1565b6020808301919091526001600160a01b0388166000908152908190526040902060010154611175906601000000000000900460e81b6119d1565b81604001819052506111b46111ad6040518060400160405280600b81526020016a61617665676f746368692d60a81b8152508a611084565b60026118f5565b91506112186111e76040518060400160405280600c81526020016b636f6c6c61746572616c732d60a01b8152508a611084565b6001600160a01b0389166000908152602081905260409020600101546901000000000000000000900460ff166118f5565b606082015260408051808201909152600a8152696579655368617065732d60b01b60208201526001851461129657600061125186611b81565b604051602001611261919061495b565b6040516020818303038152906040529050806040516020016112839190614fad565b6040516020818303038152906040529150505b60808088015160010b908301819052600013156112cb576112c16112ba828b611084565b60006118f5565b60c083015261145d565b606182608001511315611310576112c16112e5828b611084565b6001600160a01b038a16600090815260208190526040902060010154600160501b900460ff166118f5565b6040518061024001604052806000815260200160018152602001600281526020016005815260200160078152602001600a8152602001600f81526020016014815260200160198152602001602a8152602001603a8152602001604b81526020016050815260200160558152602001605a8152602001605d8152602001605f815260200160628152508260a0018190525060005b6113af600160126155ae565b81101561145b578260a0015181601281106113da57634e487b7160e01b600052603260045260246000fd5b6020020151836080015112158015611427575060a08301516113fd826001615509565b6012811061141b57634e487b7160e01b600052603260045260246000fd5b60200201518360800151125b156114495761143f611439838c611084565b826118f5565b60c084015261145b565b8061145381615614565b9150506113a3565b505b866005602002015160010b8260800181815250506040518061010001604052806000815260200160028152602001600a815260200160198152602001604b8152602001605a81526020016062815260200160648152508261010001819052506040518060e001604052806040518060400160405280600681526020016523231818232360d11b81525081526020016040518060400160405280600681526020016518181b1a232360d11b8152508152602001604051806040016040528060068152602001651aa2191a212360d11b8152508152602001836000015181526020016040518060400160405280600681526020016533363831384560d01b81525081526020016040518060400160405280600681526020016545413843323760d01b81525081526020016040518060400160405280600681526020016506a628c8c82760d31b8152508152508261012001819052506000826080015112156115e45760408051808201909152600681526523231818232360d11b602082015260e08301526116ee565b6063826080015113156116185760408051808201909152600681526506a628c8c82760d31b602082015260e08301526116ee565b60005b611627600160086155ae565b8110156116ec57826101000151816008811061165357634e487b7160e01b600052603260045260246000fd5b60200201518360800151121580156116a15750610100830151611677826001615509565b6008811061169557634e487b7160e01b600052603260045260246000fd5b60200201518360800151125b156116da5782610120015181600781106116cb57634e487b7160e01b600052603260045260246000fd5b602002015160e08401526116ec565b806116e481615614565b91505061161b565b505b60006117386040518060400160405280600a8152602001697765617261626c65732d60b01b815250604051806040016040528060048152602001636261636b60e01b815250611084565b905060006117686040518060400160405280600a8152602001697765617261626c65732d60b01b8152508c611084565b905060001988141561185857818114156117e757611787848988611cc7565b6117be6117b76040518060400160405280600b81526020016a61617665676f746368692d60a81b8152508e611084565b60046118f5565b866040516020016117d1939291906149a6565b6040516020818303038152906040529450611853565b6117f2848988611cc7565b6118226117b76040518060400160405280600b81526020016a61617665676f746368692d60a81b8152508e611084565b8686606001518760c00151604051602001611841959493929190614a40565b60405160208183030381529060405294505b6118e7565b8082146118ab5761186a848988611cc7565b8585606001518660c0015160405160200161188894939291906149e9565b60405160208183030381529060405294506118a48b8688611d82565b94506118e7565b6118b6848988611cc7565b856040516020016118c8929190614977565b60405160208183030381529060405294506118e48b8688611d82565b94505b505050509695505050505050565b60606000611901611f7b565b6000858152600282016020526040902090915061191e8185611f80565b95945050505050565b60606119556040518060600160405280603581526020016156e960359139845462010000900460ff1661205b565b6040805180820190915260018152600160fd1b6020820152845461198391906301000000900460ff1661205b565b8360405160200161199693929190614dd9565b604051602081830303815290604052905092915050565b7fc8fcad8db84d3cc18b4c41d551ea0ee66dd599cde068d998e57d5e09332c131c90565b604080518082018252601081526f181899199a1a9b1b9c1ca0a121a222a360811b602082015281516006808252818401909352606092600091906020820181803683370190505090506000805b6003811015611b7557836004878360038110611a4a57634e487b7160e01b600052603260045260246000fd5b1a60f81b6001600160f81b031916901c60f81c60ff1681518110611a7e57634e487b7160e01b600052603260045260246000fd5b602001015160f81c60f81b838381518110611aa957634e487b7160e01b600052603260045260246000fd5b60200101906001600160f81b031916908160001a90535081611aca81615614565b92505083868260038110611aee57634e487b7160e01b600052603260045260246000fd5b825191901a600f16908110611b1357634e487b7160e01b600052603260045260246000fd5b602001015160f81c60f81b838381518110611b3e57634e487b7160e01b600052603260045260246000fd5b60200101906001600160f81b031916908160001a90535081611b5f81615614565b9250508080611b6d90615614565b915050611a1e565b5090925050505b919050565b606081611ba657506040805180820190915260018152600360fc1b6020820152611b7c565b8160005b8115611bd05780611bba81615614565b9150611bc99050600a83615546565b9150611baa565b60008167ffffffffffffffff811115611bf957634e487b7160e01b600052604160045260246000fd5b6040519080825280601f01601f191660200182016040528015611c23576020820181803683370190505b509050815b8515611cbe57611c396001826155ae565b90506000611c48600a88615546565b611c5390600a615566565b611c5d90886155ae565b611c68906030615521565b905060008160f81b905080848481518110611c9357634e487b7160e01b600052603260045260246000fd5b60200101906001600160f81b031916908160001a905350611cb5600a89615546565b97505050611c28565b50949350505050565b825160208085015160408087015160e08801519151606095600095611cf3959194919392859101614e62565b60405160208183030381529060405290506000198414158015611d3d5750825161ffff16151580611d2b5750608083015161ffff1615155b80611d3d575060a083015161ffff1615155b15611d6a5780604051602001611d539190614cb0565b604051602081830303815290604052915050611d7b565b80604051602001611d539190614d45565b9392505050565b6060611d8c6144f1565b81611dc4611dbd6040518060400160405280600b81526020016a61617665676f746368692d60a81b81525088611084565b60036118f5565b604051602001611dd5929190614977565b60408051601f1981840301815291815282015260005b6010811015611f6e576000848260108110611e1657634e487b7160e01b600052603260045260246000fd5b602002015161ffff1690506000611e2e888385612188565b9050600783148015611e3f57508115155b15611e4c57808452611e70565b6007831415611e7057611e6d6961617665676f7463686960b01b60046118f5565b84525b82158015611e7d57508115155b15611e9b57611e8c88836124b3565b60c08601526020850152611f59565b600183148015611eaa57508115155b15611ebb5760608401819052611f59565b600283148015611eca57508115155b15611edb5760808401819052611f59565b600383148015611eea57508115155b15611efb5760a08401819052611f59565b600583148015611f0a57508115155b15611f1b5760e08401819052611f59565b600483148015611f2a57508115155b15611f3c576101008401819052611f59565b600683148015611f4b57508115155b15611f595761012084018190525b50508080611f6690615614565b915050611deb565b5061191e838286886127b4565b600090565b81546060908210611fa35760405162461bcd60e51b815260040161016a906152bc565b6000838381548110611fc557634e487b7160e01b600052603260045260246000fd5b600091825260209091200180549091506001600160a01b0381169061ffff600160b01b8204811691600160a01b9004168167ffffffffffffffff81111561201c57634e487b7160e01b600052604160045260246000fd5b6040519080825280601f01601f191660200182016040528015612046576020820181803683370190505b509450818160208701853c5050505092915050565b6060808261208b57836040516020016120749190614e3d565b604051602081830303815290604052915050612182565b8260005b81156120a357600101600a8204915061208f565b8067ffffffffffffffff8111156120ca57634e487b7160e01b600052604160045260246000fd5b6040519080825280601f01601f1916602001820160405280156120f4576020820181803683370190505b50925084915060001981015b821561215957600a830660300160f81b8482806001900393508151811061213757634e487b7160e01b600052603260045260246000fd5b60200101906001600160f81b031916908160001a905350600a83049250612100565b505050838160405160200161216f929190614977565b6040516020818303038152906040529150505b92915050565b606060008060060184815481106121af57634e487b7160e01b600052603260045260246000fd5b90600052602060002090600b02019050600080603e016000868152602001908152602001600020866040516121e4919061495b565b9081526040805191829003602090810183206080840183525460ff8082168552610100820481169285019290925262010000810482169284019290925263010000009091041660608201529050600061223c8561285e565b9050806122726040518060400160405280600a815260200169111f1e39bb33903c1e9160b11b815250846000015160ff1661205b565b6122a06040518060400160405280600581526020016411103c9e9160d91b815250856020015160ff1661205b565b6040516020016122b29392919061500b565b60408051601f198184030181528282018252600a8352697765617261626c65732d60b01b602084810191909152825180840190935260048352636261636b60e01b90830152955060009161230591611084565b905060006123356040518060400160405280600a8152602001697765617261626c65732d60b01b8152508a611084565b905081811480156123465750600587145b156123b2578561238b61237b6040518060400160405280600a8152602001697765617261626c65732d60b01b8152508c611084565b600a88015463ffffffff166118f5565b60405160200161239c929190614bbc565b60405160208183030381529060405295506124a7565b81811480156123c15750600487145b15612454578561240360405180606001604052806026815260200161573f6026913986516123f0906002615585565b6123fb9060406155c5565b60ff1661205b565b6124426124326040518060400160405280600a8152602001697765617261626c65732d60b01b8152508d611084565b600a89015463ffffffff166118f5565b60405160200161239c93929190614c40565b8561248461237b6040518060400160405280600a8152602001697765617261626c65732d60b01b8152508c611084565b604051602001612495929190614bbc565b60405160208183030381529060405295505b50505050509392505050565b60608060008060060184815481106124db57634e487b7160e01b600052603260045260246000fd5b90600052602060002090600b02019050600080603e01600086815260200190815260200160002086604051612510919061495b565b90815260408051602092819003830181206080820183525460ff808216835261010082048116858401526201000082048116838501526301000000909104811660608301528251808401909352600a835269111f1e39bb33903c1e9160b11b938301939093528051909350612585921661205b565b6125b36040518060400160405280600581526020016411103c9e9160d91b815250836020015160ff1661205b565b6125f26125e26040518060400160405280600a8152602001697765617261626c65732d60b01b8152508a611084565b600a86015463ffffffff166118f5565b6040516020016126049392919061508c565b60408051601f198184030181529181526000878152603a6020522054909450801580156126315750856008145b156126f2576126696040518060400160405280600a815260200169111f1e39bb33903c1e9160b11b815250836000015160ff1661205b565b6126976040518060400160405280600581526020016411103c9e9160d91b815250846020015160ff1661205b565b6126ca6126c460405180604001604052806008815260200167736c65657665732d60c01b8152508b611084565b846118f5565b6040516020016126dc93929190614dd9565b60405160208183030381529060405293506127aa565b80156127aa5761272b6040518060400160405280600a815260200169111f1e39bb33903c1e9160b11b815250836000015160ff1661205b565b6127596040518060400160405280600581526020016411103c9e9160d91b815250846020015160ff1661205b565b6127866126c460405180604001604052806008815260200167736c65657665732d60c01b8152508b611084565b60405160200161279893929190614dd9565b60405160208183030381529060405293505b5050509250929050565b606060006127e46040518060400160405280600a8152602001697765617261626c65732d60b01b81525084611084565b905061282e6040518060400160405280600a8152602001697765617261626c65732d60b01b815250604051806040016040528060048152602001636261636b60e01b815250611084565b81141561284857612841868686866129dd565b9150611cbe565b61285486868686613aa3565b9695505050505050565b60608161288b575060408051808201909152600d81526c7765617261626c652d626f647960981b60208201525b60018214156128ba575060408051808201909152600d81526c7765617261626c652d6661636560981b60208201525b60028214156128e9575060408051808201909152600d81526c7765617261626c652d6579657360981b60208201525b6003821415612918575060408051808201909152600d81526c1dd9585c98589b194b5a195859609a1b60208201525b600482141561295a576040518060400160405280602081526020017f7765617261626c652d68616e64207765617261626c652d68616e642d6c65667481525090505b600582141561297f5760405180606001604052806021815260200161571e6021913990505b60068214156129ad575060408051808201909152600c81526b1dd9585c98589b194b5c195d60a21b60208201525b6007821415611b7c57505060408051808201909152600b81526a7765617261626c652d626760a81b602082015290565b60606000612a0d6040518060400160405280600a8152602001697765617261626c65732d60b01b81525084611084565b90506000848660200151604051602001612a28929190614977565b60408051601f1981840301815290829052606088015160a089015160808a015160208b810151949650600095612a5f9591016149e9565b604051602081830303815290604052905060008760a001518860600151604051602001612a8d929190614977565b60408051601f19818403018152908290528951909250612aaf9160200161495b565b60408051808303601f190181529181526000868152604f602090815282822060c08e015161ffff1683528152828220600683529052205490955060ff1615612b1a57610120880151604051612b08918791602001614977565b60405160208183030381529060405294505b6000848152604f6020908152604080832060808d015161ffff16845282528083206004845290915290205460ff168015612b7e57506000848152604f6020908152604080832060a08d015161ffff16845282528083206005845290915290205460ff165b15612fcf576000848152604f602090815260408083208c5161ffff168452825280832083805290915290205460ff1615612e34576000848152604f602090815260408083208c82015161ffff16845282528083206002845290915290205460ff168015612c1557506000848152604f6020908152604080832060608d015161ffff16845282528083206003845290915290205460ff165b15612cfd576000848152604f602090815260408083208c83015161ffff16845282528083206001845290915290205460ff1615612cbe57848789604001518a61010001518b60e00151604051602001612c72959493929190614a40565b60408051601f198184030181529082905260a08a015160608b015160808c015160208d810151949a50612ca8958b959101614a40565b6040516020818303038152906040529450612cf8565b848789604001518a61010001518b60e0015186604051602001612ce696959493929190614aab565b60405160208183030381529060405294505b612e2f565b6000848152604f6020908152604080832060608d015161ffff16845282528083206003845290915290205460ff168015612d6057506000848152604f602090815260408083208c83015161ffff16845282528083206001845290915290205460ff165b15612dc157848789604001518a61010001518b60e00151604051602001612d8b959493929190614a40565b60408051601f198184030181529082905260a08a015160608b015160808c015160208d810151949a50612ce6958b959101614a40565b848789604001518a61010001518b60e00151604051602001612de7959493929190614a40565b60408051601f198184030181529082905260608a015160808b015160a08c015160208d810151949a50612e1d958b959101614a40565b60405160208183030381529060405294505b612fca565b6000848152604f602090815260408083208c82015161ffff16845282528083206002845290915290205460ff168015612e9757506000848152604f6020908152604080832060608d015161ffff16845282528083206003845290915290205460ff165b15612eca57848860400151848a61010001518b60e00151858d60800151604051602001612e1d9796959493929190614b2a565b6000848152604f6020908152604080832060608d015161ffff16845282528083206003845290915290205460ff168015612f2d57506000848152604f602090815260408083208c83015161ffff16845282528083206001845290915290205460ff165b15612f6057848860400151848a61010001518b60e00151858d60800151604051602001612e1d9796959493929190614b2a565b848860400151848a61010001518b60e00151604051602001612f86959493929190614a40565b60408051601f198184030181529082905260608a015160808b015160a08c0151929850612fb8938993906020016149e9565b60405160208183030381529060405294505b613a3c565b6000848152604f6020908152604080832060808d015161ffff16845282528083206004845290915290205460ff161561331f576000848152604f602090815260408083208c5161ffff168452825280832083805290915290205460ff16156131cd576000848152604f602090815260408083208c82015161ffff16845282528083206002845290915290205460ff16801561309457506000848152604f6020908152604080832060608d015161ffff16845282528083206003845290915290205460ff165b15613119576000848152604f602090815260408083208c83015161ffff16845282528083206001845290915290205460ff16156130f15784878960e001518a604001518b6101000151604051602001612c72959493929190614a40565b84878960e001518a604001518b610100015186604051602001612ce696959493929190614aab565b6000848152604f6020908152604080832060608d015161ffff16845282528083206003845290915290205460ff16801561317c57506000848152604f602090815260408083208c83015161ffff16845282528083206001845290915290205460ff165b156131a75784878960e001518a604001518b6101000151604051602001612d8b959493929190614a40565b84878960e001518a604001518b6101000151604051602001612de7959493929190614a40565b6000848152604f602090815260408083208c82015161ffff16845282528083206002845290915290205460ff16801561323057506000848152604f6020908152604080832060608d015161ffff16845282528083206003845290915290205460ff165b1561326357848860e001518960400151858b6101000151858d60800151604051602001612e1d9796959493929190614b2a565b6000848152604f6020908152604080832060608d015161ffff16845282528083206003845290915290205460ff1680156132c657506000848152604f602090815260408083208c83015161ffff16845282528083206001845290915290205460ff165b156132f957848860400151848a61010001518b60e00151858d60800151604051602001612e1d9796959493929190614b2a565b848860e001518960400151858b6101000151604051602001612f86959493929190614a40565b6000848152604f6020908152604080832060a08d015161ffff16845282528083206005845290915290205460ff161561366f576000848152604f602090815260408083208c5161ffff168452825280832083805290915290205460ff161561351d576000848152604f602090815260408083208c82015161ffff16845282528083206002845290915290205460ff1680156133e457506000848152604f6020908152604080832060608d015161ffff16845282528083206003845290915290205460ff165b15613469576000848152604f602090815260408083208c83015161ffff16845282528083206001845290915290205460ff16156134415784878961010001518a604001518b60e00151604051602001612c72959493929190614a40565b84878961010001518a604001518b60e0015186604051602001612ce696959493929190614aab565b6000848152604f6020908152604080832060608d015161ffff16845282528083206003845290915290205460ff1680156134cc57506000848152604f602090815260408083208c83015161ffff16845282528083206001845290915290205460ff165b156134f75784878961010001518a604001518b60e00151604051602001612d8b959493929190614a40565b84878961010001518a604001518b60e00151604051602001612de7959493929190614a40565b6000848152604f602090815260408083208c82015161ffff16845282528083206002845290915290205460ff16801561358057506000848152604f6020908152604080832060608d015161ffff16845282528083206003845290915290205460ff165b156135b357848861010001518960400151858b60e00151858d60800151604051602001612e1d9796959493929190614b2a565b6000848152604f6020908152604080832060608d015161ffff16845282528083206003845290915290205460ff16801561361657506000848152604f602090815260408083208c83015161ffff16845282528083206001845290915290205460ff165b1561364957848860400151848a61010001518b60e00151858d60800151604051602001612e1d9796959493929190614b2a565b848861010001518960400151858b60e00151604051602001612f86959493929190614a40565b6000848152604f602090815260408083208c5161ffff168452825280832083805290915290205460ff16156138a6576000848152604f602090815260408083208c82015161ffff16845282528083206002845290915290205460ff16801561370157506000848152604f6020908152604080832060608d015161ffff16845282528083206003845290915290205460ff165b15613786576000848152604f602090815260408083208c83015161ffff16845282528083206001845290915290205460ff161561375e5784878961010001518a60e001518b60400151604051602001612d8b959493929190614a40565b84878961010001518a60e001518b6040015186604051602001612e1d96959493929190614aab565b6000848152604f6020908152604080832060608d015161ffff16845282528083206003845290915290205460ff1680156137e957506000848152604f602090815260408083208c83015161ffff16845282528083206001845290915290205460ff165b1561384a5784878961010001518a60e001518b60400151604051602001613814959493929190614a40565b60408051601f198184030181529082905260808a015160a08b015160608c015160208d810151949a50612e1d958b959101614a40565b84878961010001518a604001518b60e00151604051602001613870959493929190614a40565b60408051601f198184030181529082905260608a015160808b015160a08c015160208d810151949a50612fb8958b959101614a40565b6000848152604f602090815260408083208c82015161ffff16845282528083206002845290915290205460ff16801561390957506000848152604f6020908152604080832060608d015161ffff16845282528083206003845290915290205460ff165b1561393c57848861010001518960e001518a6040015186858d60800151604051602001612fb89796959493929190614b2a565b6000848152604f6020908152604080832060608d015161ffff16845282528083206003845290915290205460ff16801561399f57506000848152604f602090815260408083208c83015161ffff16845282528083206001845290915290205460ff165b156139d257848860400151848a61010001518b60e00151858d60800151604051602001612fb89796959493929190614b2a565b848861010001518960e001518a60400151866040516020016139f8959493929190614a40565b60408051601f198184030181529082905260608a015160808b015160a08c0151929850613a2a938993906020016149e9565b60405160208183030381529060405294505b6000848152604f6020908152604080832060c08d015161ffff16845282528083206006845290915290205460ff16613a9757610120880151604051613a85918791602001614977565b60405160208183030381529060405294505b50505050949350505050565b60606000613ad36040518060400160405280600a8152602001697765617261626c65732d60b01b81525084611084565b90506000848660200151604051602001613aee929190614977565b60408051601f19818403018152908290528751909250613b109160200161495b565b60408051808303601f190181529181526000848152604f60209081528282208b82015161ffff1683528152828220600183529052205490935060ff161561402a576000828152604f602090815260408083208a5161ffff168452825280832083805290915290205460ff1615613e48576000828152604f602090815260408083208a82015161ffff16845282528083206002845290915290205460ff168015613be357506000828152604f6020908152604080832060608b015161ffff16845282528083206003845290915290205460ff165b15613cbe57866002602002015161ffff1661012d1415613c5d5782858760800151604051602001613c16939291906149a6565b60408051601f198184030181529082905260a0880151606089015160208a810151939750613c4794889491016149e9565b6040516020818303038152906040529250613cb9565b82858760a00151604051602001613c76939291906149a6565b60408051601f19818403018152908290526060880151608089015160208a810151939750613ca794889491016149e9565b60405160208183030381529060405292505b613e43565b6000828152604f6020908152604080832060608b015161ffff16845282528083206003845290915290205460ff1615613d3b5782858760800151604051602001613d0a939291906149a6565b60408051601f198184030181529082905260a0880151606089015160208a810151939750613ca794889491016149e9565b6000828152604f602090815260408083208a82015161ffff16845282528083206002845290915290205460ff168015613d815750866002602002015161ffff1661012d14155b80613d985750866001602002015161ffff16610132145b15613de75782858760600151604051602001613db6939291906149a6565b60408051601f1981840301815290829052608088015160a089015160208a810151939750613ca794889491016149e9565b82858760800151604051602001613e00939291906149a6565b60408051601f1981840301815290829052606088015160a089015160208a810151939750613e3194889491016149e9565b60405160208183030381529060405292505b614025565b6000828152604f602090815260408083208a82015161ffff16845282528083206002845290915290205460ff168015613eab57506000828152604f6020908152604080832060608b015161ffff16845282528083206003845290915290205460ff165b15613f0f57866002602002015161ffff1661012d1415613eea57828187608001518860a001518960600151604051602001613ca7959493929190614a40565b82818760a0015188606001518960800151604051602001613e31959493929190614a40565b6000828152604f6020908152604080832060608b015161ffff16845282528083206003845290915290205460ff1615613f6757828187608001518860a001518960600151604051602001613e31959493929190614a40565b6000828152604f602090815260408083208a82015161ffff16845282528083206002845290915290205460ff168015613fad5750866002602002015161ffff1661012d14155b80613fc45750866001602002015161ffff16610132145b15613fee578281876060015188608001518960a00151604051602001613e31959493929190614a40565b8281876080015188606001518960a00151604051602001614013959493929190614a40565b60405160208183030381529060405292505b614289565b6000828152604f602090815260408083208a5161ffff168452825280832083805290915290205460ff1615614172576000828152604f602090815260408083208a82015161ffff16845282528083206002845290915290205460ff1680156140bc57506000828152604f6020908152604080832060608b015161ffff16845282528083206003845290915290205460ff165b80156140d55750866002602002015161ffff1661012d14155b1561412757828587606001516040516020016140f3939291906149a6565b60405160208183030381529060405292508286602001518760a001518860800151604051602001613e3194939291906149e9565b6060860151608087015160405161414492869289926020016149e9565b6040516020818303038152906040529250828660a001518760200151604051602001614013939291906149a6565b6000828152604f602090815260408083208a82015161ffff16845282528083206002845290915290205460ff1680156141d557506000828152604f6020908152604080832060608b015161ffff16845282528083206003845290915290205460ff165b80156141ee5750866002602002015161ffff1661012d14155b156142185782818760a0015188606001518960800151604051602001614013959493929190614a40565b866002602002015161ffff1661012d1415614252578281876080015188606001518960a00151604051602001614013959493929190614a40565b8281876060015188608001518960a00151604051602001614277959493929190614a40565b60405160208183030381529060405292505b6142d16040518060400160405280600a8152602001697765617261626c65732d60b01b815250604051806040016040528060048152602001631b19599d60e21b815250611084565b82141561437e576000828152604f6020908152604080832060a08b015161ffff16845282528083206005845290915290205460ff1615614344578286604001518760c001518860e0015160405160200161432e94939291906149e9565b6040516020818303038152906040529250614379565b828660e0015187604001518860c0015160405160200161436794939291906149e9565b60405160208183030381529060405292505b61445b565b6143c76040518060400160405280600a8152602001697765617261626c65732d60b01b815250604051806040016040528060058152602001641c9a59da1d60da1b815250611084565b82141561445b576000828152604f6020908152604080832060808b015161ffff16845282528083206004845290915290205460ff1615614425578286604001518760c0015188610100015160405160200161436794939291906149e9565b8286610100015187604001518860c0015160405160200161444994939291906149e9565b60405160208183030381529060405292505b610120860151604051614472918591602001614977565b60405160208183030381529060405292505050949350505050565b60405180610140016040528060608152602001606081526020016060815260200160608152602001600081526020016144c4614544565b815260200160608152602001606081526020016144df614563565b81526020016144ec614582565b905290565b604051806101400160405280606081526020016060815260200160608152602001606081526020016060815260200160608152602001606081526020016060815260200160608152602001606081525090565b6040518061024001604052806012906020820280368337509192915050565b6040518061010001604052806008906020820280368337509192915050565b6040518060e001604052806007905b60608152602001906001900390816145915790505090565b60008083601f8401126145ba578182fd5b50813567ffffffffffffffff8111156145d1578182fd5b60208301915083602080830285010111156145eb57600080fd5b9250929050565b600082601f830112614602578081fd5b61020061460e816154b7565b808486848701111561461e578485fd5b8493505b601084101561465157803561ffff8116811461463c578586fd5b83526001939093019260209283019201614622565b5095945050505050565b6000806020838503121561466d578182fd5b823567ffffffffffffffff811115614683578283fd5b61468f858286016145a9565b90969095509350505050565b600080602083850312156146ad578182fd5b823567ffffffffffffffff808211156146c4578384fd5b818501915085601f8301126146d7578384fd5b8135818111156146e5578485fd5b8660206080830285010111156146f9578485fd5b60209290920196919550909350505050565b60006020828403121561471c578081fd5b81358015158114611d7b578182fd5b60006020828403121561473c578081fd5b815167ffffffffffffffff80821115614753578283fd5b818401915084601f830112614766578283fd5b81518181111561477857614778615645565b61478b601f8201601f19166020016154b7565b91508082528560208285010111156147a1578384fd5b611cbe8160208401602086016155e8565b6000602082840312156147c3578081fd5b5035919050565b60008060008061030085870312156147e0578182fd5b843593506020808601356001600160a01b03811681146147fe578384fd5b9350605f8601871361480e578283fd5b600661482161481c826154e8565b6154b7565b80604089016101008a018b811115614837578788fd5b875b858110156148635782358060010b811461485157898afd5b85529386019391860191600101614839565b508297506148718c826145f2565b965050505050505092959194509250565b6000815180845260208085018081965082840281019150828601855b858110156148e0578284038952815180518086526148c1818888018985016155e8565b99860199601f01601f191694909401850193509084019060010161489e565b5091979650505050505050565b7f2e676f746368692d68616e647355707b646973706c61793a6e6f6e653b7d00008152601e0190565b7f3b7d2e676f746368692d736c65657665732d75707b646973706c61793a6e6f6e815262653b7d60e81b602082015260230190565b6000828483379101908152919050565b6000825161496d8184602087016155e8565b9190910192915050565b600083516149898184602088016155e8565b83519083019061499d8183602088016155e8565b01949350505050565b600084516149b88184602089016155e8565b8451908301906149cc8183602089016155e8565b84519101906149df8183602088016155e8565b0195945050505050565b600085516149fb818460208a016155e8565b855190830190614a0f818360208a016155e8565b8551910190614a228183602089016155e8565b8451910190614a358183602088016155e8565b019695505050505050565b60008651614a52818460208b016155e8565b865190830190614a66818360208b016155e8565b8651910190614a79818360208a016155e8565b8551910190614a8c8183602089016155e8565b8451910190614a9f8183602088016155e8565b01979650505050505050565b600087516020614abe8285838d016155e8565b885191840191614ad18184848d016155e8565b8851920191614ae38184848c016155e8565b8751920191614af58184848b016155e8565b8651920191614b078184848a016155e8565b8551920191614b1981848489016155e8565b919091019998505050505050505050565b600088516020614b3d8285838e016155e8565b895191840191614b508184848e016155e8565b8951920191614b628184848d016155e8565b8851920191614b748184848c016155e8565b8751920191614b868184848b016155e8565b8651920191614b988184848a016155e8565b8551920191614baa81848489016155e8565b919091019a9950505050505050505050565b60008351614bce8184602088016155e8565b835190830190614be28183602088016155e8565b691e17b9bb339f1e17b39f60b11b9101908152600a01949350505050565b60008351614c128184602088016155e8565b835190830190614c268183602088016155e8565b651e17b9bb339f60d11b9101908152600601949350505050565b60008451614c528184602089016155e8565b845190830190614c668183602089016155e8565b6516101814911f60d11b91019081528351614c888160068401602088016155e8565b6d1e17b39f1e17b9bb339f1e17b39f60911b6006929091019182015260140195945050505050565b60008251614cc28184602087016155e8565b7f2e676f746368692d68616e6473446f776e4f70656e7b646973706c61793a626c920191825250646f636b3b7d60d81b60208201527f2e676f746368692d68616e6473446f776e436c6f7365647b646973706c61793a6025820152656e6f6e653b7d60d01b6045820152671e17b9ba3cb6329f60c11b604b820152605301919050565b60008251614d578184602087016155e8565b7f2e676f746368692d68616e6473446f776e4f70656e7b646973706c61793a6e6f920191825250636e653b7d60e01b60208201527f2e676f746368692d68616e6473446f776e436c6f7365647b646973706c61793a602482015265626c6f636b7d60d01b6044820152671e17b9ba3cb6329f60c11b604a820152605201919050565b60008451614deb8184602089016155e8565b845190830190614dff8183602089016155e8565b61111f60f11b91019081528351614e1d8160028401602088016155e8565b651e17b9bb339f60d11b6002929091019182015260080195945050505050565b60008251614e4f8184602087016155e8565b600360fc1b920191825250600101919050565b60007f3c7374796c653e2e676f746368692d7072696d6172797b66696c6c3a2300000082528651614e9a81601d850160208b016155e8565b7f3b7d2e676f746368692d7365636f6e646172797b66696c6c3a23000000000000601d918401918201528651614ed7816037840160208b016155e8565b753b7d2e676f746368692d636865656b7b66696c6c3a2360501b603792909101918201528551614f0e81604d840160208a016155e8565b7f3b7d2e676f746368692d657965436f6c6f727b66696c6c3a2300000000000000604d92909101918201528451614f4c8160668401602089016155e8565b7f3b7d2e676f746368692d7072696d6172792d6d6f7574687b66696c6c3a230000606692909101918201528351614f8a8160848401602088016155e8565b614fa0614f9b608483850101614916565b6148ed565b9998505050505050505050565b6000690caf2caa6d0c2e0cae6960b31b82528251614fd281600a8501602087016155e8565b602d60f81b600a939091019283015250600b01919050565b631b19599d60e21b815260040190565b641c9a59da1d60da1b815260050190565b60007f3c6720636c6173733d22676f746368692d7765617261626c65200000000000008252845161504381601a8501602089016155e8565b84519083019061505a81601a8401602089016155e8565b845191019061507081601a8401602088016155e8565b61111f60f11b601a9290910191820152601c0195945050505050565b60007f3c6720636c6173733d22676f746368692d7765617261626c65207765617261628252666c652d626f647960c81b602083015284516150d48160278501602089016155e8565b8451908301906150eb8160278401602089016155e8565b61111f60f11b60279290910191820152835161510e8160298401602088016155e8565b691e17b9bb339f1e17b39f60b11b6029929091019182015260330195945050505050565b636261636b60e01b815260040190565b6000602080830181845280855180835260408601915060408482028701019250838701855b8281101561519557603f19888603018452615183858351614882565b94509285019290850190600101615167565b5092979650505050505050565b600060208252611d7b6020830184614882565b60208082526042908201527f4c696241707053746f726167653a206f6e6c7920616e204f776e6572206f722060408201527f4974656d4d616e616765722063616e2063616c6c20746869732066756e63746960608201526137b760f11b608082015260a00190565b60208082526022908201527f4974656d7346616365743a205f6964206e6f7420666f756e6420666f72206974604082015261656d60f01b606082015260800190565b6020808252603f908201527f457863657074696f6e2073696465206d7573742062652073657420617320656960408201527f746865722066726f6e742c206c6566742c207269676874206f72206261636b00606082015260800190565b60208082526025908201527f4c69625376673a205356472074797065206f7220696420646f6573206e6f7420604082015264195e1a5cdd60da1b606082015260800190565b60208082526039908201527f4c696241707053746f726167653a206f6e6c7920616e204974656d4d616e616760408201527f65722063616e2063616c6c20746869732066756e6374696f6e00000000000000606082015260800190565b6020808252818101527f53766746616365743a2041617665676f74636869206e6f7420636c61696d6564604082015260600190565b60208082526023908201527f4c69625376673a2062797465732061727261792067726561746572207468616e60408201526210199960e91b606082015260800190565b90815260200190565b8481526001600160a01b038416602080830191909152610300820190604083018560005b6006811015615423578151600190810b8452928401929184019101615403565b50505061010083018460005b601081101561545057815161ffff168352918301919083019060010161542f565b5050505095945050505050565b6000808335601e19843603018112615473578283fd5b83018035915067ffffffffffffffff82111561548d578283fd5b6020019150368190038213156145eb57600080fd5b6000823560be1983360301811261496d578182fd5b604051601f8201601f1916810167ffffffffffffffff811182821017156154e0576154e0615645565b604052919050565b600067ffffffffffffffff82111561550257615502615645565b5060200290565b6000821982111561551c5761551c61562f565b500190565b600060ff821660ff84168060ff0382111561553e5761553e61562f565b019392505050565b60008261556157634e487b7160e01b81526012600452602481fd5b500490565b60008160001904831182151516156155805761558061562f565b500290565b600060ff821660ff84168160ff04811182151516156155a6576155a661562f565b029392505050565b6000828210156155c0576155c061562f565b500390565b600060ff821660ff8416808210156155df576155df61562f565b90039392505050565b60005b838110156156035781810151838201526020016155eb565b83811115610ce35750506000910152565b60006000198214156156285761562861562f565b5060010190565b634e487b7160e01b600052601160045260246000fd5b634e487b7160e01b600052604160045260246000fd5b6000813560ff81168114612182578182fd5b60ff6156788361565b565b1660ff198254161780825561ff006156926020850161565b565b60081b1661ff0019821617905080825562ff00006156b26040850161565b565b60101b1662ff000019821617905080825563ff0000006156d46060850161565b565b60181b1663ff00000019821617825550505056fe3c73766720786d6c6e733d22687474703a2f2f7777772e77332e6f72672f323030302f737667222076696577426f783d22302030207765617261626c652d68616e64207765617261626c652d68616e642d72696768743c67207472616e73666f726d3d227363616c65282d312c203129207472616e736c617465282d3c73766720786d6c6e733d22687474703a2f2f7777772e77332e6f72672f323030302f737667222076696577426f783d22302030203634203634223ea26469706673582212206ab8b72ee07ab101a180cfa7183ba934b3c788b980b74d1f0962cd0b47fec62264736f6c63430008010033",
  "linkReferences": {},
  "deployedLinkReferences": {}
}