{
  "_format": "hh-sol-artifact-1",
  "contractName": "VoucherMigrationFacet",
  "sourceName": "contracts/Aavegotchi/facets/VoucherMigrationFacet.sol",
  "abi": [
    {
      "anonymous": false,
      "inputs": [
        {
          "indexed": true,
          "internalType": "address",
          "name": "_owner",
          "type": "address"
        },
        {
          "indexed": false,
          "internalType": "uint256[]",
          "name": "_ids",
          "type": "uint256[]"
        },
        {
          "indexed": false,
          "internalType": "uint256[]",
          "name": "_values",
          "type": "uint256[]"
        }
      ],
      "name": "MigrateVouchers",
      "type": "event"
    },
    {
      "inputs": [
        {
          "components": [
            {
              "internalType": "address",
              "name": "owner",
              "type": "address"
            },
            {
              "internalType": "uint256[]",
              "name": "ids",
              "type": "uint256[]"
            },
            {
              "internalType": "uint256[]",
              "name": "values",
              "type": "uint256[]"
            }
          ],
          "internalType": "struct VoucherMigrationFacet.VouchersOwner[]",
          "name": "_vouchersOwners",
          "type": "tuple[]"
        }
      ],
      "name": "migrateVouchers",
      "outputs": [],
      "stateMutability": "nonpayable",
      "type": "function"
    }
  ],
  "bytecode": "0x608060405234801561001057600080fd5b50610b0f806100206000396000f3fe608060405234801561001057600080fd5b506004361061002b5760003560e01c8063df04d4c714610030575b600080fd5b61004361003e366004610750565b610045565b005b61004d6104c7565b600061005761050c565b905060005b828110156104c157600084848381811061008657634e487b7160e01b600052603260045260246000fd5b90506020028101906100989190610a71565b6100a6906020810190610722565b905060005b8585848181106100cb57634e487b7160e01b600052603260045260246000fd5b90506020028101906100dd9190610a71565b6100eb906020810190610a23565b905081101561026557600086868581811061011657634e487b7160e01b600052603260045260246000fd5b90506020028101906101289190610a71565b610136906020810190610a23565b8381811061015457634e487b7160e01b600052603260045260246000fd5b905060200201359050600087878681811061017f57634e487b7160e01b600052603260045260246000fd5b90506020028101906101919190610a71565b61019f906040810190610a23565b848181106101bd57634e487b7160e01b600052603260045260246000fd5b90506020020135905060008060060183815481106101eb57634e487b7160e01b600052603260045260246000fd5b90600052602060002090600b02019050600082826009015461020d9190610a90565b9050816008015481111561023c5760405162461bcd60e51b81526004016102339061097c565b60405180910390fd5b6009820181905561024e868585610569565b50505050808061025d90610aa8565b9150506100ab565b506052546001600160a01b031663c67d53548460008489898881811061029b57634e487b7160e01b600052603260045260246000fd5b90506020028101906102ad9190610a71565b6102bb906020810190610a23565b8b8b8a8181106102db57634e487b7160e01b600052603260045260246000fd5b90506020028101906102ed9190610a71565b6102fb906040810190610a23565b6040518863ffffffff1660e01b815260040161031d979695949392919061081b565b600060405180830381600087803b15801561033757600080fd5b505af115801561034b573d6000803e3d6000fd5b50505050806001600160a01b03167fa6cddb50a5137f4500909927389752d958c5c2d77a395520098e71de4724b31686868581811061039a57634e487b7160e01b600052603260045260246000fd5b90506020028101906103ac9190610a71565b6103ba906020810190610a23565b8888878181106103da57634e487b7160e01b600052603260045260246000fd5b90506020028101906103ec9190610a71565b6103fa906040810190610a23565b60405161040a9493929190610908565b60405180910390a26104ae8360008388888781811061043957634e487b7160e01b600052603260045260246000fd5b905060200281019061044b9190610a71565b610459906020810190610a23565b8a8a8981811061047957634e487b7160e01b600052603260045260246000fd5b905060200281019061048b9190610a71565b610499906040810190610a23565b6040518060200160405280600081525061062d565b50806104b981610aa8565b91505061005c565b50505050565b6104cf6106f9565b600401546001600160a01b03166104e461050c565b6001600160a01b03161461050a5760405162461bcd60e51b81526004016102339061093a565b565b60003330141561056357600080368080601f0160208091040260200160405190810160405280939291908181526020018383808284376000920191909152505050503601516001600160a01b031691506105669050565b50335b90565b600061057361071d565b6001600160a01b038516600090815260098201602090815260408083208784529091528120805492935084929091906105ad908490610a90565b90915550506001600160a01b0384166000908152600b8201602090815260408083208684529091529020546104c1576001600160a01b0384166000818152600a830160209081526040808320805460018101825581855283852061ffff8a169101559383529254600b850182528383208784529091529190205550505050565b853b80156106ee5760405163bc197c8160e01b81526001600160a01b0388169063bc197c819061066d908c908c908b908b908b908b908b90600401610871565b602060405180830381600087803b15801561068757600080fd5b505af115801561069b573d6000803e3d6000fd5b505050506040513d601f19601f820116820180604052508101906106bf91906107bf565b6001600160e01b03191663bc197c8160e01b146106ee5760405162461bcd60e51b8152600401610233906109d9565b505050505050505050565b7fc8fcad8db84d3cc18b4c41d551ea0ee66dd599cde068d998e57d5e09332c131c90565b600090565b600060208284031215610733578081fd5b81356001600160a01b0381168114610749578182fd5b9392505050565b60008060208385031215610762578081fd5b823567ffffffffffffffff80821115610779578283fd5b818501915085601f83011261078c578283fd5b81358181111561079a578384fd5b86602080830285010111156107ad578384fd5b60209290920196919550909350505050565b6000602082840312156107d0578081fd5b81516001600160e01b031981168114610749578182fd5b81835260006001600160fb1b038311156107ff578081fd5b6020830280836020870137939093016020019283525090919050565b6001600160a01b03888116825287811660208301528616604082015260a06060820181905260009061085090830186886107e7565b82810360808401526108638185876107e7565b9a9950505050505050505050565b600060018060a01b03808a1683526020818a168185015260a0604085015261089d60a08501898b6107e7565b915083820360608501526108b28287896107e7565b915083820360808501528451808352835b818110156108de5786810183015184820184015282016108c3565b818111156108ee57848383860101525b50601f01601f191691909101019998505050505050505050565b60006040825261091c6040830186886107e7565b828103602084015261092f8185876107e7565b979650505050505050565b60208082526022908201527f4c69624469616d6f6e643a204d75737420626520636f6e7472616374206f776e60408201526132b960f11b606082015260800190565b60208082526038908201527f53686f7046616365743a20546f74616c206974656d2074797065207175616e7460408201527f6974792065786365656473206d6178207175616e746974790000000000000000606082015260800190565b6020808252602a908201527f5765617261626c65733a205472616e736665722072656a65637465642f6661696040820152696c6564206279205f746f60b01b606082015260800190565b6000808335601e19843603018112610a39578283fd5b83018035915067ffffffffffffffff821115610a53578283fd5b6020908101925081023603821315610a6a57600080fd5b9250929050565b60008235605e19833603018112610a86578182fd5b9190910192915050565b60008219821115610aa357610aa3610ac3565b500190565b6000600019821415610abc57610abc610ac3565b5060010190565b634e487b7160e01b600052601160045260246000fdfea264697066735822122041734e7a645a3871a95ec352a20e8fa94509c84dfde62d228d0e4806be119e9864736f6c63430008010033",
  "linkReferences": {},
  "deployedLinkReferences": {}
}