{
  "_format": "hh-sol-artifact-1",
  "contractName": "VrfFacet",
  "sourceName": "contracts/Aavegotchi/facets/VRFFacet.sol",
  "abi": [
    {
      "anonymous": false,
      "inputs": [
        {
          "indexed": false,
          "internalType": "uint256[]",
          "name": "_tokenIds",
          "type": "uint256[]"
        }
      ],
      "name": "OpenPortals",
      "type": "event"
    },
    {
      "anonymous": false,
      "inputs": [
        {
          "indexed": true,
          "internalType": "uint256",
          "name": "tokenId",
          "type": "uint256"
        }
      ],
      "name": "PortalOpened",
      "type": "event"
    },
    {
      "anonymous": false,
      "inputs": [
        {
          "indexed": true,
          "internalType": "uint256",
          "name": "tokenId",
          "type": "uint256"
        },
        {
          "indexed": false,
          "internalType": "uint256",
          "name": "randomNumber",
          "type": "uint256"
        },
        {
          "indexed": false,
          "internalType": "uint256",
          "name": "_vrfTimeSet",
          "type": "uint256"
        }
      ],
      "name": "VrfRandomNumber",
      "type": "event"
    },
    {
      "inputs": [
        {
          "internalType": "uint256",
          "name": "_newFee",
          "type": "uint256"
        },
        {
          "internalType": "bytes32",
          "name": "_keyHash",
          "type": "bytes32"
        },
        {
          "internalType": "address",
          "name": "_vrfCoordinator",
          "type": "address"
        },
        {
          "internalType": "address",
          "name": "_link",
          "type": "address"
        }
      ],
      "name": "changeVrf",
      "outputs": [],
      "stateMutability": "nonpayable",
      "type": "function"
    },
    {
      "inputs": [],
      "name": "keyHash",
      "outputs": [
        {
          "internalType": "bytes32",
          "name": "",
          "type": "bytes32"
        }
      ],
      "stateMutability": "view",
      "type": "function"
    },
    {
      "inputs": [],
      "name": "link",
      "outputs": [
        {
          "internalType": "address",
          "name": "",
          "type": "address"
        }
      ],
      "stateMutability": "view",
      "type": "function"
    },
    {
      "inputs": [],
      "name": "linkBalance",
      "outputs": [
        {
          "internalType": "uint256",
          "name": "linkBalance_",
          "type": "uint256"
        }
      ],
      "stateMutability": "view",
      "type": "function"
    },
    {
      "inputs": [
        {
          "internalType": "uint256[]",
          "name": "_tokenIds",
          "type": "uint256[]"
        }
      ],
      "name": "openPortals",
      "outputs": [],
      "stateMutability": "nonpayable",
      "type": "function"
    },
    {
      "inputs": [
        {
          "internalType": "bytes32",
          "name": "_requestId",
          "type": "bytes32"
        },
        {
          "internalType": "uint256",
          "name": "_randomNumber",
          "type": "uint256"
        }
      ],
      "name": "rawFulfillRandomness",
      "outputs": [],
      "stateMutability": "nonpayable",
      "type": "function"
    },
    {
      "inputs": [
        {
          "internalType": "address",
          "name": "_to",
          "type": "address"
        },
        {
          "internalType": "uint256",
          "name": "_value",
          "type": "uint256"
        }
      ],
      "name": "removeLinkTokens",
      "outputs": [],
      "stateMutability": "nonpayable",
      "type": "function"
    },
    {
      "inputs": [],
      "name": "vrfCoordinator",
      "outputs": [
        {
          "internalType": "address",
          "name": "",
          "type": "address"
        }
      ],
      "stateMutability": "view",
      "type": "function"
    }
  ],
  "bytecode": "0x608060405234801561001057600080fd5b5061121d806100206000396000f3fe608060405234801561001057600080fd5b50600436106100885760003560e01c806394985ddd1161005b57806394985ddd146100e8578063a3e56fa8146100fb578063c26ecefa14610103578063e59c2f0c1461010b57610088565b80631c4695f41461008d578063247b30fb146100ab57806361728f39146100c0578063761e99f0146100d5575b600080fd5b61009561011e565b6040516100a29190610e63565b60405180910390f35b6100be6100b9366004610d2f565b61012e565b005b6100c8610293565b6040516100a29190610f34565b6100be6100e3366004610d06565b610299565b6100be6100f6366004610dc5565b61032a565b610095610443565b6100c8610452565b6100be610119366004610dfe565b6104d8565b6028546001600160a01b03165b90565b600061013861057a565b905060005b8281101561025457600084848381811061016757634e487b7160e01b600052603260045260246000fd5b602090810292909201356000818152600d9093526040909220600a015491925050600160a01b900460ff16156101b85760405162461bcd60e51b81526004016101af90610fb7565b60405180910390fd5b6000818152600d60205260409020600a01546001600160a01b038481169116146101f45760405162461bcd60e51b81526004016101af906110d8565b6000818152600d60205260409020600a0154600160d01b900460ff161561022d5760405162461bcd60e51b81526004016101af9061116c565b610236816105d6565b610241308285610858565b508061024c816111c0565b91505061013d565b507fae66efc8f8e0f090cda702f391cb78d98edbc93d662e2876a5c6d6f257d959b98383604051610286929190610efa565b60405180910390a1505050565b60255490565b6102a16108ab565b60285460405163a9059cbb60e01b81526001600160a01b039091169063a9059cbb906102d39085908590600401610e77565b602060405180830381600087803b1580156102ed57600080fd5b505af1158015610301573d6000803e3d6000fd5b505050506040513d601f19601f820116820180604052508101906103259190610d9e565b505050565b6000828152602360205260409020546027546001600160a01b031661034d61057a565b6001600160a01b0316146103735760405162461bcd60e51b81526004016101af90611135565b6000818152600d60205260409020600a0154600160a01b900460ff166001146103ae5760405162461bcd60e51b81526004016101af90611033565b6000818152600d60209081526040808320600a01805460ff60a01b1916600160a11b179055600c9091528082208490555182917fb5824aff6dce0f8d1992635006fca09ed9009a7a4dd0aa2e8678594d87eade7e91a2807f902c3f482303571df54b548cf5ccfab6a428d11d87b142243af064b9fe64e2d48342604051610436929190610e43565b60405180910390a2505050565b6027546001600160a01b031690565b6028546040516370a0823160e01b81526000916001600160a01b0316906370a0823190610483903090600401610e63565b60206040518083038186803b15801561049b57600080fd5b505afa1580156104af573d6000803e3d6000fd5b505050506040513d601f19601f820116820180604052508101906104d39190610de6565b905090565b6104e06108ab565b8315610512576026805471ffffffffffffffffffffffffffffffffffff19166bffffffffffffffffffffffff86161790555b821561051e5760258390555b6001600160a01b0382161561054957602780546001600160a01b0319166001600160a01b0384161790555b6001600160a01b0381161561057457602880546001600160a01b0319166001600160a01b0383161790555b50505050565b6000333014156105d157600080368080601f0160208091040260200160405190810160405280939291908181526020018383808284376000920191909152505050503601516001600160a01b0316915061012b9050565b503390565b6000818152600d602052604090819020600a01805460ff60a01b1916600160a01b17905560265460285491516370a0823160e01b815271ffffffffffffffffffffffffffffffffffff9091169182916001600160a01b03909116906370a0823190610645903090600401610e63565b60206040518083038186803b15801561065d57600080fd5b505afa158015610671573d6000803e3d6000fd5b505050506040513d601f19601f820116820180604052508101906106959190610de6565b10156106b35760405162461bcd60e51b81526004016101af90610ffc565b6025546028546027546040516001600160a01b0392831692634000aea092169085906106e6908690600090602001610f3d565b6040516020818303038152906040526040518463ffffffff1660e01b815260040161071393929190610e90565b602060405180830381600087803b15801561072d57600080fd5b505af1158015610741573d6000803e3d6000fd5b505050506040513d601f19601f820116820180604052508101906107659190610d9e565b6107815760405162461bcd60e51b81526004016101af906110a1565b60008181526024602090815260408083205490516107a59285928592309201610f4e565b60408051601f19818403018152918152815160209283012060008581526024909352908220805491935090916107da836111c0565b9190505550600082826040516020016107f4929190610e43565b60408051601f198184030181528282528051602091820120600081815260238352929092208890559092506108519183916108339143918a9101610e43565b6040516020818303038152906040528051906020012060001c6108f0565b5050505050565b600061086261093a565b6001600160a01b0380861660009081526039830160209081526040808320888452825280832093871683529290522054909150806108a1575050610325565b610851818461093f565b6108b3610a68565b600401546001600160a01b03166108c861057a565b6001600160a01b0316146108ee5760405162461bcd60e51b81526004016101af90610f75565b565b600082815260236020908152604080832054808452600d909252909120600a0154600160a01b900460ff166001146103ae5760405162461bcd60e51b81526004016101af90611033565b600090565b600061094961093a565b6000848152603482016020526040902060018101549192509061096d575050610a64565b60008481526033830160205260409020600881015460ff161515600114806109985750600781015415155b156109a557505050610a64565b60018101546001600160a01b038581169116146109d45760405162461bcd60e51b81526004016101af9061106a565b60088101805460ff1916600117905560028101546001600160a01b0316301415610a1c5760038101546000908152600d840160205260409020600a01805460ff60d01b191690555b847f10e53bca620314e794d61e37932062e81c48e88233765d09da42aeb00ae4dba0826004015443604051610a52929190610e43565b60405180910390a26108518585610a8c565b5050565b7fc8fcad8db84d3cc18b4c41d551ea0ee66dd599cde068d998e57d5e09332c131c90565b6000610a9661093a565b60008481526034820160205260409020600181015491925090610aba575050610a64565b80548015610adc57600081815260348401602052604090206002808401549101555b60028201548015610afc5760008181526034850160205260409020835490555b60008681526033850160209081526040808320600481015484526035880190925291829020915190918891610b3090610e51565b9081526020016040518091039020541415610b7d57600284015460048201546000908152603587016020526040908190209051610b6c90610e51565b908152604051908190036020019020555b6000600185018190558085556002909401849055868452603685016020526040909320805490939092508215610bc757600083815260368601602052604090206002808601549101555b600284015491508115610be95760008281526036860160205260409020845490555b50600086815260338501602090815260408083206001600160a01b03891684526037880183528184206004820154855290925291829020915190918891610c2f90610e51565b9081526020016040518091039020541415610c905760028401546001600160a01b0387166000908152603787016020908152604080832060048601548452909152908190209051610c7f90610e51565b908152604051908190036020019020555b6000600185018190558085556002850155600481015460405188917fd309bba073dd463d9d78e92766d06da7cde7d0e6e83149168a7bc913c9ecc44291610cd991904290610e43565b60405180910390a250505050505050565b80356001600160a01b0381168114610d0157600080fd5b919050565b60008060408385031215610d18578182fd5b610d2183610cea565b946020939093013593505050565b60008060208385031215610d41578182fd5b823567ffffffffffffffff80821115610d58578384fd5b818501915085601f830112610d6b578384fd5b813581811115610d79578485fd5b8660208083028501011115610d8c578485fd5b60209290920196919550909350505050565b600060208284031215610daf578081fd5b81518015158114610dbe578182fd5b9392505050565b60008060408385031215610dd7578182fd5b50508035926020909101359150565b600060208284031215610df7578081fd5b5051919050565b60008060008060808587031215610e13578182fd5b8435935060208501359250610e2a60408601610cea565b9150610e3860608601610cea565b905092959194509250565b918252602082015260400190565b651b1a5cdd195960d21b815260060190565b6001600160a01b0391909116815260200190565b6001600160a01b03929092168252602082015260400190565b600060018060a01b038516825260208481840152606060408401528351806060850152825b81811015610ed157858101830151858201608001528201610eb5565b81811115610ee25783608083870101525b50601f01601f19169290920160800195945050505050565b6020808252810182905260006001600160fb1b03831115610f19578081fd5b60208302808560408501379190910160400190815292915050565b90815260200190565b91825260ff16602082015260400190565b93845260ff9290921660208401526001600160a01b03166040830152606082015260800190565b60208082526022908201527f4c69624469616d6f6e643a204d75737420626520636f6e7472616374206f776e60408201526132b960f11b606082015260800190565b60208082526025908201527f41617665676f7463686946616365743a20506f7274616c206973206e6f7420636040820152641b1bdcd95960da1b606082015260800190565b60208082526019908201527f56726646616365743a204e6f7420656e6f756768204c494e4b00000000000000604082015260600190565b6020808252601c908201527f56726646616365743a20565246206973206e6f742070656e64696e6700000000604082015260600190565b6020808252601d908201527f4d61726b6574706c6163653a206f776e6572206e6f742073656c6c6572000000604082015260600190565b6020808252601e908201527f56726646616365743a206c696e6b207472616e73666572206661696c65640000604082015260600190565b60208082526038908201527f41617665676f7463686946616365743a204f6e6c792061617665676f7463686960408201527f206f776e65722063616e206f70656e206120706f7274616c0000000000000000606082015260800190565b6020808252601f908201527f4f6e6c7920565246436f6f7264696e61746f722063616e2066756c66696c6c00604082015260600190565b60208082526034908201527f41617665676f7463686946616365743a2043616e2774206f70656e20706f7274604082015273185b081dda195b881a5d081a5cc81b1bd8dad95960621b606082015260800190565b60006000198214156111e057634e487b7160e01b81526011600452602481fd5b506001019056fea2646970667358221220da9f3b5e5dac61ef8c5aa7163ad5192290e388d707cb3ce1d3d8695339f8d8e564736f6c63430008010033",
  "linkReferences": {},
  "deployedLinkReferences": {}
}