{
  "_format": "hh-sol-artifact-1",
  "contractName": "AlchemicaFacet",
  "sourceName": "contracts/RealmDiamond/facets/AlchemicaFacet.sol",
  "abi": [
    {
      "inputs": [
        {
          "internalType": "string",
          "name": "_tokenName",
          "type": "string"
        }
      ],
      "name": "ERC20TransferFailed",
      "type": "error"
    },
    {
      "anonymous": false,
      "inputs": [
        {
          "indexed": true,
          "internalType": "uint256",
          "name": "_realmId",
          "type": "uint256"
        },
        {
          "indexed": true,
          "internalType": "uint256",
          "name": "_gotchiId",
          "type": "uint256"
        },
        {
          "indexed": false,
          "internalType": "uint256[4]",
          "name": "_alchemica",
          "type": "uint256[4]"
        },
        {
          "indexed": false,
          "internalType": "uint256",
          "name": "_spilloverRate",
          "type": "uint256"
        },
        {
          "indexed": false,
          "internalType": "uint256",
          "name": "_spilloverRadius",
          "type": "uint256"
        }
      ],
      "name": "ChannelAlchemica",
      "type": "event"
    },
    {
      "anonymous": false,
      "inputs": [
        {
          "indexed": true,
          "internalType": "uint256",
          "name": "_gotchiId",
          "type": "uint256"
        },
        {
          "indexed": false,
          "internalType": "uint256[]",
          "name": "_alchemica",
          "type": "uint256[]"
        }
      ],
      "name": "ExitAlchemica",
      "type": "event"
    },
    {
      "anonymous": false,
      "inputs": [
        {
          "indexed": false,
          "internalType": "uint256",
          "name": "_realmId",
          "type": "uint256"
        },
        {
          "indexed": false,
          "internalType": "uint256",
          "name": "_round",
          "type": "uint256"
        }
      ],
      "name": "StartSurveying",
      "type": "event"
    },
    {
      "anonymous": false,
      "inputs": [
        {
          "indexed": true,
          "internalType": "uint256",
          "name": "_newRound",
          "type": "uint256"
        }
      ],
      "name": "SurveyingRoundProgressed",
      "type": "event"
    },
    {
      "anonymous": false,
      "inputs": [
        {
          "indexed": true,
          "internalType": "address",
          "name": "_sender",
          "type": "address"
        },
        {
          "indexed": true,
          "internalType": "uint256",
          "name": "_gotchiId",
          "type": "uint256"
        },
        {
          "indexed": false,
          "internalType": "address",
          "name": "_tokenAddresses",
          "type": "address"
        },
        {
          "indexed": false,
          "internalType": "uint256",
          "name": "_amount",
          "type": "uint256"
        }
      ],
      "name": "TransferTokensToGotchi",
      "type": "event"
    },
    {
      "inputs": [
        {
          "internalType": "address[]",
          "name": "_targets",
          "type": "address[]"
        },
        {
          "internalType": "uint256[4][]",
          "name": "_amounts",
          "type": "uint256[4][]"
        }
      ],
      "name": "batchTransferAlchemica",
      "outputs": [],
      "stateMutability": "nonpayable",
      "type": "function"
    },
    {
      "inputs": [
        {
          "internalType": "address[][]",
          "name": "_tokens",
          "type": "address[][]"
        },
        {
          "internalType": "uint256[][]",
          "name": "_amounts",
          "type": "uint256[][]"
        },
        {
          "internalType": "address[]",
          "name": "_to",
          "type": "address[]"
        }
      ],
      "name": "batchTransferTokens",
      "outputs": [],
      "stateMutability": "nonpayable",
      "type": "function"
    },
    {
      "inputs": [
        {
          "internalType": "uint256[]",
          "name": "_gotchiIds",
          "type": "uint256[]"
        },
        {
          "internalType": "address[]",
          "name": "_tokenAddresses",
          "type": "address[]"
        },
        {
          "internalType": "uint256[][]",
          "name": "_amounts",
          "type": "uint256[][]"
        }
      ],
      "name": "batchTransferTokensToGotchis",
      "outputs": [],
      "stateMutability": "nonpayable",
      "type": "function"
    },
    {
      "inputs": [
        {
          "internalType": "uint256",
          "name": "_realmId",
          "type": "uint256"
        },
        {
          "internalType": "uint256",
          "name": "_gotchiId",
          "type": "uint256"
        },
        {
          "internalType": "uint256",
          "name": "_lastChanneled",
          "type": "uint256"
        },
        {
          "internalType": "bytes",
          "name": "_signature",
          "type": "bytes"
        }
      ],
      "name": "channelAlchemica",
      "outputs": [],
      "stateMutability": "nonpayable",
      "type": "function"
    },
    {
      "inputs": [
        {
          "internalType": "uint256",
          "name": "_realmId",
          "type": "uint256"
        },
        {
          "internalType": "uint256",
          "name": "_gotchiId",
          "type": "uint256"
        },
        {
          "internalType": "bytes",
          "name": "_signature",
          "type": "bytes"
        }
      ],
      "name": "claimAvailableAlchemica",
      "outputs": [],
      "stateMutability": "nonpayable",
      "type": "function"
    },
    {
      "inputs": [],
      "name": "getAlchemicaAddresses",
      "outputs": [
        {
          "internalType": "address[4]",
          "name": "",
          "type": "address[4]"
        }
      ],
      "stateMutability": "view",
      "type": "function"
    },
    {
      "inputs": [
        {
          "internalType": "uint256",
          "name": "_realmId",
          "type": "uint256"
        }
      ],
      "name": "getAvailableAlchemica",
      "outputs": [
        {
          "internalType": "uint256[4]",
          "name": "_availableAlchemica",
          "type": "uint256[4]"
        }
      ],
      "stateMutability": "view",
      "type": "function"
    },
    {
      "inputs": [
        {
          "internalType": "uint256",
          "name": "_realmId",
          "type": "uint256"
        }
      ],
      "name": "getCapacities",
      "outputs": [
        {
          "internalType": "uint256[]",
          "name": "capacities",
          "type": "uint256[]"
        }
      ],
      "stateMutability": "view",
      "type": "function"
    },
    {
      "inputs": [
        {
          "internalType": "uint256",
          "name": "_realmId",
          "type": "uint256"
        }
      ],
      "name": "getHarvestRates",
      "outputs": [
        {
          "internalType": "uint256[]",
          "name": "harvestRates",
          "type": "uint256[]"
        }
      ],
      "stateMutability": "view",
      "type": "function"
    },
    {
      "inputs": [
        {
          "internalType": "uint256",
          "name": "_gotchiId",
          "type": "uint256"
        }
      ],
      "name": "getLastChanneled",
      "outputs": [
        {
          "internalType": "uint256",
          "name": "",
          "type": "uint256"
        }
      ],
      "stateMutability": "view",
      "type": "function"
    },
    {
      "inputs": [
        {
          "internalType": "uint256",
          "name": "_parcelId",
          "type": "uint256"
        }
      ],
      "name": "getParcelLastChanneled",
      "outputs": [
        {
          "internalType": "uint256",
          "name": "",
          "type": "uint256"
        }
      ],
      "stateMutability": "view",
      "type": "function"
    },
    {
      "inputs": [
        {
          "internalType": "uint256",
          "name": "_realmId",
          "type": "uint256"
        }
      ],
      "name": "getRealmAlchemica",
      "outputs": [
        {
          "internalType": "uint256[4]",
          "name": "",
          "type": "uint256[4]"
        }
      ],
      "stateMutability": "view",
      "type": "function"
    },
    {
      "inputs": [
        {
          "internalType": "uint256",
          "name": "_realmId",
          "type": "uint256"
        },
        {
          "internalType": "uint256",
          "name": "_roundId",
          "type": "uint256"
        }
      ],
      "name": "getRoundAlchemica",
      "outputs": [
        {
          "internalType": "uint256[]",
          "name": "",
          "type": "uint256[]"
        }
      ],
      "stateMutability": "view",
      "type": "function"
    },
    {
      "inputs": [
        {
          "internalType": "uint256",
          "name": "_realmId",
          "type": "uint256"
        },
        {
          "internalType": "uint256",
          "name": "_roundId",
          "type": "uint256"
        }
      ],
      "name": "getRoundBaseAlchemica",
      "outputs": [
        {
          "internalType": "uint256[]",
          "name": "",
          "type": "uint256[]"
        }
      ],
      "stateMutability": "view",
      "type": "function"
    },
    {
      "inputs": [],
      "name": "getTotalAlchemicas",
      "outputs": [
        {
          "internalType": "uint256[4][5]",
          "name": "",
          "type": "uint256[4][5]"
        }
      ],
      "stateMutability": "view",
      "type": "function"
    },
    {
      "inputs": [
        {
          "internalType": "uint256",
          "name": "_realmId",
          "type": "uint256"
        }
      ],
      "name": "getTotalClaimed",
      "outputs": [
        {
          "internalType": "uint256[]",
          "name": "totalClaimed",
          "type": "uint256[]"
        }
      ],
      "stateMutability": "view",
      "type": "function"
    },
    {
      "inputs": [
        {
          "internalType": "uint256",
          "name": "_realmId",
          "type": "uint256"
        }
      ],
      "name": "isSurveying",
      "outputs": [
        {
          "internalType": "bool",
          "name": "",
          "type": "bool"
        }
      ],
      "stateMutability": "view",
      "type": "function"
    },
    {
      "inputs": [
        {
          "internalType": "uint256",
          "name": "_realmId",
          "type": "uint256"
        }
      ],
      "name": "lastClaimedAlchemica",
      "outputs": [
        {
          "internalType": "uint256",
          "name": "",
          "type": "uint256"
        }
      ],
      "stateMutability": "view",
      "type": "function"
    },
    {
      "inputs": [],
      "name": "progressSurveyingRound",
      "outputs": [],
      "stateMutability": "nonpayable",
      "type": "function"
    },
    {
      "inputs": [
        {
          "internalType": "uint256[]",
          "name": "_altarLevel",
          "type": "uint256[]"
        },
        {
          "internalType": "uint256[]",
          "name": "_limits",
          "type": "uint256[]"
        }
      ],
      "name": "setChannelingLimits",
      "outputs": [],
      "stateMutability": "nonpayable",
      "type": "function"
    },
    {
      "inputs": [
        {
          "internalType": "uint256[4][5]",
          "name": "_totalAlchemicas",
          "type": "uint256[4][5]"
        }
      ],
      "name": "setTotalAlchemicas",
      "outputs": [],
      "stateMutability": "nonpayable",
      "type": "function"
    },
    {
      "inputs": [
        {
          "internalType": "uint256[4][5]",
          "name": "_alchemicas",
          "type": "uint256[4][5]"
        },
        {
          "internalType": "uint256[4]",
          "name": "_boostMultipliers",
          "type": "uint256[4]"
        },
        {
          "internalType": "uint256[4]",
          "name": "_greatPortalCapacity",
          "type": "uint256[4]"
        },
        {
          "internalType": "address",
          "name": "_installationsDiamond",
          "type": "address"
        },
        {
          "internalType": "address",
          "name": "_vrfCoordinator",
          "type": "address"
        },
        {
          "internalType": "address",
          "name": "_linkAddress",
          "type": "address"
        },
        {
          "internalType": "address[4]",
          "name": "_alchemicaAddresses",
          "type": "address[4]"
        },
        {
          "internalType": "address",
          "name": "_gltrAddress",
          "type": "address"
        },
        {
          "internalType": "bytes",
          "name": "_backendPubKey",
          "type": "bytes"
        },
        {
          "internalType": "address",
          "name": "_gameManager",
          "type": "address"
        },
        {
          "internalType": "address",
          "name": "_tileDiamond",
          "type": "address"
        },
        {
          "internalType": "address",
          "name": "_aavegotchiDiamond",
          "type": "address"
        }
      ],
      "name": "setVars",
      "outputs": [],
      "stateMutability": "nonpayable",
      "type": "function"
    },
    {
      "inputs": [
        {
          "internalType": "uint256",
          "name": "_realmId",
          "type": "uint256"
        }
      ],
      "name": "startSurveying",
      "outputs": [],
      "stateMutability": "nonpayable",
      "type": "function"
    }
  ],
  "bytecode": "0x608060405234801561001057600080fd5b50614042806100206000396000f3fe608060405234801561001057600080fd5b506004361061014c5760003560e01c806364b9e439116100c35780639fefe5471161007c5780639fefe54714610305578063c478243a14610318578063cb3507b914610320578063d88475ad14610340578063e690ebac14610353578063f9facb661461036657600080fd5b806364b9e43914610293578063703dc18b146102a6578063752716ea146102b95780638027870e146102cc578063819d4bfd146102df57806383744439146102f257600080fd5b806330ddd51d1161011557806330ddd51d1461021057806332fc6d7c146102235780633fd0582c1461023657806355e92e531461024b5780635e3067c5146102605780635fdb88fc1461028057600080fd5b8062dba0b014610151578063128ab05714610184578063150a33fc146101bb5780631de8d6c3146101db57806324133ff1146101f0575b600080fd5b61017161015f3660046132ff565b60009081526032602052604090205490565b6040519081526020015b60405180910390f35b6101ab6101923660046132ff565b6000908152600160205260409020612023015460ff1690565b604051901515815260200161017b565b6101ce6101c9366004613318565b610379565b60405161017b919061333a565b6101ee6101e93660046133c2565b6103e9565b005b6101716101fe3660046132ff565b60009081526035602052604090205490565b6101ce61021e3660046132ff565b610581565b6101ce6102313660046132ff565b6105ef565b61023e610657565b60405161017b919061345b565b6102536106c2565b60405161017b91906134b6565b61027361026e3660046132ff565b610707565b60405161017b9190613513565b6101ee61028e3660046133c2565b610757565b6101ce6102a13660046132ff565b610a0b565b6101ee6102b4366004613521565b610a8e565b6101ce6102c7366004613318565b610c7e565b6101ee6102da3660046136c8565b610ceb565b6101ee6102ed36600461376c565b611798565b6101ee6103003660046132ff565b611919565b6101ee610313366004613870565b611b8c565b6101ee611c46565b61017161032e3660046132ff565b60009081526033602052604090205490565b61027361034e3660046132ff565b611c91565b6101ee6103613660046138bf565b611cd8565b6101ee61037436600461392a565b611d9f565b6000828152600160209081526040808320848452612010018252918290208054835181840281018401909452808452606093928301828280156103db57602002820191906000526020600020905b8154815260200190600101908083116103c7575b505050505090505b92915050565b8483146104355760405162461bcd60e51b8152602060048201526015602482015274082e4e4c2f240d8cadccee8d040dad2e6dac2e8c6d605b1b60448201526064015b60405180910390fd5b80831461047c5760405162461bcd60e51b8152602060048201526015602482015274082e4e4c2f240d8cadccee8d040dad2e6dac2e8c6d605b1b604482015260640161042c565b60005b818110156105785761056687878381811061049c5761049c61394e565b90506020028101906104ae9190613964565b808060200260200160405190810160405280939291908181526020018383602002808284376000920191909152508992508891508590508181106104f4576104f461394e565b90506020028101906105069190613964565b8080602002602001604051908101604052809392919081815260200183836020028082843760009201919091525088925087915086905081811061054c5761054c61394e565b905060200201602081019061056191906139ad565b611e52565b80610570816139e0565b91505061047f565b50505050505050565b60408051600480825260a082019092526060916020820160808036833701905050905060005b60048110156105e9576105ba8382612072565b8282815181106105cc576105cc61394e565b6020908102919091010152806105e1816139e0565b9150506105a7565b50919050565b60408051600480825260a082019092526060916020820160808036833701905050905060005b60048110156105e95761062883826120b5565b82828151811061063a5761063a61394e565b60209081029190910101528061064f816139e0565b915050610615565b61065f6131a7565b6040805160a08101909152600d60056000835b828210156106b95760408051608081019182905290600484810287019182845b81548152602001906001019080831161069257505050505081526020019060010190610672565b50505050905090565b6106ca6131d4565b6040805160808101918290529060079060049082845b81546001600160a01b031681526001909101906020018083116106e0575050505050905090565b61070f6131d4565b6000828152600160205260409081902081516080810190925261200b0160048282826020028201915b8154815260200190600101908083116107385750505050509050919050565b8481146107765760405162461bcd60e51b815260040161042c906139fb565b60005b858110156105785760005b8383838181106107965761079661394e565b90506020028101906107a89190613964565b90508110156109f8578383838181106107c3576107c361394e565b90506020028101906107d59190613964565b861490506108315760405162461bcd60e51b8152602060048201526024808201527f5265616c6d46616365743a204d69736d617463686564206172726179206c656e6044820152636774687360e01b606482015260840161042c565b60008484848181106108455761084561394e565b90506020028101906108579190613964565b838181106108675761086761394e565b90506020020135905060008111156109e55786868381811061088b5761088b61394e565b90506020020160208101906108a091906139ad565b6001600160a01b03166323b872dd336108d08c8c888181106108c4576108c461394e565b905060200201356121ca565b6040516001600160e01b031960e085901b1681526001600160a01b0392831660048201529116602482015260448101849052606401602060405180830381600087803b15801561091f57600080fd5b505af1158015610933573d6000803e3d6000fd5b505050506040513d601f19601f820116820180604052508101906109579190613a53565b5088888481811061096a5761096a61394e565b90506020020135336001600160a01b03167f9c81041a94c7470c4a12c9f386e8ab17b51665d8f013778922f2bf546fbc482c8989868181106109ae576109ae61394e565b90506020020160208101906109c391906139ad565b604080516001600160a01b039092168252602082018690520160405180910390a35b50806109f0816139e0565b915050610784565b5080610a03816139e0565b915050610779565b60408051600480825260a082019092526060916020820160808036833701905050905060005b60048110156105e9576000838152600160205260409020612013018160048110610a5d57610a5d61394e565b0154828281518110610a7157610a7161394e565b602090810291909101015280610a86816139e0565b915050610a31565b828114610aad5760405162461bcd60e51b815260040161042c906139fb565b604080516080810182526007546001600160a01b03908116825260085481166020830152600954811692820192909252600a54909116606082015260005b84811015610c765760005b848483818110610b0857610b0861394e565b5050506004811015610c63576000858584818110610b2857610b2861394e565b9050608002018260048110610b3f57610b3f61394e565b60200201351115610c5157828160048110610b5c57610b5c61394e565b60200201516001600160a01b03166323b872dd33898986818110610b8257610b8261394e565b9050602002016020810190610b9791906139ad565b888887818110610ba957610ba961394e565b9050608002018560048110610bc057610bc061394e565b6040516001600160e01b031960e087901b1681526001600160a01b03948516600482015293909216602484015260209190910201356044820152606401602060405180830381600087803b158015610c1757600080fd5b505af1158015610c2b573d6000803e3d6000fd5b505050506040513d601f19601f82011682018060405250810190610c4f9190613a53565b505b80610c5b816139e0565b915050610af6565b5080610c6e816139e0565b915050610aeb565b505050505050565b6000828152600160209081526040808320848452612011018252918290208054835181840281018401909452808452606093928301828280156103db57602002820191906000526020600020908154815260200190600101908083116103c7575050505050905092915050565b603754600160a01b900460ff16610d145760405162461bcd60e51b815260040161042c90613a6e565b60065460405163b11deb2960e01b815263ffffffff851660048201526001600160a01b0390911690819063b11deb299060240160206040518083038186803b158015610d5f57600080fd5b505afa158015610d73573d6000803e3d6000fd5b505050506040513d601f19601f82011682018060405250810190610d979190613a53565b1580610e1b5750604051636b98ea2760e11b815263ffffffff851660048201526001600160a01b0382169063d731d44e9060240160206040518083038186803b158015610de357600080fd5b505afa158015610df7573d6000803e3d6000fd5b505050506040513d601f19601f82011682018060405250810190610e1b9190613a53565b610e8f576040805162461bcd60e51b81526020600482015260248101919091527f41617665676f746368694469616d6f6e643a20476f746368692043414e4e4f5460448201527f206861766520616374697665206c697374696e6720666f72206c656e64696e67606482015260840161042c565b610ea385856000610e9e6122ff565b61235c565b6000848152603260205260409020548314610f105760405162461bcd60e51b815260206004820152602760248201527f416c6368656d69636146616365743a20496e636f7272656374206c61737420646044820152663ab930ba34b7b760c91b606482015260840161042c565b610f1d6201518042613abb565b6000858152603960205260409020541415610f8b5760405162461bcd60e51b815260206004820152602860248201527f416c6368656d69636146616365743a20476f746368692063616e2774206368616044820152671b9b995b081e595d60c21b606482015260840161042c565b610f986201518042613abb565b600085815260396020908152604080832093909355600b54888352600190915282822061201f01549251630fa6375b60e21b815291926001600160a01b0390911691633e98dd6c91610ff09160040190815260200190565b60206040518083038186803b15801561100857600080fd5b505afa15801561101c573d6000803e3d6000fd5b505050506040513d601f19601f820116820180604052508101906110409190613add565b9050600081116110925760405162461bcd60e51b815260206004820181905260248201527f416c6368656d69636146616365743a204d75737420657175697020416c746172604482015260640161042c565b6000818152603460209081526040808320548984526033909252909120546110ba9190613af6565b42101561111a5760405162461bcd60e51b815260206004820152602860248201527f416c6368656d69636146616365743a2050617263656c2063616e2774206368616044820152671b9b995b081e595d60c21b606482015260840161042c565b6040805160208101889052908101869052606081018590526111e39060800160405160208183030381529060405280519060200120846000602f01805461116090613b0e565b80601f016020809104026020016040519081016040528092919081815260200182805461118c90613b0e565b80156111d95780601f106111ae576101008083540402835291602001916111d9565b820191906000526020600020905b8154815290600101906020018083116111bc57829003601f168201915b50505050506126e0565b6111ff5760405162461bcd60e51b815260040161042c90613b43565b600b5460008781526001602052604080822061201f01549051635e2e929160e11b81526004810191909152909182916001600160a01b039091169063bc5d252290602401604080518083038186803b15801561125a57600080fd5b505afa15801561126e573d6000803e3d6000fd5b505050506040513d601f19601f820116820180604052508101906112929190613b84565b91509150600082116112fc5760405162461bcd60e51b815260206004820152602d60248201527f496e7374616c6c6174696f6e46616365743a205370696c6c6f7665722052617460448201526c0652063616e6e6f74206265203609c1b606482015260840161042c565b604080516080810182526801158e460913d000008152678ac7230489e800006020820152674563918244f4000081830152671bc16d674ec8000060608201529051637adc8c2960e11b8152600481018990526000906001600160a01b0387169063f5b918529060240160206040518083038186803b15801561137d57600080fd5b505afa158015611391573d6000803e3d6000fd5b505050506040513d601f19601f820116820180604052508101906113b59190613add565b6113c190612710613ba8565b905060005b600481101561143e5760006113e46113df603285613abb565b61276a565b90506064818584600481106113fb576113fb61394e565b602002015161140a9190613ba8565b6114149190613abb565b8483600481106114265761142661394e565b60200201525080611436816139e0565b9150506113c6565b5060005b60048110156116ce576000600782600481106114605761146061394e565b01546001600160a01b03169050602582600481106114805761148061394e565b01546040516370a0823160e01b81523060048201526001600160a01b038316906370a082319060240160206040518083038186803b1580156114c157600080fd5b505afa1580156114d5573d6000803e3d6000fd5b505050506040513d601f19601f820116820180604052508101906114f99190613add565b10156116075760006115218584600481106115165761151661394e565b6020020151886127e7565b9050816001600160a01b03166340c10f1961153b8e6121ca565b835160405160e084901b6001600160e01b03191681526001600160a01b0390921660048301526024820152604401600060405180830381600087803b15801561158357600080fd5b505af1158015611597573d6000803e3d6000fd5b5050505060208101516040516340c10f1960e01b815230600482015260248101919091526001600160a01b038316906340c10f1990604401600060405180830381600087803b1580156115e957600080fd5b505af11580156115fd573d6000803e3d6000fd5b50505050506116bb565b600061161e8584600481106115165761151661394e565b9050816001600160a01b031663a9059cbb6116388e6121ca565b835160405160e084901b6001600160e01b03191681526001600160a01b0390921660048301526024820152604401602060405180830381600087803b15801561168057600080fd5b505af1158015611694573d6000803e3d6000fd5b505050506040513d601f19601f820116820180604052508101906116b89190613a53565b50505b50806116c6816139e0565b915050611442565b50600089815260326020908152604080832042908190558d8452603390925291829020556006549051632c7a8a5560e11b8152600481018b90526001600160a01b03909116906358f514aa90602401600060405180830381600087803b15801561173757600080fd5b505af115801561174b573d6000803e3d6000fd5b50505050888a7f90aeb019914a9d84ee1429ed9b47a679efbb8cf388bfa15cdb85bb7450f813ce84878760405161178493929190613bc7565b60405180910390a350505050505050505050565b6117a061288c565b60005b60058110156118475760005b8d82600581106117c1576117c161394e565b50506004811015611834578d82600581106117de576117de61394e565b6080020181600481106117f3576117f361394e565b6020020135600d836005811061180b5761180b61394e565b6004020182600481106118205761182061394e565b01558061182c816139e0565b9150506117af565b508061183f816139e0565b9150506117a3565b5061185560218c60046131f2565b5061186360258b60046131f2565b50600b80546001600160a01b03808c166001600160a01b031992831617909255602980548b8416908316179055602a8054928a16929091169190911790556118ae6007876004613230565b5083516118c290602f906020870190613276565b50603080546001600160a01b03199081166001600160a01b03958616179091556036805482169685169690961790955560378054861692841692909217909155600680549094169116179091555050505050505050565b60008181526001602052604090205481906001600160a01b031661193b6122ff565b6001600160a01b0316146119a05760405162461bcd60e51b815260206004820152602660248201527f41707053746f726167653a204f6e6c792050617263656c206f776e65722063616044820152651b8818d85b1b60d21b606482015260840161042c565b603754600160a01b900460ff166119c95760405162461bcd60e51b815260040161042c90613a6e565b600c54600083815260016020526040902061200f01541115611a385760405162461bcd60e51b815260206004820152602260248201527f416c6368656d69636146616365743a20526f756e64206e6f742072656c656173604482015261195960f21b606482015260840161042c565b600082815260016020526040902061201f0154611a975760405162461bcd60e51b815260206004820181905260248201527f416c6368656d69636146616365743a204d75737420657175697020416c746172604482015260640161042c565b6000828152600160205260409020612023015460ff1615611b0b5760405162461bcd60e51b815260206004820152602860248201527f416c6368656d69636146616365743a2050617263656c20616c726561647920736044820152677572766579696e6760c01b606482015260840161042c565b60008281526001602081905260409091206120238101805460ff191690921790915561200f0154611b3d908390612915565b60008281526001602090815260409182902061200f01548251858152918201527f9503589eb8a010329e27a6eca6c195729d6f8d90280ac71cea5dac41eba6a2a4910160405180910390a15050565b603754600160a01b900460ff16611bb55760405162461bcd60e51b815260040161042c90613a6e565b6000838152603560209081526040918290205482519182018690529181018490526060810191909152611c0c9060800160405160208183030381529060405280519060200120826000602f01805461116090613b0e565b611c285760405162461bcd60e51b815260040161042c90613b43565b611c3783836001610e9e6122ff565b611c418383612a01565b505050565b611c4e61288c565b600c8054906000611c5e836139e0565b9091555050600c546040517f1beab2ee84d8dfe57c2a5f68b9a4bb14bb736c0563bf2f31adc1dfcfba17ea7390600090a2565b611c996131d4565b60005b60048110156105e957611caf8382612bf9565b828260048110611cc157611cc161394e565b602002015280611cd0816139e0565b915050611c9c565b611ce061288c565b828114611d2f5760405162461bcd60e51b815260206004820152601e60248201527f416c6368656d69636146616365743a206172726179206d69736d617463680000604482015260640161042c565b60005b81811015611d9857828282818110611d4c57611d4c61394e565b9050602002013560006034016000878785818110611d6c57611d6c61394e565b905060200201358152602001908152602001600020819055508080611d90906139e0565b915050611d32565b5050505050565b611da761288c565b60005b6005811015611e4e5760005b828260058110611dc857611dc861394e565b50506004811015611e3b57828260058110611de557611de561394e565b608002018160048110611dfa57611dfa61394e565b6020020135600d8360058110611e1257611e1261394e565b600402018260048110611e2757611e2761394e565b015580611e33816139e0565b915050611db6565b5080611e46816139e0565b915050611daa565b5050565b8151835114611e9a5760405162461bcd60e51b8152602060048201526014602482015273082e4e4c2f240d8cacee8d040dad2e6dac2e8c6d60631b604482015260640161042c565b6001600160a01b038116611ee85760405162461bcd60e51b815260206004820152601560248201527420b2323932b9b9902d32b937902a3930b739b332b960591b604482015260640161042c565b60005b835181101561206c576000848281518110611f0857611f0861394e565b602002602001015190506000848381518110611f2657611f2661394e565b60209081029190910101516040516323b872dd60e01b81523360048201526001600160a01b038681166024830152604482018390529192506000918416906323b872dd90606401602060405180830381600087803b158015611f8757600080fd5b505af1925050508015611fb7575060408051601f3d908101601f19168201909252611fb491810190613a53565b60015b612054578061204f57826001600160a01b03166306fdde036040518163ffffffff1660e01b815260040160006040518083038186803b158015611ff957600080fd5b505afa15801561200d573d6000803e3d6000fd5b505050506040513d6000823e601f3d908101601f191682016040526120359190810190613c12565b60405163207a866160e11b815260040161042c9190613c7f565b612056565b505b5050508080612064906139e0565b915050611eeb565b50505050565b6000828152600160205260408120819061200b0183600481106120975761209761394e565b01546120a38585612c99565b6120ad9190613cb2565b949350505050565b60008060005b60008581526001830160209081526040808320878452612012019091529020548110156121c257600b8201546000868152600184016020908152604080832088845261201201909152902080546001600160a01b039092169163d360624991908490811061212b5761212b61394e565b90600052602060002001546040518263ffffffff1660e01b815260040161215491815260200190565b60206040518083038186803b15801561216c57600080fd5b505afa158015612180573d6000803e3d6000fd5b505050506040513d601f19601f820116820180604052508101906121a49190613add565b6121ae9084613af6565b9250806121ba816139e0565b9150506120bb565b505092915050565b600080806006810154604051636b98ea2760e11b815263ffffffff861660048201529192506001600160a01b031690819063d731d44e9060240160206040518083038186803b15801561221c57600080fd5b505afa158015612230573d6000803e3d6000fd5b505050506040513d601f19601f820116820180604052508101906122549190613a53565b156122d2576040516305471ced60e51b8152600481018590526001600160a01b0382169063a8e39da0906024015b60206040518083038186803b15801561229a57600080fd5b505afa1580156122ae573d6000803e3d6000fd5b505050506040513d601f19601f820116820180604052508101906120ad9190613cd4565b6040516331a9108f60e11b8152600481018590526001600160a01b03821690636352211e90602401612282565b60003330141561235657600080368080601f0160208091040260200160405190810160405280939291908181526020018383808284376000920191909152505050503601516001600160a01b031691506123599050565b50335b90565b6006546000858152603860209081526040808320868452825280832054888452600190925282205491926001600160a01b039081169216816123ce57806001600160a01b0316856001600160a01b0316146123c95760405162461bcd60e51b815260040161042c90613cf1565b6126d6565b81600114156125cc57604051636b98ea2760e11b815263ffffffff881660048201526001600160a01b0384169063d731d44e9060240160206040518083038186803b15801561241c57600080fd5b505afa158015612430573d6000803e3d6000fd5b505050506040513d601f19601f820116820180604052508101906124549190613a53565b1561259b5760405163044f7d5960e21b815263ffffffff881660048201526000906001600160a01b0385169063113df5649060240160006040518083038186803b1580156124a157600080fd5b505afa1580156124b5573d6000803e3d6000fd5b505050506040513d6000823e601f3d908101601f191682016040526124dd9190810190613e56565b9050816001600160a01b0316866001600160a01b03161480612534575080604001516001600160a01b0316866001600160a01b03161480156125345750816001600160a01b031681600001516001600160a01b0316145b6125955760405162461bcd60e51b815260206004820152602c60248201527f4c69625265616c6d3a20416363657373205269676874202d204f6e6c79204f7760448201526b3732b917a137b93937bbb2b960a11b606482015260840161042c565b506126d6565b806001600160a01b0316856001600160a01b0316146123c95760405162461bcd60e51b815260040161042c90613cf1565b81600214156126d6576000888152603d850160209081526040808320898452909152808220549051631ccfd32160e31b815263ffffffff90911660048201526001600160a01b03878116602483015285169063e67e99089060440160206040518083038186803b15801561263f57600080fd5b505afa158015612653573d6000803e3d6000fd5b505050506040513d601f19601f820116820180604052508101906126779190613add565b116123c95760405162461bcd60e51b815260206004820152602960248201527f4c69625265616c6d3a20416363657373205269676874202d204f6e6c792057686044820152681a5d195b1a5cdd195960ba1b606482015260840161042c565b5050505050505050565b60008061273a856040517f19457468657265756d205369676e6564204d6573736167653a0a3332000000006020820152603c8101829052600090605c01604051602081830303815290604052805190602001209050919050565b835160208501209091506001600160a01b03166127578286612d16565b6001600160a01b03161495945050505050565b600081156127df5760006002830460010190506000600282858161279057612790613aa5565b048301816127a0576127a0613aa5565b0490505b808211156127d85780915060028285816127c0576127c0613aa5565b048301816127d0576127d0613aa5565b0490506127a4565b5092915050565b506000919050565b6040805180820190915260008082526020820152600068056bc75e2d6310000061281884662386f26fc10000613ba8565b61282b9068056bc75e2d63100000613cb2565b6128359086613ba8565b61283f9190613abb565b9050600068056bc75e2d6310000061285e85662386f26fc10000613ba8565b6128689087613ba8565b6128729190613abb565b604080518082019091529283526020830152509392505050565b7fc8fcad8db84d3cc18b4c41d551ea0ee66dd599cde068d998e57d5e09332c131c600401546001600160a01b031633146129135760405162461bcd60e51b815260206004820152602260248201527f4c69624469616d6f6e643a204d75737420626520636f6e7472616374206f776e60448201526132b960f11b606482015260840161042c565b565b602954602c54602b546040516305d3b1d360e41b815260048101929092526001600160401b038116602483015261ffff600160601b820416604483015263ffffffff68010000000000000000820481166064840152600160701b9091041660848201526000916001600160a01b031690635d3b1d309060a401602060405180830381600087803b1580156129a857600080fd5b505af11580156129bc573d6000803e3d6000fd5b505050506040513d601f19601f820116820180604052508101906129e09190613add565b6000908152602d6020908152604080832095909555602e9052929092205550565b600082815260356020526040812054612a1c90617080613af6565b4211612a795760405162461bcd60e51b815260206004820152602660248201527f416c6368656d69636146616365743a203820686f75727320636c61696d20636f60448201526537b63237bbb760d11b606482015260840161042c565b600083815260358201602052604081204290555b600481101561206c576000848152600183016020526040812061200b018260048110612abb57612abb61394e565b015490506000612acb8684612bf9565b9050808210612ada5780612adc565b815b60008781526001860160205260409020909150819061200b018460048110612b0657612b0661394e565b016000828254612b169190613cb2565b90915550506000868152600185016020526040812061201b018460048110612b4057612b4061394e565b0155600086815260018501602052604090204290612017018460048110612b6957612b6961394e565b0155600080612b788886612d95565b91509150600080612b898585612f28565b91509150612b99878a8484612fa7565b604080518681526020810186905290810184905287908a908c907fcd37debf8c15afccf3b196a970f20863139e242a2d78e43638a536d375cf4adb9060600160405180910390a45050505050508080612bf1906139e0565b915050612a8d565b60008281526001602052604081208190819061200b018460048110612c2057612c2061394e565b0154905080612c325791506103e39050565b6000858152600183016020526040812061201b018560048110612c5757612c5761394e565b01549050612c6586866130b7565b612c6f9082613af6565b90506000612c7d87876120b5565b9050808210612c8c5780612c8e565b815b979650505050505050565b60008060005b6000858152600183016020526040902061200f01548110156121c25760008581526001830160209081526040808320848452612011019091529020805485908110612cec57612cec61394e565b906000526020600020015483612d029190613af6565b925080612d0e816139e0565b915050612c9f565b600080600080612d2585613133565b6040805160008152602081018083528b905260ff8316918101919091526060810184905260808101839052929550909350915060019060a0016020604051602081039080840390855afa158015612d80573d6000803e3d6000fd5b5050604051601f190151979650505050505050565b600080806000806000805b600089815260018601602090815260408083208b845261201201909152902054811015612eee57600b85015460008a815260018701602090815260408083208c8452612012019091528120805491926001600160a01b03169163c78da66e919085908110612e1057612e1061394e565b90600052602060002001546040518263ffffffff1660e01b8152600401612e3991815260200190565b60606040518083038186803b158015612e5157600080fd5b505afa158015612e65573d6000803e3d6000fd5b505050506040513d601f19601f82011682018060405250810190612e899190613fd0565b9050806040015183612e9b9190613af6565b81516040830151919450612eae91613ba8565b612eb89086613af6565b945080602001518160400151612ece9190613ba8565b612ed89085613af6565b9350508080612ee6906139e0565b915050612da0565b5080612f04576000809550955050505050612f21565b612f0e8184613abb565b9550612f1a8183613abb565b9450505050505b9250929050565b60008068056bc75e2d63100000612f4684662386f26fc10000613ba8565b612f599068056bc75e2d63100000613cb2565b612f639086613ba8565b612f6d9190613abb565b915068056bc75e2d63100000612f8a84662386f26fc10000613ba8565b612f949086613ba8565b612f9e9190613abb565b90509250929050565b60008060078660048110612fbd57612fbd61394e565b01546001600160a01b03169050831561304957806001600160a01b03166340c10f19612fe8876121ca565b6040516001600160e01b031960e084901b1681526001600160a01b03909116600482015260248101879052604401600060405180830381600087803b15801561303057600080fd5b505af1158015613044573d6000803e3d6000fd5b505050505b8215610c76576040516340c10f1960e01b8152306004820152602481018490526001600160a01b038216906340c10f1990604401600060405180830381600087803b15801561309757600080fd5b505af11580156130ab573d6000803e3d6000fd5b50505050505050505050565b60008281526001602052604081208190819062015180906120170185600481106130e3576130e361394e565b01546130ef9042613cb2565b600087815260018501602052604090206120130186600481106131145761311461394e565b01546131209190613ba8565b61312a9190613abb565b95945050505050565b600080600083516041146131895760405162461bcd60e51b815260206004820152601860248201527f496e76616c6964207369676e6174757265206c656e6774680000000000000000604482015260640161042c565b50505060208101516040820151606090920151909260009190911a90565b6040518060a001604052806005905b6131be6131d4565b8152602001906001900390816131b65790505090565b60405180608001604052806004906020820280368337509192915050565b8260048101928215613220579160200282015b82811115613220578235825591602001919060010190613205565b5061322c9291506132ea565b5090565b8260048101928215613220579160200282015b828111156132205781546001600160a01b0319166001600160a01b03843516178255602090920191600190910190613243565b82805461328290613b0e565b90600052602060002090601f0160209004810192826132a45760008555613220565b82601f106132bd57805160ff1916838001178555613220565b82800160010185558215613220579182015b828111156132205782518255916020019190600101906132cf565b5b8082111561322c57600081556001016132eb565b60006020828403121561331157600080fd5b5035919050565b6000806040838503121561332b57600080fd5b50508035926020909101359150565b6020808252825182820181905260009190848201906040850190845b8181101561337257835183529284019291840191600101613356565b50909695505050505050565b60008083601f84011261339057600080fd5b5081356001600160401b038111156133a757600080fd5b6020830191508360208260051b8501011115612f2157600080fd5b600080600080600080606087890312156133db57600080fd5b86356001600160401b03808211156133f257600080fd5b6133fe8a838b0161337e565b9098509650602089013591508082111561341757600080fd5b6134238a838b0161337e565b9096509450604089013591508082111561343c57600080fd5b5061344989828a0161337e565b979a9699509497509295939492505050565b610280810181836000805b60058110156134ac57825184835b6004811015613493578251825260209283019290910190600101613474565b5050506080939093019260209290920191600101613466565b5050505092915050565b60808101818360005b60048110156134e75781516001600160a01b03168352602092830192909101906001016134bf565b50505092915050565b8060005b600481101561206c5781518452602093840193909101906001016134f4565b608081016103e382846134f0565b6000806000806040858703121561353757600080fd5b84356001600160401b038082111561354e57600080fd5b61355a8883890161337e565b9096509450602087013591508082111561357357600080fd5b818701915087601f83011261358757600080fd5b81358181111561359657600080fd5b8860208260071b85010111156135ab57600080fd5b95989497505060200194505050565b634e487b7160e01b600052604160045260246000fd5b604051606081016001600160401b03811182821017156135f2576135f26135ba565b60405290565b60405161020081016001600160401b03811182821017156135f2576135f26135ba565b604051601f8201601f191681016001600160401b0381118282101715613643576136436135ba565b604052919050565b60006001600160401b03821115613664576136646135ba565b50601f01601f191660200190565b600082601f83011261368357600080fd5b81356136966136918261364b565b61361b565b8181528460208386010111156136ab57600080fd5b816020850160208301376000918101602001919091529392505050565b600080600080608085870312156136de57600080fd5b84359350602085013592506040850135915060608501356001600160401b0381111561370957600080fd5b61371587828801613672565b91505092959194509250565b8061028081018310156103e357600080fd5b80608081018310156103e357600080fd5b6001600160a01b038116811461375957600080fd5b50565b803561376781613744565b919050565b6000806000806000806000806000806000806105008d8f03121561378f57600080fd5b6137998e8e613721565b9b506137a98e6102808f01613733565b9a506137b98e6103008f01613733565b99506137c86103808e0161375c565b98506137d76103a08e0161375c565b97506137e66103c08e0161375c565b96506137f68e6103e08f01613733565b95506138056104608e0161375c565b94506001600160401b036104808e0135111561382057600080fd5b6138318e6104808f01358f01613672565b93506138406104a08e0161375c565b925061384f6104c08e0161375c565b915061385e6104e08e0161375c565b90509295989b509295989b509295989b565b60008060006060848603121561388557600080fd5b833592506020840135915060408401356001600160401b038111156138a957600080fd5b6138b586828701613672565b9150509250925092565b600080600080604085870312156138d557600080fd5b84356001600160401b03808211156138ec57600080fd5b6138f88883890161337e565b9096509450602087013591508082111561391157600080fd5b5061391e8782880161337e565b95989497509550505050565b6000610280828403121561393d57600080fd5b6139478383613721565b9392505050565b634e487b7160e01b600052603260045260246000fd5b6000808335601e1984360301811261397b57600080fd5b8301803591506001600160401b0382111561399557600080fd5b6020019150600581901b3603821315612f2157600080fd5b6000602082840312156139bf57600080fd5b813561394781613744565b634e487b7160e01b600052601160045260246000fd5b60006000198214156139f4576139f46139ca565b5060010190565b60208082526028908201527f416c6368656d69636146616365743a204d69736d617463686564206172726179604082015267206c656e6774687360c01b606082015260800190565b8051801515811461376757600080fd5b600060208284031215613a6557600080fd5b61394782613a43565b6020808252601b908201527f41707053746f726167653a2067616d65206e6f74206163746976650000000000604082015260600190565b634e487b7160e01b600052601260045260246000fd5b600082613ad857634e487b7160e01b600052601260045260246000fd5b500490565b600060208284031215613aef57600080fd5b5051919050565b60008219821115613b0957613b096139ca565b500190565b600181811c90821680613b2257607f821691505b602082108114156105e957634e487b7160e01b600052602260045260246000fd5b60208082526021908201527f416c6368656d69636146616365743a20496e76616c6964207369676e617475726040820152606560f81b606082015260800190565b60008060408385031215613b9757600080fd5b505080516020909101519092909150565b6000816000190483118215151615613bc257613bc26139ca565b500290565b60c08101613bd582866134f0565b608082019390935260a00152919050565b60005b83811015613c01578181015183820152602001613be9565b8381111561206c5750506000910152565b600060208284031215613c2457600080fd5b81516001600160401b03811115613c3a57600080fd5b8201601f81018413613c4b57600080fd5b8051613c596136918261364b565b818152856020838501011115613c6e57600080fd5b61312a826020830160208601613be6565b6020815260008251806020840152613c9e816040850160208701613be6565b601f01601f19169190910160400192915050565b600082821015613cc457613cc46139ca565b500390565b805161376781613744565b600060208284031215613ce657600080fd5b815161394781613744565b60208082526023908201527f4c69625265616c6d3a20416363657373205269676874202d204f6e6c79204f776040820152623732b960e91b606082015260800190565b80516bffffffffffffffffffffffff8116811461376757600080fd5b805163ffffffff8116811461376757600080fd5b805164ffffffffff8116811461376757600080fd5b600082601f830112613d8a57600080fd5b613d926135d0565b806060840185811115613da457600080fd5b845b81811015613dce57805160ff81168114613dc05760008081fd5b845260209384019301613da6565b509095945050505050565b600082601f830112613dea57600080fd5b815160206001600160401b03821115613e0557613e056135ba565b8160051b613e1482820161361b565b9283528481018201928281019087851115613e2e57600080fd5b83870192505b84831015612c8e578251613e4781613744565b82529183019190830190613e34565b600060208284031215613e6857600080fd5b81516001600160401b0380821115613e7f57600080fd5b908301906102408286031215613e9457600080fd5b613e9c6135f8565b613ea583613cc9565b8152613eb360208401613d34565b6020820152613ec460408401613cc9565b6040820152613ed560608401613d50565b6060820152613ee660808401613d50565b6080820152613ef760a08401613d50565b60a0820152613f0860c08401613cc9565b60c0820152613f1960e08401613d64565b60e0820152610100613f2c818501613d64565b90820152610120613f3e848201613a43565b90820152610140613f50848201613a43565b90820152610160613f62848201613cc9565b90820152610180613f7587858301613d79565b908201526101e0613f87848201613d64565b6101a0830152613f9a6102008501613d50565b6101c083015261022084015183811115613fb357600080fd5b613fbf88828701613dd9565b918301919091525095945050505050565b600060608284031215613fe257600080fd5b613fea6135d0565b825181526020830151602082015260408301516040820152809150509291505056fea264697066735822122025903c7ced4ab9cc2c85b32921a58335c218fb5de189b738142c0b08bed2cd5764736f6c63430008090033",
  "linkReferences": {},
  "deployedLinkReferences": {}
}