{
  "_format": "hh-sol-artifact-1",
  "contractName": "BounceGateFacet",
  "sourceName": "contracts/RealmDiamond/facets/BounceGateFacet.sol",
  "abi": [
    {
      "inputs": [],
      "name": "EventEnded",
      "type": "error"
    },
    {
      "inputs": [],
      "name": "NoBounceGate",
      "type": "error"
    },
    {
      "inputs": [],
      "name": "NoEvent",
      "type": "error"
    },
    {
      "inputs": [],
      "name": "NoOngoingEvent",
      "type": "error"
    },
    {
      "inputs": [],
      "name": "NotParcelOwner",
      "type": "error"
    },
    {
      "inputs": [],
      "name": "OngoingEvent",
      "type": "error"
    },
    {
      "inputs": [],
      "name": "StartTimeError",
      "type": "error"
    },
    {
      "inputs": [],
      "name": "TitleLengthOverflow",
      "type": "error"
    },
    {
      "inputs": [
        {
          "internalType": "uint256",
          "name": "_realmId",
          "type": "uint256"
        }
      ],
      "name": "cancelEvent",
      "outputs": [],
      "stateMutability": "nonpayable",
      "type": "function"
    },
    {
      "inputs": [
        {
          "internalType": "string",
          "name": "_title",
          "type": "string"
        },
        {
          "internalType": "uint64",
          "name": "_startTime",
          "type": "uint64"
        },
        {
          "internalType": "uint64",
          "name": "_durationInMinutes",
          "type": "uint64"
        },
        {
          "internalType": "uint256[4]",
          "name": "_alchemicaSpent",
          "type": "uint256[4]"
        },
        {
          "internalType": "uint256",
          "name": "_realmId",
          "type": "uint256"
        }
      ],
      "name": "createEvent",
      "outputs": [],
      "stateMutability": "nonpayable",
      "type": "function"
    },
    {
      "inputs": [
        {
          "internalType": "uint256",
          "name": "_realmId",
          "type": "uint256"
        },
        {
          "internalType": "uint64",
          "name": "_startTime",
          "type": "uint64"
        },
        {
          "internalType": "uint64",
          "name": "_durationInMinutes",
          "type": "uint64"
        },
        {
          "internalType": "uint256[4]",
          "name": "_alchemicaSpent",
          "type": "uint256[4]"
        }
      ],
      "name": "recreateEvent",
      "outputs": [],
      "stateMutability": "nonpayable",
      "type": "function"
    },
    {
      "inputs": [
        {
          "internalType": "uint256",
          "name": "_realmId",
          "type": "uint256"
        },
        {
          "internalType": "uint256[4]",
          "name": "_alchemicaSpent",
          "type": "uint256[4]"
        },
        {
          "internalType": "uint40",
          "name": "_durationExtensionInMinutes",
          "type": "uint40"
        }
      ],
      "name": "updateEvent",
      "outputs": [],
      "stateMutability": "nonpayable",
      "type": "function"
    },
    {
      "inputs": [
        {
          "internalType": "uint256",
          "name": "_realmId",
          "type": "uint256"
        }
      ],
      "name": "viewEvent",
      "outputs": [
        {
          "components": [
            {
              "internalType": "string",
              "name": "title",
              "type": "string"
            },
            {
              "internalType": "uint64",
              "name": "startTime",
              "type": "uint64"
            },
            {
              "internalType": "uint64",
              "name": "endTime",
              "type": "uint64"
            },
            {
              "internalType": "uint120",
              "name": "priority",
              "type": "uint120"
            },
            {
              "internalType": "bool",
              "name": "equipped",
              "type": "bool"
            },
            {
              "internalType": "uint64",
              "name": "lastTimeUpdated",
              "type": "uint64"
            }
          ],
          "internalType": "struct BounceGate",
          "name": "b_",
          "type": "tuple"
        }
      ],
      "stateMutability": "view",
      "type": "function"
    }
  ],
  "bytecode": "0x608060405234801561001057600080fd5b506113d5806100206000396000f3fe608060405234801561001057600080fd5b50600436106100575760003560e01c806324923f5f1461005c5780633f69babd14610085578063b7a06b301461009a578063b8036efa146100ad578063ce0e10ae146100c0575b600080fd5b61006f61006a366004610e00565b6100d3565b60405161007c9190610e19565b60405180910390f35b610098610093366004610e00565b610267565b005b6100986100a8366004610ef1565b610273565b6100986100bb366004610f58565b610283565b6100986100ce366004611004565b610299565b6040805160c081018252606080825260006020830181905292820183905281018290526080810182905260a08101919091526000828152603c6020526040808220815160c0810190925280548290829061012c90611052565b80601f016020809104026020016040519081016040528092919081815260200182805461015890611052565b80156101a55780601f1061017a576101008083540402835291602001916101a5565b820191906000526020600020905b81548152906001019060200180831161018857829003601f168201915b505050918352505060018201546001600160401b03808216602080850191909152600160401b83048216604080860191909152600160801b84046001600160781b03166060860152600160f81b90930460ff1615156080850152600290940154811660a09093019290925283518652838301518216928601929092528282015116908401529050610235836102ab565b6001600160781b0316606083015260808082015115159083015260a0908101516001600160401b031690820152919050565b610270816103ee565b50565b61027e8383836104c4565b505050565b61029186868686868661076c565b505050505050565b6102a584848484610931565b50505050565b6000818152603c602052604081206001810154829190426001600160401b03909116116103cf5760018101546001600160401b03428116600160401b90920416116102f957600092506103e7565b6002810154600090603c90610317906001600160401b0316426110a3565b61032191906110e1565b6001600160401b0316905060008260010160109054906101000a90046001600160781b0316905060018211610358578094506103c8565b600061036d836001600160781b038416611107565b905061037b6103e882611126565b905080826001600160781b031611156103c1578061039a83600a61113a565b6001600160781b03166103ad9190611169565b95506103ba600a87611180565b95506103c6565b600095505b505b50506103e7565b6001810154600160801b90046001600160781b031692505b5050919050565b6000818152603c6020908152604080832060019092528220546001600160a01b031633811461043057604051633ea0a79960e11b815260040160405180910390fd5b60018201546001600160401b03428116600160401b90920416116104675760405163597798ad60e01b815260040160405180910390fd5b6001820180546fffffffffffffffff00000000000000001916600160401b426001600160401b03160217905560405184907fdc3cb569b066460f4a22dffa05317bdcce5d3826382ed49a21f13e5fa2063d3990600090a250505050565b6000838152603c6020908152604080832060019092528220546001600160a01b031633811461050657604051633ea0a79960e11b815260040160405180910390fd5b60018201546001600160401b0316610531576040516301576edb60e21b815260040160405180910390fd5b600182015442600160401b9091046001600160401b0316101561056757604051631963c37d60e01b815260040160405180910390fd5b64ffffffffff84161561067b5760006105868564ffffffffff16610a7e565b60368501546040516323b872dd60e01b81523360048201526001600160a01b0360248201819052604482018490529293509116906323b872dd90606401602060405180830381600087803b1580156105dd57600080fd5b505af11580156105f1573d6000803e3d6000fd5b505050506040513d601f19601f82011682018060405250810190610615919061119a565b61061e57600080fd5b61062985603c6111bc565b64ffffffffff168360010160088282829054906101000a90046001600160401b031661065591906111e0565b92506101000a8154816001600160401b0302191690836001600160401b03160217905550505b600061068686610aa3565b6001600160781b0316905060008161069d896102ab565b6106a7919061120b565b6001850180546001600160781b038316600160801b02600160801b600160f81b031982168117909255919250426001600160401b03918216919092161710156107095760028401805467ffffffffffffffff1916426001600160401b03161790555b6001840154604080516001600160781b0384168152600160401b9092046001600160401b0316602083015289917f84f9e476fba70c0e0d8226ab52049ddac7b38ea188e785c45831b91832877af891015b60405180910390a25050505050505050565b6000818152600160205260408120546001600160a01b03163381146107a457604051633ea0a79960e11b815260040160405180910390fd5b60238711156107c657604051630c0f94ab60e11b815260040160405180910390fd5b6000838152603c83016020526040902060010154600160f81b900460ff1661080157604051632194e6bf60e01b815260040160405180910390fd5b6000838152603c8301602052604090206001015442600160401b9091046001600160401b0316111561084657604051636c215b7360e11b815260040160405180910390fd5b600061085b87876001600160401b0316610c20565b9050600061086886610aa3565b6000868152603c860160205260409020909150610886818c8c610d49565b506001810180546001600160401b038b81166001600160801b03199092168217600160401b9187169190910217600160801b600160f81b031916600160801b6001600160781b038616021790915560028201805467ffffffffffffffff1916909117905560405186907f1eba211322935090f825dc2d5b300150db5078adc958f33161f7ea7a1d3026f09061091c90849061122d565b60405180910390a25050505050505050505050565b6000848152603c60205260408120600101546001600160401b0316610969576040516301576edb60e21b815260040160405180910390fd5b6000858152603c8201602052604090206001015442600160401b9091046001600160401b031611156109ae57604051636c215b7360e11b815260040160405180910390fd5b60006109c385856001600160401b0316610c20565b905060006109d084610aa3565b6000888152603c85016020526040908190206001810180546001600160401b038b81166001600160801b031990921691909117600160401b8883160217600160801b600160f81b031916600160801b6001600160781b038716021790915560028201805467ffffffffffffffff19164290921691909117905590519192509088907f1eba211322935090f825dc2d5b300150db5078adc958f33161f7ea7a1d3026f09061075a90849061122d565b6000610a8b82601e611107565b610a9d90670de0b6b3a7640000611107565b92915050565b60008060005b6004811015610c0c576000848260048110610ac657610ac6611356565b60200201359050670de0b6b3a76400008110610bf957610aee670de0b6b3a764000082611126565b9050610af8610d17565b8260048110610b0957610b09611356565b6020020151610b189082611107565b610b22908561120b565b9350826007018260048110610b3957610b39611356565b01546001600160a01b03908116906323b872dd903390888660048110610b6157610b61611356565b6040516001600160e01b031960e087901b1681526001600160a01b03948516600482015293909216602484015260209190910201356044820152606401602060405180830381600087803b158015610bb857600080fd5b505af1158015610bcc573d6000803e3d6000fd5b505050506040513d601f19601f82011682018060405250810190610bf0919061119a565b610bf957600080fd5b5080610c048161136c565b915050610aa9565b50610c196103e88361113a565b9392505050565b600042836001600160401b03161015610c4c576040516327169cc760e11b815260040160405180910390fd5b600080610c5884610a7e565b60368301546040516323b872dd60e01b81523360048201526001600160a01b0360248201819052604482018490529293509116906323b872dd90606401602060405180830381600087803b158015610caf57600080fd5b505af1158015610cc3573d6000803e3d6000fd5b505050506040513d601f19601f82011682018060405250810190610ce7919061119a565b610cf057600080fd5b610cfb84603c611107565b610d0e906001600160401b038716611387565b95945050505050565b610d1f610dcd565b6040518060800160405280600181526020016002815260200160048152602001600a815250905090565b828054610d5590611052565b90600052602060002090601f016020900481019282610d775760008555610dbd565b82601f10610d905782800160ff19823516178555610dbd565b82800160010185558215610dbd579182015b82811115610dbd578235825591602001919060010190610da2565b50610dc9929150610deb565b5090565b60405180608001604052806004906020820280368337509192915050565b5b80821115610dc95760008155600101610dec565b600060208284031215610e1257600080fd5b5035919050565b60006020808352835160c08285015280518060e086015260005b81811015610e505782810184015186820161010001528301610e33565b81811115610e6357600061010083880101525b50918501516001600160401b03811660408601529160408601516001600160401b0381166060870152925060608601516001600160781b03811660808701529250608086015180151560a0870152925060a08601516001600160401b03811660c08701529250601f01601f19169390930161010001949350505050565b8060808101831015610a9d57600080fd5b600080600060c08486031215610f0657600080fd5b83359250610f178560208601610ee0565b915060a084013564ffffffffff81168114610f3157600080fd5b809150509250925092565b80356001600160401b0381168114610f5357600080fd5b919050565b6000806000806000806101008789031215610f7257600080fd5b86356001600160401b0380821115610f8957600080fd5b818901915089601f830112610f9d57600080fd5b813581811115610fac57600080fd5b8a6020828501011115610fbe57600080fd5b602092830198509650610fd49189019050610f3c565b9350610fe260408801610f3c565b9250610ff18860608901610ee0565b915060e087013590509295509295509295565b60008060008060e0858703121561101a57600080fd5b8435935061102a60208601610f3c565b925061103860408601610f3c565b91506110478660608701610ee0565b905092959194509250565b600181811c9082168061106657607f821691505b6020821081141561108757634e487b7160e01b600052602260045260246000fd5b50919050565b634e487b7160e01b600052601160045260246000fd5b60006001600160401b03838116908316818110156110c3576110c361108d565b039392505050565b634e487b7160e01b600052601260045260246000fd5b60006001600160401b03808416806110fb576110fb6110cb565b92169190910492915050565b60008160001904831182151516156111215761112161108d565b500290565b600082611135576111356110cb565b500490565b60006001600160781b03808316818516818304811182151516156111605761116061108d565b02949350505050565b60008282101561117b5761117b61108d565b500390565b60006001600160781b03808416806110fb576110fb6110cb565b6000602082840312156111ac57600080fd5b81518015158114610c1957600080fd5b600064ffffffffff808316818516818304811182151516156111605761116061108d565b60006001600160401b038083168185168083038211156112025761120261108d565b01949350505050565b60006001600160781b038083168185168083038211156112025761120261108d565b6000602080835260c0818401526000845481600182811c91508083168061125557607f831692505b85831081141561127357634e487b7160e01b85526022600452602485fd5b60e08801839052610100880181801561129357600181146112a4576112cf565b60ff198616825287820196506112cf565b60008b81526020902060005b868110156112c9578154848201529085019089016112b0565b83019750505b5050508701546001600160401b03808216604089015290945091506112f19050565b61130b60608601828560401c166001600160401b03169052565b50608082811c6001600160781b03169085015261132f60a085018360f81c15159052565b60028501546001600160401b03166001600160401b03811660c08601529150949350505050565b634e487b7160e01b600052603260045260246000fd5b60006000198214156113805761138061108d565b5060010190565b6000821982111561139a5761139a61108d565b50019056fea2646970667358221220f97656ee3b22788b34126a37d8cf62f33041a99817dea3e170b80eff4723370a64736f6c63430008090033",
  "linkReferences": {},
  "deployedLinkReferences": {}
}