{
  "_format": "hh-sol-artifact-1",
  "contractName": "ERC721Facet",
  "sourceName": "contracts/RealmDiamond/facets/ERC721Facet.sol",
  "abi": [
    {
      "inputs": [
        {
          "internalType": "address",
          "name": "_approved",
          "type": "address"
        },
        {
          "internalType": "uint256",
          "name": "_tokenId",
          "type": "uint256"
        }
      ],
      "name": "approve",
      "outputs": [],
      "stateMutability": "nonpayable",
      "type": "function"
    },
    {
      "inputs": [
        {
          "internalType": "address",
          "name": "_owner",
          "type": "address"
        }
      ],
      "name": "balanceOf",
      "outputs": [
        {
          "internalType": "uint256",
          "name": "balance_",
          "type": "uint256"
        }
      ],
      "stateMutability": "view",
      "type": "function"
    },
    {
      "inputs": [
        {
          "internalType": "uint256",
          "name": "_tokenId",
          "type": "uint256"
        }
      ],
      "name": "getApproved",
      "outputs": [
        {
          "internalType": "address",
          "name": "approved_",
          "type": "address"
        }
      ],
      "stateMutability": "view",
      "type": "function"
    },
    {
      "inputs": [
        {
          "internalType": "address",
          "name": "_owner",
          "type": "address"
        },
        {
          "internalType": "address",
          "name": "_operator",
          "type": "address"
        }
      ],
      "name": "isApprovedForAll",
      "outputs": [
        {
          "internalType": "bool",
          "name": "approved_",
          "type": "bool"
        }
      ],
      "stateMutability": "view",
      "type": "function"
    },
    {
      "inputs": [],
      "name": "name",
      "outputs": [
        {
          "internalType": "string",
          "name": "",
          "type": "string"
        }
      ],
      "stateMutability": "pure",
      "type": "function"
    },
    {
      "inputs": [
        {
          "internalType": "uint256",
          "name": "_tokenId",
          "type": "uint256"
        }
      ],
      "name": "ownerOf",
      "outputs": [
        {
          "internalType": "address",
          "name": "owner_",
          "type": "address"
        }
      ],
      "stateMutability": "view",
      "type": "function"
    },
    {
      "inputs": [
        {
          "internalType": "address",
          "name": "_from",
          "type": "address"
        },
        {
          "internalType": "address",
          "name": "_to",
          "type": "address"
        },
        {
          "internalType": "uint256[]",
          "name": "_tokenIds",
          "type": "uint256[]"
        },
        {
          "internalType": "bytes",
          "name": "_data",
          "type": "bytes"
        }
      ],
      "name": "safeBatchTransfer",
      "outputs": [],
      "stateMutability": "nonpayable",
      "type": "function"
    },
    {
      "inputs": [
        {
          "internalType": "address",
          "name": "_from",
          "type": "address"
        },
        {
          "internalType": "address",
          "name": "_to",
          "type": "address"
        },
        {
          "internalType": "uint256",
          "name": "_tokenId",
          "type": "uint256"
        }
      ],
      "name": "safeTransferFrom",
      "outputs": [],
      "stateMutability": "nonpayable",
      "type": "function"
    },
    {
      "inputs": [
        {
          "internalType": "address",
          "name": "_from",
          "type": "address"
        },
        {
          "internalType": "address",
          "name": "_to",
          "type": "address"
        },
        {
          "internalType": "uint256",
          "name": "_tokenId",
          "type": "uint256"
        },
        {
          "internalType": "bytes",
          "name": "_data",
          "type": "bytes"
        }
      ],
      "name": "safeTransferFrom",
      "outputs": [],
      "stateMutability": "nonpayable",
      "type": "function"
    },
    {
      "inputs": [
        {
          "internalType": "address",
          "name": "_operator",
          "type": "address"
        },
        {
          "internalType": "bool",
          "name": "_approved",
          "type": "bool"
        }
      ],
      "name": "setApprovalForAll",
      "outputs": [],
      "stateMutability": "nonpayable",
      "type": "function"
    },
    {
      "inputs": [
        {
          "internalType": "uint256",
          "name": "_tokenId",
          "type": "uint256"
        }
      ],
      "name": "setIndex",
      "outputs": [],
      "stateMutability": "nonpayable",
      "type": "function"
    },
    {
      "inputs": [],
      "name": "symbol",
      "outputs": [
        {
          "internalType": "string",
          "name": "",
          "type": "string"
        }
      ],
      "stateMutability": "pure",
      "type": "function"
    },
    {
      "inputs": [
        {
          "internalType": "uint256",
          "name": "_index",
          "type": "uint256"
        }
      ],
      "name": "tokenByIndex",
      "outputs": [
        {
          "internalType": "uint256",
          "name": "tokenId_",
          "type": "uint256"
        }
      ],
      "stateMutability": "view",
      "type": "function"
    },
    {
      "inputs": [
        {
          "internalType": "address",
          "name": "_owner",
          "type": "address"
        }
      ],
      "name": "tokenIdsOfOwner",
      "outputs": [
        {
          "internalType": "uint256[]",
          "name": "tokenIds_",
          "type": "uint256[]"
        }
      ],
      "stateMutability": "view",
      "type": "function"
    },
    {
      "inputs": [
        {
          "internalType": "uint256",
          "name": "_tokenId",
          "type": "uint256"
        }
      ],
      "name": "tokenURI",
      "outputs": [
        {
          "internalType": "string",
          "name": "",
          "type": "string"
        }
      ],
      "stateMutability": "pure",
      "type": "function"
    },
    {
      "inputs": [],
      "name": "totalSupply",
      "outputs": [
        {
          "internalType": "uint256",
          "name": "",
          "type": "uint256"
        }
      ],
      "stateMutability": "view",
      "type": "function"
    },
    {
      "inputs": [
        {
          "internalType": "address",
          "name": "_from",
          "type": "address"
        },
        {
          "internalType": "address",
          "name": "_to",
          "type": "address"
        },
        {
          "internalType": "uint256",
          "name": "_tokenId",
          "type": "uint256"
        }
      ],
      "name": "transferFrom",
      "outputs": [],
      "stateMutability": "nonpayable",
      "type": "function"
    }
  ],
  "bytecode": "0x608060405234801561001057600080fd5b5061167e806100206000396000f3fe608060405234801561001057600080fd5b506004361061010b5760003560e01c80636352211e116100a25780639e59e598116100715780639e59e5981461027f578063a22cb4651461029f578063b88d4fde146102b2578063c87b56dd146102c5578063e985e9c5146102d857600080fd5b80636352211e146101f957806370a082311461022257806381eebadb1461024b57806395d89b411461025e57600080fd5b806323b872dd116100de57806323b872dd146101ad57806340a5737f146101c057806342842e0e146101d35780634f6ccce7146101e657600080fd5b806306fdde0314610110578063081812fc1461015b578063095ea7b31461018657806318160ddd1461019b575b600080fd5b60408051808201909152601881527f476f746368697665727365205245414c4d2050617263656c000000000000000060208201525b60405161015291906111b5565b60405180910390f35b61016e6101693660046111cf565b610324565b6040516001600160a01b039091168152602001610152565b610199610194366004611200565b6103c5565b005b6000545b604051908152602001610152565b6101996101bb36600461122c565b6104e6565b6101996101ce3660046111cf565b610582565b6101996101e136600461122c565b61063e565b61019f6101f43660046111cf565b610672565b61016e6102073660046111cf565b6000908152600160205260409020546001600160a01b031690565b61019f61023036600461126d565b6001600160a01b031660009081526003602052604090205490565b6101996102593660046112d3565b610708565b6040805180820190915260058152645245414c4d60d81b6020820152610145565b61029261028d36600461126d565b610753565b6040516101529190611399565b6101996102ad3660046113dd565b6107bf565b6101996102c036600461141b565b61083d565b6101456102d33660046111cf565b61091e565b6103146102e636600461148e565b6001600160a01b03918216600090815260046020908152604080832093909416825291909152205460ff1690565b6040519015158152602001610152565b6000818152600160205260408120546001600160a01b03166103a95760405162461bcd60e51b815260206004820152603360248201527f41617665676f7463686946616365743a20746f6b656e496420697320696e76616044820152721b1a59081bdc881a5cc81b9bdd081bdddb9959606a1b60648201526084015b60405180910390fd5b506000908152600560205260409020546001600160a01b031690565b6000818152600160205260408120546001600160a01b0316906103e6610948565b9050806001600160a01b0316826001600160a01b0316148061042d57506001600160a01b0380831660009081526004602090815260408083209385168352929052205460ff165b6104895760405162461bcd60e51b815260206004820152602760248201527f4552433732313a204e6f74206f776e6572206f72206f70657261746f72206f66604482015266103a37b5b2b71760c91b60648201526084016103a0565b60008381526005602052604080822080546001600160a01b0319166001600160a01b0388811691821790925591518693918616917f8c5be1e5ebec7d5bd14f71427d1e84f3dd0314c0f7b2291e5b200ac8c7c3b92591a450505050565b60006104f0610948565b90506104fe818585856109a5565b6006546001600160a01b03161561057c57600654604051631f76b1ad60e11b8152306004820152602481018490526001600160a01b03868116604483015290911690633eed635a90606401600060405180830381600087803b15801561056357600080fd5b505af1158015610577573d6000803e3d6000fd5b505050505b50505050565b61058a610ec6565b6040516331a9108f60e11b8152600481018290526000903090636352211e9060240160206040518083038186803b1580156105c457600080fd5b505afa1580156105d8573d6000803e3d6000fd5b505050506040513d601f19601f820116820180604052508101906105fc91906114bc565b6001600160a01b0381166000908152600260209081526040808320868452909152812080549293506001929091906106359084906114ef565b90915550505050565b6000610648610948565b9050610656818585856109a5565b6104fe8185858560405180602001604052806000815250610f4f565b6000805482106106e25760405162461bcd60e51b815260206004820152603560248201527f41617665676f7463686946616365743a205f696e64657820697320677265617460448201527432b9103a3430b7103a37ba30b61039bab838363c9760591b60648201526084016103a0565b60008054839081106106f6576106f6611506565b90600052602060002001549050919050565b60005b8381101561074a57610738878787878581811061072a5761072a611506565b90506020020135868661083d565b806107428161151c565b91505061070b565b50505050505050565b6001600160a01b0381166000908152600360209081526040918290208054835181840281018401909452808452606093928301828280156107b357602002820191906000526020600020905b81548152602001906001019080831161079f575b50505050509050919050565b60006107c9610948565b6001600160a01b03818116600081815260046020908152604080832094891680845294825291829020805460ff19168815159081179091559151918252939450919290917f17307eab39ab6107e8899845ad3d59bd9653f200f220920489ca2b5937696c31910160405180910390a3505050565b6000610847610948565b9050610855818787876109a5565b6108988187878787878080601f016020809104026020016040519081016040528093929190818152602001838380828437600092019190915250610f4f92505050565b6006546001600160a01b03161561091657600654604051631f76b1ad60e11b8152306004820152602481018690526001600160a01b03888116604483015290911690633eed635a90606401600060405180830381600087803b1580156108fd57600080fd5b505af1158015610911573d6000803e3d6000fd5b505050505b505050505050565b60606109426040518060600160405280602a815260200161161f602a91398361104d565b92915050565b60003330141561099f57600080368080601f0160208091040260200160405190810160405280939291908181526020018383808284376000920191909152505050503601516001600160a01b031691506109a29050565b50335b90565b60006001600160a01b038316610a085760405162461bcd60e51b815260206004820152602260248201527f45523732313a2043616e2774207472616e7366657220746f2030206164647265604482015261737360f01b60648201526084016103a0565b60008281526001820160205260409020546001600160a01b031680610a875760405162461bcd60e51b815260206004820152602f60248201527f4552433732313a20496e76616c696420746f6b656e4964206f722063616e277460448201526e081899481d1c985b9cd9995c9c9959608a1b60648201526084016103a0565b806001600160a01b0316866001600160a01b03161480610ace57506001600160a01b0380821660009081526004840160209081526040808320938a168352929052205460ff165b80610af4575060008381526005830160205260409020546001600160a01b038781169116145b610b555760405162461bcd60e51b815260206004820152602c60248201527f4c69624552433732313a204e6f74206f776e6572206f7220617070726f76656460448201526b103a37903a3930b739b332b960a11b60648201526084016103a0565b806001600160a01b0316856001600160a01b031614610bca5760405162461bcd60e51b815260206004820152602b60248201527f4552433732313a205f66726f6d206973206e6f74206f776e65722c207472616e60448201526a1cd9995c8819985a5b195960aa1b60648201526084016103a0565b6000838152600183016020526040902080546001600160a01b0319166001600160a01b0386811691821790925590861614610e7d576001600160a01b0385166000818152600284016020908152604080832087845282528083205493835260038601909152812054610c3e906001906114ef565b6001600160a01b038816600090815260038601602052604081208054929350909183908110610c6f57610c6f611506565b60009182526020808320909101546001600160a01b03808b16845260038901808452604080862054928e1680875260028c01865281872085885286528187208a905586529352919092208054929350909183919086908110610cd357610cd3611506565b60009182526020808320909101929092556001600160a01b038b1680825260028901835260408083208b845284528083208390559082526003890190925220805480610d2157610d21611537565b6000828152602080822083016000199081018390559092019092556001600160a01b03808b1680845260028a01835260408085208c8652845280852086905590845260038a0183528084208054600181018255908552838520018b90558a845260058a019092529120541615610de557600087815260058701602052604080822080546001600160a01b0319169055518891906001600160a01b038816907f8c5be1e5ebec7d5bd14f71427d1e84f3dd0314c0f7b2291e5b200ac8c7c3b925908390a45b60005b6007811015610e77576000888152603888016020908152604080832084845290915290205415610e6f5760008881526038880160209081526040808320848452825280832083905580518b81529182018490528101919091527fea7ba8ef75cb359c125adece63595f7fee06fa295acb94b4560bf9fbf866c05f9060600160405180910390a15b600101610de8565b50505050505b82846001600160a01b0316866001600160a01b03167fddf252ad1be2c89b69c2b068fc378daa952ba7f163c4a11628f55a4df523b3ef60405160405180910390a4505050505050565b7fc8fcad8db84d3cc18b4c41d551ea0ee66dd599cde068d998e57d5e09332c131c600401546001600160a01b03163314610f4d5760405162461bcd60e51b815260206004820152602260248201527f4c69624469616d6f6e643a204d75737420626520636f6e7472616374206f776e60448201526132b960f11b60648201526084016103a0565b565b823b801561091657604051630a85bd0160e11b81526001600160a01b0385169063150b7a0290610f8990899089908890889060040161154d565b602060405180830381600087803b158015610fa357600080fd5b505af1158015610fb7573d6000803e3d6000fd5b505050506040513d601f19601f82011682018060405250810190610fdb919061158a565b6001600160e01b031916630a85bd0160e11b146109165760405162461bcd60e51b815260206004820152602a60248201527f4c69624552433732313a205472616e736665722072656a65637465642f6661696044820152696c6564206279205f746f60b01b60648201526084016103a0565b6060808261107d578360405160200161106691906115b4565b604051602081830303815290604052915050610942565b8260005b811561109557600101600a82049150611081565b8067ffffffffffffffff8111156110ae576110ae6115d9565b6040519080825280601f01601f1916602001820160405280156110d8576020820181803683370190505b50925084915060001981015b821561112f57600a830660300160f81b8482806001900393508151811061110d5761110d611506565b60200101906001600160f81b031916908160001a905350600a830492506110e4565b50505083816040516020016111459291906115ef565b60405160208183030381529060405291505092915050565b60005b83811015611178578181015183820152602001611160565b8381111561057c5750506000910152565b600081518084526111a181602086016020860161115d565b601f01601f19169290920160200192915050565b6020815260006111c86020830184611189565b9392505050565b6000602082840312156111e157600080fd5b5035919050565b6001600160a01b03811681146111fd57600080fd5b50565b6000806040838503121561121357600080fd5b823561121e816111e8565b946020939093013593505050565b60008060006060848603121561124157600080fd5b833561124c816111e8565b9250602084013561125c816111e8565b929592945050506040919091013590565b60006020828403121561127f57600080fd5b81356111c8816111e8565b60008083601f84011261129c57600080fd5b50813567ffffffffffffffff8111156112b457600080fd5b6020830191508360208285010111156112cc57600080fd5b9250929050565b600080600080600080608087890312156112ec57600080fd5b86356112f7816111e8565b95506020870135611307816111e8565b9450604087013567ffffffffffffffff8082111561132457600080fd5b818901915089601f83011261133857600080fd5b81358181111561134757600080fd5b8a60208260051b850101111561135c57600080fd5b60208301965080955050606089013591508082111561137a57600080fd5b5061138789828a0161128a565b979a9699509497509295939492505050565b6020808252825182820181905260009190848201906040850190845b818110156113d1578351835292840192918401916001016113b5565b50909695505050505050565b600080604083850312156113f057600080fd5b82356113fb816111e8565b91506020830135801515811461141057600080fd5b809150509250929050565b60008060008060006080868803121561143357600080fd5b853561143e816111e8565b9450602086013561144e816111e8565b935060408601359250606086013567ffffffffffffffff81111561147157600080fd5b61147d8882890161128a565b969995985093965092949392505050565b600080604083850312156114a157600080fd5b82356114ac816111e8565b91506020830135611410816111e8565b6000602082840312156114ce57600080fd5b81516111c8816111e8565b634e487b7160e01b600052601160045260246000fd5b600082821015611501576115016114d9565b500390565b634e487b7160e01b600052603260045260246000fd5b6000600019821415611530576115306114d9565b5060010190565b634e487b7160e01b600052603160045260246000fd5b6001600160a01b038581168252841660208201526040810183905260806060820181905260009061158090830184611189565b9695505050505050565b60006020828403121561159c57600080fd5b81516001600160e01b0319811681146111c857600080fd5b600082516115c681846020870161115d565b600360fc1b920191825250600101919050565b634e487b7160e01b600052604160045260246000fd5b6000835161160181846020880161115d565b83519083019061161581836020880161115d565b0194935050505056fe68747470733a2f2f6170702e61617665676f746368692e636f6d2f6d657461646174612f7265616c6d2fa26469706673582212207b1b8e857e4d73e5e3f3f0473a31da2cba23de42dbab31e9ff25d7ad6f58bb2164736f6c63430008090033",
  "linkReferences": {},
  "deployedLinkReferences": {}
}