{
  "_format": "hh-sol-artifact-1",
  "contractName": "NFTDisplayFacet",
  "sourceName": "contracts/RealmDiamond/facets/NFTDisplayFacet.sol",
  "abi": [
    {
      "inputs": [],
      "name": "LengthMisMatch",
      "type": "error"
    },
    {
      "anonymous": false,
      "inputs": [
        {
          "indexed": false,
          "internalType": "address",
          "name": "_token",
          "type": "address"
        },
        {
          "indexed": false,
          "internalType": "uint256",
          "name": "_chainId",
          "type": "uint256"
        },
        {
          "indexed": false,
          "internalType": "bool",
          "name": "_allowed",
          "type": "bool"
        }
      ],
      "name": "NFTDisplayStatusUpdated",
      "type": "event"
    },
    {
      "inputs": [
        {
          "internalType": "address",
          "name": "_token",
          "type": "address"
        },
        {
          "internalType": "uint256",
          "name": "_chainId",
          "type": "uint256"
        }
      ],
      "name": "nftDisplayAllowed",
      "outputs": [
        {
          "internalType": "bool",
          "name": "",
          "type": "bool"
        }
      ],
      "stateMutability": "view",
      "type": "function"
    },
    {
      "inputs": [
        {
          "internalType": "address[]",
          "name": "_tokens",
          "type": "address[]"
        },
        {
          "internalType": "uint256[]",
          "name": "_chainIds",
          "type": "uint256[]"
        },
        {
          "internalType": "bool[]",
          "name": "_allow",
          "type": "bool[]"
        }
      ],
      "name": "toggleNftDisplayAllowed",
      "outputs": [],
      "stateMutability": "nonpayable",
      "type": "function"
    }
  ],
  "bytecode": "0x608060405234801561001057600080fd5b50610451806100206000396000f3fe608060405234801561001057600080fd5b50600436106100365760003560e01c8063c26fbba71461003b578063e511244514610050575b600080fd5b61004e6100493660046102b8565b61009c565b005b61008861005e36600461036e565b6000908152603b602090815260408083206001600160a01b03949094168352929052205460ff1690565b604051901515815260200160405180910390f35b6100a46101df565b8483148015906100b45750848114155b156100d25760405163b21051df60e01b815260040160405180910390fd5b60005b858110156101d65760008787838181106100f1576100f1610398565b905060200201602081019061010691906103ae565b9050600086868481811061011c5761011c610398565b905060200201359050600085858581811061013957610139610398565b905060200201602081019061014e91906103d0565b6000838152603b602090815260408083206001600160a01b03881680855290835292819020805460ff191685151590811790915581519384529183018690528201529091507f80062938fa3e4cbcc3016ed6ca1ec9ebc250467698811c4c0fca8bbb9cf996f19060600160405180910390a150505080806101ce906103f2565b9150506100d5565b50505050505050565b7fc8fcad8db84d3cc18b4c41d551ea0ee66dd599cde068d998e57d5e09332c131c600401546001600160a01b0316331461026a5760405162461bcd60e51b815260206004820152602260248201527f4c69624469616d6f6e643a204d75737420626520636f6e7472616374206f776e60448201526132b960f11b606482015260840160405180910390fd5b565b60008083601f84011261027e57600080fd5b50813567ffffffffffffffff81111561029657600080fd5b6020830191508360208260051b85010111156102b157600080fd5b9250929050565b600080600080600080606087890312156102d157600080fd5b863567ffffffffffffffff808211156102e957600080fd5b6102f58a838b0161026c565b9098509650602089013591508082111561030e57600080fd5b61031a8a838b0161026c565b9096509450604089013591508082111561033357600080fd5b5061034089828a0161026c565b979a9699509497509295939492505050565b80356001600160a01b038116811461036957600080fd5b919050565b6000806040838503121561038157600080fd5b61038a83610352565b946020939093013593505050565b634e487b7160e01b600052603260045260246000fd5b6000602082840312156103c057600080fd5b6103c982610352565b9392505050565b6000602082840312156103e257600080fd5b813580151581146103c957600080fd5b600060001982141561041457634e487b7160e01b600052601160045260246000fd5b506001019056fea26469706673582212202e30bf2761337e8e3755869dac0ec548543d41a7fa34c6a4ef0554eb02466a6964736f6c63430008090033",
  "linkReferences": {},
  "deployedLinkReferences": {}
}