{
  "_format": "hh-sol-artifact-1",
  "contractName": "RealmGettersAndSettersFacet",
  "sourceName": "contracts/RealmDiamond/facets/RealmGettersAndSettersFacet.sol",
  "abi": [
    {
      "anonymous": false,
      "inputs": [
        {
          "indexed": false,
          "internalType": "uint256",
          "name": "_realmId",
          "type": "uint256"
        },
        {
          "indexed": false,
          "internalType": "uint256",
          "name": "_actionRight",
          "type": "uint256"
        },
        {
          "indexed": false,
          "internalType": "uint256",
          "name": "_accessRight",
          "type": "uint256"
        }
      ],
      "name": "ParcelAccessRightSet",
      "type": "event"
    },
    {
      "anonymous": false,
      "inputs": [
        {
          "indexed": false,
          "internalType": "uint256",
          "name": "_realmId",
          "type": "uint256"
        },
        {
          "indexed": false,
          "internalType": "uint256",
          "name": "_actionRight",
          "type": "uint256"
        },
        {
          "indexed": false,
          "internalType": "uint256",
          "name": "_whitelistId",
          "type": "uint256"
        }
      ],
      "name": "ParcelWhitelistSet",
      "type": "event"
    },
    {
      "anonymous": false,
      "inputs": [
        {
          "indexed": false,
          "internalType": "uint256",
          "name": "_realmId",
          "type": "uint256"
        }
      ],
      "name": "ResyncParcel",
      "type": "event"
    },
    {
      "anonymous": false,
      "inputs": [
        {
          "indexed": false,
          "internalType": "uint256",
          "name": "_realmId",
          "type": "uint256"
        },
        {
          "indexed": false,
          "internalType": "uint256",
          "name": "_altarId",
          "type": "uint256"
        }
      ],
      "name": "SetAltarId",
      "type": "event"
    },
    {
      "inputs": [
        {
          "internalType": "address",
          "name": "_owner",
          "type": "address"
        },
        {
          "internalType": "uint256",
          "name": "_district",
          "type": "uint256"
        }
      ],
      "name": "batchGetDistrictParcels",
      "outputs": [
        {
          "internalType": "uint256[]",
          "name": "",
          "type": "uint256[]"
        }
      ],
      "stateMutability": "view",
      "type": "function"
    },
    {
      "inputs": [
        {
          "internalType": "uint256",
          "name": "_realmId",
          "type": "uint256"
        },
        {
          "internalType": "uint256",
          "name": "_coordinateX",
          "type": "uint256"
        },
        {
          "internalType": "uint256",
          "name": "_coordinateY",
          "type": "uint256"
        },
        {
          "internalType": "uint256",
          "name": "_installationId",
          "type": "uint256"
        }
      ],
      "name": "checkCoordinates",
      "outputs": [],
      "stateMutability": "view",
      "type": "function"
    },
    {
      "inputs": [
        {
          "internalType": "uint256",
          "name": "_parcelId",
          "type": "uint256"
        }
      ],
      "name": "getAltarId",
      "outputs": [
        {
          "internalType": "uint256",
          "name": "",
          "type": "uint256"
        }
      ],
      "stateMutability": "view",
      "type": "function"
    },
    {
      "inputs": [
        {
          "internalType": "uint256",
          "name": "_realmId",
          "type": "uint256"
        }
      ],
      "name": "getParcelInfo",
      "outputs": [
        {
          "components": [
            {
              "internalType": "string",
              "name": "parcelId",
              "type": "string"
            },
            {
              "internalType": "string",
              "name": "parcelAddress",
              "type": "string"
            },
            {
              "internalType": "address",
              "name": "owner",
              "type": "address"
            },
            {
              "internalType": "uint256",
              "name": "coordinateX",
              "type": "uint256"
            },
            {
              "internalType": "uint256",
              "name": "coordinateY",
              "type": "uint256"
            },
            {
              "internalType": "uint256",
              "name": "size",
              "type": "uint256"
            },
            {
              "internalType": "uint256",
              "name": "district",
              "type": "uint256"
            },
            {
              "internalType": "uint256[4]",
              "name": "boost",
              "type": "uint256[4]"
            },
            {
              "internalType": "uint256",
              "name": "timeRemainingToClaim",
              "type": "uint256"
            }
          ],
          "internalType": "struct RealmGettersAndSettersFacet.ParcelOutput",
          "name": "output_",
          "type": "tuple"
        }
      ],
      "stateMutability": "view",
      "type": "function"
    },
    {
      "inputs": [
        {
          "internalType": "uint256",
          "name": "_parcelId",
          "type": "uint256"
        }
      ],
      "name": "getParcelUpgradeQueueCapacity",
      "outputs": [
        {
          "internalType": "uint256",
          "name": "",
          "type": "uint256"
        }
      ],
      "stateMutability": "view",
      "type": "function"
    },
    {
      "inputs": [
        {
          "internalType": "uint256",
          "name": "_parcelId",
          "type": "uint256"
        }
      ],
      "name": "getParcelUpgradeQueueLength",
      "outputs": [
        {
          "internalType": "uint256",
          "name": "",
          "type": "uint256"
        }
      ],
      "stateMutability": "view",
      "type": "function"
    },
    {
      "inputs": [
        {
          "internalType": "uint256[]",
          "name": "_parcelIds",
          "type": "uint256[]"
        },
        {
          "internalType": "uint256[]",
          "name": "_actionRights",
          "type": "uint256[]"
        }
      ],
      "name": "getParcelsAccessRights",
      "outputs": [
        {
          "internalType": "uint256[]",
          "name": "output_",
          "type": "uint256[]"
        }
      ],
      "stateMutability": "view",
      "type": "function"
    },
    {
      "inputs": [
        {
          "internalType": "uint256[]",
          "name": "_parcelIds",
          "type": "uint256[]"
        },
        {
          "internalType": "uint256[]",
          "name": "_actionRights",
          "type": "uint256[]"
        }
      ],
      "name": "getParcelsAccessRightsWhitelistIds",
      "outputs": [
        {
          "internalType": "uint256[]",
          "name": "output_",
          "type": "uint256[]"
        }
      ],
      "stateMutability": "view",
      "type": "function"
    },
    {
      "inputs": [],
      "name": "maxSupply",
      "outputs": [
        {
          "internalType": "uint256",
          "name": "",
          "type": "uint256"
        }
      ],
      "stateMutability": "pure",
      "type": "function"
    },
    {
      "inputs": [
        {
          "internalType": "uint256[]",
          "name": "_tokenIds",
          "type": "uint256[]"
        }
      ],
      "name": "resyncParcel",
      "outputs": [],
      "stateMutability": "nonpayable",
      "type": "function"
    },
    {
      "inputs": [
        {
          "internalType": "uint256",
          "name": "_parcelId",
          "type": "uint256"
        },
        {
          "internalType": "uint256",
          "name": "_altarId",
          "type": "uint256"
        }
      ],
      "name": "setAltarId",
      "outputs": [],
      "stateMutability": "nonpayable",
      "type": "function"
    },
    {
      "inputs": [
        {
          "internalType": "bool",
          "name": "_gameActive",
          "type": "bool"
        }
      ],
      "name": "setGameActive",
      "outputs": [],
      "stateMutability": "nonpayable",
      "type": "function"
    },
    {
      "inputs": [
        {
          "internalType": "uint256[]",
          "name": "_realmIds",
          "type": "uint256[]"
        },
        {
          "internalType": "uint256[]",
          "name": "_actionRights",
          "type": "uint256[]"
        },
        {
          "internalType": "uint256[]",
          "name": "_accessRights",
          "type": "uint256[]"
        },
        {
          "internalType": "uint32[]",
          "name": "_whitelistIds",
          "type": "uint32[]"
        }
      ],
      "name": "setParcelsAccessRightWithWhitelists",
      "outputs": [],
      "stateMutability": "nonpayable",
      "type": "function"
    },
    {
      "inputs": [
        {
          "internalType": "uint256[]",
          "name": "_realmIds",
          "type": "uint256[]"
        },
        {
          "internalType": "uint256[]",
          "name": "_actionRights",
          "type": "uint256[]"
        },
        {
          "internalType": "uint256[]",
          "name": "_accessRights",
          "type": "uint256[]"
        }
      ],
      "name": "setParcelsAccessRights",
      "outputs": [],
      "stateMutability": "nonpayable",
      "type": "function"
    },
    {
      "inputs": [
        {
          "internalType": "uint256",
          "name": "_realmId",
          "type": "uint256"
        },
        {
          "internalType": "uint256",
          "name": "_gotchiId",
          "type": "uint256"
        },
        {
          "internalType": "uint256",
          "name": "_actionRight",
          "type": "uint256"
        },
        {
          "internalType": "address",
          "name": "_sender",
          "type": "address"
        }
      ],
      "name": "verifyAccessRight",
      "outputs": [],
      "stateMutability": "view",
      "type": "function"
    }
  ],
  "bytecode": "0x608060405234801561001057600080fd5b50611fdd806100206000396000f3fe608060405234801561001057600080fd5b50600436106100f55760003560e01c8063bc6c0d3311610097578063dd71950a11610066578063dd71950a146101f4578063e45c7de214610214578063e4faab5b14610238578063e57d0e351461024b57600080fd5b8063bc6c0d3314610197578063ccc08974146101aa578063d5abeb01146101bd578063da80c76e146101d057600080fd5b806375a36b38116100d357806375a36b381461014b57806399fa58eb1461015e5780639e72c27d14610171578063adf688081461018457600080fd5b8063347373c7146100fa578063367e3dac1461010f578063594a0a7014610122575b600080fd5b61010d61010836600461152f565b61026f565b005b61010d61011d3660046115ad565b610326565b61013561013036600461165f565b610594565b604051610142919061168b565b60405180910390f35b6101356101593660046116cf565b610765565b61010d61016c36600461173b565b610879565b61010d61017f3660046117ff565b610c6b565b6101356101923660046116cf565b610cc6565b61010d6101a5366004611821565b610dbb565b61010d6101b8366004611871565b610e36565b620668e55b604051908152602001610142565b6101c26101de366004611895565b6000908152600160205260409020612020015490565b610207610202366004611895565b610e5c565b604051610142919061191e565b6101c2610222366004611895565b6000908152600160205260409020612021015490565b61010d6102463660046119c5565b61101c565b6101c2610259366004611895565b600090815260016020526040902061201f015490565b6000848152600160205260409081902090829060078301908690811061029757610297611a06565b6040020184604081106102ac576102ac611a06565b0154146102d45760405162461bcd60e51b81526004016102cb90611a1c565b60405180910390fd5b81816120240185604081106102eb576102eb611a06565b60400201846040811061030057610300611a06565b01541461031f5760405162461bcd60e51b81526004016102cb90611a1c565b5050505050565b603754600160a01b900460ff1661037f5760405162461bcd60e51b815260206004820152601b60248201527f41707053746f726167653a2067616d65206e6f7420616374697665000000000060448201526064016102cb565b848114801561038d57508483145b6103a95760405162461bcd60e51b81526004016102cb90611a6a565b60005b8581101561058b57600160008888848181106103ca576103ca611a06565b60209081029290920135835250810191909152604001600020546001600160a01b03166103f561102e565b6001600160a01b03161461041b5760405162461bcd60e51b81526004016102cb90611ab8565b61045585858381811061043057610430611a06565b9050602002013584848481811061044957610449611a06565b9050602002013561108b565b6104715760405162461bcd60e51b81526004016102cb90611b15565b82828281811061048357610483611a06565b90506020020135600060380160008989858181106104a3576104a3611a06565b90506020020135815260200190815260200160002060008787858181106104cc576104cc611a06565b905060200201358152602001908152602001600020819055507fea7ba8ef75cb359c125adece63595f7fee06fa295acb94b4560bf9fbf866c05f87878381811061051857610518611a06565b9050602002013586868481811061053157610531611a06565b9050602002013585858581811061054a5761054a611a06565b90506020020135604051610571939291909283526020830191909152604082015260600190565b60405180910390a18061058381611b67565b9150506103ac565b50505050505050565b60606000306001600160a01b03166318160ddd6040518163ffffffff1660e01b815260040160206040518083038186803b1580156105d157600080fd5b505afa1580156105e5573d6000803e3d6000fd5b505050506040513d601f19601f820116820180604052508101906106099190611b90565b6040516370a0823160e01b81526001600160a01b038616600482015290915060009030906370a082319060240160206040518083038186803b15801561064e57600080fd5b505afa158015610662573d6000803e3d6000fd5b505050506040513d601f19601f820116820180604052508101906106869190611b90565b905060008167ffffffffffffffff8111156106a3576106a3611ba9565b6040519080825280602002602001820160405280156106cc578160200160208202803683370190505b5090506000805b84811015610757576000818152600160205260409020600501548714801561071457506000818152600160205260409020546001600160a01b038981169116145b15610745578083838151811061072c5761072c611a06565b60209081029190910101528161074181611b67565b9250505b8061074f81611b67565b9150506106d3565b509093505050505b92915050565b60608382146107865760405162461bcd60e51b81526004016102cb90611a6a565b8367ffffffffffffffff81111561079f5761079f611ba9565b6040519080825280602002602001820160405280156107c8578160200160208202803683370190505b50905060005b8481101561087057603d60008787848181106107ec576107ec611a06565b905060200201358152602001908152602001600020600085858481811061081557610815611a06565b90506020020135815260200190815260200160002060009054906101000a900463ffffffff1663ffffffff1682828151811061085357610853611a06565b60209081029190910101528061086881611b67565b9150506107ce565b50949350505050565b603754600160a01b900460ff166108d25760405162461bcd60e51b815260206004820152601b60248201527f41707053746f726167653a2067616d65206e6f7420616374697665000000000060448201526064016102cb565b86851480156108e057508085145b80156108eb57508085145b6109075760405162461bcd60e51b81526004016102cb90611a6a565b868314801561091557508685145b6109315760405162461bcd60e51b81526004016102cb90611a6a565b60005b87811015610c6057600160008a8a8481811061095257610952611a06565b60209081029290920135835250810191909152604001600020546001600160a01b031661097d61102e565b6001600160a01b0316146109a35760405162461bcd60e51b81526004016102cb90611ab8565b6109d18787838181106109b8576109b8611a06565b9050602002013586868481811061044957610449611a06565b6109ed5760405162461bcd60e51b81526004016102cb90611b15565b8484828181106109ff576109ff611a06565b90506020020135600060380160008b8b85818110610a1f57610a1f611a06565b9050602002013581526020019081526020016000206000898985818110610a4857610a48611a06565b90506020020135815260200190815260200160002081905550848482818110610a7357610a73611a06565b9050602002013560021415610bba57828282818110610a9457610a94611a06565b9050602002016020810190610aa99190611bd1565b603d60008b8b85818110610abf57610abf611a06565b9050602002013581526020019081526020016000206000898985818110610ae857610ae8611a06565b90506020020135815260200190815260200160002060006101000a81548163ffffffff021916908363ffffffff1602179055507f49fce9e33fad478219ddd402ece3904b6a8dbaffcefe089e2c0e1685422a4c05898983818110610b4e57610b4e611a06565b90506020020135888884818110610b6757610b67611a06565b90506020020135858585818110610b8057610b80611a06565b9050602002016020810190610b959190611bd1565b60408051938452602084019290925263ffffffff169082015260600160405180910390a15b7fea7ba8ef75cb359c125adece63595f7fee06fa295acb94b4560bf9fbf866c05f898983818110610bed57610bed611a06565b90506020020135888884818110610c0657610c06611a06565b90506020020135878785818110610c1f57610c1f611a06565b90506020020135604051610c46939291909283526020830191909152604082015260600190565b60405180910390a180610c5881611b67565b915050610934565b505050505050505050565b610c736110a9565b60008281526001602090815260409182902061201f0183905581518481529081018390527f962f1f14834b9460bffcdd44a0fef0d866d3c2d2c2743aef81070c58396ac031910160405180910390a15050565b6060838214610ce75760405162461bcd60e51b81526004016102cb90611a6a565b8367ffffffffffffffff811115610d0057610d00611ba9565b604051908082528060200260200182016040528015610d29578160200160208202803683370190505b50905060005b848110156108705760386000878784818110610d4d57610d4d611a06565b9050602002013581526020019081526020016000206000858584818110610d7657610d76611a06565b90506020020135815260200190815260200160002054828281518110610d9e57610d9e611a06565b602090810291909101015280610db381611b67565b915050610d2f565b610dc36110a9565b60005b81811015610e31577ff20fad4a9aa47ceeb29a7f693b89871de4b3b9ed2fc1fdf327785476f9938c97838383818110610e0157610e01611a06565b90506020020135604051610e1791815260200190565b60405180910390a180610e2981611b67565b915050610dc6565b505050565b610e3e6110a9565b60378054911515600160a01b0260ff60a01b19909216919091179055565b610e646114b6565b6000828152600160205260409020600281018054610e8190611bee565b80601f0160208091040260200160405190810160405280929190818152602001828054610ead90611bee565b8015610efa5780601f10610ecf57610100808354040283529160200191610efa565b820191906000526020600020905b815481529060010190602001808311610edd57829003601f168201915b505050918452505080546001600160a01b031660408301526003810154606083015260048101546080830152600681015460a0830152600181018054610f3f90611bee565b80601f0160208091040260200160405190810160405280929190818152602001828054610f6b90611bee565b8015610fb85780601f10610f8d57610100808354040283529160200191610fb8565b820191906000526020600020905b815481529060010190602001808311610f9b57829003601f168201915b50505050506020830152600581015460c08301526040805160808101918290529061200783019060049082845b815481526020019060010190808311610fe557505050505060e0830152506000918252603560205260409091205461010082015290565b61102884848484611132565b50505050565b60003330141561108557600080368080601f0160208091040260200160405190810160405280939291908181526020018383808284376000920191909152505050503601516001600160a01b031691506110889050565b50335b90565b6000600683116110a05750600481111561075f565b50600092915050565b7fc8fcad8db84d3cc18b4c41d551ea0ee66dd599cde068d998e57d5e09332c131c600401546001600160a01b031633146111305760405162461bcd60e51b815260206004820152602260248201527f4c69624469616d6f6e643a204d75737420626520636f6e7472616374206f776e60448201526132b960f11b60648201526084016102cb565b565b6006546000858152603860209081526040808320868452825280832054888452600190925282205491926001600160a01b039081169216816111a457806001600160a01b0316856001600160a01b03161461119f5760405162461bcd60e51b81526004016102cb90611c29565b6114ac565b81600114156113a257604051636b98ea2760e11b815263ffffffff881660048201526001600160a01b0384169063d731d44e9060240160206040518083038186803b1580156111f257600080fd5b505afa158015611206573d6000803e3d6000fd5b505050506040513d601f19601f8201168201806040525081019061122a9190611c7c565b156113715760405163044f7d5960e21b815263ffffffff881660048201526000906001600160a01b0385169063113df5649060240160006040518083038186803b15801561127757600080fd5b505afa15801561128b573d6000803e3d6000fd5b505050506040513d6000823e601f3d908101601f191682016040526112b39190810190611e2c565b9050816001600160a01b0316866001600160a01b0316148061130a575080604001516001600160a01b0316866001600160a01b031614801561130a5750816001600160a01b031681600001516001600160a01b0316145b61136b5760405162461bcd60e51b815260206004820152602c60248201527f4c69625265616c6d3a20416363657373205269676874202d204f6e6c79204f7760448201526b3732b917a137b93937bbb2b960a11b60648201526084016102cb565b506114ac565b806001600160a01b0316856001600160a01b03161461119f5760405162461bcd60e51b81526004016102cb90611c29565b81600214156114ac576000888152603d850160209081526040808320898452909152808220549051631ccfd32160e31b815263ffffffff90911660048201526001600160a01b03878116602483015285169063e67e99089060440160206040518083038186803b15801561141557600080fd5b505afa158015611429573d6000803e3d6000fd5b505050506040513d601f19601f8201168201806040525081019061144d9190611b90565b1161119f5760405162461bcd60e51b815260206004820152602960248201527f4c69625265616c6d3a20416363657373205269676874202d204f6e6c792057686044820152681a5d195b1a5cdd195960ba1b60648201526084016102cb565b5050505050505050565b604051806101200160405280606081526020016060815260200160006001600160a01b0316815260200160008152602001600081526020016000815260200160008152602001611504611511565b8152602001600081525090565b60405180608001604052806004906020820280368337509192915050565b6000806000806080858703121561154557600080fd5b5050823594602084013594506040840135936060013592509050565b60008083601f84011261157357600080fd5b50813567ffffffffffffffff81111561158b57600080fd5b6020830191508360208260051b85010111156115a657600080fd5b9250929050565b600080600080600080606087890312156115c657600080fd5b863567ffffffffffffffff808211156115de57600080fd5b6115ea8a838b01611561565b9098509650602089013591508082111561160357600080fd5b61160f8a838b01611561565b9096509450604089013591508082111561162857600080fd5b5061163589828a01611561565b979a9699509497509295939492505050565b6001600160a01b038116811461165c57600080fd5b50565b6000806040838503121561167257600080fd5b823561167d81611647565b946020939093013593505050565b6020808252825182820181905260009190848201906040850190845b818110156116c3578351835292840192918401916001016116a7565b50909695505050505050565b600080600080604085870312156116e557600080fd5b843567ffffffffffffffff808211156116fd57600080fd5b61170988838901611561565b9096509450602087013591508082111561172257600080fd5b5061172f87828801611561565b95989497509550505050565b6000806000806000806000806080898b03121561175757600080fd5b883567ffffffffffffffff8082111561176f57600080fd5b61177b8c838d01611561565b909a50985060208b013591508082111561179457600080fd5b6117a08c838d01611561565b909850965060408b01359150808211156117b957600080fd5b6117c58c838d01611561565b909650945060608b01359150808211156117de57600080fd5b506117eb8b828c01611561565b999c989b5096995094979396929594505050565b6000806040838503121561181257600080fd5b50508035926020909101359150565b6000806020838503121561183457600080fd5b823567ffffffffffffffff81111561184b57600080fd5b61185785828601611561565b90969095509350505050565b801515811461165c57600080fd5b60006020828403121561188357600080fd5b813561188e81611863565b9392505050565b6000602082840312156118a757600080fd5b5035919050565b6000815180845260005b818110156118d4576020818501810151868301820152016118b8565b818111156118e6576000602083870101525b50601f01601f19169290920160200192915050565b8060005b60048110156110285781518452602093840193909101906001016118ff565b602081526000825161018080602085015261193d6101a08501836118ae565b91506020850151601f1985840301604086015261195a83826118ae565b925050604085015161197760608601826001600160a01b03169052565b5060608501516080850152608085015160a085015260a085015160c085015260c085015160e085015260e08501516101006119b4818701836118fb565b959095015193019290925250919050565b600080600080608085870312156119db57600080fd5b84359350602085013592506040850135915060608501356119fb81611647565b939692955090935050565b634e487b7160e01b600052603260045260246000fd5b6020808252602e908201527f5265616c6d47657474657273416e645365747465727346616365743a2077726f60408201526d6e6720636f6f7264696e6174657360901b606082015260800190565b6020808252602e908201527f5265616c6d47657474657273416e645365747465727346616365743a204d697360408201526d6d6174636865642061727261797360901b606082015260800190565b60208082526037908201527f5265616c6d47657474657273416e645365747465727346616365743a204f6e6c60408201527f792050617263656c206f776e65722063616e2063616c6c000000000000000000606082015260800190565b60208082526032908201527f5265616c6d47657474657273416e645365747465727346616365743a20496e76604082015271616c6964206163636573732072696768747360701b606082015260800190565b6000600019821415611b8957634e487b7160e01b600052601160045260246000fd5b5060010190565b600060208284031215611ba257600080fd5b5051919050565b634e487b7160e01b600052604160045260246000fd5b63ffffffff8116811461165c57600080fd5b600060208284031215611be357600080fd5b813561188e81611bbf565b600181811c90821680611c0257607f821691505b60208210811415611c2357634e487b7160e01b600052602260045260246000fd5b50919050565b60208082526023908201527f4c69625265616c6d3a20416363657373205269676874202d204f6e6c79204f776040820152623732b960e91b606082015260800190565b8051611c7781611863565b919050565b600060208284031215611c8e57600080fd5b815161188e81611863565b604051610200810167ffffffffffffffff81118282101715611cbd57611cbd611ba9565b60405290565b8051611c7781611647565b80516bffffffffffffffffffffffff81168114611c7757600080fd5b8051611c7781611bbf565b805164ffffffffff81168114611c7757600080fd5b600082601f830112611d1b57600080fd5b6040516060810181811067ffffffffffffffff82111715611d3e57611d3e611ba9565b604052806060840185811115611d5357600080fd5b845b81811015611d7d57805160ff81168114611d6f5760008081fd5b835260209283019201611d55565b509195945050505050565b600082601f830112611d9957600080fd5b8151602067ffffffffffffffff80831115611db657611db6611ba9565b8260051b604051601f19603f83011681018181108482111715611ddb57611ddb611ba9565b604052938452858101830193838101925087851115611df957600080fd5b83870191505b84821015611e21578151611e1281611647565b83529183019190830190611dff565b979650505050505050565b600060208284031215611e3e57600080fd5b815167ffffffffffffffff80821115611e5657600080fd5b908301906102408286031215611e6b57600080fd5b611e73611c99565b611e7c83611cc3565b8152611e8a60208401611cce565b6020820152611e9b60408401611cc3565b6040820152611eac60608401611cea565b6060820152611ebd60808401611cea565b6080820152611ece60a08401611cea565b60a0820152611edf60c08401611cc3565b60c0820152611ef060e08401611cf5565b60e0820152610100611f03818501611cf5565b90820152610120611f15848201611c6c565b90820152610140611f27848201611c6c565b90820152610160611f39848201611cc3565b90820152610180611f4c87858301611d0a565b908201526101e0611f5e848201611cf5565b6101a0830152611f716102008501611cea565b6101c083015261022084015183811115611f8a57600080fd5b611f9688828701611d88565b91830191909152509594505050505056fea26469706673582212205480da2d9779b59674e97e7a83e9cdac04ba3b44c753c0d3d89fc7f2cea5d3a764736f6c63430008090033",
  "linkReferences": {},
  "deployedLinkReferences": {}
}