{
  "_format": "hh-sol-artifact-1",
  "contractName": "RealmFacet",
  "sourceName": "contracts/RealmDiamond/facets/RealmFacet.sol",
  "abi": [
    {
      "anonymous": false,
      "inputs": [
        {
          "indexed": false,
          "internalType": "address",
          "name": "_aavegotchiDiamond",
          "type": "address"
        }
      ],
      "name": "AavegotchiDiamondUpdated",
      "type": "event"
    },
    {
      "anonymous": false,
      "inputs": [
        {
          "indexed": false,
          "internalType": "uint256",
          "name": "_realmId",
          "type": "uint256"
        },
        {
          "indexed": false,
          "internalType": "uint256",
          "name": "_installationId",
          "type": "uint256"
        },
        {
          "indexed": false,
          "internalType": "uint256",
          "name": "_x",
          "type": "uint256"
        },
        {
          "indexed": false,
          "internalType": "uint256",
          "name": "_y",
          "type": "uint256"
        }
      ],
      "name": "EquipInstallation",
      "type": "event"
    },
    {
      "anonymous": false,
      "inputs": [
        {
          "indexed": false,
          "internalType": "uint256",
          "name": "_realmId",
          "type": "uint256"
        },
        {
          "indexed": false,
          "internalType": "uint256",
          "name": "_tileId",
          "type": "uint256"
        },
        {
          "indexed": false,
          "internalType": "uint256",
          "name": "_x",
          "type": "uint256"
        },
        {
          "indexed": false,
          "internalType": "uint256",
          "name": "_y",
          "type": "uint256"
        }
      ],
      "name": "EquipTile",
      "type": "event"
    },
    {
      "anonymous": false,
      "inputs": [
        {
          "indexed": false,
          "internalType": "uint256",
          "name": "_realmId",
          "type": "uint256"
        },
        {
          "indexed": false,
          "internalType": "uint256",
          "name": "_prevInstallationId",
          "type": "uint256"
        },
        {
          "indexed": false,
          "internalType": "uint256",
          "name": "_nextInstallationId",
          "type": "uint256"
        },
        {
          "indexed": false,
          "internalType": "uint256",
          "name": "_coordinateX",
          "type": "uint256"
        },
        {
          "indexed": false,
          "internalType": "uint256",
          "name": "_coordinateY",
          "type": "uint256"
        }
      ],
      "name": "InstallationUpgraded",
      "type": "event"
    },
    {
      "anonymous": false,
      "inputs": [
        {
          "indexed": false,
          "internalType": "uint256",
          "name": "_realmId",
          "type": "uint256"
        },
        {
          "indexed": false,
          "internalType": "uint256",
          "name": "_installationId",
          "type": "uint256"
        },
        {
          "indexed": false,
          "internalType": "uint256",
          "name": "_x",
          "type": "uint256"
        },
        {
          "indexed": false,
          "internalType": "uint256",
          "name": "_y",
          "type": "uint256"
        }
      ],
      "name": "UnequipInstallation",
      "type": "event"
    },
    {
      "anonymous": false,
      "inputs": [
        {
          "indexed": false,
          "internalType": "uint256",
          "name": "_realmId",
          "type": "uint256"
        },
        {
          "indexed": false,
          "internalType": "uint256",
          "name": "_tileId",
          "type": "uint256"
        },
        {
          "indexed": false,
          "internalType": "uint256",
          "name": "_x",
          "type": "uint256"
        },
        {
          "indexed": false,
          "internalType": "uint256",
          "name": "_y",
          "type": "uint256"
        }
      ],
      "name": "UnequipTile",
      "type": "event"
    },
    {
      "inputs": [
        {
          "internalType": "uint256",
          "name": "_realmId",
          "type": "uint256"
        }
      ],
      "name": "addUpgradeQueueLength",
      "outputs": [],
      "stateMutability": "nonpayable",
      "type": "function"
    },
    {
      "inputs": [
        {
          "internalType": "uint256",
          "name": "_realmId",
          "type": "uint256"
        },
        {
          "internalType": "uint256",
          "name": "_gotchiId",
          "type": "uint256"
        },
        {
          "components": [
            {
              "internalType": "uint256[]",
              "name": "types",
              "type": "uint256[]"
            },
            {
              "internalType": "bool[]",
              "name": "equip",
              "type": "bool[]"
            },
            {
              "internalType": "uint256[]",
              "name": "ids",
              "type": "uint256[]"
            },
            {
              "internalType": "uint256[]",
              "name": "x",
              "type": "uint256[]"
            },
            {
              "internalType": "uint256[]",
              "name": "y",
              "type": "uint256[]"
            }
          ],
          "internalType": "struct RealmFacet.BatchEquipIO",
          "name": "_params",
          "type": "tuple"
        },
        {
          "internalType": "bytes[]",
          "name": "_signatures",
          "type": "bytes[]"
        }
      ],
      "name": "batchEquip",
      "outputs": [],
      "stateMutability": "nonpayable",
      "type": "function"
    },
    {
      "inputs": [],
      "name": "buildingFrozen",
      "outputs": [
        {
          "internalType": "bool",
          "name": "",
          "type": "bool"
        }
      ],
      "stateMutability": "view",
      "type": "function"
    },
    {
      "inputs": [
        {
          "internalType": "uint256",
          "name": "_realmId",
          "type": "uint256"
        },
        {
          "internalType": "uint256",
          "name": "_gotchiId",
          "type": "uint256"
        },
        {
          "internalType": "uint256",
          "name": "_installationId",
          "type": "uint256"
        },
        {
          "internalType": "uint256",
          "name": "_x",
          "type": "uint256"
        },
        {
          "internalType": "uint256",
          "name": "_y",
          "type": "uint256"
        },
        {
          "internalType": "bytes",
          "name": "_signature",
          "type": "bytes"
        }
      ],
      "name": "equipInstallation",
      "outputs": [],
      "stateMutability": "nonpayable",
      "type": "function"
    },
    {
      "inputs": [
        {
          "internalType": "uint256",
          "name": "_realmId",
          "type": "uint256"
        },
        {
          "internalType": "uint256",
          "name": "_gotchiId",
          "type": "uint256"
        },
        {
          "internalType": "uint256",
          "name": "_tileId",
          "type": "uint256"
        },
        {
          "internalType": "uint256",
          "name": "_x",
          "type": "uint256"
        },
        {
          "internalType": "uint256",
          "name": "_y",
          "type": "uint256"
        },
        {
          "internalType": "bytes",
          "name": "_signature",
          "type": "bytes"
        }
      ],
      "name": "equipTile",
      "outputs": [],
      "stateMutability": "nonpayable",
      "type": "function"
    },
    {
      "inputs": [
        {
          "internalType": "uint256",
          "name": "_realmId",
          "type": "uint256"
        },
        {
          "internalType": "uint256",
          "name": "_installationId",
          "type": "uint256"
        },
        {
          "internalType": "uint256[]",
          "name": "_x",
          "type": "uint256[]"
        },
        {
          "internalType": "uint256[]",
          "name": "_y",
          "type": "uint256[]"
        },
        {
          "internalType": "bool",
          "name": "tile",
          "type": "bool"
        }
      ],
      "name": "fixGrid",
      "outputs": [],
      "stateMutability": "nonpayable",
      "type": "function"
    },
    {
      "inputs": [
        {
          "internalType": "address[]",
          "name": "_to",
          "type": "address[]"
        },
        {
          "internalType": "uint256[]",
          "name": "_tokenIds",
          "type": "uint256[]"
        },
        {
          "components": [
            {
              "internalType": "uint256",
              "name": "coordinateX",
              "type": "uint256"
            },
            {
              "internalType": "uint256",
              "name": "coordinateY",
              "type": "uint256"
            },
            {
              "internalType": "uint256",
              "name": "district",
              "type": "uint256"
            },
            {
              "internalType": "string",
              "name": "parcelId",
              "type": "string"
            },
            {
              "internalType": "string",
              "name": "parcelAddress",
              "type": "string"
            },
            {
              "internalType": "uint256",
              "name": "size",
              "type": "uint256"
            },
            {
              "internalType": "uint256[4]",
              "name": "boost",
              "type": "uint256[4]"
            }
          ],
          "internalType": "struct RealmFacet.MintParcelInput[]",
          "name": "_metadata",
          "type": "tuple[]"
        }
      ],
      "name": "mintParcels",
      "outputs": [],
      "stateMutability": "nonpayable",
      "type": "function"
    },
    {
      "inputs": [
        {
          "internalType": "uint256",
          "name": "_realmId",
          "type": "uint256"
        },
        {
          "internalType": "uint256",
          "name": "_installationId",
          "type": "uint256"
        },
        {
          "internalType": "uint256",
          "name": "_x0",
          "type": "uint256"
        },
        {
          "internalType": "uint256",
          "name": "_y0",
          "type": "uint256"
        },
        {
          "internalType": "uint256",
          "name": "_x1",
          "type": "uint256"
        },
        {
          "internalType": "uint256",
          "name": "_y1",
          "type": "uint256"
        }
      ],
      "name": "moveInstallation",
      "outputs": [],
      "stateMutability": "nonpayable",
      "type": "function"
    },
    {
      "inputs": [
        {
          "internalType": "uint256",
          "name": "_realmId",
          "type": "uint256"
        },
        {
          "internalType": "uint256",
          "name": "_tileId",
          "type": "uint256"
        },
        {
          "internalType": "uint256",
          "name": "_x0",
          "type": "uint256"
        },
        {
          "internalType": "uint256",
          "name": "_y0",
          "type": "uint256"
        },
        {
          "internalType": "uint256",
          "name": "_x1",
          "type": "uint256"
        },
        {
          "internalType": "uint256",
          "name": "_y1",
          "type": "uint256"
        }
      ],
      "name": "moveTile",
      "outputs": [],
      "stateMutability": "nonpayable",
      "type": "function"
    },
    {
      "inputs": [
        {
          "internalType": "bool",
          "name": "_freezeBuilding",
          "type": "bool"
        }
      ],
      "name": "setFreezeBuilding",
      "outputs": [],
      "stateMutability": "nonpayable",
      "type": "function"
    },
    {
      "inputs": [
        {
          "internalType": "uint256",
          "name": "_realmId",
          "type": "uint256"
        }
      ],
      "name": "subUpgradeQueueLength",
      "outputs": [],
      "stateMutability": "nonpayable",
      "type": "function"
    },
    {
      "inputs": [
        {
          "internalType": "uint256",
          "name": "_realmId",
          "type": "uint256"
        },
        {
          "internalType": "uint256",
          "name": "_gotchiId",
          "type": "uint256"
        },
        {
          "internalType": "uint256",
          "name": "_installationId",
          "type": "uint256"
        },
        {
          "internalType": "uint256",
          "name": "_x",
          "type": "uint256"
        },
        {
          "internalType": "uint256",
          "name": "_y",
          "type": "uint256"
        },
        {
          "internalType": "bytes",
          "name": "_signature",
          "type": "bytes"
        }
      ],
      "name": "unequipInstallation",
      "outputs": [],
      "stateMutability": "nonpayable",
      "type": "function"
    },
    {
      "inputs": [
        {
          "internalType": "uint256",
          "name": "_realmId",
          "type": "uint256"
        },
        {
          "internalType": "uint256",
          "name": "_gotchiId",
          "type": "uint256"
        },
        {
          "internalType": "uint256",
          "name": "_tileId",
          "type": "uint256"
        },
        {
          "internalType": "uint256",
          "name": "_x",
          "type": "uint256"
        },
        {
          "internalType": "uint256",
          "name": "_y",
          "type": "uint256"
        },
        {
          "internalType": "bytes",
          "name": "_signature",
          "type": "bytes"
        }
      ],
      "name": "unequipTile",
      "outputs": [],
      "stateMutability": "nonpayable",
      "type": "function"
    },
    {
      "inputs": [
        {
          "internalType": "uint256",
          "name": "_realmId",
          "type": "uint256"
        },
        {
          "internalType": "uint256",
          "name": "_prevInstallationId",
          "type": "uint256"
        },
        {
          "internalType": "uint256",
          "name": "_nextInstallationId",
          "type": "uint256"
        },
        {
          "internalType": "uint256",
          "name": "_coordinateX",
          "type": "uint256"
        },
        {
          "internalType": "uint256",
          "name": "_coordinateY",
          "type": "uint256"
        }
      ],
      "name": "upgradeInstallation",
      "outputs": [],
      "stateMutability": "nonpayable",
      "type": "function"
    }
  ],
  "bytecode": "0x608060405234801561001057600080fd5b506158a980620000216000396000f3fe608060405234801561001057600080fd5b50600436106100ea5760003560e01c806375438cd41161008c57806393b17ea01161006657806393b17ea0146101b65780639c21472b146101c9578063a8803536146101dc578063d8064270146101ef57600080fd5b806375438cd41461017657806375706fef146101895780638148f7541461019c57600080fd5b80635505421b116100c85780635505421b1461012a578063579fa4af1461013d5780635a284aa71461015057806371d3acf51461016357600080fd5b806306f62812146100ef5780630c73c88d14610104578063524f11d514610117575b600080fd5b6101026100fd3660046145c7565b610202565b005b6101026101123660046146cc565b610458565b610102610125366004614757565b610666565b61010261013836600461479a565b61079f565b61010261014b3660046147d5565b61085f565b61010261015e3660046145c7565b6108bf565b6101026101713660046145c7565b610d61565b6101026101843660046147d5565b61138b565b610102610197366004614757565b6113e3565b603a5460ff16604051901515815260200160405180910390f35b6101026101c43660046148d1565b611617565b6101026101d7366004614a05565b611a5b565b6101026101ea366004614ac4565b611a76565b6101026101fd3660046145c7565b611cac565b60008681526001602052604090205486906001600160a01b0316610224611e86565b6001600160a01b0316146102535760405162461bcd60e51b815260040161024a90614c6b565b60405180910390fd5b603754600160a01b900460ff1661027c5760405162461bcd60e51b815260040161024a90614cb1565b603a5460ff161561029f5760405162461bcd60e51b815260040161024a90614ce8565b6040805160208101899052908101879052606081018690526080810185905260a081018490526103779060c0015b60405160208183030381529060405280519060200120836000602f0180546102f490614d31565b80601f016020809104026020016040519081016040528092919081815260200182805461032090614d31565b801561036d5780601f106103425761010080835404028352916020019161036d565b820191906000526020600020905b81548152906001019060200180831161035057829003601f168201915b5050505050611ee3565b6103935760405162461bcd60e51b815260040161024a90614d6c565b61039f87868686611f6d565b6037546040516315b194ef60e21b81526001600160a01b03909116906356c653bc906103d39033908b908a90600401614da3565b600060405180830381600087803b1580156103ed57600080fd5b505af1158015610401573d6000803e3d6000fd5b5050604080518a815260208101899052908101879052606081018690527fb1e943c280d055bfe1686ba119599cd2071f18e1f3bce12ad3c3c4f0d5b4541f925060800190505b60405180910390a150505050505050565b6104606121b8565b81518351146104c75760405162461bcd60e51b815260206004820152602d60248201527f5265616c6d46616365743a205f7820616e64205f79206d75737420626520746860448201526c0ca40e6c2daca40d8cadccee8d609b1b606482015260840161024a565b6000858152600160205260408120905b845181101561065d5760408582815181106104f4576104f4614dc4565b60200260200101511080156105225750604084828151811061051857610518614dc4565b6020026020010151105b6105815760405162461bcd60e51b815260206004820152602a60248201527f5265616c6d46616365743a205f7820616e64205f79206d757374206265206c656044820152691cdcc81d1a185b880d8d60b21b606482015260840161024a565b826105ea57858260070186838151811061059d5761059d614dc4565b6020026020010151604081106105b5576105b5614dc4565b604002018583815181106105cb576105cb614dc4565b6020026020010151604081106105e3576105e3614dc4565b015561064b565b85826110070186838151811061060257610602614dc4565b60200260200101516040811061061a5761061a614dc4565b6040020185838151811061063057610630614dc4565b60200260200101516040811061064857610648614dc4565b01555b8061065581614df0565b9150506104d7565b50505050505050565b60008681526001602052604090205486906001600160a01b0316610688611e86565b6001600160a01b0316146106ae5760405162461bcd60e51b815260040161024a90614c6b565b603754600160a01b900460ff166106d75760405162461bcd60e51b815260040161024a90614cb1565b603a5460ff16156106fa5760405162461bcd60e51b815260040161024a90614ce8565b61070687878787611f6d565b6040805188815260208101889052908101869052606081018590527fb1e943c280d055bfe1686ba119599cd2071f18e1f3bce12ad3c3c4f0d5b4541f9060800160405180910390a161075a87878585612241565b6040805188815260208101889052908101849052606081018390527ffcb7d72e94eee47cfef784f5d54e1f07cc20dff2f9627de06f1f061428c7c91e90608001610447565b600b546001600160a01b03166107b3611e86565b6001600160a01b0316146107d95760405162461bcd60e51b815260040161024a90614e0b565b6107e585858484612513565b6107f185848484612748565b6107fd85856001612a1a565b6108098584600161324b565b604080518681526020810186905290810184905260608101839052608081018290527f74b654614ea2444b876a14dec11c709807cda89060906c4b7e443e4f8ff9ed539060a00160405180910390a15050505050565b600b546001600160a01b0316610873611e86565b6001600160a01b0316146108995760405162461bcd60e51b815260040161024a90614e0b565b6000818152600160205260408120612021018054916108b783614df0565b919050555050565b603754600160a01b900460ff166108e85760405162461bcd60e51b815260040161024a90614cb1565b603a5460ff161561090b5760405162461bcd60e51b815260040161024a90614ce8565b61091f8686600261091a611e86565b6137be565b6040805160208101889052908101869052606081018590526080810184905260a081018390526109749060c0015b60405160208183030381529060405280519060200120826000602f0180546102f490614d31565b6109905760405162461bcd60e51b815260040161024a90614d6c565b600b5460405163109e13c560e21b8152600481018690526000916001600160a01b0316906342784f149060240160006040518083038186803b1580156109d557600080fd5b505afa1580156109e9573d6000803e3d6000fd5b505050506040513d6000823e601f3d908101601f19168201604052610a119190810190614fad565b9050806060015160ff16600114610a6a5760405162461bcd60e51b815260206004820181905260248201527f5265616c6d46616365743a2043616e206f6e6c79206571756970206c766c2031604482015260640161024a565b806040015161ffff1660011480610a895750806040015161ffff166002145b15610b0357600087815260016020819052604090912061200f01541015610b035760405162461bcd60e51b815260206004820152602860248201527f5265616c6d46616365743a204d75737420737572766579206265666f726520656044820152677175697070696e6760c01b606482015260840161024a565b806040015161ffff1660031415610b95576000878152600160205260409020612022015415610b7f5760405162461bcd60e51b815260206004820152602260248201527f5265616c6d46616365743a204c6f64676520616c726561647920657175697070604482015261195960f21b606482015260840161024a565b6000878152600160205260409020612022018590555b806040015161ffff1660061415610c2f576000878152600160208190526040909120612020015414610c2f5760405162461bcd60e51b815260206004820152603860248201527f5265616c6d46616365743a204d616b657220616c72656164792065717569707060448201527f6564206f7220616c746172206e6f742065717569707065640000000000000000606482015260840161024a565b610c3b87868686612748565b600b546040516364e5b7a960e01b81526001600160a01b03909116906364e5b7a990610c6f9033908b908a90600401614da3565b600060405180830381600087803b158015610c8957600080fd5b505af1158015610c9d573d6000803e3d6000fd5b50505050610cad8786600061324b565b600654600b5460405163e9a8887f60e01b81526001600160a01b0391821660048201526024810188905233604482015291169063e9a8887f90606401600060405180830381600087803b158015610d0357600080fd5b505af1158015610d17573d6000803e3d6000fd5b5050604080518a815260208101899052908101879052606081018690527f28ee8f870fbf2fc8ef414198cb263e6f548ce9a10088c76c2821b66cf61dddc492506080019050610447565b60008681526001602052604090205486906001600160a01b0316610d83611e86565b6001600160a01b031614610da95760405162461bcd60e51b815260040161024a90614c6b565b603754600160a01b900460ff16610dd25760405162461bcd60e51b815260040161024a90614cb1565b603a5460ff1615610df55760405162461bcd60e51b815260040161024a90614ce8565b6040805160208101899052908101879052606081018690526080810185905260a08101849052610e279060c0016102cd565b610e435760405162461bcd60e51b815260040161024a90614d6c565b600b5460405163109e13c560e21b8152600481018790526001600160a01b039091169060009082906342784f149060240160006040518083038186803b158015610e8c57600080fd5b505afa158015610ea0573d6000803e3d6000fd5b505050506040513d6000823e601f3d908101601f19168201604052610ec89190810190614fad565b9050610ed689888888613b42565b15610f495760405162461bcd60e51b815260206004820152603760248201527f5265616c6d46616365743a2043616e277420756e657175697020696e7374616c60448201527f6c6174696f6e20696e2075706772616465207175657565000000000000000000606482015260840161024a565b604081015161ffff16151580610f72575060008981526001602081905260409091206120200154145b610fdd5760405162461bcd60e51b815260206004820152603660248201527f5265616c6d46616365743a2043616e6e6f7420756e657175697020616c746172604482015275103bb432b7103a3432b9329034b990309036b0b5b2b960511b606482015260840161024a565b610fe989888888612513565b600b5460405163ecd3224560e01b81526001600160a01b039091169063ecd322459061101d9033908d908c90600401614da3565b600060405180830381600087803b15801561103757600080fd5b505af115801561104b573d6000803e3d6000fd5b5050505061105b89886000612a1a565b604051631756381160e11b8152600481018890526001600160a01b03831690632eac70229060240160206040518083038186803b15801561109b57600080fd5b505afa1580156110af573d6000803e3d6000fd5b505050506040513d601f19601f820116820180604052508101906110d3919061512d565b61133857606081015160408051600480825260a0820190925260ff909216916000916020820160808036833701905050905060005b828110156112235760006001600160a01b0386166342784f1461112b848e615146565b6040518263ffffffff1660e01b815260040161114991815260200190565b60006040518083038186803b15801561116157600080fd5b505afa158015611175573d6000803e3d6000fd5b505050506040513d6000823e601f3d908101601f1916820160405261119d9190810190614fad565b905060005b600481101561120e57600282610160015182600481106111c4576111c4614dc4565b60200201516111d3919061515d565b8482815181106111e5576111e5614dc4565b602002602001018181516111f9919061517f565b9052508061120681614df0565b9150506111a2565b5050808061121b90614df0565b915050611108565b5060005b815181101561133457600082828151811061124457611244614dc4565b602002602001015111156113225760006007826004811061126757611267614dc4565b015483516001600160a01b039091169150819063a9059cbb90339086908690811061129457611294614dc4565b60200260200101516040518363ffffffff1660e01b81526004016112cd9291906001600160a01b03929092168252602082015260400190565b602060405180830381600087803b1580156112e757600080fd5b505af11580156112fb573d6000803e3d6000fd5b505050506040513d601f19601f8201168201806040525081019061131f9190615197565b50505b8061132c81614df0565b915050611227565b5050505b604080518a815260208101899052908101879052606081018690527feb8dc37534b72de521d16884c32148e05abe550c5627ee4ba527ddfa1a7717ff9060800160405180910390a1505050505050505050565b600b546001600160a01b031661139f611e86565b6001600160a01b0316146113c55760405162461bcd60e51b815260040161024a90614e0b565b6000818152600160205260408120612021018054916108b7836151b4565b60008681526001602052604090205486906001600160a01b0316611405611e86565b6001600160a01b03161461142b5760405162461bcd60e51b815260040161024a90614c6b565b603754600160a01b900460ff166114545760405162461bcd60e51b815260040161024a90614cb1565b603a5460ff16156114775760405162461bcd60e51b815260040161024a90614ce8565b600b546040516334dbab0560e11b8152600481018990526024810188905260448101879052606481018690526001600160a01b039091169081906369b7560a9060840160206040518083038186803b1580156114d257600080fd5b505afa1580156114e6573d6000803e3d6000fd5b505050506040513d601f19601f8201168201806040525081019061150a9190615197565b156115655760405162461bcd60e51b815260206004820152602560248201527f5265616c6d46616365743a20496e7374616c6c6174696f6e20697320757067726044820152646164696e6760d81b606482015260840161024a565b61157188888888612513565b6040805189815260208101899052908101879052606081018690527feb8dc37534b72de521d16884c32148e05abe550c5627ee4ba527ddfa1a7717ff9060800160405180910390a16115c588888686612748565b6040805189815260208101899052908101859052606081018490527f28ee8f870fbf2fc8ef414198cb263e6f548ce9a10088c76c2821b66cf61dddc49060800160405180910390a15050505050505050565b603754600160a01b900460ff166116405760405162461bcd60e51b815260040161024a90614cb1565b603a5460ff16156116635760405162461bcd60e51b815260040161024a90614ce8565b816060015151826040015151146116b75760405162461bcd60e51b81526020600482015260186024820152770a4cac2d8da8cc2c6cae87440aee4dedcce40d8cadccee8d60431b604482015260640161024a565b8160800151518260600151511461170b5760405162461bcd60e51b81526020600482015260186024820152770a4cac2d8da8cc2c6cae87440aee4dedcce40d8cadccee8d60431b604482015260640161024a565b60005b826040015151811015611a5457825180518290811061172f5761172f614dc4565b6020026020010151600014801561176057508260200151818151811061175757611757614dc4565b60200260200101515b156117e8576117e385858560400151848151811061178057611780614dc4565b60200260200101518660600151858151811061179e5761179e614dc4565b6020026020010151876080015186815181106117bc576117bc614dc4565b60200260200101518787815181106117d6576117d6614dc4565b60200260200101516108bf565b611a42565b82518051829081106117fc576117fc614dc4565b6020026020010151600114801561182d57508260200151818151811061182457611824614dc4565b60200260200101515b156118b0576117e385858560400151848151811061184d5761184d614dc4565b60200260200101518660600151858151811061186b5761186b614dc4565b60200260200101518760800151868151811061188957611889614dc4565b60200260200101518787815181106118a3576118a3614dc4565b6020026020010151611cac565b82518051829081106118c4576118c4614dc4565b602002602001015160001480156118f65750826020015181815181106118ec576118ec614dc4565b6020026020010151155b15611979576117e385858560400151848151811061191657611916614dc4565b60200260200101518660600151858151811061193457611934614dc4565b60200260200101518760800151868151811061195257611952614dc4565b602002602001015187878151811061196c5761196c614dc4565b6020026020010151610d61565b825180518290811061198d5761198d614dc4565b602002602001015160011480156119bf5750826020015181815181106119b5576119b5614dc4565b6020026020010151155b15611a4257611a428585856040015184815181106119df576119df614dc4565b6020026020010151866060015185815181106119fd576119fd614dc4565b602002602001015187608001518681518110611a1b57611a1b614dc4565b6020026020010151878781518110611a3557611a35614dc4565b6020026020010151610202565b80611a4c81614df0565b91505061170e565b5050505050565b611a636121b8565b603a805460ff1916911515919091179055565b611a7e6121b8565b60005b82811015611ca457600054620668e511611af75760405162461bcd60e51b815260206004820152603160248201527f5265616c6d46616365743a2043616e6e6f74206d696e74206d6f7265207468616044820152706e203432302c3036392070617263656c7360781b606482015260840161024a565b6000848483818110611b0b57611b0b614dc4565b9050602002013590506000878784818110611b2857611b28614dc4565b9050602002016020810190611b3d91906151e0565b90506000848481518110611b5357611b53614dc4565b6020026020010151905084518787905014611bb05760405162461bcd60e51b815260206004820152601a60248201527f496e70757473206d7573742062652073616d65206c656e677468000000000000604482015260640161024a565b878614611bff5760405162461bcd60e51b815260206004820152601a60248201527f496e70757473206d7573742062652073616d65206c656e677468000000000000604482015260640161024a565b600083815260016020908152604090912082516003820155828201516004820155606083015180519192611c3b9260028501929091019061436f565b5060a082015160068201556040820151600582015560808201518051611c6b91600184019160209091019061436f565b5060c0820151611c829061200783019060046143f3565b50611c8d8385613c92565b505050508080611c9c90614df0565b915050611a81565b505050505050565b603754600160a01b900460ff16611cd55760405162461bcd60e51b815260040161024a90614cb1565b603a5460ff1615611cf85760405162461bcd60e51b815260040161024a90614ce8565b611d078686600361091a611e86565b6040805160208101889052908101869052606081018590526080810184905260a08101839052611d399060c00161094d565b611d555760405162461bcd60e51b815260040161024a90614d6c565b611d6186858585612241565b60375460405163e700cdd760e01b81526001600160a01b039091169063e700cdd790611d959033908a908990600401614da3565b600060405180830381600087803b158015611daf57600080fd5b505af1158015611dc3573d6000803e3d6000fd5b505060065460375460405163e9a8887f60e01b81526001600160a01b039182166004820152602481018990523360448201529116925063e9a8887f9150606401600060405180830381600087803b158015611e1d57600080fd5b505af1158015611e31573d6000803e3d6000fd5b50506040805189815260208101889052908101869052606081018590527ffcb7d72e94eee47cfef784f5d54e1f07cc20dff2f9627de06f1f061428c7c91e9250608001905060405180910390a1505050505050565b600033301415611edd57600080368080601f0160208091040260200160405190810160405280939291908181526020018383808284376000920191909152505050503601516001600160a01b03169150611ee09050565b50335b90565b600080611f3d856040517f19457468657265756d205369676e6564204d6573736167653a0a3332000000006020820152603c8101829052600090605c01604051602081830303815290604052805190602001209050919050565b835160208501209091506001600160a01b0316611f5a8286613ddd565b6001600160a01b03161495945050505050565b600080603781015460405163e042161f60e01b8152600481018790529192506001600160a01b031690600090829063e042161f9060240160006040518083038186803b158015611fbc57600080fd5b505afa158015611fd0573d6000803e3d6000fd5b505050506040513d6000823e601f3d908101601f19168201604052611ff891908101906151fd565b60008881526001850160205260409081902091925087906110078301908890811061202557612025614dc4565b60400201866040811061203a5761203a614dc4565b0154146120825760405162461bcd60e51b8152602060048201526016602482015275131a589499585b1b4e881ddc9bdb99c81d1a5b19525960521b604482015260640161024a565b868161302401876040811061209957612099614dc4565b6040020186604081106120ae576120ae614dc4565b0154146120fd5760405162461bcd60e51b815260206004820152601d60248201527f4c69625265616c6d3a2077726f6e67207374617274506f736974696f6e000000604482015260640161024a565b855b825161210b908861517f565b81101561217e57855b6020840151612123908861517f565b81101561216b5760008361100701836040811061214257612142614dc4565b60400201826040811061215757612157614dc4565b01558061216381614df0565b915050612114565b508061217681614df0565b9150506120ff565b5060008161302401876040811061219757612197614dc4565b6040020186604081106121ac576121ac614dc4565b01555050505050505050565b7fc8fcad8db84d3cc18b4c41d551ea0ee66dd599cde068d998e57d5e09332c131c600401546001600160a01b0316331461223f5760405162461bcd60e51b815260206004820152602260248201527f4c69624469616d6f6e643a204d75737420626520636f6e7472616374206f776e60448201526132b960f11b606482015260840161024a565b565b60008061224c613e5d565b90506000612258613e95565b603784015460405163e042161f60e01b8152600481018990529192506001600160a01b031690600090829063e042161f9060240160006040518083038186803b1580156122a457600080fd5b505afa1580156122b8573d6000803e3d6000fd5b505050506040513d6000823e601f3d908101601f191682016040526122e091908101906151fd565b60008a8152600187016020526040902081516006820154929350909186906005811061230e5761230e614dc4565b602002015161231d9190615146565b88111561236c5760405162461bcd60e51b815260206004820152601b60248201527f4c69625265616c6d3a207820657863656564696e672077696474680000000000604482015260640161024a565b81602001518482600601546005811061238757612387614dc4565b60200201516123969190615146565b8711156123e55760405162461bcd60e51b815260206004820152601c60248201527f4c69625265616c6d3a207920657863656564696e672068656967687400000000604482015260640161024a565b88816130240189604081106123fc576123fc614dc4565b60400201886040811061241157612411614dc4565b0155875b8251612421908a61517f565b81101561250657875b6020840151612439908a61517f565b8110156124f3578261100701826040811061245657612456614dc4565b60400201816040811061246b5761246b614dc4565b0154156124b35760405162461bcd60e51b8152602060048201526016602482015275131a589499585b1b4e88125b9d985b1a59081cdc1bdd60521b604482015260640161024a565b8a836110070183604081106124ca576124ca614dc4565b6040020182604081106124df576124df614dc4565b0155806124eb81614df0565b91505061242a565b50806124fe81614df0565b915050612415565b5050505050505050505050565b600080600b81015460405163109e13c560e21b8152600481018790529192506001600160a01b03169060009082906342784f149060240160006040518083038186803b15801561256257600080fd5b505afa158015612576573d6000803e3d6000fd5b505050506040513d6000823e601f3d908101601f1916820160405261259e9190810190614fad565b60008881526001850160205260409081902091925087906007830190889081106125ca576125ca614dc4565b6040020186604081106125df576125df614dc4565b01541461262e5760405162461bcd60e51b815260206004820152601e60248201527f4c69625265616c6d3a2077726f6e6720696e7374616c6c6174696f6e49640000604482015260640161024a565b868161202401876040811061264557612645614dc4565b60400201866040811061265a5761265a614dc4565b0154146126a95760405162461bcd60e51b815260206004820152601d60248201527f4c69625265616c6d3a2077726f6e67207374617274506f736974696f6e000000604482015260640161024a565b855b82516126ba9060ff168861517f565b81101561272f57855b60208401516126d59060ff168861517f565b81101561271c5760008360070183604081106126f3576126f3614dc4565b60400201826040811061270857612708614dc4565b01558061271481614df0565b9150506126c3565b508061272781614df0565b9150506126ab565b5060008161202401876040811061219757612197614dc4565b600080612753613e5d565b9050600061275f613e95565b600b84015460405163109e13c560e21b8152600481018990529192506001600160a01b03169060009082906342784f149060240160006040518083038186803b1580156127ab57600080fd5b505afa1580156127bf573d6000803e3d6000fd5b505050506040513d6000823e601f3d908101601f191682016040526127e79190810190614fad565b60008a8152600187016020526040902081516006820154929350909160ff9091169086906005811061281b5761281b614dc4565b602002015161282a9190615146565b8811156128795760405162461bcd60e51b815260206004820152601b60248201527f4c69625265616c6d3a207820657863656564696e672077696474680000000000604482015260640161024a565b816020015160ff168482600601546005811061289757612897614dc4565b60200201516128a69190615146565b8711156128f55760405162461bcd60e51b815260206004820152601c60248201527f4c69625265616c6d3a207920657863656564696e672068656967687400000000604482015260640161024a565b888161202401896040811061290c5761290c614dc4565b60400201886040811061292157612921614dc4565b0155875b82516129349060ff168a61517f565b81101561250657875b602084015161294f9060ff168a61517f565b811015612a075782600701826040811061296b5761296b614dc4565b60400201816040811061298057612980614dc4565b0154156129c85760405162461bcd60e51b8152602060048201526016602482015275131a589499585b1b4e88125b9d985b1a59081cdc1bdd60521b604482015260640161024a565b8a8360070183604081106129de576129de614dc4565b6040020182604081106129f3576129f3614dc4565b0155806129ff81614df0565b91505061293d565b5080612a1281614df0565b915050612925565b600080600b81015460405163109e13c560e21b8152600481018690529192506001600160a01b03169060009082906342784f149060240160006040518083038186803b158015612a6957600080fd5b505afa158015612a7d573d6000803e3d6000fd5b505050506040513d6000823e601f3d908101601f19168201604052612aa59190810190614fad565b6040516324a7504960e11b8152306004820152602481018890529091506000906001600160a01b0384169063494ea0929060440160006040518083038186803b158015612af157600080fd5b505afa158015612b05573d6000803e3d6000fd5b505050506040513d6000823e601f3d908101601f19168201604052612b2d91908101906152be565b608083015161018084015191925060ff1690151580612b5157506000836101a00151115b15612b6057612b608882613ecd565b61018083015115612beb5761018083015160008981526001870160205260409020612013018260048110612b9657612b96614dc4565b016000828254612ba69190615146565b90915550506000888152600186016020526040812061402401805461ffff1691612bcf83615373565b91906101000a81548161ffff021916908361ffff160217905550505b604083015161ffff16158015612bff575085155b15612c1a576000888152600186016020526040812061201f01555b826040015161ffff1660031415612c41576000888152600186016020526040812061202201555b6101a083015115612da45760005b6000898152600187016020908152604080832085845261201201909152902054811015612cfb5760008981526001870160209081526040808320858452612012019091529020805489919083908110612caa57612caa614dc4565b90600052602060002001541415612ce95760008981526001870160209081526040808320858452612012019091529020612ce49082613fc6565b612cfb565b80612cf381614df0565b915050612c4f565b5085158015612d385750612d0f888261403b565b6000898152600187016020526040902061201b018260048110612d3457612d34614dc4565b0154115b15612da45760405162461bcd60e51b815260206004820152603660248201527f4c6962416c6368656d6963613a20436c61696d20416c6368656d696361206265604482015275666f7265207265647563696e6720636170616369747960501b606482015260840161024a565b826040015161ffff166008148015612dba575085155b15612f0e576000888152603c86016020526040902060010154600160f81b900460ff16612e385760405162461bcd60e51b815260206004820152602660248201527f4c6962416c6368656d6963613a20426f756e63652047617465206e6f742065716044820152651d5a5c1c195960d21b606482015260840161024a565b6000888152603c860160205260409020600101546001600160401b031615612eed576000888152603c8601602052604090206001015442680100000000000000009091046001600160401b031610612eed5760405162461bcd60e51b815260206004820152603260248201527f4c6962416c6368656d6963613a204f6e676f696e67206576656e742c2063616e6044820152711b9bdd081d5b995c5d5a5c08141bdc9d185b60721b606482015260840161024a565b6000888152603c86016020526040902060010180546001600160f81b031690555b60008360e0015160ff16118015612f42575060e083015160008981526001870160205260409020612020015460ff90911611155b15612f7d578260e0015160ff168560010160008a8152602001908152602001600020612020016000828254612f779190615146565b90915550505b60005b8251811015613240576000838281518110612f9d57612f9d614dc4565b60200260200101516000015190508761322d5760405163109e13c560e21b8152600481018290526000906001600160a01b038816906342784f149060240160006040518083038186803b158015612ff357600080fd5b505afa158015613007573d6000803e3d6000fd5b505050506040513d6000823e601f3d908101601f1916820160405261302f9190810190614fad565b9050806101c0015160008151811061304957613049614dc4565b602090810291909101810151600b8a015460008e815260018c0190935260409283902061201f0154925163109e13c560e21b815291926001600160a01b03909116916342784f14916130a19160040190815260200190565b60006040518083038186803b1580156130b957600080fd5b505afa1580156130cd573d6000803e3d6000fd5b505050506040513d6000823e601f3d908101601f191682016040526130f59190810190614fad565b6060015160ff16101561311a5760405162461bcd60e51b815260040161024a90615391565b6000816101c0015160018151811061313457613134614dc4565b6020026020010151111561322b57806101c0015160018151811061315a5761315a614dc4565b602090810291909101810151600b8a015460008e815260018c019093526040928390206120220154925163109e13c560e21b815291926001600160a01b03909116916342784f14916131b29160040190815260200190565b60006040518083038186803b1580156131ca57600080fd5b505afa1580156131de573d6000803e3d6000fd5b505050506040513d6000823e601f3d908101601f191682016040526132069190810190614fad565b6060015160ff16101561322b5760405162461bcd60e51b815260040161024a906153db565b505b508061323881614df0565b915050612f80565b505050505050505050565b600080600b81015460405163109e13c560e21b8152600481018690529192506000916001600160a01b03909116906342784f149060240160006040518083038186803b15801561329a57600080fd5b505afa1580156132ae573d6000803e3d6000fd5b505050506040513d6000823e601f3d908101601f191682016040526132d69190810190614fad565b90506000816101c001516000815181106132f2576132f2614dc4565b602002602001015190506000826101c0015160018151811061331657613316614dc4565b602090810291909101810151600089815260018701909252604080832061201f0154600b880154915163109e13c560e21b81526004810182905292945092916001600160a01b03909116906342784f149060240160006040518083038186803b15801561338257600080fd5b505afa158015613396573d6000803e3d6000fd5b505050506040513d6000823e601f3d908101601f191682016040526133be9190810190614fad565b6060015160ff16905083156133ed57838110156133ed5760405162461bcd60e51b815260040161024a90615391565b82156134b75760008981526001870160205260408082206120220154600b890154915163109e13c560e21b8152600481018290529092916001600160a01b0316906342784f149060240160006040518083038186803b15801561344f57600080fd5b505afa158015613463573d6000803e3d6000fd5b505050506040513d6000823e601f3d908101601f1916820160405261348b9190810190614fad565b6060015160ff169050848110156134b45760405162461bcd60e51b815260040161024a906153db565b50505b846040015161ffff166001141561354e5760008981526001870160209081526040808320608089015160ff1684526120120190915290205461354e5760405162461bcd60e51b815260206004820152602a60248201527f4c6962416c6368656d6963613a204d757374206571756970207265736572766f6044820152696972206f66207479706560b01b606482015260840161024a565b6000856080015160ff1690506000866101800151118061357357506000866101a00151115b15613582576135828a82613ecd565b610180860151156135d75761018086015160008b815260018901602052604090206120130182600481106135b8576135b8614dc4565b0160008282546135c8919061517f565b909155506135d790508a614150565b6101a0860151156136125760008a81526001808901602090815260408084208585526120120182528320805492830181558352909120018990555b604086015161ffff166136af57878061363d575060008a8152600188016020526040902061201f0154155b6136975760405162461bcd60e51b815260206004820152602560248201527f4c6962416c6368656d6963613a2043616e6e6f742065717569702074776f20616044820152646c7461727360d81b606482015260840161024a565b60008a8152600188016020526040902061201f018990555b60e086015160ff16156136f2578560e0015160ff168760010160008c81526020019081526020016000206120200160008282546136ec919061517f565b90915550505b856040015161ffff166008148015613708575087155b156137b25760008a8152603c88016020526040902060010154600160f81b900460ff161561378b5760405162461bcd60e51b815260206004820152602a60248201527f4c6962416c6368656d6963613a20426f756e6365204761746520616c726561646044820152691e48195c5d5a5c1c195960b21b606482015260840161024a565b60008a8152603c88016020526040902060010180546001600160f81b0316600160f81b1790555b50505050505050505050565b6006546000858152603860209081526040808320868452825280832054888452600190925282205491926001600160a01b0390811692168161383057806001600160a01b0316856001600160a01b03161461382b5760405162461bcd60e51b815260040161024a90615425565b613b38565b8160011415613a2e57604051636b98ea2760e11b815263ffffffff881660048201526001600160a01b0384169063d731d44e9060240160206040518083038186803b15801561387e57600080fd5b505afa158015613892573d6000803e3d6000fd5b505050506040513d601f19601f820116820180604052508101906138b69190615197565b156139fd5760405163044f7d5960e21b815263ffffffff881660048201526000906001600160a01b0385169063113df5649060240160006040518083038186803b15801561390357600080fd5b505afa158015613917573d6000803e3d6000fd5b505050506040513d6000823e601f3d908101601f1916820160405261393f919081019061557c565b9050816001600160a01b0316866001600160a01b03161480613996575080604001516001600160a01b0316866001600160a01b03161480156139965750816001600160a01b031681600001516001600160a01b0316145b6139f75760405162461bcd60e51b815260206004820152602c60248201527f4c69625265616c6d3a20416363657373205269676874202d204f6e6c79204f7760448201526b3732b917a137b93937bbb2b960a11b606482015260840161024a565b50613b38565b806001600160a01b0316856001600160a01b03161461382b5760405162461bcd60e51b815260040161024a90615425565b8160021415613b38576000888152603d850160209081526040808320898452909152808220549051631ccfd32160e31b815263ffffffff90911660048201526001600160a01b03878116602483015285169063e67e99089060440160206040518083038186803b158015613aa157600080fd5b505afa158015613ab5573d6000803e3d6000fd5b505050506040513d601f19601f82011682018060405250810190613ad9919061512d565b1161382b5760405162461bcd60e51b815260206004820152602960248201527f4c69625265616c6d3a20416363657373205269676874202d204f6e6c792057686044820152681a5d195b1a5cdd195960ba1b606482015260840161024a565b5050505050505050565b60008080600b810154604051630c9e969360e01b8152600481018990529192506001600160a01b0316906000908290630c9e96939060240160006040518083038186803b158015613b9257600080fd5b505afa158015613ba6573d6000803e3d6000fd5b505050506040513d6000823e601f3d908101601f19168201604052613bce91908101906156e5565b50905060005b8151811015613c815787828281518110613bf057613bf0614dc4565b602002602001015160c00151148015613c2d57508661ffff16828281518110613c1b57613c1b614dc4565b60200260200101516020015161ffff16145b8015613c5d57508561ffff16828281518110613c4b57613c4b614dc4565b60200260200101516040015161ffff16145b15613c6f576001945050505050613c8a565b80613c7981614df0565b915050613bd4565b50600093505050505b949350505050565b6000818152600160205260408120546001600160a01b031615613d015760405162461bcd60e51b815260206004820152602160248201527f4c69624552433732313a20746f6b656e496420616c7265616479206d696e74656044820152601960fa1b606482015260840161024a565b600082815260018281016020908152604080842080546001600160a01b0319166001600160a01b03891690811790915585548085018755868652838620018790558085526003860180845282862080546002890186528488208a895286528488208190559185529481018555938552918420909201859055905184927f1661e9eb70c35142fbb4190fa06d962636cf9ccd88dd913f90c08bcbf0d43e9191a360405182906001600160a01b038516906000907fddf252ad1be2c89b69c2b068fc378daa952ba7f163c4a11628f55a4df523b3ef908290a4505050565b600080600080613dec85614211565b6040805160008152602081018083528b905260ff8316918101919091526060810184905260808101839052929550909350915060019060a0016020604051602081039080840390855afa158015613e47573d6000803e3d6000fd5b5050506020604051035193505050505b92915050565b613e65614420565b506040805160a0810182526008815260106020808301919091528183015260608101829052608081019190915290565b613e9d614420565b506040805160a0810182526008815260106020808301919091528183018390526060820152608081019190915290565b600080613eda848461403b565b90506000613ee88585614285565b90508015613f9657600085815260018401602052604090208290829061201b018660048110613f1957613f19614dc4565b0154613f25919061517f565b1115613f595760008581526001840160205260409020829061201b018560048110613f5257613f52614dc4565b0155613f96565b60008581526001840160205260409020819061201b018560048110613f8057613f80614dc4565b016000828254613f90919061517f565b90915550505b600085815260018401602052604090204290612017018560048110613fbd57613fbd614dc4565b01555050505050565b81548290613fd690600190615146565b81548110613fe657613fe6614dc4565b906000526020600020015482828154811061400357614003614dc4565b9060005260206000200181905550818054806140215761402161581c565b600190038181906000526020600020016000905590555050565b60008060005b600085815260018301602090815260408083208784526120120190915290205481101561414857600b8201546000868152600184016020908152604080832088845261201201909152902080546001600160a01b039092169163d36062499190849081106140b1576140b1614dc4565b90600052602060002001546040518263ffffffff1660e01b81526004016140da91815260200190565b60206040518083038186803b1580156140f257600080fd5b505afa158015614106573d6000803e3d6000fd5b505050506040513d601f19601f8201168201806040525081019061412a919061512d565b614134908461517f565b92508061414081614df0565b915050614041565b505092915050565b6000818152600160205260408120600681015461402490910154614178919061ffff16614301565b6141ce5760405162461bcd60e51b815260206004820152602160248201527f4c6962416c6368656d6963613a20546f6f206d616e79206861727665737465726044820152607360f81b606482015260840161024a565b6000828152600182016020526040812061402401805461ffff16916141f283615832565b91906101000a81548161ffff021916908361ffff160217905550505050565b600080600083516041146142675760405162461bcd60e51b815260206004820152601860248201527f496e76616c6964207369676e6174757265206c656e6774680000000000000000604482015260640161024a565b50505060208101516040820151606090920151909260009190911a90565b60008281526001602052604081208190819062015180906120170185600481106142b1576142b1614dc4565b01546142bd9042615146565b600087815260018501602052604090206120130186600481106142e2576142e2614dc4565b01546142ee9190615854565b6142f8919061515d565b95945050505050565b6000826143165750600461ffff821610613e57565b826001141561432d5750601061ffff821610613e57565b826002148061433c5750826003145b1561434f5750608061ffff821610613e57565b8260041415614367575061010061ffff821610613e57565b506000613e57565b82805461437b90614d31565b90600052602060002090601f01602090048101928261439d57600085556143e3565b82601f106143b657805160ff19168380011785556143e3565b828001600101855582156143e3579182015b828111156143e35782518255916020019190600101906143c8565b506143ef92915061443e565b5090565b82600481019282156143e357916020028201828111156143e35782518255916020019190600101906143c8565b6040518060a001604052806005906020820280368337509192915050565b5b808211156143ef576000815560010161443f565b634e487b7160e01b600052604160045260246000fd5b60405160a081016001600160401b038111828210171561448b5761448b614453565b60405290565b60405160e081016001600160401b038111828210171561448b5761448b614453565b60405161020081016001600160401b038111828210171561448b5761448b614453565b604080519081016001600160401b038111828210171561448b5761448b614453565b604051608081016001600160401b038111828210171561448b5761448b614453565b604051601f8201601f191681016001600160401b038111828210171561454257614542614453565b604052919050565b60006001600160401b0382111561456357614563614453565b50601f01601f191660200190565b600082601f83011261458257600080fd5b81356145956145908261454a565b61451a565b8181528460208386010111156145aa57600080fd5b816020850160208301376000918101602001919091529392505050565b60008060008060008060c087890312156145e057600080fd5b863595506020870135945060408701359350606087013592506080870135915060a08701356001600160401b0381111561461957600080fd5b61462589828a01614571565b9150509295509295509295565b60006001600160401b0382111561464b5761464b614453565b5060051b60200190565b600082601f83011261466657600080fd5b8135602061467661459083614632565b82815260059290921b8401810191818101908684111561469557600080fd5b8286015b848110156146b05780358352918301918301614699565b509695505050505050565b80151581146146c957600080fd5b50565b600080600080600060a086880312156146e457600080fd5b853594506020860135935060408601356001600160401b038082111561470957600080fd5b61471589838a01614655565b9450606088013591508082111561472b57600080fd5b5061473888828901614655565b9250506080860135614749816146bb565b809150509295509295909350565b60008060008060008060c0878903121561477057600080fd5b505084359660208601359650604086013595606081013595506080810135945060a0013592509050565b600080600080600060a086880312156147b257600080fd5b505083359560208501359550604085013594606081013594506080013592509050565b6000602082840312156147e757600080fd5b5035919050565b600082601f8301126147ff57600080fd5b8135602061480f61459083614632565b82815260059290921b8401810191818101908684111561482e57600080fd5b8286015b848110156146b0578035614845816146bb565b8352918301918301614832565b600082601f83011261486357600080fd5b8135602061487361459083614632565b82815260059290921b8401810191818101908684111561489257600080fd5b8286015b848110156146b05780356001600160401b038111156148b55760008081fd5b6148c38986838b0101614571565b845250918301918301614896565b600080600080608085870312156148e757600080fd5b843593506020850135925060408501356001600160401b038082111561490c57600080fd5b9086019060a0828903121561492057600080fd5b614928614469565b82358281111561493757600080fd5b6149438a828601614655565b82525060208301358281111561495857600080fd5b6149648a8286016147ee565b60208301525060408301358281111561497c57600080fd5b6149888a828601614655565b6040830152506060830135828111156149a057600080fd5b6149ac8a828601614655565b6060830152506080830135828111156149c457600080fd5b6149d08a828601614655565b608083015250935060608701359150808211156149ec57600080fd5b506149f987828801614852565b91505092959194509250565b600060208284031215614a1757600080fd5b8135614a22816146bb565b9392505050565b60008083601f840112614a3b57600080fd5b5081356001600160401b03811115614a5257600080fd5b6020830191508360208260051b8501011115614a6d57600080fd5b9250929050565b600082601f830112614a8557600080fd5b614a8d6144f8565b806080840185811115614a9f57600080fd5b845b81811015614ab9578035845260209384019301614aa1565b509095945050505050565b600080600080600060608688031215614adc57600080fd5b6001600160401b038087351115614af257600080fd5b614aff8888358901614a29565b90965094506020870135811015614b1557600080fd5b614b258860208901358901614a29565b90945092506040870135811015614b3b57600080fd5b6040870135870188601f820112614b5157600080fd5b614b5e6145908235614632565b81358082526020808301929160051b8401018b1015614b7c57600080fd5b602083015b6020843560051b850101811015614c59578481351115614ba057600080fd5b80358401610140818e03601f19011215614bb957600080fd5b614bc1614491565b6020820135815260408201356020820152606082013560408201528660808301351115614bed57600080fd5b614c008e60206080850135850101614571565b60608201528660a08301351115614c1657600080fd5b614c298e602060a0850135850101614571565b608082015260c082013560a0820152614c458e60e08401614a74565b60c082015284525060209283019201614b81565b50809450505050509295509295909350565b60208082526026908201527f41707053746f726167653a204f6e6c792050617263656c206f776e65722063616040820152651b8818d85b1b60d21b606082015260800190565b6020808252601b908201527f41707053746f726167653a2067616d65206e6f74206163746976650000000000604082015260600190565b60208082526029908201527f41707053746f726167653a204275696c64696e672074656d706f726172696c7960408201526808191a5cd8589b195960ba1b606082015260800190565b600181811c90821680614d4557607f821691505b60208210811415614d6657634e487b7160e01b600052602260045260246000fd5b50919050565b6020808252601d908201527f5265616c6d46616365743a20496e76616c6964207369676e6174757265000000604082015260600190565b6001600160a01b039390931683526020830191909152604082015260600190565b634e487b7160e01b600052603260045260246000fd5b634e487b7160e01b600052601160045260246000fd5b6000600019821415614e0457614e04614dda565b5060010190565b6020808252602e908201527f41707053746f726167653a204f6e6c7920496e7374616c6c6174696f6e20646960408201526d185b5bdb990818d85b8818d85b1b60921b606082015260800190565b805160ff81168114614e6a57600080fd5b919050565b805161ffff81168114614e6a57600080fd5b805163ffffffff81168114614e6a57600080fd5b8051614e6a816146bb565b600082601f830112614eb157600080fd5b614eb96144f8565b806080840185811115614ecb57600080fd5b845b81811015614ab9578051845260209384019301614ecd565b600082601f830112614ef657600080fd5b81516020614f0661459083614632565b82815260059290921b84018101918181019086841115614f2557600080fd5b8286015b848110156146b05780518352918301918301614f29565b600082601f830112614f5157600080fd5b8151614f5f6145908261454a565b81815260208581848701011115614f7557600080fd5b60005b83811015614f93578581018201518382018301528101614f78565b83811115614ab95750600092820101919091529392505050565b600060208284031215614fbf57600080fd5b81516001600160401b0380821115614fd657600080fd5b908301906102608286031215614feb57600080fd5b614ff36144b3565b614ffc83614e59565b815261500a60208401614e59565b602082015261501b60408401614e6f565b604082015261502c60608401614e59565b606082015261503d60808401614e59565b608082015261504e60a08401614e81565b60a082015261505f60c08401614e6f565b60c082015261507060e08401614e59565b60e0820152610100615083818501614e81565b90820152610120615095848201614e81565b908201526101406150a7848201614e95565b908201526101606150ba87858301614ea0565b908201526101e0838101516101808301526102008401516101a0830152610220840151838111156150ea57600080fd5b6150f688828701614ee5565b6101c0840152506102408401518381111561511057600080fd5b61511c88828701614f40565b918301919091525095945050505050565b60006020828403121561513f57600080fd5b5051919050565b60008282101561515857615158614dda565b500390565b60008261517a57634e487b7160e01b600052601260045260246000fd5b500490565b6000821982111561519257615192614dda565b500190565b6000602082840312156151a957600080fd5b8151614a22816146bb565b6000816151c3576151c3614dda565b506000190190565b6001600160a01b03811681146146c957600080fd5b6000602082840312156151f257600080fd5b8135614a22816151cb565b60006020828403121561520f57600080fd5b81516001600160401b038082111561522657600080fd5b90830190610140828603121561523b57600080fd5b615243614491565b825181526020830151602082015261525d60408401614e95565b604082015261526e60608401614e6f565b60608201526152808660808501614ea0565b608082015261010083015160a0820152610120830151828111156152a357600080fd5b6152af87828601614f40565b60c08301525095945050505050565b600060208083850312156152d157600080fd5b82516001600160401b038111156152e757600080fd5b8301601f810185136152f857600080fd5b805161530661459082614632565b81815260069190911b8201830190838101908783111561532557600080fd5b928401925b8284101561536857604084890312156153435760008081fd5b61534b6144d6565b84518152858501518682015282526040909301929084019061532a565b979650505050505050565b600061ffff82168061538757615387614dda565b6000190192915050565b6020808252602a908201527f4c6962416c6368656d6963613a20416c746172205465636820547265652052656040820152691c5cc81b9bdd081b595d60b21b606082015260800190565b6020808252602a908201527f4c6962416c6368656d6963613a204c6f646765205465636820547265652052656040820152691c5cc81b9bdd081b595d60b21b606082015260800190565b60208082526023908201527f4c69625265616c6d3a20416363657373205269676874202d204f6e6c79204f776040820152623732b960e91b606082015260800190565b8051614e6a816151cb565b80516bffffffffffffffffffffffff81168114614e6a57600080fd5b805164ffffffffff81168114614e6a57600080fd5b600082601f8301126154b557600080fd5b604051606081018181106001600160401b03821117156154d7576154d7614453565b6040528060608401858111156154ec57600080fd5b845b8181101561550d576154ff81614e59565b8352602092830192016154ee565b509195945050505050565b600082601f83011261552957600080fd5b8151602061553961459083614632565b82815260059290921b8401810191818101908684111561555857600080fd5b8286015b848110156146b057805161556f816151cb565b835291830191830161555c565b60006020828403121561558e57600080fd5b81516001600160401b03808211156155a557600080fd5b9083019061024082860312156155ba57600080fd5b6155c26144b3565b6155cb83615468565b81526155d960208401615473565b60208201526155ea60408401615468565b60408201526155fb60608401614e81565b606082015261560c60808401614e81565b608082015261561d60a08401614e81565b60a082015261562e60c08401615468565b60c082015261563f60e0840161548f565b60e082015261010061565281850161548f565b90820152610120615664848201614e95565b90820152610140615676848201614e95565b90820152610160615688848201615468565b9082015261018061569b878583016154a4565b908201526101e06156ad84820161548f565b6101a08301526156c06102008501614e81565b6101c0830152610220840151838111156156d957600080fd5b61511c88828701615518565b60008060408084860312156156f957600080fd5b83516001600160401b038082111561571057600080fd5b818601915086601f83011261572457600080fd5b8151602061573461459083614632565b82815260e0928302850182019282820191908b85111561575357600080fd5b958301955b848710156157ea5780878d0312156157705760008081fd5b615778614491565b8751615783816151cb565b8152615790888601614e6f565b8582015261579f898901614e6f565b8982015260606157b0818a0161548f565b908201526080888101516157c3816146bb565b9082015260a0888101519082015260c0808901519082015283529586019591830191615758565b509189015191975090945050508083111561580457600080fd5b505061581285828601614ee5565b9150509250929050565b634e487b7160e01b600052603160045260246000fd5b600061ffff8083168181141561584a5761584a614dda565b6001019392505050565b600081600019048311821515161561586e5761586e614dda565b50029056fea2646970667358221220f8e1379b82db59924d898d7f518d2c06e22488d5379786e9472c661e41dcf1b964736f6c63430008090033",
  "linkReferences": {},
  "deployedLinkReferences": {}
}