{
  "_format": "hh-sol-artifact-1",
  "contractName": "VRFFacet",
  "sourceName": "contracts/RealmDiamond/facets/VRFFacet.sol",
  "abi": [
    {
      "inputs": [
        {
          "internalType": "uint256",
          "name": "requestId",
          "type": "uint256"
        },
        {
          "internalType": "uint256[]",
          "name": "randomWords",
          "type": "uint256[]"
        }
      ],
      "name": "rawFulfillRandomWords",
      "outputs": [],
      "stateMutability": "nonpayable",
      "type": "function"
    },
    {
      "inputs": [
        {
          "components": [
            {
              "internalType": "uint64",
              "name": "subId",
              "type": "uint64"
            },
            {
              "internalType": "uint32",
              "name": "callbackGasLimit",
              "type": "uint32"
            },
            {
              "internalType": "uint16",
              "name": "requestConfirmations",
              "type": "uint16"
            },
            {
              "internalType": "uint32",
              "name": "numWords",
              "type": "uint32"
            },
            {
              "internalType": "bytes32",
              "name": "keyHash",
              "type": "bytes32"
            }
          ],
          "internalType": "struct RequestConfig",
          "name": "_requestConfig",
          "type": "tuple"
        },
        {
          "internalType": "address",
          "name": "_vrfCoordinator",
          "type": "address"
        }
      ],
      "name": "setConfig",
      "outputs": [],
      "stateMutability": "nonpayable",
      "type": "function"
    },
    {
      "inputs": [],
      "name": "subscribe",
      "outputs": [],
      "stateMutability": "nonpayable",
      "type": "function"
    },
    {
      "inputs": [
        {
          "internalType": "uint256",
          "name": "amount",
          "type": "uint256"
        }
      ],
      "name": "topUpSubscription",
      "outputs": [],
      "stateMutability": "nonpayable",
      "type": "function"
    }
  ],
  "bytecode": "0x608060405234801561001057600080fd5b50610ef2806100206000396000f3fe608060405234801561001057600080fd5b506004361061004c5760003560e01c80631fe543e31461005157806386850e93146100665780638f449a0514610079578063af746e0814610081575b600080fd5b61006461005f366004610a46565b610094565b005b610064610074366004610b10565b610130565b6100646101e8565b61006461008f366004610b29565b610375565b6029546001600160a01b03166100a86104a4565b6001600160a01b0316146101035760405162461bcd60e51b815260206004820152601f60248201527f4f6e6c7920565246436f6f7264696e61746f722063616e2066756c66696c6c0060448201526064015b60405180910390fd5b6000828152602d6020908152604080832054602e9092529091205461012b9082908490610501565b505050565b602a54602954602b546040805167ffffffffffffffff90921660208301526001600160a01b0393841693634000aea09316918591016040516020818303038152906040526040518463ffffffff1660e01b815260040161019293929190610b74565b602060405180830381600087803b1580156101ac57600080fd5b505af11580156101c0573d6000803e3d6000fd5b505050506040513d601f19601f820116820180604052508101906101e49190610be0565b5050565b6101f0610769565b60408051600180825281830190925260009160208083019080368337019050509050308160008151811061022657610226610c02565b6001600160a01b039283166020918202929092018101919091526029546040805163288688f960e21b81529051919093169263a21a23e49260048083019391928290030181600087803b15801561027c57600080fd5b505af1158015610290573d6000803e3d6000fd5b505050506040513d601f19601f820116820180604052508101906102b49190610c31565b602b805467ffffffffffffffff191667ffffffffffffffff92909216918217905560295482516001600160a01b0390911691637341c10c9184906000906102fd576102fd610c02565b60200260200101516040518363ffffffff1660e01b815260040161034092919067ffffffffffffffff9290921682526001600160a01b0316602082015260400190565b600060405180830381600087803b15801561035a57600080fd5b505af115801561036e573d6000803e3d6000fd5b5050505050565b61037d610769565b602980546001600160a01b0319166001600160a01b0383161790556040805160a08101909152806103b16020850185610c4e565b67ffffffffffffffff1681526020018360200160208101906103d39190610c6b565b63ffffffff1681526020016103ee6060850160408601610c91565b61ffff1681526020016104076080850160608601610c6b565b63ffffffff90811682526080948501356020928301528251602b8054938501516040860151606087015167ffffffffffffffff9094166bffffffffffffffffffffffff199096169590951768010000000000000000918516919091021765ffffffffffff60601b1916600160601b61ffff9095169490940263ffffffff60701b191693909317600160701b919092160217905590910151602c5550565b6000333014156104fb57600080368080601f0160208091040260200160405190810160405280939291908181526020018383808284376000920191909152505050503601516001600160a01b031691506104fe9050565b50335b90565b600083815260016020526040812061200f018054908261052083610ccb565b90915550506000848152600182016020908152604080832061202301805460ff191690558051600480825260a08201909252918201608080368337505060408051600480825260a0820190925292935060009291506020820160808036833701905050905060005b60048110156106c957600061059e8888846107f2565b9050600086156105ce5760096105b5600484610cfc565b6105bf9084610d10565b6105c99190610cfc565b6105d9565b6105d9600483610cfc565b905060008660210184600481106105f2576105f2610c02565b015460008b8152600189016020526040902061200701856004811061061957610619610c02565b01546106259190610d27565b90506106318183610d46565b60008b8152600189016020526040902061200b01856004811061065657610656610c02565b0160008282546106669190610d46565b925050819055508185858151811061068057610680610c02565b60209081029190910101526106958183610d46565b8685815181106106a7576106a7610c02565b60200260200101818152505050505080806106c190610ccb565b915050610588565b506000868152600184016020908152604080832087845261201101825290912083516106f7928501906109d0565b50600086815260018401602090815260408083208784526120100182529091208251610725928401906109d0565b507f61fb670cb10c64243fb8a09b3d1e22cd37c9c6e40b5e1c77f786c2312b76635686858460405161075993929190610d5e565b60405180910390a1505050505050565b7fc8fcad8db84d3cc18b4c41d551ea0ee66dd599cde068d998e57d5e09332c131c600401546001600160a01b031633146107f05760405162461bcd60e51b815260206004820152602260248201527f4c69624469616d6f6e643a204d75737420626520636f6e7472616374206f776e60448201526132b960f11b60648201526084016100fa565b565b60008061085b84848151811061080a5761080a610c02565b602002602001015182600d01836001016000898152602001908152602001600020600601546005811061083f5761083f610c02565b60040201856004811061085457610854610c02565b0154610864565b95945050505050565b60006305f5e1008261088885601e6004600d6303938700630459e4406136b06108a3565b6108929190610d27565b61089c9190610cfc565b9392505050565b6000806108b1898989610913565b90506108bd8689610d10565b8111156108d1576108ce8689610d10565b90505b846108de6127108a610d27565b6108e88386610994565b6108f29087610d27565b6108fc9190610cfc565b6109069190610d46565b9998505050505050505050565b600083815b8481101561098b5761092a8483610db3565b610935578260010192505b610940600485610ead565b61094a8584610cfc565b92508210156109835760408051602081018890529081018290526060016040516020818303038152906040528051906020012060001c91505b600101610918565b50509392505050565b61271060005b838110156109c3576127106109af8484610d27565b6109b99190610cfc565b915060010161099a565b5061089c61271082610d10565b828054828255906000526020600020908101928215610a0b579160200282015b82811115610a0b5782518255916020019190600101906109f0565b50610a17929150610a1b565b5090565b5b80821115610a175760008155600101610a1c565b634e487b7160e01b600052604160045260246000fd5b60008060408385031215610a5957600080fd5b8235915060208084013567ffffffffffffffff80821115610a7957600080fd5b818601915086601f830112610a8d57600080fd5b813581811115610a9f57610a9f610a30565b8060051b604051601f19603f83011681018181108582111715610ac457610ac4610a30565b604052918252848201925083810185019189831115610ae257600080fd5b938501935b82851015610b0057843584529385019392850192610ae7565b8096505050505050509250929050565b600060208284031215610b2257600080fd5b5035919050565b60008082840360c0811215610b3d57600080fd5b60a0811215610b4b57600080fd5b5082915060a08201356001600160a01b0381168114610b6957600080fd5b809150509250929050565b60018060a01b038416815260006020848184015260606040840152835180606085015260005b81811015610bb657858101830151858201608001528201610b9a565b81811115610bc8576000608083870101525b50601f01601f19169290920160800195945050505050565b600060208284031215610bf257600080fd5b8151801515811461089c57600080fd5b634e487b7160e01b600052603260045260246000fd5b67ffffffffffffffff81168114610c2e57600080fd5b50565b600060208284031215610c4357600080fd5b815161089c81610c18565b600060208284031215610c6057600080fd5b813561089c81610c18565b600060208284031215610c7d57600080fd5b813563ffffffff8116811461089c57600080fd5b600060208284031215610ca357600080fd5b813561ffff8116811461089c57600080fd5b634e487b7160e01b600052601160045260246000fd5b6000600019821415610cdf57610cdf610cb5565b5060010190565b634e487b7160e01b600052601260045260246000fd5b600082610d0b57610d0b610ce6565b500490565b600082821015610d2257610d22610cb5565b500390565b6000816000190483118215151615610d4157610d41610cb5565b500290565b60008219821115610d5957610d59610cb5565b500190565b6000606082018583526020858185015260606040850152818551808452608086019150828701935060005b81811015610da557845183529383019391830191600101610d89565b509098975050505050505050565b600082610dc257610dc2610ce6565b500690565b600181815b80851115610e02578160001904821115610de857610de8610cb5565b80851615610df557918102915b93841c9390800290610dcc565b509250929050565b600082610e1957506001610ea7565b81610e2657506000610ea7565b8160018114610e3c5760028114610e4657610e62565b6001915050610ea7565b60ff841115610e5757610e57610cb5565b50506001821b610ea7565b5060208310610133831016604e8410600b8410161715610e85575081810a610ea7565b610e8f8383610dc7565b8060001904821115610ea357610ea3610cb5565b0290505b92915050565b600061089c60ff841683610e0a56fea264697066735822122043fd296207773d56e4a762829e645ac0c12a49fc58becdf8c71160a6f1f129c664736f6c63430008090033",
  "linkReferences": {},
  "deployedLinkReferences": {}
}