{
  "_format": "hh-sol-artifact-1",
  "contractName": "WearablesFacet",
  "sourceName": "contracts/Aavegotchi/WearableDiamond/facets/WearablesFacet.sol",
  "abi": [
    {
      "inputs": [
        {
          "internalType": "address",
          "name": "_owner",
          "type": "address"
        },
        {
          "internalType": "uint256",
          "name": "_id",
          "type": "uint256"
        }
      ],
      "name": "balanceOf",
      "outputs": [
        {
          "internalType": "uint256",
          "name": "balance_",
          "type": "uint256"
        }
      ],
      "stateMutability": "view",
      "type": "function"
    },
    {
      "inputs": [
        {
          "internalType": "address[]",
          "name": "_owners",
          "type": "address[]"
        },
        {
          "internalType": "uint256[]",
          "name": "_ids",
          "type": "uint256[]"
        }
      ],
      "name": "balanceOfBatch",
      "outputs": [
        {
          "internalType": "uint256[]",
          "name": "bals",
          "type": "uint256[]"
        }
      ],
      "stateMutability": "view",
      "type": "function"
    },
    {
      "inputs": [
        {
          "internalType": "address",
          "name": "_owner",
          "type": "address"
        },
        {
          "internalType": "address",
          "name": "_operator",
          "type": "address"
        }
      ],
      "name": "isApprovedForAll",
      "outputs": [
        {
          "internalType": "bool",
          "name": "approved_",
          "type": "bool"
        }
      ],
      "stateMutability": "view",
      "type": "function"
    },
    {
      "inputs": [
        {
          "internalType": "address",
          "name": "_from",
          "type": "address"
        },
        {
          "internalType": "address",
          "name": "_to",
          "type": "address"
        },
        {
          "internalType": "uint256[]",
          "name": "_ids",
          "type": "uint256[]"
        },
        {
          "internalType": "uint256[]",
          "name": "_values",
          "type": "uint256[]"
        },
        {
          "internalType": "bytes",
          "name": "_data",
          "type": "bytes"
        }
      ],
      "name": "safeBatchTransferFrom",
      "outputs": [],
      "stateMutability": "nonpayable",
      "type": "function"
    },
    {
      "inputs": [
        {
          "internalType": "address",
          "name": "_from",
          "type": "address"
        },
        {
          "internalType": "address",
          "name": "_to",
          "type": "address"
        },
        {
          "internalType": "uint256",
          "name": "_id",
          "type": "uint256"
        },
        {
          "internalType": "uint256",
          "name": "_value",
          "type": "uint256"
        },
        {
          "internalType": "bytes",
          "name": "_data",
          "type": "bytes"
        }
      ],
      "name": "safeTransferFrom",
      "outputs": [],
      "stateMutability": "nonpayable",
      "type": "function"
    },
    {
      "inputs": [
        {
          "internalType": "address",
          "name": "_operator",
          "type": "address"
        },
        {
          "internalType": "bool",
          "name": "_approved",
          "type": "bool"
        }
      ],
      "name": "setApprovalForAll",
      "outputs": [],
      "stateMutability": "nonpayable",
      "type": "function"
    },
    {
      "inputs": [
        {
          "internalType": "string",
          "name": "_value",
          "type": "string"
        }
      ],
      "name": "setBaseURI",
      "outputs": [],
      "stateMutability": "nonpayable",
      "type": "function"
    },
    {
      "inputs": [
        {
          "internalType": "uint256",
          "name": "_tokenId",
          "type": "uint256"
        }
      ],
      "name": "tokenURI",
      "outputs": [
        {
          "internalType": "string",
          "name": "",
          "type": "string"
        }
      ],
      "stateMutability": "pure",
      "type": "function"
    },
    {
      "inputs": [
        {
          "internalType": "uint256",
          "name": "_id",
          "type": "uint256"
        }
      ],
      "name": "uri",
      "outputs": [
        {
          "internalType": "string",
          "name": "",
          "type": "string"
        }
      ],
      "stateMutability": "view",
      "type": "function"
    }
  ],
  "bytecode": "0x608060405234801561001057600080fd5b50611284806100206000396000f3fe608060405234801561001057600080fd5b50600436106100925760003560e01c806355f804b31161006657806355f804b314610115578063a22cb46514610128578063c87b56dd1461013b578063e985e9c51461014e578063f242432a1461016e57610092565b8062fdd58e146100975780630e89341c146100c05780632eb2c2d6146100e05780634e1273f4146100f5575b600080fd5b6100aa6100a5366004610bdc565b610181565b6040516100b79190611160565b60405180910390f35b6100d36100ce366004610e14565b61020e565b6040516100b791906110eb565b6100f36100ee366004610a79565b61029f565b005b610108610103366004610c05565b61032d565b6040516100b7919061109c565b6100f3610123366004610d31565b6103c5565b6100f3610136366004610ba6565b61048b565b6100d3610149366004610e14565b610503565b61016161015c366004610a47565b610538565b6040516100b791906110e0565b6100f361017c366004610b30565b6105bf565b600061018b610645565b6001600160a01b031662fdd58e84846040518363ffffffff1660e01b81526004016101b7929190610ff0565b60206040518083038186803b1580156101cf57600080fd5b505afa1580156101e3573d6000803e3d6000fd5b505050506040513d601f19601f820116820180604052508101906102079190610e2c565b9392505050565b6060610218610645565b6001600160a01b0316630e89341c836040518263ffffffff1660e01b81526004016102439190611160565b60006040518083038186803b15801561025b57600080fd5b505afa15801561026f573d6000803e3d6000fd5b505050506040513d6000823e601f3d908101601f191682016040526102979190810190610daa565b90505b919050565b6102a7610645565b6001600160a01b03166328a6ddc7338a8a8a8a8a8a8a8a6040518a63ffffffff1660e01b81526004016102e299989796959493929190610f10565b600060405180830381600087803b1580156102fc57600080fd5b505af1158015610310573d6000803e3d6000fd5b505050506103233389898989898961065d565b5050505050505050565b6060610337610645565b6001600160a01b0316634e1273f4868686866040518563ffffffff1660e01b81526004016103689493929190611009565b60006040518083038186803b15801561038057600080fd5b505afa158015610394573d6000803e3d6000fd5b505050506040513d6000823e601f3d908101601f191682016040526103bc9190810190610c6e565b95945050505050565b6103cd6106c1565b60006103d7610645565b6001600160a01b03166392d5716f836040518263ffffffff1660e01b815260040161040291906110eb565b602060405180830381600087803b15801561041c57600080fd5b505af1158015610430573d6000803e3d6000fd5b505050506040513d601f19601f820116820180604052508101906104549190610e2c565b905060005b818110156104865761047461046e848361070f565b8261083c565b8061047e81611200565b915050610459565b505050565b610493610645565b6001600160a01b031663d0cd350f8383336040518463ffffffff1660e01b81526004016104c293929190610fcd565b600060405180830381600087803b1580156104dc57600080fd5b505af11580156104f0573d6000803e3d6000fd5b505050506104ff338383610878565b5050565b606061050d610645565b6001600160a01b031663c87b56dd836040518263ffffffff1660e01b81526004016102439190611160565b6000610542610645565b6001600160a01b031663e985e9c584846040518363ffffffff1660e01b815260040161056f929190610ef6565b60206040518083038186803b15801561058757600080fd5b505afa15801561059b573d6000803e3d6000fd5b505050506040513d601f19601f820116820180604052508101906102079190610d15565b6105c7610645565b6001600160a01b031663474f32f7338888888888886040518863ffffffff1660e01b81526004016105fe9796959493929190610f7d565b600060405180830381600087803b15801561061857600080fd5b505af115801561062c573d6000803e3d6000fd5b5050505061063d33878787876108c8565b505050505050565b7386935f11c86623dec8a25696e1c19a8659cbf95d90565b846001600160a01b0316866001600160a01b0316886001600160a01b03167f4a39dc06d4c0dbc64b70af90fd698a233a518aa5d07e595d983b8c0526c8f7fb878787876040516106b0949392919061106a565b60405180910390a450505050505050565b6106c9610926565b600401546001600160a01b03166106de61094a565b6001600160a01b03161461070d5760405162461bcd60e51b81526004016107049061111e565b60405180910390fd5b565b6060808261073f57836040516020016107289190610ed1565b604051602081830303815290604052915050610836565b8260005b811561075757600101600a82049150610743565b8067ffffffffffffffff81111561077e57634e487b7160e01b600052604160045260246000fd5b6040519080825280601f01601f1916602001820160405280156107a8576020820181803683370190505b50925084915060001981015b821561080d57600a830660300160f81b848280600190039350815181106107eb57634e487b7160e01b600052603260045260246000fd5b60200101906001600160f81b031916908160001a905350600a830492506107b4565b5050508381604051602001610823929190610ea2565b6040516020818303038152906040529150505b92915050565b807f6bb7ff708619ba0610cba295a58592e0451dee2622938c8755667688daf3529b8360405161086c91906110eb565b60405180910390a25050565b816001600160a01b0316836001600160a01b03167f17307eab39ab6107e8899845ad3d59bd9653f200f220920489ca2b5937696c31836040516108bb91906110e0565b60405180910390a3505050565b826001600160a01b0316846001600160a01b0316866001600160a01b03167fc3d58168c5ae7397731d063d5bbf3d657854427343f4c083240f7aacaa2d0f628585604051610917929190611169565b60405180910390a45050505050565b7fc8fcad8db84d3cc18b4c41d551ea0ee66dd599cde068d998e57d5e09332c131c90565b6000333014156109a157600080368080601f0160208091040260200160405190810160405280939291908181526020018383808284376000920191909152505050503601516001600160a01b031691506109a49050565b50335b90565b80356001600160a01b038116811461029a57600080fd5b60008083601f8401126109cf578182fd5b50813567ffffffffffffffff8111156109e6578182fd5b6020830191508360208083028501011115610a0057600080fd5b9250929050565b60008083601f840112610a18578182fd5b50813567ffffffffffffffff811115610a2f578182fd5b602083019150836020828501011115610a0057600080fd5b60008060408385031215610a59578182fd5b610a62836109a7565b9150610a70602084016109a7565b90509250929050565b60008060008060008060008060a0898b031215610a94578384fd5b610a9d896109a7565b9750610aab60208a016109a7565b9650604089013567ffffffffffffffff80821115610ac7578586fd5b610ad38c838d016109be565b909850965060608b0135915080821115610aeb578586fd5b610af78c838d016109be565b909650945060808b0135915080821115610b0f578384fd5b50610b1c8b828c01610a07565b999c989b5096995094979396929594505050565b60008060008060008060a08789031215610b48578182fd5b610b51876109a7565b9550610b5f602088016109a7565b94506040870135935060608701359250608087013567ffffffffffffffff811115610b88578283fd5b610b9489828a01610a07565b979a9699509497509295939492505050565b60008060408385031215610bb8578182fd5b610bc1836109a7565b91506020830135610bd18161123d565b809150509250929050565b60008060408385031215610bee578182fd5b610bf7836109a7565b946020939093013593505050565b60008060008060408587031215610c1a578384fd5b843567ffffffffffffffff80821115610c31578586fd5b610c3d888389016109be565b90965094506020870135915080821115610c55578384fd5b50610c62878288016109be565b95989497509550505050565b60006020808385031215610c80578182fd5b825167ffffffffffffffff80821115610c97578384fd5b818501915085601f830112610caa578384fd5b815181811115610cbc57610cbc611227565b8381029150610ccc848301611177565b8181528481019084860184860187018a1015610ce6578788fd5b8795505b83861015610d08578051835260019590950194918601918601610cea565b5098975050505050505050565b600060208284031215610d26578081fd5b81516102078161123d565b600060208284031215610d42578081fd5b813567ffffffffffffffff811115610d58578182fd5b8201601f81018413610d68578182fd5b8035610d7b610d76826111a8565b611177565b818152856020838501011115610d8f578384fd5b81602084016020830137908101602001929092525092915050565b600060208284031215610dbb578081fd5b815167ffffffffffffffff811115610dd1578182fd5b8201601f81018413610de1578182fd5b8051610def610d76826111a8565b818152856020838501011115610e03578384fd5b6103bc8260208301602086016111d0565b600060208284031215610e25578081fd5b5035919050565b600060208284031215610e3d578081fd5b5051919050565b81835260006001600160fb1b03831115610e5c578081fd5b6020830280836020870137939093016020019283525090919050565b60008284528282602086013780602084860101526020601f19601f85011685010190509392505050565b60008351610eb48184602088016111d0565b835190830190610ec88183602088016111d0565b01949350505050565b60008251610ee38184602087016111d0565b600360fc1b920191825250600101919050565b6001600160a01b0392831681529116602082015260400190565b6001600160a01b038a8116825289811660208301528816604082015260c060608201819052600090610f45908301888a610e44565b8281036080840152610f58818789610e44565b905082810360a0840152610f6d818587610e78565b9c9b505050505050505050505050565b6001600160a01b038881168252878116602083015286166040820152606081018590526080810184905260c060a08201819052600090610fc09083018486610e78565b9998505050505050505050565b6001600160a01b0393841681529115156020830152909116604082015260600190565b6001600160a01b03929092168252602082015260400190565b6040808252810184905260008560608301825b8781101561104a576001600160a01b03611035846109a7565b1682526020928301929091019060010161101c565b50838103602085015261105e818688610e44565b98975050505050505050565b60006040825261107e604083018688610e44565b8281036020840152611091818587610e44565b979650505050505050565b6020808252825182820181905260009190848201906040850190845b818110156110d4578351835292840192918401916001016110b8565b50909695505050505050565b901515815260200190565b600060208252825180602084015261110a8160408501602087016111d0565b601f01601f19169190910160400192915050565b60208082526022908201527f4c69624469616d6f6e643a204d75737420626520636f6e7472616374206f776e60408201526132b960f11b606082015260800190565b90815260200190565b918252602082015260400190565b604051601f8201601f1916810167ffffffffffffffff811182821017156111a0576111a0611227565b604052919050565b600067ffffffffffffffff8211156111c2576111c2611227565b50601f01601f191660200190565b60005b838110156111eb5781810151838201526020016111d3565b838111156111fa576000848401525b50505050565b600060001982141561122057634e487b7160e01b81526011600452602481fd5b5060010190565b634e487b7160e01b600052604160045260246000fd5b801515811461124b57600080fd5b5056fea2646970667358221220d8eab1259885a4a749f1070a55ab7a949a298df71b78cca86b99c44fa5088fda64736f6c63430008010033",
  "linkReferences": {},
  "deployedLinkReferences": {}
}